:020000040800F2
:1000000008F3002001020008090200080B020008A2
:100010000D0200080F020008110200080000000095
:1000200000000000000000000000000013020008B3
:100030001502000800000000170200086906000809
:100040001B0200081B0200081B0200081B0200081C
:100050001B0200081B020008B70800089B090008E3
:100060001B0200081B0200081B0200081B020008FC
:100070001B0200081B0200081B0200081B020008EC
:100080001B0200081B0200081B0200081B020008DC
:100090009FEE01081B0200081B0200081B0200085B
:1000A0001B0200081B0200081B0200081B020008BC
:1000B0001B0200081B0200081B0200081B020008AC
:1000C0001B0200081B0200081B0200081B0200089C
:1000D0001B020008831E00088B21000893450008BE
:1000E000C58800081B020008A7EE010800F002F80E
:1000F00000F06EF80AA090E8000C82448344AAF154
:100100000107DA4501D100F063F8AFF2090EBAE851
:100110000F0013F0010F18BFFB1A43F0010318473B
:10012000F4000300140103000A444FF0000C10F81F
:10013000013B13F0070408BF10F8014B1D1108BF65
:1001400010F8015B641E05D010F8016B641E01F805
:10015000016BF9D113F0080F1EBF10F8014BAD1C55
:100160000C1B09D16D1E58BF01F801CBFAD505E073
:1001700014F8016B01F8016B6D1EF9D59142D6D3CD
:10018000704700000023002400250026103A28BFF5
:1001900078C1FBD8520728BF30C148BF0B607047F9
:1001A000662921F08687642920F0DC8200207047D0
:1001B0001FB59DE8030020F04DFD21F009F8040073
:1001C0000020002121F076FDE0601FBD10B510BDBC
:1001D00021F018F91146FFF7EBFF00F036F921F096
:1001E00036F903B4FFF7F2FF03BC21F067F9000012
:1001F000EFF3108072B6704780F3108870470000EC
:100200000948804709480047FEE7FEE7FEE7FEE7AA
:10021000FEE7FEE7FEE7FEE7FEE7FEE704480549E6
:10022000054A064B704700001F030008ED00000858
:1002300008DF002008F3002008EF002008EF00206E
:100240000CB50020019000906D48006840F48030AB
:100250006B49086000BF6A48006800F400300090F5
:100260000198401C0190009818B90198B0F5A06F52
:10027000F1D16348006800F4003010B10120009013
:1002800001E0002000900098012843D15D480068FB
:1002900040F010005B4908600846006820F0030049
:1002A00008600846006840F0020008605448406852
:1002B000534948600846406848600846406840F432
:1002C000806048600846406820F47C10486008461A
:1002D000406840F4E81048600846006840F08070CC
:1002E000086000BF4648006800F000700028F9D0A0
:1002F0004348406820F00300414948600846406890
:1003000040F00200486000BF3D48406800F00C002B
:100310000828F9D10CBD10B5FFF792FF10BD10B53C
:100320003748006840F001003549086008464068D9
:10033000354908403249486008460068334908405A
:100340002F4908600846006820F4802008600846AD
:10035000406820F4FE0048604FF41F008860FFF7FB
:10036000DAFF4FF000602A4908602A48091D08603A
:1003700010BD10B5002100200022214B5B6803F066
:100380000C0121B1042906D0082928D107E0224B0D
:10039000224C236027E0204B204C236023E0184BA5
:1003A0005B6803F47010164B5B6803F48032022321
:1003B00003EB904022B91A4B4343184C23600DE0E5
:1003C0000F4B5B6803F4003323B1154B4343134CCD
:1003D000236003E0104B4343104C236003E00E4BBB
:1003E0000E4C236000BF00BF054B5B68C3F30313D3
:1003F0000C4CE15C094B1B68CB40084C236010BDE2
:1004000000100240002002400000FFF8FFFFF6FE4F
:1004100008ED00E00003FA0500127A000000002059
:1004200000093D000400002010B545F255500BF0C6
:100430009DFF03200BF09DFF4FF49C700BF09CFF81
:100440000BF09DFF0BF0A0FF10BD1CB54FF0000896
:10045000C146C2466E48019001F06AFC02F043FEBC
:1004600000F012F900F01BF900F05BFF01F08AFBCD
:1004700000F0A7FA04F04FFE01F018FD01F09AFE1B
:1004800004F09CF804F00FF800F00FF904F038FCC9
:1004900009F06FFC08F043FB08F01BF90122002172
:1004A000084601F0A7FB05F0FCFA0AF0CFFB04F0C8
:1004B00095F904F06FFB40F6B83000F0BAF803F09D
:1004C0004EFE07F0B4FFA2E052480168484600F033
:1004D000A7F838B14F48D0F8009004F083FB08B972
:1004E00005F039FB04F0B9FB4A480168404600F0CA
:1004F00097F8642802D94748D0F80080002001F01E
:10050000EBFC0446002001F06BFE0090002004F09C
:100510006BF80546002004F075FC064601F02BFC44
:10052000074617B1384602F096FE0CB33A4920460A
:1005300002F075FC18B9204601F070FD18E04FF08C
:10054000000B3549204603F0A4FC217A0022D4E9AF
:10055000000304F002F98346BBF1000F04D0207AB7
:1005600010B1206820F0C3F8204601F081FD00BFE3
:100570007DB30021284602F052FC88B92548016865
:10058000019800F04DF842F21071884201D903F051
:10059000B0FC204800680190284604F0C6F818E036
:1005A0004FF0000B0021284603F073FC297A00224B
:1005B000D5E9000301F03FFD8346BBF1000F04D0F5
:1005C000287A10B1286820F092F8284604F0BAF88A
:1005D00000BF1EB10021304603F05BFC009801F023
:1005E000AAFE384601F0CDFB304604F0CFFC0948A6
:1005F0000168504600F014F841F28831884204D373
:100600000448D0F800A003F059FC03F0ADFD5BE70F
:10061000E0B1FFFF140000200427020800BFFEE73E
:100620000246914201D3881A7047C2F1FF30084454
:10063000FAE710B503461348046800BF1148016883
:100640002046FFF7EDFF9842F8D310BD002105E0EA
:10065000002200E0521C0A2AFCD3491C8142F7D335
:10066000704770477047704710B506480068401CD7
:100670000449086005F06AFA01F019FB00F00DFA70
:1006800010BD00001400002010B5012108070CF077
:100690006EF8012140F2FD100CF05CF810BD10B5B1
:1006A000012129480BF0E5FD10BD30B52748006851
:1006B0004FF47A72B0FBF2F1B1F1807F00D31DE00C
:1006C00021F07F40401E4FF0E022506150170F2272
:1006D000002807DA13071D0E1D4B00F00F04241F1E
:1006E0001D5503E013071C0E1A4B1C5400BF0020BD
:1006F0004FF0E02290610720106100BF30BD3EB591
:10070000124800681449B0FBF1F0401E84B2012188
:1007100008460CF02CF868460CF006FE4FF6FF7009
:10072000ADF80400ADF800400020ADF80600ADF8CB
:10073000020069464FF080400CF0CAFA0121880798
:100740000CF022FE3EBD0000000230000000002040
:1007500018ED00E000E400E040420F001FB5042067
:100760008DF80F0002208DF80E000120ADF80C006E
:1007700003A9F7480BF0ACFC4FF40050ADF80C00A7
:1007800003A9F3480BF0A4FC00208DF8080010200A
:100790008DF8090001208DF80A00002102200BF0DD
:1007A000ADFD0120019001A80AF0CEFD01208DF8D9
:1007B000010000208DF8020001208DF803000620C2
:1007C0008DF8000068460AF01EFC0220ADF80C000F
:1007D00003A9DF480BF07CFC4FF48040ADF80C001F
:1007E00003A9DB480BF074FC012102200BF086FD0D
:1007F0000220019001A80AF0A7FD07208DF8000053
:1008000068460AF000FC1FBD28B1D249C988491CBE
:10081000D04AD18004E0CF49C988491ECD4AD18051
:10082000CC494880C9883F2907DD18B10021C94A51
:10083000D18002E03F21C74AD18070472DE9F041C5
:10084000C348806886B2C248806887B207F0010753
:1008500006F4005627B90EB9012405E0002403E090
:100860000EB9002400E0012484F001042046FFF7C3
:10087000CBFFB848C568B8480068B649C860B648F4
:1008800001682846FFF7CCFE0546FA2D03D9012062
:10089000B04988800DE02DB14FF4FA70B0FBF5F04F
:1008A000AC498880AB488088502802DD5020A94997
:1008B0008880BDE8F08110B501200AF0ABFD68B179
:1008C0000024FFF795FC04460120A4490870204647
:1008D000FFF792FC01200AF0AEFD00BF10BD30B161
:1008E0009C49C98A491C8AB29A49CA8205E0994939
:1008F000C98A491E8AB29749CA8296494882C98ADA
:100900003F2907DD18B100229249CA8202E03F2246
:100910009049CA8270472DE9F041002000E0401C58
:100920007828FCDB8A48806886B28948806887B26C
:1009300007F0020706F4804627B90EB9012405E046
:10094000002403E00EB9002400E0012484F0010437
:100950002046FFF7C4FF7F48C5697F4801687D488E
:10096000C1617D4801682846FFF75AFE0546FA2D09
:1009700003D90121774881820DE02DB14FF4FA703F
:10098000B0FBF5F1734881827248808A502802DDFD
:10099000502170488182BDE8F08110B502200AF034
:1009A00039FD68B10024FFF723FC044601206B49A0
:1009B00048702046FFF720FC02200AF03CFD00BFF3
:1009C00010BD10B5FFF7CAFE00240DE0614901EB30
:1009D00004110C8000205F4901EB0411C8805D49BF
:1009E00001EB04110881641C022CEFD310BD0146F9
:1009F000C8880A89904203D0C888088101207047BE
:100A00000020FCE770B504460026022C02DD4FF6FC
:100A1000FF7070BD4F4800EB0410C088401C85B2C9
:100A2000FFF7E6FB06464E4830F81400A84200DA0D
:100A30000025484800EB04100581464800EB0410EF
:100A4000C5803046FFF7D8FB2846E2E7014641481B
:100A500000EB01100089704770B504460D46002672
:100A6000022C02DD4FF6FF7070BD3D4830F81400D7
:100A7000A84202DA3A4830F81450FFF7B9FB0646AC
:100A8000344800EB04100581324800EB0410C580A7
:100A90003046FFF7B1FB2846E6E770B58AB0002084
:100AA00009900026FFF7A4FB064600241BE02B4814
:100AB000005D20B12948005D401C284908552748A1
:100AC000005D032803D1012009A9085509E0234846
:100AD000005D1C2805D1002020490855022009A9E5
:100AE0000855601CC4B2022CE1DB3046FFF784FBE2
:100AF0009DF82400012802D1FFF7A0FE17E09DF821
:100B00002400022813D11349498809B1012100E0CA
:100B100000210846FFF778FE0E48C0884FF6FE71A8
:100B200008400C49C8800846C088401E08819DF8CE
:100B30002500012802D1FFF7EEFE24E09DF82500F4
:100B4000022820D10349498A61B101210BE000004C
:100B5000001001402C050020140000201800002087
:100B6000B620020800210846FFF7B9FE1548C08AE2
:100B70004FF6FE7108401349C8820846C08A401EDD
:100B800081B210480183002518E00E4901EB0510E1
:100B9000FFF72DFF88B104208DF80000094800EB15
:100BA0000513D3E90012D3E90203CDE90403CDE92B
:100BB0000212684601F0ECF800BF6D1C022DE4D370
:100BC0000AB070BD2C05002010B50346002004E0DB
:100BD000141A641E0C5D1C54401C9042F8D310BDC6
:100BE00030B502460B464FF0FF3002B103B930BDBD
:100BF000002108E0C4B2555C6C40734D55F82440A8
:100C000084EA1020491C9942F4D3C04300BFEEE7A8
:100C100070B502460C46FF25FF2312B94FF6FF7050
:100C200070BD09E012F8010B80EA03016748405CDF
:100C300080EA05036648455C201EA4F10106B4B2B3
:100C4000F0D143EA0520EBE72DE9F04F03460C46CF
:100C5000944600221D680026DFF87891012C57DDAC
:100C6000601E53F82020342090FBF4F000F10608B9
:100C700046E04E44C6F3810700211FE0481C53F8AC
:100C80002050500980EA85004FEAD50A8AEA021A04
:100C9000504486EA050A01F0030B8BEA070B5CF867
:100CA0002BB08BEA020BDA4480EA0A0053F821A049
:100CB000504443F8210053F82120491C601E88420B
:100CC000DCDC1D68500980EA85004FEAD50A8AEA13
:100CD000021A824486EA050001F0030B8BEA070B37
:100CE0005CF82BB08BEA020B58448AEA000A601EBB
:100CF00053F820008244601E43F820A053F82020BF
:100D0000B8F10000A8F10108B3DC0020BDE8F08FC5
:100D1000B4F1FF3F56DA6442601E53F820203420BD
:100D200090FBF4F000F1060808FB09F646E0C6F374
:100D30008107611E20E0481E53F82020500980EAF8
:100D400085004FEAD50A8AEA021A504486EA050A63
:100D500001F0030B8BEA070B5CF82BB08BEA020B5C
:100D6000DA4480EA0A0053F821A0AAEB000043F815
:100D7000210053F82150491E0029DCDC601E53F885
:100D80002020500980EA85004FEAD50A8AEA021A33
:100D9000504486EA050A01F0030B8BEA070B5CF866
:100DA0002BB08BEA020BDA4480EA0A00D3F800A0E9
:100DB000AAEB000018601D68A6EB0906002EB6D14C
:100DC0000020A3E70120A1E7CC200208CC240208E0
:100DD000CC250208B979379E2DE9F0410646042753
:100DE0000AF051FB0AF0BBFD04466EB1E04340F04F
:100DF000C005C020A043C02815D00AF00EFC28462C
:100E00000AF0CBFC00F0B3FA44F0C000C54364F034
:100E1000C000401C38B10AF000FC15B128460AF0A9
:100E2000BCFC00F0A4FA0AF03AFBBDE8F0812DE921
:100E3000F74F044690460426DDF804B028F003007E
:100E4000404502D0701FBDE8FE8FE40AE40204EBC7
:100E500008090AF018FB08F2FF704FEAD02A352083
:100E60000AF0ACFD002707E04FF4006101FB0740EA
:100E70000AF04EFB06467F1C574501D2042EF3D0E4
:100E8000042E00D026E02546002708E038467F1CC7
:100E90005BF8201028460AF00BFC06462D1D4D4538
:100EA00001D2042EF2D0042E00D013E025460426F1
:100EB000002708E02A6838467F1C5BF82000824241
:100EC00000D002262D1D4D4501D2042EF2D10AF08C
:100ED000DAFA00BF042E02D04FF0FF30B3E7002053
:100EE000B1E770B5044634B10C252A46FA492046CC
:100EF0001FF0CDFD00BF70BD2DE9F0410746002673
:100F0000F64D002415E055F82400401C78B9601C0B
:100F100055F82000401C50B9A01C55F82000401C7A
:100F200028B9E01C55F82000401C00B903E0361D2C
:100F3000641CBE42E7D300BF3146E848FFF750FECD
:100F4000BDE8F0812DE9FF4104460D4616461F46D7
:100F500004B125B94FF0FF3004B0BDE8F08195E849
:100F600007008DE8070003964FB19DE80F0084E865
:100F70000F006A4604212046FFF766FE06E0D848C7
:100F800020606A4601212046FFF75EFE0020E3E76D
:100F90002DE9F0438BB006460F46154626B94FF0B3
:100FA000FF300BB0BDE8F0834FF00409E84696E847
:100FB0000F0001AC0FC417B1CA48009009E0C8483F
:100FC00000900020CDE9065001AA022106A8FFF7F3
:100FD0003BFE00200890002405E058F824100898F3
:100FE00048400890641C082CF7D30AF04CFA3420CF
:100FF0000AF0E4FCBC480AF08BFA8146E84600247B
:1010000010E058F82410B84A02EB84000AF050FBB4
:101010008146B9F1040F04D00AF041FA4FF0FF30D5
:10102000BFE7641C0A2CECD30AF039FA0020B8E7B9
:101030002DE9F04387B005468846AB4CAB480068C5
:10104000401CB0B9AA48FFF74CFF4FF0FF30FFF744
:1010500053FFA649086000230846A5490268A54831
:10106000FFF770FF0123A148A1490268A248FFF7DA
:1010700069FFA248007800287CD1994920688842FD
:1010800003D098492068884267D1DFF85C92002736
:10109000002603E059F826004740761C082EF9D3B5
:1010A000206AB84258D18E492068884238D1914888
:1010B00000686168884224D1D4E90601CDE90401C1
:1010C000221D6FF0010104A8FFF7BEFD0020DDE93D
:1010D0000421D2F10302884103D204208749087019
:1010E0000EE0844B0FCB8DE80F0004994A1C4FF0A3
:1010F00000016846FFF74CFF01208049087000BFDF
:101100002AE07C4B0FCBCDE90423CDE90201042278
:10111000002102A8FFF73CFF0420784908701BE07B
:101120001022211D74481FF0F2FB18B903207349E7
:10113000087011E06F4BD3E901211868DB68CDE935
:101140000413CDE902020422002102A8FFF720FFC8
:1011500004206A49087000BF0CE0664B0FCB02AE5A
:101160000FC60022114602A8FFF712FF01206349B3
:10117000087000BF61480078012831D160480168DB
:1011800060480068FFF74CFA44F62061884227D98E
:10119000D4E90601CDE90401201D0FC88DE80F0038
:1011A0005748006857490860221D6FF0010104A8E4
:1011B000FFF74AFD0498421C4FF000016846FFF714
:1011C000E7FE0020DDE90421D2F10302884102D2CA
:1011D00004204A49087015B141460220A84700BFC3
:1011E00046480078042821D11022211D42481FF0D2
:1011F0008EFB28B903204149087007B0BDE8F08391
:1012000015B141460420A8473D4801683D480068A3
:10121000FFF706FA44F62061884207D9384800688B
:101220003849086015B141460520A84700BFE4E7EA
:1012300070B5044604250AF026F900BF34200AF0F0
:10124000BDFB0AF0EAF90546042D00D006E0214670
:1012500021481C300AF07DFA054600BF00BF0AF0A5
:101260001EF9042D01D1002070BD4FF0FF30FBE7C7
:1012700019481C30007870472DE9F0414FF0040800
:101280000025214E214F4AF2A55031460880002406
:1012900004E036F81400284485B2641C092CF8D305
:1012A000194845820AF0EFF834200AF087FB174806
:1012B0000AF02EF9804600242CE036F81410384647
:1012C0000AF029FA8046B8F1040F21D00AF0E7F8B5
:1012D0000020BDE8F0810000E8F7FF1F00300008A3
:1012E00067452301EFCDAB8900900708240000205B
:1012F000600500207C0500206C0500201C000020FB
:1013000014000020200000204C0500200098070851
:10131000BF1C641C0A2CD0D30AF0C1F80120BDE820
:10132000F08170B50025184E1422184930461FF080
:1013300069FB304600884AF2A551884200D00EE091
:10134000002404E036F81400284485B2641C092CFB
:10135000F8D30D48408AA84200D170BD00BF0A48AA
:10136000801C02F0A0FEFFF787FF00BFF5E70848EA
:10137000006800F4E06007490843001D0449086064
:10138000BFF34F8F00BFFEE74C0500200098070811
:101390000CED00E00000FA052DE9F04707460C4689
:1013A000164698464FF0000917B10CB1002E03DA2B
:1013B0004FF0FF30BDE8F087FEF71AFF814606EBDD
:1013C0004600C10020461FF0BEFB142138461FF026
:1013D000BAFB002510E005EB450004EBC000A0F8C7
:1013E0000C8005EB450004EBC000183005EB45010F
:1013F00004EBC10108616D1C701EA842EBDC0020EB
:1014000005EB450104EBC10108617E603C60484684
:10141000FEF7F2FE0020CDE770B504460026002559
:101420000CB9002070BDFEF7E3FE0646206828B127
:101430002568286920600020686128613046FEF731
:10144000DBFE2846EEE72DE9F04106460C4617463E
:1014500006B11CB94FF0FF30BDE8F0814FF0000835
:1014600017B106F10C0001E006F110000546FEF789
:10147000BFFE8046286818B92C606461246109E0C9
:1014800028682061286840690461286840696061B3
:10149000286844614046FEF7AFFE0020DCE72DE9F6
:1014A000F04105460F464FF00008002615B9002010
:1014B000BDE8F08117B105F10C0001E005F1100065
:1014C0000446FEF795FE8046206808B9002618E01D
:1014D0002668206800692168884202D100202060C7
:1014E0000CE020684069216809694861206800694A
:1014F00021684969086120680069206000207061E6
:1015000030614046FEF778FE3046D1E770B50446BC
:101510000D4604B115B94FF0FF3070BD0026FEF73F
:1015200067FE06462068286125603046FEF764FEA7
:101530000020F2E72DE9F04104460D46164600274B
:1015400004B11DB94FF0FF30BDE8F081FEF750FE49
:101550000746182120461FF0F6FA25607008A060A3
:10156000A068284460603846FEF746FE0020EBE79E
:101570002DE9F04704460F4615464FF00008C146D6
:1015800004B11FB94FF0FF30BDE8F087FEF730FE21
:1015900080466169A068461AB54202D94FF0FF390A
:1015A00029E0E0682844A16888420FD9D4E9020103
:1015B000461AE26821688818324639461FF022FA36
:1015C000AA1BB91920681FF01DFA06E0E26821681D
:1015D00088182A4639461FF015FAE0682844E0606A
:1015E000D4E90210B0FBF1F201FB1200E060606987
:1015F0002844606100BF4046FEF7FEFD4846C3E751
:101600002DE9F04104460D46002714B90020BDE83D
:10161000F081606908B90020F9E7FEF7E9FD0746A7
:10162000D4E904010844A168884211D92169A0685D
:10163000461A23692268D118324660681FF0E2F921
:1016400063699A1BD4E9001398191FF0DBF906E0CF
:10165000266923689919626960681FF0D3F9D4E993
:10166000040108442061A1682069B0FBF1F201FB8C
:10167000120020610DB16069286000206061384669
:10168000FEF7BAFD6068C2E7F0B5024692F828405E
:1016900004F0070600210DE0FA4C605CFA4C54F8A7
:1016A000204034B1F94C34F81040F74D55F8205033
:1016B0002C61491C0429EFD3002342E0F14FF85C70
:1016C000F14F57F8207047B1F04F37F81070DFF83E
:1016D000B8C35CF820C0CCF81470002100E0491CAD
:1016E0002829FCD300BF00BF00BF0024002113E065
:1016F000E74F57F82170BF68DFF898C33CF811C076
:1017000007EA0C050DB1012700E000273D4605FA68
:1017100001F72743BCB2491C0329E9D3DA4F57F834
:10172000207047B1D94F37F81070DFF85CC35CF810
:1017300020C0CCF8107002F1080707EB8607FC54B4
:101740005B1C042BBAD3946A641C9462F0BDF0B5A0
:1017500003460C46FF260025002114E000220BE082
:1017600003EB8100875C481C03EB8000805C8742B0
:1017700001D06D1C02E0521C042AF1DB00BF042AD8
:1017800000D10E46491C0729E8DB052D01DD0020AC
:10179000F0BD082E01DB0020FAE703EB86000068AD
:1017A00020600120F4E770B502460D46002366E094
:1017B000581CC4B25FE002EB8300407800F0F000F8
:1017C00002EB8406767806F0F006B04251D1002193
:1017D0000FE002EB8300407800F00F0002EB81067F
:1017E000767806F00F06B04201D1012070BD481C8A
:1017F000C1B29942EDDB581CC1B20FE002EB83008D
:10180000407800F00F0002EB8106767806F00F06B4
:10181000B04201D10120E9E7481CC1B2A942EDDB89
:1018200000210FE002EB8400407800F00F0002EB93
:101830008106767806F00F06B04201D10120D5E787
:10184000481CC1B2A142EDDB601CC1B20FE002EB4B
:101850008400407800F00F0002EB8106767806F0F5
:101860000F06B04201D10120C0E7481CC1B2A94215
:10187000EDDB601CC4B2AC429DDB581CC3B2681ED9
:10188000984295DC0020B1E72DE9F05F074697F814
:10189000280000F0070007287ED1394607F108002C
:1018A000FFF755FF8346BBF1000F02D10020BDE8D2
:1018B000F09FB94607F1040A07F12C08002400251F
:1018C0005FE00020002119F805201AF8053082EAAF
:1018D000030019F805201AF8053002EA030160B385
:1018E000002628E00122B24002401AB3082C00DB97
:1018F0004AE0F02202EA051206F00F031A4308EB51
:1019000084035A7005EB4502634B1A44925D08F854
:10191000242019F805200123B3401A4022B10222E5
:1019200008EB84039A7003E0012208EB84039A70A9
:10193000621CD4B2761C032ED4DB09B300261DE052
:101940000122B2400A40C2B1082C00DB1CE0F022A8
:1019500002EA051206F00F031A4308EB84035A70DB
:1019600005EB45024C4B1A44925D08F82420EE2208
:1019700008EB84039A70621CD4B2761C032EDFDB62
:101980006D1C042D9DDB00BFD9F80000CAF80000D3
:10199000042C09DB214600E008E007F12C00FFF7EA
:1019A00002FF08B1002082E7204680E700207EE7A2
:1019B00038B503208DF8020010208DF803000024B4
:1019C00012E0344830F81400ADF80000304951F806
:1019D000240069460AF07CFB2E4830F814002C499C
:1019E00051F824104861641C032CEAD300BF28205E
:1019F0008DF8030000240BE0264830F81400ADF801
:101A00000000234951F8240069460AF061FB641C78
:101A1000032CF1D300BF38BD38B503208DF8020088
:101A200010208DF8030000240BE01C4830F814004F
:101A3000ADF800001A4951F8240069460AF048FB45
:101A4000641C002CF1D038BD38B503208DF802009D
:101A500010208DF8030000240FE00C4830F814002B
:101A6000ADF80000084850F8240028B1064951F8A4
:101A7000240069460AF02CFB641C042CEDD30024DE
:101A800020E00000FE260208E0260208F0260208F8
:101A9000CC260208D826020839000020FC260208BD
:101AA000F8260208964830F81400ADF80000954872
:101AB00050F8240028B1934951F8240069460AF0EF
:101AC00007FB641C002CEDD038BD002007E08E49D8
:101AD00031F810108D4A52F820201161401C002866
:101AE000F5D0704700200BE0864951F8201031B145
:101AF000834931F81010834A52F820201161401CAC
:101B00000028F1D0704700200BE07E4951F82010EA
:101B100031B17B4931F810107A4A52F82020116116
:101B2000401C0428F1D3704710B5FFF7ECFFFFF716
:101B3000D9FF10BD2DE9F04106460024375DFFF7BF
:101B4000C4FFFFF7CFFF00250BE00120A84038407D
:101B500030B16D4830F815006C4951F825104861D6
:101B60006D1C002DF1D0674850F8240030B1644856
:101B700030F81400634951F824104861601C70600B
:101B8000BDE8F08110B5FFF713FFFFF745FFFFF742
:101B90005BFFFFF7C9FF4C215D481EF0D4FF5D4895
:101BA0000021016041605C4801705C4801705C4844
:101BB000017010BD30B5034600230021554C60185C
:101BC0002AB1047801259D402C43047004E0057877
:101BD00001249C40A543057030BD0246002200212F
:101BE0004C48435C01209040184008B101207047E8
:101BF0000020FCE730B5034600230021464C601866
:101C00002AB1047801259D402C43047004E0057836
:101C100001249C40A543057030BD10B541480168C2
:101C200041480068FEF7FCFCB0F5FA7F1ED90021A0
:101C30000FE0384B5818384B5A5C4AB13B4B1B7875
:101C40001BB103781343037002E0037893430370DE
:101C5000491C0029EDD0334B1B68334C2360334BB8
:101C60001B7883F00103314C237000BF10BD70B5A9
:101C70000446002504B1FF252748002101702A46AB
:101C8000012124481EF035FF70BD254822490978FE
:101C9000017022481F490978017070471E48204989
:101CA000097801701B481D4909780170704710B50B
:101CB0008AB01C48007800F00100D0B90024FFF77A
:101CC00004FF1348FFF7E0FC1148FFF7DDFD044671
:101CD000002C0DDD019401208DF80000A2000C49BC
:101CE0002C3102A81EF0D3FE684600F051F800BF68
:101CF00000BFFFF792FF0748FFF71CFF0AB010BDB7
:101D0000F0260208E0260208FC260208F82602084F
:101D10008C05002028000020300000203100002029
:101D20003200002014000020340000203800002081
:101D300010B50623082224492448FFF72DFB002470
:101D400016E0002004EB44011F4A02EBC1010872B7
:101D500004EB84001E4901EBC00004EB440142F88F
:101D60003100282004EB440102EBC1014860641CEF
:101D7000082CE6D310BD10B501211448FFF78FFBE6
:101D800010BD10B5044621461048FFF7BFFB10BD3B
:101D900070B50446002504B970BD0C48FFF73CFB44
:101DA000054675B12822214628681EF02BFE012227
:101DB00029460648FFF747FB18B129460348FFF7B5
:101DC000A5FB00BFE8E7000018070020D8070020A7
:101DD000D805002000B587B0012188030AF0BAFCBD
:101DE00003A80BF05BFE4FF4E130039003A9AD486C
:101DF0000BF0EBFD0121AB480BF073FE4FF40070CC
:101E0000ADF8080003208DF80A0018208DF80B00AB
:101E100002A9A5480AF05CF94FF48060ADF808000B
:101E200004208DF80B0002A99F480AF051F92520E3
:101E30008DF8040004208DF8050000208DF80600C0
:101E400001208DF8070001A809F0DDF8012240F219
:101E5000255194480BF051FE012108460AF06DFC13
:101E600043F29000914948648E48001DC8640020E8
:101E700088640865012280218A480BF063FE07B060
:101E800000BD38B58748048804F0200010B904F07C
:101E9000080050B18348001D0088C0B200900122A4
:101EA00069468348FFF764FB00BF38BD10B50023C7
:101EB000202280498048FFF76FFA4FF440727F4933
:101EC0007B48FFF737FB4FF480627D497D4800F087
:101ED0008BFAFFF77FFF10BDF0B585B0054600BF58
:101EE00000270020049004A97148FFF789FB0746EA
:101EF00007B92CE028E0002600200390029000247F
:101F000002A903ABCDE9001039466E48049A00F0EF
:101F10007DFA064606B918E06748FFF77DFA0446E1
:101F20001CB930461EF0E3FB0FE0266003986060AA
:101F3000012020720298A072012221465E48FFF71C
:101F400082FA0020049000BFD5E700BF00BF00BFA9
:101F500000BF00245C480078E8B15448006800F4F1
:101F6000005010B905B149E049E04E48008800F042
:101F7000400010B905B141E041E04FF480504B49B9
:101F800048605248007A18B1504908681EF0AFFB0B
:101F900000204D49087000214748FFF780FA0446A9
:101FA0005CB36068002801DD206848B9207A20B160
:101FB000206810B120681EF09AFB05B11EE01EE0FB
:101FC0003A48406C20F001003849486460688864F1
:101FD000206808650846406C40F001004864012014
:101FE000394908701822214638481EF050FD214614
:101FF0003148FFF78BFA05B100E000E0A9E700BF28
:1020000000BF002401212C48FFF749FA044614B10F
:10201000204605B0F0BD00BF0020FAE710B5044629
:1020200044B1207A10B120681EF061FB214622489D
:10203000FFF76CFA10BD2DE9F04105460E469046BB
:102040001F46002415B9601EBDE8F0811A48FFF74D
:10205000E3F9044614B94FF0FF30F5E725606760F7
:102060002672002221461448FFF7EDF90020EBE725
:1020700010B504461CB121460F48FFF747FA10BDC2
:102080004FF48060704710B5044604B910BD0020BD
:10209000A0810C206081214602480BF096FC00BF15
:1020A000F4E7000000380140000801400000024051
:1020B000000E0020EC070020EC0A0020000B00209E
:1020C000180E0020181200204500002030120020B9
:1020D00000B587B0012148040AF049FB03A80BF0C2
:1020E000DDFC4FF4E130039003A9B4480BF06DFC24
:1020F0000121B2480BF0F5FC0420ADF808000320E4
:102100008DF80A0018208DF80B0002A9AC4809F0E0
:10211000DFFF0820ADF8080004208DF80B0002A9AD
:10212000A74809F0D5FF26208DF8040004208DF87B
:10213000050000208DF8060001208DF8070001A899
:1021400008F061FF012240F225519C480BF0D5FCBC
:10215000012108460AF0F1FA43F29000994908601B
:102160009648001D97498039C1F88800002095499C
:10217000091D086093498039C1F88C000122802133
:102180008E480BF0DFFC07B000BD38B58B480488E3
:1021900004F0200010B904F0080050B18748001D79
:1021A0000088C0B20090012269468748FFF7E0F935
:1021B00000BF38BD10B50623202284498448FFF7AC
:1021C000EBF84FF4407283497F48FFF7B3F94FF4BF
:1021D00080628149814800F007F9FFF779FF10BD5F
:1021E000F0B585B0054600BF00270020049004A983
:1021F0007548FFF705FA074607B92CE028E00026E6
:10220000002003900290002402A903ABCDE9001046
:1022100039467248049A00F0F9F8064606B918E003
:102220006B48FFF7F9F804461CB930461EF05FFA18
:102230000FE0266003986060012020720298A0726F
:10224000012221466248FFF7FEF80020049000BFFB
:10225000D5E700BF00BF00BF00BF00246048007882
:10226000F8B158488038006800F0007010B905B126
:1022700051E051E05148008800F0400010B905B12C
:1022800049E049E04FF080704E4980394860554838
:10229000007A18B1534908681EF029FA0020504905
:1022A000087000214A48FFF7FAF804468CB36068CA
:1022B000002801DD206848B9207A20B1206810B1DB
:1022C00020681EF014FA05B125E025E03D480068BD
:1022D00020F001003B490860091D60680860394929
:1022E00080392068C1F88C000846D0F8800040F0A2
:1022F000010034490860012039490870182221463C
:1023000038481EF0C4FB21463148FFF7FFF805B1FD
:1023100001E0FFE700E0A0E700BF00BF00240121CB
:102320002B48FFF7BCF8044614B1204605B0F0BDB9
:1023300000BF0020FAE710B5044644B1207A10B17E
:1023400020681EF0D4F921462148FFF7DFF810BDC0
:1023500010B504461CB121461D48FFF7D7F810BD43
:102360004FF4806070472DE9F04105460E469046D7
:102370001F46002415B9601EBDE8F0811448FFF720
:102380004BF8044614B94FF0FF30F5E7256067605D
:102390002672002221460E48FFF755F80020EBE791
:1023A00010B5044604B910BD0020A0810C20608146
:1023B000214602480BF009FB00BFF4E7004400404F
:1023C00000080140800002405C18002048120020F4
:1023D000481500205C15002074180020741C002093
:1023E000460000208C1C002070B504460E461546A1
:1023F0000CB106B115B94FF0FF3070BD1821204661
:102400001EF0A1FB266065600020F6E72DE9FF4F76
:102410008DB0044691469A46DDF86880002700207A
:102420000C9014B1BAF1000F03D14FF0FF300C90B3
:1024300023E221696068401A484502D24FF0FF301C
:102440000C90B9F1000F2ED00E9818B94FF0FF3054
:102450000C90EDE7A06800EB09066068B04214D26A
:10246000D4E90101451AA268216888182A460E9904
:102470001EF0C8FAA9EB05020E9B591920681EF040
:10248000C1FAA9EB0500A06009E0A26821688818DC
:102490004A460E991EF0B6FAA0684844A06020692A
:1024A0004844206100BF00BF00200B900025BDE321
:1024B000E06828440A9061680A98B0FBF1F201FBD9
:1024C00012000A9021680A98085C09900998AA28C5
:1024D0007DD10026002008902069401B07900798B6
:1024E000072806DB606928B1A08AC0F30726207D93
:1024F000089085E0E26850192168821C6368B2FB8D
:10250000F3FC03FB1C228A5C042A78D1C21C63689A
:10251000B2FBF3FC03FB1C228A5C002A6FD1421D34
:102520006368B2FBF3FC03FB1C228E5C821D6368B4
:10253000B2FBF3FC03FB1C228A5C0892079A082A70
:102540005DDBD4F80CC0AC44CDF818C005F1070C25
:10255000D4F80CB00CEB0B034FF0000CCDF814C00A
:10256000069A10E0D4F804C0B2FBFCFB0CFB1B2C59
:10257000D4F800B01BF80CC0DDF814B08CEA0B0CDA
:10258000CDF814C0521C9A42ECD3D4F804C0B3FB6B
:10259000FCFB0CFB1B3CD4F800B01BF80CC0CDF8C6
:1025A00010C0DDE904CBE3451BD005F1010CD4F8E4
:1025B00010B0ABEB0C0CC4F810C005F1010CD4F852
:1025C0000CB0DC44C4F80CC0D4F80CC000E03FE10F
:1025D000D4F804B0BCFBFBFE0BFB1ECCC4F80CC053
:1025E00028E3F6B2DDF820C00CF0FF0CCDF820C0D7
:1025F000DDF820C00CEB062CC4F814C000BF00BFEF
:10260000F6B20898C0B20890089800EB0626083683
:102610006068B6EB500F11D9681C2169081A206157
:10262000681CE1680844E0606168E068B0FBF1F2B2
:1026300001FB1200E0600020606108E1079886421B
:1026400075DC082E75D100200690019601981EF0C9
:102650001FF807461FB94FF0FF300C9007E30597AE
:10266000E06828440390701E2844E1680844029002
:102670000398049015E061680498B0FBF1F201FB47
:102680001200216811F800B0069880EA0B0006904D
:10269000059880F800B00598401C05900498401CEF
:1026A0000490029904988842E5D361680298B0FBCF
:1026B000F1F201FB1200216811F800B006985845AC
:1026C0001FD101200B90059880F800B02169019876
:1026D0002844081A2061E068411901980844E06024
:1026E0006168E068B0FBF1F201FB1200E060019864
:1026F000CAF80000B8F1000F18D00120C8F8000097
:1027000014E038461DF0F3FF0027681C2169081A01
:102710002061681CE1680844E0606168E068B0FB23
:10272000F1F201FB1200E060002060618FE07FE0C9
:10273000FFE7059605981DF0ABFF07461FB94FF060
:10274000FF300C9093E2E06828446168B0FBF1F23E
:1027500001FB120B7019E16808446168B0FBF1F2EB
:1027600001FB120006900698584507D9206800EB37
:102770000B01324638461EF045F911E06068A0EBC7
:102780000B000290206800EB0B013846029A1EF005
:1027900039F9029BF21AF81821681EF033F900BFCC
:1027A00000206061A6F10A0081B207F10800FEF77F
:1027B0002FFA049000200390B819811E022203A86A
:1027C000FEF702FABDF80C10049881421CD10120DA
:1027D0000B90216905982844081A2061E068411986
:1027E00005980844E0606168E068B0FBF1F201FB25
:1027F0001200E0600598CAF80000B8F1000F16D08A
:102800000120C8F8000012E038461DF070FF0027D4
:10281000681C2169081A2061681CE1680844E060AE
:102820006168E068B0FBF1F201FB1200E0600EE0CD
:102830002069401B2061E0682844E0606168E0682E
:10284000B0FBF1F201FB1200E06001200B90F1E11E
:102850000998FA2870D12069A0EB050BBBF1070F8E
:102860006BDB002008900720039003981DF010FFF9
:1028700007461FB94FF0FF300C90F8E13E46E06884
:1028800028440590A81DE168084404900598069026
:102890000FE060680699B1FBF0F200FB12102168AE
:1028A000085C07909DF81C0006F8010B0698401C78
:1028B0000690049906988842EBD30220069009E01E
:1028C0000698385C9DF820100844C0B2089006981D
:1028D000401C069006980628F2D360680499B1FB64
:1028E000F0F200FB12102168085C07909DF82000B0
:1028F0009DF81C10884221D101200B909DF81C00EE
:102900003070206903992944401A2061E068284406
:1029100003990844E0606168E068B0FBF1F201FBF4
:102920001200E0600398CAF80000B8F1000F18D058
:102930000520C8F8000014E024E013E038461DF03C
:10294000D6FE0027681C2169081A2061681CE1680E
:102950000844E0606168E068B0FBF1F201FB12003E
:10296000E0600EE02069401B2061E0682844E060E0
:102970006168E068B0FBF1F201FB1200E060012049
:102980000B9057E1099800F0F000802879D1206978
:10299000401B08900898032874DBE06828440790DF
:1029A000D4E9031000EB010B002006900798861C69
:1029B0000DE06068B6FBF0F100FB11602168085C77
:1029C00006900698FF2801D1B34602E0761C5E45CA
:1029D000EFD300BF0698FF2855D10798ABEB000056
:1029E000401C102810D90027681C2169081A206192
:1029F000681CE1680844E0606168E068B0FBF1F2DF
:102A000001FB1200E06063E00798ABEB0000401CA4
:102A1000049004981DF03CFE07461FB94FF0FF30AC
:102A20000C9024E1059701200B90079E0CE0606854
:102A3000B6FBF0F100FB11612068415C0598017064
:102A40000598401C0590761C5E45F0D921690498D4
:102A50002844081A2061E068411904980844E0609D
:102A60006168E068B0FBF1F201FB1200E0600498DD
:102A7000CAF80000B8F1000F02D00420C8F8000026
:102A800026E036E025E00798ABEB0000102810D3D5
:102A90000027681C2169081A2061681CE168084445
:102AA000E0606168E068B0FBF1F201FB1200E060F9
:102AB0000EE02069401B2061E0682844E060616806
:102AC000E068B0FBF1F201FB1200E06001200B9026
:102AD0000EE02069401B2061E0682844E0606168E6
:102AE000E068B0FBF1F201FB1200E06001200B9006
:102AF000A0E00998A52871D12069A0EB050BBBF1D6
:102B00000B0F6CDB002008900B20039003981DF046
:102B1000BFFD07461FB94FF0FF300C90A7E03E46BF
:102B2000E0682844059005F10A00E1680844049033
:102B3000059806900FE060680699B1FBF0F200FB83
:102B400012112068405C07909DF81C0006F8010BEC
:102B50000698401C0690049906988842EBD3012001
:102B6000069009E00698385C9DF820100844C0B231
:102B700008900698401C069006980A28F2D36068D0
:102B80000499B1FBF0F200FB12102168085C079079
:102B90009DF820009DF81C10884221D101200B9047
:102BA0009DF81C003070206903992944401A206167
:102BB000E068284403990844E0606168E068B0FB7D
:102BC000F1F201FB1200E0600398CAF80000B8F1CE
:102BD000000F18D00620C8F8000014E024E013E02D
:102BE00038461DF084FD0027681C2169081A206101
:102BF000681CE1680844E0606168E068B0FBF1F2DD
:102C000001FB1200E0600EE02069401B2061E068DB
:102C10002844E0606168E068B0FBF1F201FB12005B
:102C2000E06001200B9005E000BF6D1C2069A84208
:102C30003FF63EAC00BF2069A8420FD10B9868B99F
:102C400000202061E0682844E0606168E068B0FB33
:102C5000F1F201FB1200E060002060610B9800B10E
:102C600003E0206900283FF71FAC00BF00BF1B989E
:102C700010B11B990C980860384611B0BDE8F08F70
:102C800010B501460B78FC4C24680CB1092200E019
:102C90000722012002E00C5C6340401C9042FADBFA
:102CA0000B5410BD2DE9FF4381B08846DDF830900C
:102CB0000024B8F1000F03D1002005B0BDE8F08377
:102CC000DDE9030100FB01F707F1100630461DF0B6
:102CD000DFFC04460CB90020EFE7314620461DF02A
:102CE00010FFAA2020700420A0700020E070A6F140
:102CF0000800009002226946601DFDF765FF20462E
:102D0000FFF7BEFF04F10805022201A92846FDF7DE
:102D10005BFF022203A9A81CFDF756FF022204A9AB
:102D2000281DFDF751FF3A464146A81D1DF06AFED9
:102D3000B81D81B22846FDF76BFF0090A91DC81988
:102D400002226946FDF740FFB9F1000F01D0C9F832
:102D500000602046B1E7F8B506460F4614461D460A
:102D600023460122394630460095FFF79BFFF8BD08
:102D700070B505460C46ADB1A4B120461DF088FCE7
:102D8000064676B12246294630461DF03BFE2346D4
:102D9000062201213046FFF74EF910B130461DF0F2
:102DA000A6FC00BF70BD704770B505460C46ADB1BE
:102DB000A4B120461DF06CFC064676B12246294699
:102DC00030461DF01FFE234606220121304601F049
:102DD000C4FC10B130461DF08AFC00BF70BD2DE967
:102DE000F04105460E461446BDB1B6B1ACB1204621
:102DF0001DF04EFC07467FB12246314638461DF095
:102E000001FE2346062201213846D5F814C0E047CA
:102E100010B138461DF06BFC00BFBDE8F0812DE914
:102E2000F04F8FB007460C4601200E901FB9801E50
:102E30000FB0BDE8F08F3D682878AA2802D04FF087
:102E4000FF30F5E7A8780C287AD1E878802878D187
:102E500000200C900D9000260B904FF001094FF0D0
:102E6000010A8346AA208DF830000C208DF832002C
:102E700080208DF8330001208DF83400A8790D28CA
:102E800060D2DFE800F05F0708165F245F5F5F38FD
:102E90005F3A4B0000BFA8798DF8360008201DF07E
:102EA000F7FB064616B94FF0000950E008200B90DA
:102EB0004DE008A8FEF715F84FF0000A0BAB0C2206
:102EC00008A948F20300FFF746FF06463FE000204E
:102ED0000A902CB1206918B12069804780B20A900D
:102EE0004FF0000A0BAB02220AA948F20500FFF7D7
:102EF00032FF06462BE001F086F94FF0FF300A90D2
:102F0000FDF7FAFF0A904FF0000A0BAB04220AA962
:102F100048F20B00FFF71FFF064618E00FF25C189F
:102F20004FF0000A40461DF042FD401C0BAB02462C
:102F300041460A9048F20C00FFF70DFF064606E0F6
:102F400030E0C9E04FF0000900200E9000BF00BF44
:102F5000B9F1000F20D0FEB1BAF1000F06D00CA8D5
:102F6000FFF78EFE0C9830600D9870601CB93046EB
:102F70001DF0BDFB10E0606918B930461DF0B7FBCD
:102F80000AE0D4F814C00622012130460B9BE0472A
:102F900010B130461DF0ABFBBBF1000F01D001F0CA
:102FA00032F999E0A878042865D100200D90804678
:102FB0000E900222691D0DA8FDF706FE05F1080618
:102FC0000D98801E0D9080E04FF0000900200C90BD
:102FD0004FF0010A0B900A900990022231460BA88B
:102FE000FDF7F2FD0222B11C0AA8FDF7EDFD022259
:102FF000311D09A8FDF7E8FDBDF82C00A0F5004043
:103000000A3858BB06F1060B01A8FDF76AFF4FF01E
:10301000FF30FDF771FF0090012301A904A8009A79
:10302000FDF790FF1022594604A81DF070FC38B936
:10303000002008900022012104A8FDF7A9FF02E06A
:103040004FF0FF3008900CAB042208A948F20A00A8
:10305000FFF781FE814601200E9000E000BF00BF17
:10306000BAF1000F25D0B9F1000F22D084B948463B
:103070001DF03DFB1DE02DE04C00002059415F4755
:1030800055495F415544494F5F313830383035003C
:10309000606918B948461DF02AFB0AE0D4F814C04C
:1030A0000622012148460C9BE04710B148461DF01E
:1030B0001EFBBDF82800BDF824104843801D804445
:1030C00005F1080000EB080600BF0D988045FFF4ED
:1030D0007BAF01E000200E900E9808B10020A7E61B
:1030E0004FF0FF30A4E60020FE490870704770479B
:1030F0007047704701460022012003E00B5C134437
:10310000DAB2401C0628F9DB0A5470477047704752
:10311000704700207047704770472DE9F041064620
:1031200000274FE006F1080000EB8705A878EE289D
:1031300000D146E095F80080EB4C002020606060F4
:103140002081AA202070E748007860700720A070D6
:10315000A878012800D12071B8F1010F17D0B8F17B
:10316000020F20D1A878022801D1012000E0002020
:1031700001460A2005F025FAA878022801D101208D
:1031800000E0002001460A2002F064FC0CE0A87870
:10319000022807D101F026FD10B101F030FD01E059
:1031A00001F029FD00E00CE000BF01F01EFD84F8F5
:1031B00005802046FFF764FD08212046FFF7D8FD73
:1031C00000BF7F1C7068B842ACD80120BDE8F08118
:1031D000704770B50446C44D0DB9002070BD002085
:1031E000286068602881AA202870BE48007868702E
:1031F0000820A870207A2871A07B68712846FFF704
:103200003FFD08212846FFF7B3FDA07B00F0010633
:10321000208958B9608920B13146092002F01AFC92
:1032200015E031460B2002F015FC10E02089012842
:103230000DD1A08905F0AEF9608920B13146132087
:1032400002F008FC03E03146142002F003FC01F018
:10325000CCFC0120C2E770B505462C682078052813
:1032600001DB002070BD2078A04951F8200030B16A
:1032700020780A4652F8201020468847F2E70020BE
:10328000F0E7014600207047F7B584B005461446C4
:10329000284602F04FFD86B20C2E03DB4FF0FF30C4
:1032A00007B0F0BD04F0050048B3E8B28DF80C009B
:1032B0009DF814008DF80D009DF815008DF80E0096
:1032C0000020029002A80323012203A900904FF4DA
:1032D000D060FFF7E7FC074687B104F0010018B1A2
:1032E00038460299FFF744FD04F0040018B138464F
:1032F0000299FFF759FD38461DF0F9F900BF04F0B7
:10330000100008B37A4800680390301DC7B29DF8DA
:103310000D007849097801F00F0108438DF80D0080
:103320008DF80E709DF814109DF815208818C1179F
:1033300000EB9171C1F386018DF80F100422114644
:1033400003A801F037FD00BF0020A9E702460020D6
:103350007047024600207047FEB504460E461546EB
:10336000022C02DB4FF0FF30FEBD05F0050018B364
:10337000E0B28DF808008DF809600020019001A8E6
:103380000223012202A9009040F24660FFF78AFC66
:10339000074687B105F0010018B138460199FFF7DB
:1033A000E7FC05F0040018B138460199FFF7FCFC72
:1033B00038461DF09CF900BF05F01000B0B34C4832
:1033C0001430006802904A481830006801909DF857
:1033D00009004849097801F00F0108438DF80900F8
:1033E0009DF805004349097801F00F0108438DF865
:1033F00005006EB104F16000C0B28DF80A007F20B4
:103400008DF80B000422114602A801F0D3FC0CE059
:1034100004F16000C0B28DF8060000208DF80700AE
:103420000422114601A801F0C5FC00BF00209BE763
:103430000246002070472DE9FE4304460D4616461D
:10344000204602F077FC1FFA80F8B8F10C0F03DB7E
:103450004FF0FF30BDE8FE8306F00500C0B3E0B2D8
:103460008DF808008DF8095000200190072C02DA31
:103470004FF4C8670EE00A2C02DA40F2416709E017
:10348000812C04DC802C02DB40F2426702E04FF02A
:10349000FF30DFE701A80223012202A9009038468D
:1034A000FFF700FC8146B9F1000F10D006F00100D3
:1034B00018B148460199FFF75BFC06F0040018B10B
:1034C00048460199FFF770FC48461DF010F900BF0F
:1034D00006F01000E8B30648001F006802900027BD
:1034E0000AE0000048000020A41C00205400002036
:1034F00020270208500000204FF07F09032D01DD36
:10350000781EA7E7012D01D0022D09D1052C04D08A
:10351000062C02D04FF0FF309CE72846C7B209E0E6
:10352000032D07D108208DF8080080208DF80900B0
:103530004FF00009202000EB88003844C7B29DF806
:103540000900FE49097801F00F0108438DF80900D0
:1035500000E009E08DF80A708DF80B900422114606
:1035600002A801F027FC00BF002073E702460020FC
:1035700070470246002070470020704700207047C7
:103580002DE9FC4706460F46154605F0050058B3E1
:10359000AA208DF8000006208DF8020050208DF83A
:1035A000030081208DF8040002F0A4FC8DF80500D2
:1035B00002F0CAFC8DF806006846FFF761FB05F0D3
:1035C000010018B108216846FFF7D2FB00208DF8F2
:1035D00004006846FFF754FB05F0010018B108210C
:1035E0006846FFF7E1FB00BF05F01000002846D059
:1035F000D34800680190D248001D006800904FF049
:1036000000084FF00309032E02DAB04606F1010963
:103610009DF80500C949097801F00F0108438DF8AC
:1036200005009DF80100C549097801F00F01084324
:103630008DF8010044461FE00120A040384068B1E9
:1036400004F15800C0B28DF806007F208DF8070005
:103650000422114601A801F0ADFB0CE004F1580072
:10366000C0B28DF8020000208DF80300042211463C
:10367000684601F09FFB641C4C45DDDB00BF002069
:10368000BDE8FC872DE9FC4706460F46154605F0C8
:10369000050058B3AA208DF8000006208DF802001E
:1036A00050208DF8030081208DF8040002F022FCE8
:1036B0008DF8050002F048FC8DF806006846FFF71B
:1036C000DFFA05F0010018B108216846FFF750FB4A
:1036D00000208DF804006846FFF7D2FA05F00100DB
:1036E00018B108216846FFF75FFB00BF05F0100026
:1036F000002847D092480838006801909048001F81
:10370000006800904FF000084FF00509052E02DA1E
:10371000B04606F101099DF805008849097801F0D5
:103720000F0108438DF805009DF8010083490978D1
:1037300001F00F0108438DF8010044461FE001200D
:10374000A040384068B104F15000C0B28DF80600C6
:103750007F208DF807000422114601A801F02AFB02
:103760000CE004F15000C0B28DF8020000208DF88A
:10377000030004221146684601F01CFB641C4C4502
:10378000DDDB00BF0020BDE8FC870246002070475B
:1037900002460020704770470246002070472DE91E
:1037A000F04F87B080460E46B8F1000F03D10020DD
:1037B00007B0BDE8F08FD8F80040A07807280DD1F9
:1037C000E078502808D1A379DA106379D9102379E9
:1037D000D81000F07DFD00E000BF43E2A07806288D
:1037E00078D1584D4FF0000A002006904FF0010BA1
:1037F00001200590AA2028700620A8708020E8707B
:1038000001202871E07846286BD008DC40280DD0D4
:10381000412834D043285ED0442875D15EE050283A
:1038200073D0802872D08128F7D106E114201CF0D3
:103830002FFF814600200590B9F1000F1ED0002710
:103840000CE004A9384602F091FA09F817709DF8C7
:10385000100009EB47014870781C87B2072FF0DB96
:1038600006A802230722494600904FF4C860FFF7DC
:1038700019FA824648461CF03AFF00BFE7E00620EE
:103880001CF006FF814600200590B9F1000F20D002
:1038900000270EE0F91D88B204A902F067FAF81DAE
:1038A00009F817009DF8100009EB47014870781CD3
:1038B00087B2032FEEDB06A80223032249460090BD
:1038C00040F24160FFF7EEF9824648461CF00FFFD8
:1038D00000BFBCE0E2E04FF0000BB8E04FF0000B9F
:1038E000B5E0A079FF2833D10020049004201CF01B
:1038F000CFFE814600200590B9F1000F27D004A823
:1039000002F0E0FA00270AE09CE038E063E009F802
:10391000177004A8C05D09EB470148707F1C022F97
:10392000F5DB06A8032302224946009040F24660D8
:10393000FFF7B8F98246484606E000005000002034
:103940002C270208A41C00201CF0D1FE00BF15E0AB
:1039500020790711607908B9012000E00020814634
:103960004946384602F0A0FA3946022004F06FFCBE
:10397000102249463846FFF7EFFC00BF67E0207988
:1039800010B12079812818D16179FF2002F0B7FAAF
:10399000A179FF2002F0DDFA0021032004F057FC9A
:1039A00061791022FF20FFF76DFEA1791022FF2020
:1039B000FFF7E6FD002005900CE02079012809D1F1
:1039C0005020E8708120287102F094FA687102F0AA
:1039D000BBFAA8713BE01E201CF05AFE8146002075
:1039E0000590B9F1000F27D0002715E004A938464B
:1039F00002F00FFA07EB470109F801709DF810007B
:103A000007EB4701494448709DF8110007EB470157
:103A100049448870781C87B20A2FE7DB06A8032385
:103A20000A22494600904FF4D060FFF73BF98246E6
:103A300048461CF05CFE00BF09E04FF0000B002080
:103A4000059004E04FF0000B0020059000BF00BF80
:103A5000059838B12846FFF713F908222946304661
:103A6000FFF7BDF9BBF1000F17D0BAF1000F14D06A
:103A70001EB950461CF03BFE0FE0706918B9504665
:103A80001CF035FE09E07769062201215046069BAD
:103A9000B84710B150461CF02AFEE3E0A078042895
:103AA000FBD10020069081460222611D06A8FDF789
:103AB0008BF804F108070698801E0690CDE04FF0C1
:103AC000000A00200590012004900020039002903D
:103AD00001900222394603A8FDF776F80222B91CAC
:103AE00002A8FDF771F80222391D01A8FDF76CF854
:103AF000BDF80C0040F24262811A90420FD007DC00
:103B0000B0F5C86F09D0A0F2416000287DD105E072
:103B1000042923D03E2978D149E000BF00BF07F136
:103B2000060B002515E00BEB450251781BF815003C
:103B300002F02EF91BF81510012004F088FB0BEBA6
:103B4000450251781BF815001022FFF774FC681C21
:103B500085B2BDF808008542E5DB57E007F1060BAA
:103B600000251FE00BEB450252780AB1012200E06C
:103B7000002211461BF8150002F096F91BF81510EB
:103B8000022004F064FB0BEB450252780AB10122DB
:103B900000E0002211461BF815001022FFF7DCFBA5
:103BA000681C85B2BDF808008542DBDB2EE007F11A
:103BB000060B002523E005EB4500584440788DF8BE
:103BC000000005EB4500584480788DF8010005EBB6
:103BD00045011BF80100009902F004F905EB4500CE
:103BE0001BF80010002004F032FB05EB45011BF828
:103BF000010010220099FFF747FB681C85B2BDF851
:103C000008008542D7DB01E0FFE700BF00BF049852
:103C1000B8B1BAF1000F14D01EB950461CF067FDC0
:103C20000FE0706918B950461CF061FD09E0756934
:103C3000062201215046059BA84710B150461CF0B2
:103C400056FDBDF80800BDF804104843801D8144AE
:103C500004F1080000EB090700BF06988145FFF456
:103C60002EAF00BF0120A3E50246002070470146A9
:103C7000002070472DE9F84F82460127BAF1000F66
:103C800002D10020BDE8F88FDAF80050687800F023
:103C90000F00F8490978884201D00020F2E76878DF
:103CA00000F0F008B8F1800F01D100270DE0B8F165
:103CB000900F02D0B8F1B00F05D1E87800F07F0086
:103CC00018B9002701E00020DCE7AC78042C36DBD3
:103CD0000F2C34DC211F88B202F03BF81FFA80F968
:103CE000002000906946484602F093F88346BBF1F5
:103CF000000F01D00020C5E79DF800009DF80110DD
:103D00004618B608E878864217D0EE787600F6B204
:103D1000FE2E00D1FF26F0B28DF801008DF80000D4
:103D20004846009902F05EF84946002004F08FFAF8
:103D3000052248460099FFF7A7FA00BFA7E0202C0C
:103D400037DB502C35DAA4F12000C0F38F0904F0E2
:103D5000030600200090484601F0FBFF1FFA80F99F
:103D600016B96FB903260BE0012E01D0022E07D140
:103D7000B9F1050F04D0B9F1060F01D0002081E799
:103D80006946484601F0F2FF9DF80000B0420DD0B0
:103D90003146484601F0FCFF4946012004F057FA3D
:103DA000052231464846FFF746FB01E0002069E75F
:103DB0006DE0502C23DB542C21DC02F09BF8814673
:103DC000A4F15000C6B20120B04000EA090008B1D9
:103DD000012000E000208346BB450DD03946304627
:103DE00002F08DF80021032004F031FA03220021B3
:103DF000FF20FFF747FC01E0002043E747E0582C95
:103E000023DB5A2C21DC02F09FF88146A4F15800F4
:103E1000C6B20120B04000EA090008B1012000E06C
:103E200000208346BB450DD03946304602F091F85C
:103E30000021042004F00BFA03220021FF20FFF7E9
:103E40009FFB01E000201DE721E0602C1FDB612CBF
:103E50001DDCA4F16000C6B2002000906946304627
:103E600002F015F89DF80000B8420DD039463046F2
:103E700002F01AF83946022004F0E9F90522394621
:103E80003046FFF769FA01E00020FBE600BF0120A1
:103E9000F8E670B504460D46A07A012804D12946FB
:103EA0002046FFF77CFC70BDA07A082804D1294683
:103EB0002046FFF7DFFEF6E70020F4E71CB5002000
:103EC00000900190AA208DF800000C208DF80200CF
:103ED00080208DF8030000208DF8040002208DF86A
:103EE00006006846FEF7CCFE08216846FEF75CFF38
:103EF0001CBD1CB5002000900190AA208DF8000088
:103F000006208DF8020040208DF803006846FEF779
:103F1000B7FE08216846FEF747FF41208DF80300F1
:103F20006846FEF7ADFE08216846FEF73DFF80209B
:103F30008DF803006846FEF7A3FE08216846FEF7E9
:103F400033FF50208DF8030001208DF804006846EF
:103F5000FEF796FE08216846FEF726FF00208DF842
:103F6000040046208DF80300FF208DF80600684607
:103F7000FEF786FE08216846FEF716FF1CBD70B5E9
:103F800004460D46152229462046FFF754FA70BD17
:103F900013B50446152220460199FFF775F91CBD9B
:103FA00070B504460D46152229462046FFF7D4F980
:103FB00070BD70B504460D46152229462046FFF710
:103FC00061FB70BD70B504460D461522294620469A
:103FD000FFF7D6FA70BD7CB505460C46AA208DF8D1
:103FE000000000208DF8010006208DF802001CB1B1
:103FF00043208DF8030002E044208DF803000020E8
:104000008DF80400E8B28DF8050000208DF8060058
:104010006846FEF735FE08216846FEF7C5FE0CB976
:10402000FFF767FF00207CBD10B50021FF20FFF7E0
:10403000D2FF10BD01B59DF800209DF801109DF83C
:10404000020000F045F9002008BD10B504462046E6
:1040500000F003FA002010BD10B50446204600F021
:1040600015FA002010BD0146102901DA014801703F
:104070000020704750000020014600207047014694
:104080004FF0FF30704701464FF0FF307047014658
:104090004FF0FF30704701464FF0FF307047024647
:1040A0004FF0FF30704770B50446052505E06219F2
:1040B000511FA8B201F090FF6D1C092DF7DDA01D66
:1040C00001F098FF04F10A0001F0A1FF04F10B00D8
:1040D00001F0A7FF04F10C0001F0E3FF04F10E0072
:1040E00002F00FF870BD01464FF0FF3070470146F7
:1040F0004FF0FF30704701464FF0FF3070470146E8
:104100004FF0FF30704701464FF0FF3070474FF0DF
:10411000FF30704702464FF0FF30704738B5044615
:10412000052505E06A1FA15CA8B201F084FF6D1CA3
:10413000092DF7DDD4F80600009001F088FFA07A81
:1041400001F09DFFE07A01F0A3FF207B01F0BDFFAD
:10415000607B01F0C8FFA07B01F0DDFF38BD10B52A
:104160002F48FFF7DBFF10BD10B52E4801682E4821
:104170000068FCF755FA642800D210BD2948006891
:1041800029490860102129481CF0BBFC2748FFF78B
:104190008AFF1022254926481CF0B9FB58B110228D
:1041A000224923481CF02EFC0120224908701D489A
:1041B0000068214908601F480078C8B119480168A3
:1041C0001D480068FCF72CFA43F6982188420FD965
:1041D0001022134916481CF09AFB30B110221449E2
:1041E0000F481CF00FFCFDF747F80020114908703C
:1041F00000BFC2E77047704770477047704701467D
:104200004FF0FF3070470D48006800F4E0600C4943
:104210000843001D09490860BFF34F8F00BFFEE748
:104220004E0500201400002070000020CA1C002051
:10423000BA1C0020680000206C0000200CED00E09B
:104240000000FA0508B510208DF8030002208DF853
:1042500002004020ADF8000069469C4807F038FF96
:1042600000224021994807F0E4FF2020ADF800002B
:104270006946964807F02CFF01222021934807F059
:10428000D8FF1020ADF800006946904807F020FFE5
:10429000012210218D4807F0CCFF4FF48070ADF85B
:1042A00000006946894807F013FF00224FF480712F
:1042B000864807F0BEFF8020ADF8000069468348BD
:1042C00007F006FF00228021804807F0B2FF08BDFA
:1042D0002DE9F84F0746884691468DF800808DF805
:1042E00001708DF8029000228021784807F0A1FF2C
:1042F00000224FF48071754807F09BFF00250BE00A
:1043000001228021714807F094FF002280216F482C
:1043100007F08FFF681CC5B2202DF1DB00243BE0C5
:1043200001221102694807F084FF012280216748B9
:1043300007F07FFF00228021644807F07AFF002603
:1043400026E01DF806B04FF0100A00251CE00BEA2D
:104350000A0030B900224FF480715C4807F069FF11
:1043600004E001221102594807F063FF0122802175
:10437000564807F05EFF00228021544807F059FF9D
:104380004FEA6A0A681CC5B2052DE0DB701CC6B294
:10439000032ED6DB601CC4B2022CC1DB00224FF41A
:1043A00080714A4807F045FF00240BE0012280217C
:1043B000464807F03EFF00228021444807F039FFBD
:1043C000601CC4B2022CF1DBBDE8F88F10B5404888
:1043D0000078C0F3411400203E4908703E4908703F
:1043E0003E4908702CB93A48007800F01F00087068
:1043F00015E0012C06D13648007800F01F00364940
:1044000008700CE0022C06D13148007800F01F0043
:104410003049087003E000202D49087010BD2D4878
:1044200002782D4801782D480078FFF751FF284881
:104430000078401C2649087000BFEFE708B510203F
:104440008DF8030003208DF802000420ADF8000071
:104450006946234807F03CFE08BD10B5044684F0C9
:10446000010204211E4807F0E4FE10BD08B510202B
:104470008DF8030003208DF802004FF40040ADF8E2
:1044800000006946114807F023FE08BD10B5044638
:104490000CB1012000E0002002464FF400410B481F
:1044A00007F0C7FE10BD10B5FFF7CCFE0022114685
:1044B0001046FFF70DFFFFF7C1FF0120FFF7CDFF0B
:1044C000FFF7D4FF0020FFF7E1FF10BD0008014017
:1044D0007400002077000020760000207500002086
:1044E0000018014000B587B00121880408F03FF9A9
:1044F00003A809F0D3FA4FF4E130039003A9AC48C4
:1045000009F063FA0121AA4809F0EBFA4FF4806040
:10451000ADF8080003208DF80A0018208DF80B0074
:1045200002A9A44807F0D4FD4FF40060ADF80800DC
:1045300004208DF80B0002A99E4807F0C9FD272032
:104540008DF8040004208DF8050000208DF8060089
:1045500001208DF8070001A806F055FD012240F268
:104560002551934809F0C9FA0121084608F0E5F8F9
:1045700043F290009049C8618D48001D48620020B8
:104580000862886201228021894809F0DBFA07B0BD
:1045900000BD38B58648048804F0200010B904F046
:1045A000080050B18248001D0088C0B2009001226E
:1045B00069468248FCF7DCFF00BF38BD10B5062312
:1045C00020227F497F48FCF7E7FE4FF440727E4986
:1045D0007A48FCF7AFFF4FF480627C497C48FDF7D6
:1045E00003FFFFF77FFF10BDF0B585B0054600BFA4
:1045F00000270020049004A97048FDF701F8074641
:1046000007B92CE028E00026002003900290002447
:1046100002A903ABCDE9001039466D48049AFDF7B5
:10462000F5FE064606B918E06648FCF7F5FE0446B6
:104630001CB930461CF05BF80FE026600398606000
:10464000012020720298A072012221465D48FCF7E9
:10465000FAFE0020049000BFD5E700BF00BF00BFF6
:1046600000BF00245B480078E0B15348006800F0C8
:10467000200010B905B148E048E04D48008800F03E
:10468000400010B905B140E040E010204A494860C0
:104690005148007A18B1504908681CF028F80020E9
:1046A0004C49087000214748FCF7F9FE04465CB30A
:1046B0006068002801DD206848B9207A20B12068B0
:1046C00010B120681CF013F805B11EE01EE03A4856
:1046D000C06920F001003849C8616068086220683C
:1046E00088620846C06940F00100C861012039496C
:1046F00008701822214638481CF0C9F92146314873
:10470000FCF704FF05B100E000E0AAE700BF00BF2E
:10471000002401212B48FCF7C2FE044614B12046B8
:1047200005B0F0BD00BF0020FAE710B5044644B163
:10473000207A10B120681BF0DAFF21462148FCF7EF
:10474000E5FE10BD10B504461CB121461D48FCF71E
:10475000DDFE10BD4FF4806070472DE9F041054645
:104760000E4690461F46002415B9601EBDE8F08134
:104770001448FCF751FE044614B94FF0FF30F5E73A
:10478000256067602672002221460E48FCF75BFE1A
:104790000020EBE710B5044604B910BD0020A0814D
:1047A0000C2060812146024809F00FF900BFF4E7B0
:1047B00000480040000C014000000240F0220020B0
:1047C000DC1C0020DC1F0020F01F0020082300203C
:1047D00008270020780000202027002010B50020A6
:1047E00046E0002141E000EB4002F14B03EBC20246
:1047F00032F92120C2EB02124FF4077303EB42128D
:104800005B0092FBF3F212B200EB4003E84C04EBC6
:10481000C30323F8212000EB4002234603EBC2022E
:1048200002EB8102B2F90220C2EB02124FF40773CD
:1048300003EB42125B0092FBF3F212B200EB400377
:1048400004EBC30303EB81035A8000EB40022346D1
:1048500003EBC20232F82120A03212B200EB400377
:1048600004EBC30323F82120491C0529BBD3401CBA
:104870000328B6D3002046E0002141E000EB80028F
:10488000CC4B03EB820232F92120C2EB02124FF42F
:10489000077303EB42125B0092FBF3F212B200EBE0
:1048A0008003C44C04EB830323F8212000EB800237
:1048B000234603EB820202EB8102B2F90220C2EB33
:1048C00002124FF4077303EB42125B0092FBF3F208
:1048D00012B200EB800304EB830303EB81035A80E5
:1048E00000EB8002234603EB820232F82120A03243
:1048F00012B200EB800304EB830323F82120491C50
:104900000429BBD3401C0328B6D3002045E000EBAC
:104910004001A94A32F82110C1EB01114FF407728E
:1049200002EB4111520091FBF2F100EB4002A24B6D
:1049300023F8221000EB40011A4602EB810149885E
:10494000C1EB01114FF4077202EB4111520091FBD0
:10495000F2F100EB400203EB8202518000EB4001D8
:104960001A4602EB81018988C1EB01114FF40772ED
:1049700002EB4111520091FBF2F100EB400203EB1C
:104980008202918000EB40011A4632F82110A031DA
:1049900000EB400223F82210401C0428B7D310BDBE
:1049A00070B56FF07F4006F04EF940F2DF1340F231
:1049B0001F320021084606F07FF8002429E004EBAE
:1049C00044017B4A02EBC101897D4FF47F0202EA78
:1049D000014104EB4402764B03EBC202527D4FF4DB
:1049E0007F4303EA0222114304EB4402704B03EBC2
:1049F000C202127D41EA020006F025F904EB4401EF
:104A00006B4A02EBC10000231A46052106F040F86C
:104A1000641C032CD3D3002429E004EB8401654AF1
:104A200002EB8101897C4FF47F0202EA014104EB31
:104A30008402604B03EB8202527C4FF47F4303EA13
:104A40000222114304EB84025A4B03EB8202127CD4
:104A500041EA020006F0F7F804EB8401554A02EB44
:104A6000810000231A46042106F012F8641C032C6E
:104A7000D3D3002430E004EB44014F4A02EB810120
:104A8000897A4FF47F0202EA014104EB44024A4B67
:104A900003EB8202527A4FF47F4303EA022211436E
:104AA00004EB4402444B03EB8202127A41EA020017
:104AB00006F0C9F804EB44033F4D05EB83039A88E5
:104AC00004EB440305EB8303598804EB440335F8F6
:104AD000230006F0B7F9641C042CCCD370BD2DE97B
:104AE000F04706460C4690469946012E12D12246C2
:104AF0005068B0F5487F02D0B01EBDE8F0879168DD
:104B0000002900DA4942B1F5F07F02D04FF0FF30C2
:104B1000F3E715E0022E13D12546A8886988471AC5
:104B20002988688804F0EEF8A88804F003F94FF4A7
:104B30003050224908803946A86805F0E3F900BFE3
:104B40000020DAE710B500231D4A19461D4800F081
:104B50000BFD044634B11B4800F015FEFFF720FFA3
:104B6000012010BD0020FCE710B5164800F02AFD1A
:104B70000446002C06DA134800F005FEFFF710FF8C
:104B8000012010BD2046FCE710B50E4800F0FBFDEB
:104B9000002010BD10B5FFF7D5FF04460CB1002072
:104BA00010BD00BFFFF7E0FF0028FBD00020F7E7B3
:104BB0007C000020C400002000010020FE07006CE3
:104BC000DF4A0008382700200246914201D3881AA4
:104BD0007047C2F1FF300844FAE700204649887167
:104BE000C871704744480079704710B510F01BF940
:104BF0004149086010BD01203F49487170470220BB
:104C00003D4948717047704710B53B48007900B185
:104C100010BD3948807910B9FFF794FF02E00020F9
:104C200004F064F801203449087100BFF0E710B5C2
:104C30003148007900B910BD012004F057F8FFF7A2
:104C4000A3FFFFF7D2FF00202B49087109F007FFEF
:104C5000044609F014FF00BFEDE770B52648C0799F
:104C6000062818DA2448C079244951F82040002544
:104C700072B610F0D8F806461F4908683146FBF7AF
:104C8000CFFC054662B61C48007918B9A54201D38D
:104C9000FFF7BAFF00BF18484079012805D1FFF798
:104CA000B3FF00201449487108E0134840790228F6
:104CB00004D1FFF7BCFF00200F494871FFF754FFF4
:104CC00070BD0146072902DB4FF0FF3070470A48EC
:104CD000C1710020FAE70146022902DB4FF0FF30E4
:104CE0007047054881710020FAE70348C079704792
:104CF0000148807970470000300100203C270208FD
:104D000010B503231022AD49AD48FCF745FB4FF425
:104D10000072AC49AC48FCF70DFC00201AF098F882
:104D2000AA48046800BFA94801682046FBF778FC40
:104D30006428F8D301201AF08BF81AF02CF819F037
:104D4000E7FF1AF077FE10BD70B504460D462A46FF
:104D500021469D48FCF70CFC70BD9D480068052865
:104D600001D1012070470020FCE72DE9F041054604
:104D70000E46174698460024FFF7EFFF10B9601E55
:104D8000BDE8F08115B94FF0FF30F9E78C48FCF72A
:104D900043FB044614B94FF0FF30F1E72560C4F837
:104DA00004802672A781002221468548FCF74BFB30
:104DB0000020E5E72DE9F04105460C461646FFF7D1
:104DC000CCFF08B9BDE8F081042E02D0052E00D03A
:104DD000F8E7ADB1A4B120461BF05AFC074677B105
:104DE0002246294638461BF00DFE23463246012155
:104DF0003846FFF7BAFF10B138461BF078FC00BF09
:104E000000BFDFE7F8B5054600BF0027002000908F
:104E100069466D48FCF7F4FB074607B928E022E035
:104E2000002404201BF034FC064606B91EE064484A
:104E3000FCF7F2FA04461CB930461BF058FC15E0AA
:104E400038683060266004206060012020720820ED
:104E5000A072012221465A48FCF7F5FA0098001F7B
:104E600000903F1D00BF00980428D9DA00BF00BFA2
:104E700000BF00BF00245748007808B354480068BA
:104E8000052813D154488089042807D101201BF03C
:104E900063F820280AD005B169E069E002201BF020
:104EA0005BF8202802D005B161E061E04A48007A51
:104EB00018B1494908681BF01AFC002045490870E0
:104EC00000213F48FCF7EBFA0446002C4ED0606806
:104ED000002801DD206848B9207A20B1206810B18F
:104EE00020681BF004FC05B141E041E0384800684F
:104EF00005280AD0207A10B120681BF0F8FB214663
:104F00002F48FCF703FB85B331E0012031490870DD
:104F10001822214630481BF0BAFD2F48808904280A
:104F200008D18120D4E900121BF080FB01201BF086
:104F300025F814E028488089052808D18220D4E982
:104F400000121BF073FB02201BF018F807E0207A18
:104F500010B120681BF0CBFB00201E4908702146D1
:104F60001748FCF7D3FA05B101E0FFE700E081E75D
:104F700000BF00BF002401211148FCF790FA04464D
:104F80000CB12046F8BD00BF0020FBE710B5044679
:104F900044B1207A10B120681BF0A9FB21460848D3
:104FA000FCF7B4FA10BD10B504461CB12146044804
:104FB000FCF7ACFA10BD00207047000088270020E5
:104FC000082900201C2900201C2B00201400002090
:104FD0000405002038010020342B002070B5054660
:104FE000002405E0601CC4B2C82C01DD002070BDA7
:104FF0000221FB4807F061FD0028F3D02946F8485C
:1050000007F008FD002405E0601CC4B2C82C01DDD7
:105010000020ECE70121F24807F04FFD0028F3D013
:10502000EF4807F0F9FCC0B2E1E700B587B0012115
:10503000880307F09CFB4FF46040ADF8180018207F
:105040008DF81B0003208DF81A0006A9E54807F02B
:105050003FF84FF46041E34807F0E7F80020ADF86F
:1050600004004FF48270ADF806000020ADF808008F
:105070000220ADF80A000120ADF80C004002ADF8A6
:105080000E000020ADF81000ADF812000720ADF8BA
:10509000140001A9D24807F0E7FB0121D04807F02E
:1050A00088FCFF20FFF79AFF07B000BD10B504464B
:1050B000CB4800884FF6C7710840C94908800846A8
:1050C0000088204308800121C54807F072FC10BD0C
:1050D00010B500244FF48050C2491431086090206C
:1050E000FFF77CFF0020FFF779FF0020FFF776FF36
:1050F0000020FFF773FFFF20FFF770FF44EA002452
:10510000FF20FFF76BFF04434FF48050B549103187
:105110000860204610BD08B54FF48050ADF800007F
:1051200010208DF8030003208DF802006946AD4879
:1051300006F0CEFF4FF48050AA4910310860FFF707
:1051400074FFFFF7C5FFA849088008BD10B500240B
:105150004FF48050A349143108600520FFF73EFF4B
:10516000FF20FFF73BFF04464FF480509D4910316C
:105170000860204610BD10B504464FF48050994990
:10518000143108600120FFF729FF2046FFF726FFB2
:105190004FF4805093491031086010BD10B54FF4A2
:1051A00080509049143108600620FFF717FF4FF434
:1051B00080508C491031086010BD10B54FF48050FC
:1051C0008849143108600420FFF708FF4FF480502D
:1051D00084491031086010BD10B5FFF7B7FF00F02B
:1051E000010010BD2DE9F04106460C461746FFF7B9
:1051F000F3FF18B14FF0FF30BDE8F0814FF480505D
:105200007849143108600320FFF7E8FEC4F3074033
:10521000FFF7E4FEC4F30720FFF7E0FEE0B2FFF77C
:10522000DDFE002504E0FF20FFF7D8FE70556D1C61
:10523000BD42F8D34FF480506A4910310860002015
:10524000DAE72DE9F04106460C461746FFF7C4FFA2
:1052500018B14FF0FF30BDE8F081FFF79FFF4FF42A
:1052600080506049143108600220FFF7B7FEC4F394
:105270000740FFF7B3FEC4F30720FFF7AFFEE0B22D
:10528000FFF7ACFE002504E0705DFFF7A7FE681C89
:1052900085B2BD42F8DB4FF48050524910310860AE
:1052A0000020D8E72DE9F04107460E461446FFF7E7
:1052B00093FF18B14FF0FF30BDE8F081F0B2C0F5B8
:1052C0008075AC4200D8254617E0AAB23146384670
:1052D000FFF7B7FF8046B8F1000F00D00DE0AC42F9
:1052E00000D10BE02F442E44641BB4F5807F02D91B
:1052F0004FF4807500E0254600BFE6E700BF0020C0
:10530000DAE710B500BFFFF721FF00F00100002829
:10531000F9D110BD10B5FFF75FFF10B14FF0FF30AE
:1053200010BDFFF73BFFFFF7ECFF4FF480502D4916
:1053300014310860C720FFF751FE4FF4805029490F
:10534000103108600020EBE770B505462C03FFF72D
:1053500043FF10B14FF0FF3070BDFFF71FFFFFF7A5
:10536000D0FF4FF480501F49143108602020FFF710
:1053700035FEC4F30740FFF731FEC4F30720FFF703
:105380002DFEE0B2FFF72AFE4FF480501549103190
:1053900008600020E0E710B5FFF71EFF10B14FF0E6
:1053A000FF3010BD4FF480500E4914310860B92011
:1053B000FFF714FE4FF480500A49103108600020B6
:1053C000EFE710B54FF48050064914310860AB2068
:1053D000FFF704FE4FF4805002491031086010BD01
:1053E00000380040000C01403A0100205D48008870
:1053F0004EF61771884201D1012070470020FCE76A
:10540000034613B94FF0FF307047080B0003884282
:1054100002D04FF0FF30F7E7B2F5000F03D888183D
:10542000B0F5000F01D9C1F50002002018605860E6
:105430009860D860196099605A600120D860002097
:10544000E2E72DE9F04704460F46154614B10FB1C7
:10545000002D03DC4FF0FF30BDE8F087E06810B9A5
:105460004FF0FF30F8E7FFF7B7FE10B16FF0010023
:10547000F2E7A0686FF30B00A168884211D1E068E1
:10548000032802D10220E0600BE0A168080BFFF7BF
:105490005BFF06460EB13046DEE70320E060401FAA
:1054A000DAE7A06800F580504FEA10384FEA083874
:1054B0002E464FF00009A0682844404502D9A06854
:1054C000A8EB000632463846A168FFF7EBFE81469E
:1054D000B9F1000F04D1A0683044A0603046BBE7AA
:1054E0004846B9E72DE9F04780460F4615460024A7
:1054F000B9460EE02A1B09EB04014046FFF7A1FF65
:105500000646701C00B906E0B01C00B901E0344446
:1055100000BFAC42EEDB00BF2046BDE8F0872DE9BE
:10552000F04104460E461546002714B10EB1002D79
:1055300003DC4FF0FF30BDE8F081E06810B94FF0B8
:10554000FF30F8E70DE02A463046A168FFF74AFE33
:10555000074637B90220E060A0682844A0602846CA
:10556000E9E7F0E73A0100202DE9F04104460D4655
:1055700016461F461CB94FF0FF30BDE8F0815021A0
:1055800020461BF0E0FA0420E062FFF72FFF10B97D
:105590004FF0FF30F1E74FF4007229462046FFF745
:1055A0002FFF4FF400701BF073F86063606B10B94D
:1055B0004FF0FF30E1E70020E0626564A664E76435
:1055C00000BFDAE72DE9F041044614B1E06A002893
:1055D00003DA4FF0FF30BDE8F081E06A032801DB19
:1055E000E06AF8E7E06A40BB656B0E222046616B1B
:1055F000FFF795FF60616069002802DA6069206149
:10560000BFE0B5F9000044F64251884203D04FF0A4
:10561000FF302061B5E0A06C30B10E220020D4E94B
:105620001263616BB0472061206900B1A9E0D5F831
:105630000A00A0610120E062A2E0E06A012836D100
:10564000656B28222046616BFFF769FF6061606926
:10565000002802DA6069206193E0A06C30B1282252
:105660000120D4E91263616BB0472061206900B169
:1056700087E06868E061A8682062206A002805DA8F
:10568000206A40422062012084F83000B5F90E0003
:10569000C11700EB5171C9106162E169606A48434A
:1056A000C01C20F00300A0620220E06268E0E06A13
:1056B000022865D104F138056888E169884205DB74
:1056C0000020A88068802888401C28802888216ABB
:1056D000884205DB0320E062606B1BF008F850E0B5
:1056E00094F8300050B9A169606C01442A88206A9E
:1056F000801A401EA26A02FB001606E0A169606CD7
:1057000008442A88A16A01FB02066988E069401AF8
:10571000616A00FB01F8616B21646888616A00FBC3
:105720000160A0604746B8F5007F01DD4FF40077C7
:10573000606A97FBF0F0616A00FB01F73A46204689
:10574000616BFFF7ECFE60616069002802DA606956
:10575000206116E0616A606990FBF1F06988084495
:10576000A880A06C30B10C2229460220D4E912C3D3
:10577000E0472061206900B103E0A888688000BF8D
:1057800000BF206927E7014609B10420C862002054
:1057900070472DE9F74F8EB00E4600200990069015
:1057A00000274FF400720AA80E99FFF729FE4FF464
:1057B00000701AF06DFF07461FB94FF0FF300990D7
:1057C000B8E03D460E2239460AA8FFF7A8FE044677
:1057D000002C01DA0994ADE0B5F9000044F642511D
:1057E000884203D04FF0FF300990A3E02EB10E2283
:1057F00039460020109BB0470990099800B199E004
:10580000D5F80A0008903D46282239460AA8FFF735
:1058100086FE0446002C01DA09948BE02EB1282282
:1058200039460120109BB0470990099800B181E0EA
:1058300068680790D5F80890B9F1000F03DAC9F14C
:10584000000901200690B5F90E00C11700EB517157
:105850004FEAE108079808FB00F0C01C20F0030A9B
:1058600000200590069838B908990E980144A9F1CE
:1058700001000AFB00100590002558E0079800FB86
:1058800008FB0497A8B2ADF808000020ADF80A00A4
:1058900005980C9032E0CDF804B0BBF5007F02DD36
:1058A0004FF40070019098FBF8F008FB00F83946BF
:1058B0000AA8019AFFF733FE0446002C01DA099486
:1058C00038E094FBF8F0BDF80A10084480B2ADF857
:1058D0000C002EB10C2202A90220109BB0470990A7
:1058E000099800B126E0BDF80A00BDF80C10084484
:1058F00080B2ADF80A00ABEB040B00BFBBF1000FA8
:10590000C9DC012D00D107E0A12D00D104E040F257
:105910004110854200D100BF069820B90598A0EB40
:105920000A00059002E00598504405906D1C4D4515
:10593000A4DB00BF17B138461AF0D9FE099811B0A0
:10594000BDE8F08F2DE9F04704460D4616461F4688
:10595000DDF82080301B401C791B491C00FB01F93D
:10596000A9B2A0B203F0CEF9B0B203F0E3F94FF45C
:1059700030507B4908804946404604F0C3FA0AF09B
:10598000A4FF0AF09EFFBDE8F0872DE9F041044630
:105990000D4616461F46301B401C791B491C00FB58
:1059A00001F8A9B2A0B203F0ADF9B0B203F0C2F9A8
:1059B0004FF430506A490880BDF81800414604F0A1
:1059C0007EF9BDE8F08130B587B00446A5680020B7
:1059D000019001A902A802F085FF9DF80410681C3F
:1059E00081420DD25F4830F8250000B220805D482A
:1059F00000EB8500408800B260800020207112E03A
:105A00000120207102A830F82500564921F8250010
:105A100000B2208002A800EB8500408801EB8501E0
:105A2000488000B26080FFF7DDF808B100202071E7
:105A3000002007B030BD10B504464B4800782071F7
:105A40004A4800682060FFF7CDF808B100202071B7
:105A5000002010BD454A1060434A1170704700B5E0
:105A600087B004A80FF0E4F841480490414805903D
:105A70000020069004A80FF0E0F801A80FF076F9D6
:105A800001208DF804003C4802900020039001A8FA
:105A90000FF071F90120039001A80FF06CF907B025
:105AA00000BD10B509F0EDFAFFF7D9FF10BD10B534
:105AB0009EB018A810F0BEFA64211A9848431899AD
:105AC000B0FBF1F408461A99431A22462BA108A804
:105AD0001AF034FE0020029002A903A802F002FF8F
