:020000040800F2
:10000000A882002001020008090200080B02000873
:100010000D0200080F020008110200080000000095
:1000200000000000000000000000000013020008B3
:100030001502000800000000170200085906000819
:100040001B0200081B0200081B0200081B0200081C
:100050001B0200081B020008A70800088B09000803
:100060001B0200081B0200081B0200081B020008FC
:100070001B0200081B0200081B0200081B020008EC
:100080001B0200081B0200081B0200081B020008DC
:1000900043DD01081B0200081B0200081B020008C8
:1000A0001B0200081B0200081B0200081B020008BC
:1000B0001B0200081B0200081B0200081B020008AC
:1000C0001B0200081B0200081B0200081B0200089C
:1000D0001B020008731E00087B21000887430008EC
:1000E000937A00081B0200084BDD010800F002F8BB
:1000F00000F06EF80AA090E8000C82448344AAF154
:100100000107DA4501D100F063F8AFF2090EBAE851
:100110000F0013F0010F18BFFB1A43F0010318473B
:1001200024ED020044ED02000A444FF0000C10F8E8
:10013000013B13F0070408BF10F8014B1D1108BF65
:1001400010F8015B641E05D010F8016B641E01F805
:10015000016BF9D113F0080F1EBF10F8014BAD1C55
:100160000C1B09D16D1E58BF01F801CBFAD505E073
:1001700014F8016B01F8016B6D1EF9D59142D6D3CD
:10018000704700000023002400250026103A28BFF5
:1001900078C1FBD8520728BF30C148BF0B607047F9
:1001A000662920F0D88664291FF02E82002070472F
:1001B0001FB59DE803001FF09FFC1FF05BFF0400CC
:1001C0000020002120F0C8FCE0601FBD10B510BD6C
:1001D00020F06AF81146FFF7EBFF00F036F920F047
:1001E00088F803B4FFF7F2FF03BC20F0B9F8000071
:1001F000EFF3108072B6704780F3108870470000EC
:100200000948804709480047FEE7FEE7FEE7FEE7AA
:10021000FEE7FEE7FEE7FEE7FEE7FEE704480549E6
:10022000054A064B704700001F030008ED00000858
:10023000A86E0020A8820020A87E0020A87E0020B2
:100240000CB50020019000906D48006840F48030AB
:100250006B49086000BF6A48006800F400300090F5
:100260000198401C0190009818B90198B0F5A06F52
:10027000F1D16348006800F4003010B10120009013
:1002800001E0002000900098012843D15D480068FB
:1002900040F010005B4908600846006820F0030049
:1002A00008600846006840F0020008605448406852
:1002B000534948600846406848600846406840F432
:1002C000806048600846406820F47C10486008461A
:1002D000406840F4E81048600846006840F08070CC
:1002E000086000BF4648006800F000700028F9D0A0
:1002F0004348406820F00300414948600846406890
:1003000040F00200486000BF3D48406800F00C002B
:100310000828F9D10CBD10B5FFF792FF10BD10B53C
:100320003748006840F001003549086008464068D9
:10033000354908403249486008460068334908405A
:100340002F4908600846006820F4802008600846AD
:10035000406820F4FE0048604FF41F008860FFF7FB
:10036000DAFF4FF000602A4908602A48091D08603A
:1003700010BD10B5002100200022214B5B6803F066
:100380000C0121B1042906D0082928D107E0224B0D
:10039000224C236027E0204B204C236023E0184BA5
:1003A0005B6803F47010164B5B6803F48032022321
:1003B00003EB904022B91A4B4343184C23600DE0E5
:1003C0000F4B5B6803F4003323B1154B4343134CCD
:1003D000236003E0104B4343104C236003E00E4BBB
:1003E0000E4C236000BF00BF054B5B68C3F30313D3
:1003F0000C4CE15C094B1B68CB40084C236010BDE2
:1004000000100240002002400000FFF8FFFFF6FE4F
:1004100008ED00E00003FA0500127A000000002059
:1004200000093D000400002010B545F255500BF0C6
:1004300075F803200BF075F84FF49C700BF074F80E
:100440000BF075F80BF078F810BD1CB50027B84616
:10045000B946DFF8ACA101F063FC02F03CFE00F00D
:100460000BF900F014F900F054FF01F083FB00F0E9
:10047000A0FA01F013FD01F095FE03F099FF03F0DF
:100480000CFF00F00AF904F0C3FA08F044FD07F08D
:1004900030FC07F006FA01220021084601F0A2FB19
:1004A00004F0D3FC09F0AAFC04F092F804F072F90D
:1004B00040F6B83000F0B5F803F04BFD07F090F8C7
:1004C0009CE050480168404600F0A2F838B14D4821
:1004D000D0F8008004F012FA08B904F010FD04F01E
:1004E00046FA48480168384600F092F8642801D975
:1004F00044480768002001F0E7FC0446002001F0B2
:1005000067FE0190002003F069FF0546002004F01B
:1005100001FB009001F027FC064616B1304602F0C0
:1005200092FE0CB33849204602F071FC18B92046FF
:1005300001F06CFD18E04FF0000B3349204603F04A
:10054000E7F8217A0022D4E9000304F000F883469A
:10055000BBF1000F04D0207A10B120681FF019F809
:10056000204601F07DFD00BF7DB30021284602F04A
:100570004EFC88B923480168504600F049F842F221
:100580001071884201D903F0EBF81E48D0F800A0A2
:10059000284603F0C4FF18E04FF0000B0021284666
:1005A00003F0B6F8297A0022D5E9000301F03BFDFB
:1005B0008346BBF1000F04D0287A10B128681EF0E2
:1005C000E8FF284603F0B8FF00BF019801F0ABFE3A
:1005D000304601F0CEFB009804F060FB094801684A
:1005E000484600F015F841F28831884204D30548A6
:1005F000D0F8009003F099F803F0B0FC61E7000038
:10060000E0B1FFFF14000020A815020800BFFEE7BC
:100610000246914201D3881A7047C2F1FF30084464
:10062000FAE710B503461348046800BF1148016893
:100630002046FFF7EDFF9842F8D310BD002105E0FA
:10064000002200E0521C0A2AFCD3491C8142F7D345
:10065000704770477047704710B506480068401CE7
:100660000449086004F046FC01F019FB00F00DFAA3
:1006700010BD00001400002010B5012108070BF088
:100680004EF9012140F2FD100BF03CF910BD10B500
:10069000012129480AF0C5FE10BD30B52748006881
:1006A0004FF47A72B0FBF2F1B1F1807F00D31DE01C
:1006B00021F07F40401E4FF0E022506150170F2282
:1006C000002807DA13071D0E1D4B00F00F04241F2E
:1006D0001D5503E013071C0E1A4B1C5400BF0020CD
:1006E0004FF0E02290610720106100BF30BD3EB5A1
:1006F000124800681449B0FBF1F0401E84B2012199
:1007000008460BF00CF968460BF060FD4FF6FF70E1
:10071000ADF80400ADF800400020ADF80600ADF8DB
:10072000020069464FF080400BF024FA012188074F
:100730000BF07CFD3EBD00000002300000000020F8
:1007400018ED00E000E400E040420F001FB5042077
:100750008DF80F0002208DF80E000120ADF80C007E
:1007600003A9F7480AF08CFD4FF40050ADF80C00D7
:1007700003A9F3480AF084FD00208DF8080010203A
:100780008DF8090001208DF80A00002102200AF0EE
:100790008DFE0120019001A809F0AEFE01208DF828
:1007A000010000208DF8020001208DF803000620D2
:1007B0008DF80000684609F0FEFC0220ADF80C0040
:1007C00003A9DF480AF05CFD4FF48040ADF80C004F
:1007D00003A9DB480AF054FD012102200AF066FE5D
:1007E0000220019001A809F087FE07208DF8000083
:1007F000684609F0E0FC1FBD28B1D249C988491CF0
:10080000D04AD18004E0CF49C988491ECD4AD18061
:10081000CC494880C9883F2907DD18B10021C94A61
:10082000D18002E03F21C74AD18070472DE9F041D5
:10083000C348806886B2C248806887B207F0010763
:1008400006F4005627B90EB9012405E0002403E0A0
:100850000EB9002400E0012484F001042046FFF7D3
:10086000CBFFB848C568B8480068B649C860B64804
:1008700001682846FFF7CCFE0546FA2D03D9012072
:10088000B04988800DE02DB14FF4FA70B0FBF5F05F
:10089000AC498880AB488088502802DD5020A949A7
:1008A0008880BDE8F08110B5012009F08BFE68B1A9
:1008B0000024FFF79DFC04460120A449087020464F
:1008C000FFF79AFC012009F08EFE00BF10BD30B189
:1008D0009C49C98A491C8AB29A49CA8205E0994949
:1008E000C98A491E8AB29749CA8296494882C98AEA
:1008F0003F2907DD18B100229249CA8202E03F2257
:100900009049CA8270472DE9F041002000E0401C68
:100910007828FCDB8A48806886B28948806887B27C
:1009200007F0020706F4804627B90EB9012405E056
:10093000002403E00EB9002400E0012484F0010447
:100940002046FFF7C4FF7F48C5697F4801687D489E
:10095000C1617D4801682846FFF75AFE0546FA2D19
:1009600003D90121774881820DE02DB14FF4FA704F
:10097000B0FBF5F1734881827248808A502802DD0D
:10098000502170488182BDE8F08110B5022009F045
:1009900019FE68B10024FFF72BFC044601206B49C7
:1009A00048702046FFF728FC022009F01CFE00BF1B
:1009B00010BD10B5FFF7CAFE00240DE0614901EB40
:1009C00004110C8000205F4901EB0411C8805D49CF
:1009D00001EB04110881641C022CEFD310BD014609
:1009E000C8880A89904203D0C888088101207047CE
:1009F0000020FCE770B504460026022C02DD4FF60D
:100A0000FF7070BD4F4800EB0410C088401C85B2D9
:100A1000FFF7EEFB06464E4830F81400A84200DA15
:100A20000025484800EB04100581464800EB0410FF
:100A3000C5803046FFF7E0FB2846E2E70146414823
:100A400000EB01100089704770B504460D46002682
:100A5000022C02DD4FF6FF7070BD3D4830F81400E7
:100A6000A84202DA3A4830F81450FFF7C1FB0646B4
:100A7000344800EB04100581324800EB0410C580B7
:100A80003046FFF7B9FB2846E6E770B58AB000208C
:100A900009900026FFF7ACFB064600241BE02B481C
:100AA000005D20B12948005D401C284908552748B1
:100AB000005D032803D1012009A9085509E0234856
:100AC000005D1C2805D1002020490855022009A9F5
:100AD0000855601CC4B2022CE1DB3046FFF78CFBEA
:100AE0009DF82400012802D1FFF7A0FE17E09DF831
:100AF0002400022813D11349498809B1012100E0DB
:100B000000210846FFF778FE0E48C0884FF6FE71B8
:100B100008400C49C8800846C088401E08819DF8DE
:100B20002500012802D1FFF7EEFE24E09DF8250004
:100B3000022820D10349498A61B101210BE000005C
:100B4000001001402405002014000020180000209F
:100B50005A0F020800210846FFF7B9FE1548C08A5F
:100B60004FF6FE7108401349C8820846C08A401EED
:100B700081B210480183002518E00E4901EB0510F1
:100B8000FFF72DFF88B104208DF80000094800EB25
:100B90000513D3E90012D3E90203CDE90403CDE93B
:100BA0000212684601F0ECF800BF6D1C022DE4D380
:100BB0000AB070BD2405002010B50346002004E0F3
:100BC000141A641E0C5D1C54401C9042F8D310BDD6
:100BD00030B502460B464FF0FF3002B103B930BDCD
:100BE000002108E0C4B2555C6C40734D55F82440B8
:100BF00084EA1020491C9942F4D3C04300BFEEE7B9
:100C000070B502460C46FF25FF2312B94FF6FF7060
:100C100070BD09E012F8010B80EA03016748405CEF
:100C200080EA05036648455C201EA4F10106B4B2C3
:100C3000F0D143EA0520EBE72DE9F04F03460C46DF
:100C4000944600221D680026DFF87891012C57DDBC
:100C5000601E53F82020342090FBF4F000F10608C9
:100C600046E04E44C6F3810700211FE0481C53F8BC
:100C70002050500980EA85004FEAD50A8AEA021A14
:100C8000504486EA050A01F0030B8BEA070B5CF877
:100C90002BB08BEA020BDA4480EA0A0053F821A059
:100CA000504443F8210053F82120491C601E88421B
:100CB000DCDC1D68500980EA85004FEAD50A8AEA23
:100CC000021A824486EA050001F0030B8BEA070B47
:100CD0005CF82BB08BEA020B58448AEA000A601ECB
:100CE00053F820008244601E43F820A053F82020CF
:100CF000B8F10000A8F10108B3DC0020BDE8F08FD6
:100D0000B4F1FF3F56DA6442601E53F820203420CD
:100D100090FBF4F000F1060808FB09F646E0C6F384
:100D20008107611E20E0481E53F82020500980EA08
:100D300085004FEAD50A8AEA021A504486EA050A73
:100D400001F0030B8BEA070B5CF82BB08BEA020B6C
:100D5000DA4480EA0A0053F821A0AAEB000043F825
:100D6000210053F82150491E0029DCDC601E53F895
:100D70002020500980EA85004FEAD50A8AEA021A43
:100D8000504486EA050A01F0030B8BEA070B5CF876
:100D90002BB08BEA020BDA4480EA0A00D3F800A0F9
:100DA000AAEB000018601D68A6EB0906002EB6D15C
:100DB0000020A3E70120A1E7700F020870130208CA
:100DC00070140208B979379E2DE9F04106460427D0
:100DD00009F031FC09F09BFE04466EB1E04340F09F
:100DE000C005C020A043C02815D009F0EEFC28465D
:100DF00009F0ABFD00F0B3FA44F0C000C54364F065
:100E0000C000401C38B109F0E0FC15B1284609F0DB
:100E10009CFD00F0A4FA09F01AFCBDE8F0812DE970
:100E2000F74F044690460426DDF804B028F003008E
:100E3000404502D0701FBDE8FE8FE40AE40204EBD7
:100E4000080909F0F8FB08F2FF704FEAD02A3520B4
:100E500009F08CFE002707E04FF4006101FB07401A
:100E600009F02EFC06467F1C574501D2042EF3D014
:100E7000042E00D026E02546002708E038467F1CD7
:100E80005BF82010284609F0EBFC06462D1D4D4569
:100E900001D2042EF2D0042E00D013E02546042601
:100EA000002708E02A6838467F1C5BF82000824251
:100EB00000D002262D1D4D4501D2042EF2D109F09D
:100EC000BAFB00BF042E02D04FF0FF30B3E7002082
:100ED000B1E770B5044634B10C252A46FA492046DC
:100EE0001EF027FD00BF70BD2DE9F041074600262A
:100EF000F64D002415E055F82400401C78B9601C1C
:100F000055F82000401C50B9A01C55F82000401C8A
:100F100028B9E01C55F82000401C00B903E0361D3C
:100F2000641CBE42E7D300BF3146E848FFF750FEDD
:100F3000BDE8F0812DE9FF4104460D4616461F46E7
:100F400004B125B94FF0FF3004B0BDE8F08195E859
:100F500007008DE8070003964FB19DE80F0084E875
:100F60000F006A4604212046FFF766FE06E0D848D7
:100F700020606A4601212046FFF75EFE0020E3E77D
:100F80002DE9F0438BB006460F46154626B94FF0C3
:100F9000FF300BB0BDE8F0834FF00409E84696E857
:100FA0000F0001AC0FC417B1CA48009009E0C8484F
:100FB00000900020CDE9065001AA022106A8FFF703
:100FC0003BFE00200890002405E058F82410089803
:100FD00048400890641C082CF7D309F02CFB3420FF
:100FE00009F0C4FDBC4809F06BFB8146E8460024CB
:100FF00010E058F82410B84A02EB840009F030FCE5
:101000008146B9F1040F04D009F021FB4FF0FF3005
:10101000BFE7641C0A2CECD309F019FB0020B8E7E9
:101020002DE9F04387B005468846AB4CAB480068D5
:10103000401CB0B9AA48FFF74CFF4FF0FF30FFF754
:1010400053FFA649086000230846A5490268A54841
:10105000FFF770FF0123A148A1490268A248FFF7EA
:1010600069FFA248007800287CD19949206888420D
:1010700003D098492068884267D1DFF85C92002746
:10108000002603E059F826004740761C082EF9D3C5
:10109000206AB84258D18E492068884238D1914898
:1010A00000686168884224D1D4E90601CDE90401D1
:1010B000221D6FF0010104A8FFF7BEFD0020DDE94D
:1010C0000421D2F10302884103D204208749087029
:1010D0000EE0844B0FCB8DE80F0004994A1C4FF0B3
:1010E00000016846FFF74CFF01208049087000BFEF
:1010F0002AE07C4B0FCBCDE90423CDE90201042289
:10110000002102A8FFF73CFF0420784908701BE08B
:101110001022211D74481EF04CFB18B9032073499E
:10112000087011E06F4BD3E901211868DB68CDE945
:101130000413CDE902020422002102A8FFF720FFD8
:1011400004206A49087000BF0CE0664B0FCB02AE6A
:101150000FC60022114602A8FFF712FF01206349C3
:10116000087000BF61480078012831D160480168EB
:1011700060480068FFF74CFA44F62061884227D99E
:10118000D4E90601CDE90401201D0FC88DE80F0048
:101190005748006857490860221D6FF0010104A8F4
:1011A000FFF74AFD0498421C4FF000016846FFF724
:1011B000E7FE0020DDE90421D2F10302884102D2DA
:1011C00004204A49087015B141460220A84700BFD3
:1011D00046480078042821D11022211D42481EF0E3
:1011E000E8FA28B903204149087007B0BDE8F08348
:1011F00015B141460420A8473D4801683D480068B4
:10120000FFF706FA44F62061884207D9384800689B
:101210003849086015B141460520A84700BFE4E7FA
:1012200070B50446042509F006FA00BF342009F021
:101230009DFC09F0CAFA0546042D00D006E02146BF
:1012400021481C3009F05DFB054600BF00BF09F0D6
:10125000FEF9042D01D1002070BD4FF0FF30FBE7F7
:1012600019481C30007870472DE9F0414FF0040810
:101270000025214E214F4AF2A55031460880002416
:1012800004E036F81400284485B2641C082CF8D316
:101290001948058209F0CFF9342009F067FC174896
:1012A00009F00EFA804600242CE036F81410384677
:1012B00009F009FB8046B8F1040F21D009F0C7F905
:1012C0000020BDE8F0810000E8F7FF1F00300008B3
:1012D00067452301EFCDAB8900900708240000206B
:1012E0005805002074050020640500201C00002023
:1012F000140000202000002044050020009807086A
:10130000BF1C641C092CD0D309F0A1F90120BDE851
:10131000F08170B50025184E1222184930461EF093
:10132000C3FA304600884AF2A551884200D00EE048
:10133000002404E036F81400284485B2641C082C0C
:10134000F8D30D48008AA84200D170BD00BF0A48FA
:10135000801C02F0A9FDFFF787FF00BFF5E70848F2
:10136000006800F4E06007490843001D0449086074
:10137000BFF34F8F00BFFEE7440500200098070829
:101380000CED00E00000FA052DE9F04707460C4699
:10139000164698464FF0000917B10CB1002E03DA3B
:1013A0004FF0FF30BDE8F087FEF722FF814606EBE5
:1013B0004600C10020461EF018FB142138461EF0DE
:1013C00014FB002510E005EB450004EBC000A0F87D
:1013D0000C8005EB450004EBC000183005EB45011F
:1013E00004EBC10108616D1C701EA842EBDC0020FB
:1013F00005EB450104EBC10108617E603C60484695
:10140000FEF7FAFE0020CDE770B504460026002561
:101410000CB9002070BDFEF7EBFE0646206828B12F
:101420002568286920600020686128613046FEF741
:10143000E3FE2846EEE72DE9F04106460C46174646
:1014400006B11CB94FF0FF30BDE8F0814FF0000845
:1014500017B106F10C0001E006F110000546FEF799
:10146000C7FE8046286818B92C606461246109E0D1
:1014700028682061286840690461286840696061C3
:10148000286844614046FEF7B7FE0020DCE72DE9FE
:10149000F04105460F464FF00008002615B9002020
:1014A000BDE8F08117B105F10C0001E005F1100075
:1014B0000446FEF79DFE8046206808B9002618E025
:1014C0002668206800692168884202D100202060D7
:1014D0000CE020684069216809694861206800695A
:1014E00021684969086120680069206000207061F6
:1014F00030614046FEF780FE3046D1E770B50446C5
:101500000D4604B115B94FF0FF3070BD0026FEF74F
:101510006FFE06462068286125603046FEF76CFEA7
:101520000020F2E72DE9F04104460D46164600275B
:1015300004B11DB94FF0FF30BDE8F081FEF758FE51
:101540000746182120461EF050FA25607008A0605A
:10155000A068284460603846FEF74EFE0020EBE7A6
:101560002DE9F04704460F4615464FF00008C146E6
:1015700004B11FB94FF0FF30BDE8F087FEF738FE29
:1015800080466169A068461AB54202D94FF0FF391A
:1015900029E0E0682844A16888420FD9D4E9020113
:1015A000461AE26821688818324639461EF07CF9EE
:1015B000AA1BB91920681EF077F906E0E2682168D5
:1015C00088182A4639461EF06FF9E0682844E06022
:1015D000D4E90210B0FBF1F201FB1200E060606997
:1015E0002844606100BF4046FEF706FE4846C3E758
:1015F0002DE9F04104460D46002714B90020BDE84E
:10160000F081606908B90020F9E7FEF7F1FD0746AF
:10161000D4E904010844A168884211D92169A0686D
:10162000461A23692268D118324660681EF03CF9D8
:1016300063699A1BD4E9001398191EF035F906E086
:10164000266923689919626960681EF02DF9D4E94A
:10165000040108442061A1682069B0FBF1F201FB9C
:10166000120020610DB16069286000206061384679
:10167000FEF7C2FD6068C2E7F0B5024692F8284066
:1016800004F0070600210DE0FA4C605CFA4C54F8B7
:10169000204034B1F94C34F81040F74D55F8205043
:1016A0002C61491C0429EFD3002342E0F14FF85C80
:1016B000F14F57F8207047B1F04F37F81070DFF84E
:1016C000B8C35CF820C0CCF81470002100E0491CBD
:1016D0002829FCD300BF00BF00BF0024002113E075
:1016E000E74F57F82170BF68DFF898C33CF811C086
:1016F00007EA0C050DB1012700E000273D4605FA79
:1017000001F72743BCB2491C0329E9D3DA4F57F844
:10171000207047B1D94F37F81070DFF85CC35CF820
:1017200020C0CCF8107002F1080707EB8607FC54C4
:101730005B1C042BBAD3946A641C9462F0BDF0B5B0
:1017400003460C46FF260025002114E000220BE092
:1017500003EB8100875C481C03EB8000805C8742C0
:1017600001D06D1C02E0521C042AF1DB00BF042AE8
:1017700000D10E46491C0729E8DB052D01DD0020BC
:10178000F0BD082E01DB0020FAE703EB86000068BD
:1017900020600120F4E770B502460D46002366E0A4
:1017A000581CC4B25FE002EB8300407800F0F00008
:1017B00002EB8406767806F0F006B04251D10021A3
:1017C0000FE002EB8300407800F00F0002EB81068F
:1017D000767806F00F06B04201D1012070BD481C9A
:1017E000C1B29942EDDB581CC1B20FE002EB83009D
:1017F000407800F00F0002EB8106767806F00F06C5
:10180000B04201D10120E9E7481CC1B2A942EDDB99
:1018100000210FE002EB8400407800F00F0002EBA3
:101820008106767806F00F06B04201D10120D5E797
:10183000481CC1B2A142EDDB601CC1B20FE002EB5B
:101840008400407800F00F0002EB8106767806F005
:101850000F06B04201D10120C0E7481CC1B2A94225
:10186000EDDB601CC4B2AC429DDB581CC3B2681EE9
:10187000984295DC0020B1E72DE9F05F074697F824
:10188000280000F0070007287ED1394607F108003C
:10189000FFF755FF8346BBF1000F02D10020BDE8E2
:1018A000F09FB94607F1040A07F12C08002400252F
:1018B0005FE00020002119F805201AF8053082EABF
:1018C000030019F805201AF8053002EA030160B395
:1018D000002628E00122B24002401AB3082C00DBA7
:1018E0004AE0F02202EA051206F00F031A4308EB61
:1018F00084035A7005EB4502634B1A44925D08F865
:10190000242019F805200123B3401A4022B10222F5
:1019100008EB84039A7003E0012208EB84039A70B9
:10192000621CD4B2761C032ED4DB09B300261DE062
:101930000122B2400A40C2B1082C00DB1CE0F022B8
:1019400002EA051206F00F031A4308EB84035A70EB
:1019500005EB45024C4B1A44925D08F82420EE2218
:1019600008EB84039A70621CD4B2761C032EDFDB72
:101970006D1C042D9DDB00BFD9F80000CAF80000E3
:10198000042C09DB214600E008E007F12C00FFF7FA
:1019900002FF08B1002082E7204680E700207EE7B2
:1019A00038B503208DF8020010208DF803000024C4
:1019B00012E0344830F81400ADF80000304951F816
:1019C0002400694609F05CFC2E4830F814002C49CC
:1019D00051F824104861641C032CEAD300BF28206E
:1019E0008DF8030000240BE0264830F81400ADF811
:1019F0000000234951F82400694609F041FC641CA9
:101A0000032CF1D300BF38BD38B503208DF8020098
:101A100010208DF8030000240BE01C4830F814005F
:101A2000ADF800001A4951F82400694609F028FC75
:101A3000641C002CF1D038BD38B503208DF80200AD
:101A400010208DF8030000240FE00C4830F814003B
:101A5000ADF80000084850F8240028B1064951F8B4
:101A60002400694609F00CFC641C042CEDD300240E
:101A700020E00000A215020884150208941502084F
:101A8000701502087C15020839000020A015020814
:101A90009C150208964830F81400ADF800009548EF
:101AA00050F8240028B1934951F82400694609F000
:101AB000E7FB641C002CEDD038BD002007E08E4908
:101AC00031F810108D4A52F820201161401C002876
:101AD000F5D0704700200BE0864951F8201031B155
:101AE000834931F81010834A52F820201161401CBC
:101AF0000028F1D0704700200BE07E4951F82010FB
:101B000031B17B4931F810107A4A52F82020116126
:101B1000401C0428F1D3704710B5FFF7ECFFFFF726
:101B2000D9FF10BD2DE9F04106460024375DFFF7CF
:101B3000C4FFFFF7CFFF00250BE00120A84038408D
:101B400030B16D4830F815006C4951F825104861E6
:101B50006D1C002DF1D0674850F8240030B1644866
:101B600030F81400634951F824104861601C70601B
:101B7000BDE8F08110B5FFF713FFFFF745FFFFF752
:101B80005BFFFFF7C9FF4C215D481DF02EFF5D484C
:101B90000021016041605C4801705C4801705C4854
:101BA000017010BD30B5034600230021554C60186C
:101BB0002AB1047801259D402C43047004E0057887
:101BC00001249C40A543057030BD0246002200213F
:101BD0004C48435C01209040184008B101207047F8
:101BE0000020FCE730B5034600230021464C601876
:101BF0002AB1047801259D402C43047004E0057847
:101C000001249C40A543057030BD10B541480168D2
:101C100041480068FEF7FCFCB0F5FA7F1ED90021B0
:101C20000FE0384B5818384B5A5C4AB13B4B1B7885
:101C30001BB103781343037002E0037893430370EE
:101C4000491C0029EDD0334B1B68334C2360334BC8
:101C50001B7883F00103314C237000BF10BD70B5B9
:101C60000446002504B1FF252748002101702A46BB
:101C7000012124481DF08FFE70BD254822490978B6
:101C8000017022481F490978017070471E48204999
:101C9000097801701B481D4909780170704710B51B
:101CA0008AB01C48007800F00100D0B90024FFF78A
:101CB00004FF1348FFF7E0FC1148FFF7DDFD044681
:101CC000002C0DDD019401208DF80000A2000C49CC
:101CD0002C3102A81DF02DFE684600F051F800BF1F
:101CE00000BFFFF792FF0748FFF71CFF0AB010BDC7
:101CF0009415020884150208A01502089C15020814
:101D00008405002028000020300000203100002041
:101D10003200002014000020340000203800002091
:101D200010B50623082224492448FFF72DFB002480
:101D300016E0002004EB44011F4A02EBC1010872C7
:101D400004EB84001E4901EBC00004EB440142F89F
:101D50003100282004EB440102EBC1014860641CFF
:101D6000082CE6D310BD10B501211448FFF78FFBF6
:101D700010BD10B5044621461048FFF7BFFB10BD4B
:101D800070B50446002504B970BD0C48FFF73CFB54
:101D9000054675B12822214628681DF085FD0122DF
:101DA00029460648FFF747FB18B129460348FFF7C5
:101DB000A5FB00BFE8E7000010070020D0070020C7
:101DC000D005002000B587B00121880309F09AFDF5
:101DD00003A80AF0B5FD4FF4E130039003A9AD4824
:101DE0000AF045FD0121AB480AF0CDFD4FF400702B
:101DF000ADF8080003208DF80A0018208DF80B00BC
:101E000002A9A54809F03CFA4FF48060ADF808003B
:101E100004208DF80B0002A99F4809F031FA252013
:101E20008DF8040004208DF8050000208DF80600D0
:101E300001208DF8070001A808F0BDF9012240F249
:101E4000255194480AF0ABFD0121084609F04DFDEB
:101E500043F29000914948648E48001DC8640020F8
:101E600088640865012280218A480AF0BDFD07B018
:101E700000BD38B58748048804F0200010B904F08C
:101E8000080050B18348001D0088C0B200900122B4
:101E900069468348FFF764FB00BF38BD10B50023D7
:101EA000202280498048FFF76FFA4FF440727F4943
:101EB0007B48FFF737FB4FF480627D497D4800F097
:101EC0008BFAFFF77FFF10BDF0B585B0054600BF68
:101ED00000270020049004A97148FFF789FB0746FA
:101EE00007B92CE028E0002600200390029000248F
:101EF00002A903ABCDE9001039466E48049A00F000
:101F00007DFA064606B918E06748FFF77DFA0446F1
:101F10001CB930461DF03DFB0FE026600398606061
:101F2000012020720298A072012221465E48FFF72C
:101F300082FA0020049000BFD5E700BF00BF00BFB9
:101F400000BF00245C480078E8B15448006800F401
:101F5000005010B905B149E049E04E48008800F052
:101F6000400010B905B141E041E04FF480504B49C9
:101F700048605248007A18B1504908681DF009FBC2
:101F800000204D49087000214748FFF780FA0446B9
:101F90005CB36068002801DD206848B9207A20B170
:101FA000206810B120681DF0F4FA05B11EE01EE0B3
:101FB0003A48406C20F00100384948646068886401
:101FC000206808650846406C40F001004864012024
:101FD000394908701822214638481DF0AAFC2146CC
:101FE0003148FFF78BFA05B100E000E0A9E700BF38
:101FF00000BF002401212C48FFF749FA044614B120
:10200000204605B0F0BD00BF0020FAE710B5044639
:1020100044B1207A10B120681DF0BBFA2146224855
:10202000FFF76CFA10BD2DE9F04105460E469046CB
:102030001F46002415B9601EBDE8F0811A48FFF75D
:10204000E3F9044614B94FF0FF30F5E72560676007
:102050002672002221461448FFF7EDF90020EBE735
:1020600010B504461CB121460F48FFF747FA10BDD2
:102070004FF48060704710B5044604B910BD0020CD
:10208000A0810C206081214602480AF0F0FB00BFCD
:10209000F4E7000000380140000801400000024061
:1020A000F80D0020E4070020E40A0020F80A0020D0
:1020B000100E0020101200204500002028120020E1
:1020C00000B587B00121480409F029FC03A80AF0F3
:1020D00037FC4FF4E130039003A9B4480AF0C7FB82
:1020E0000121B2480AF04FFC0420ADF8080003209B
:1020F0008DF80A0018208DF80B0002A9AC4809F0F1
:10210000BFF80820ADF8080004208DF80B0002A9E4
:10211000A74809F0B5F826208DF8040004208DF8B2
:10212000050000208DF8060001208DF8070001A8A9
:1021300008F041F8012240F225519C480AF02FFC9A
:102140000121084609F0D1FB43F29000994908604B
:102150009648001D97498039C1F8880000209549AC
:10216000091D086093498039C1F88C000122802143
:102170008E480AF039FC07B000BD38B58B4804889A
:1021800004F0200010B904F0080050B18748001D89
:102190000088C0B20090012269468748FFF7E0F945
:1021A00000BF38BD10B50623202284498448FFF7BC
:1021B000EBF84FF4407283497F48FFF7B3F94FF4CF
:1021C00080628149814800F007F9FFF779FF10BD6F
:1021D000F0B585B0054600BF00270020049004A993
:1021E0007548FFF705FA074607B92CE028E00026F6
:1021F000002003900290002402A903ABCDE9001057
:1022000039467248049A00F0F9F8064606B918E013
:102210006B48FFF7F9F804461CB930461DF0B9F9D0
:102220000FE0266003986060012020720298A0727F
:10223000012221466248FFF7FEF80020049000BF0B
:10224000D5E700BF00BF00BF00BF00246048007892
:10225000F8B158488038006800F0007010B905B136
:1022600051E051E05148008800F0400010B905B13C
:1022700049E049E04FF080704E4980394860554848
:10228000007A18B1534908681DF083F900205049BD
:10229000087000214A48FFF7FAF804468CB36068DA
:1022A000002801DD206848B9207A20B1206810B1EB
:1022B00020681DF06EF905B125E025E03D48006875
:1022C00020F001003B490860091D60680860394939
:1022D00080392068C1F88C000846D0F8800040F0B2
:1022E000010034490860012039490870182221464C
:1022F00038481DF01EFB21463148FFF7FFF805B1B5
:1023000001E0FFE700E0A0E700BF00BF00240121DB
:102310002B48FFF7BCF8044614B1204605B0F0BDC9
:1023200000BF0020FAE710B5044644B1207A10B18E
:1023300020681DF02EF921462148FFF7DFF810BD77
:1023400010B504461CB121461D48FFF7D7F810BD53
:102350004FF4806070472DE9F04105460E469046E7
:102360001F46002415B9601EBDE8F0811448FFF730
:102370004BF8044614B94FF0FF30F5E7256067606D
:102380002672002221460E48FFF755F80020EBE7A1
:1023900010B5044604B910BD0020A0810C20608156
:1023A000214602480AF063FA00BFF4E70044004007
:1023B0000008014080000240541800204012002014
:1023C00040150020541500206C1800206C1C0020C3
:1023D00046000020841C002070B504460E461546B9
:1023E0000CB106B115B94FF0FF3070BD1821204671
:1023F0001DF0FBFA266065600020F6E72DE9FF4F2F
:102400008DB0044691469A46DDF86880002700208A
:102410000C9014B1BAF1000F03D14FF0FF300C90C3
:1024200023E221696068401A484502D24FF0FF302C
:102430000C90B9F1000F2ED00E9818B94FF0FF3064
:102440000C90EDE7A06800EB09066068B04214D27A
:10245000D4E90101451AA268216888182A460E9914
:102460001DF022FAA9EB05020E9B591920681DF0F8
:102470001BFAA9EB0500A06009E0A2682168881892
:102480004A460E991DF010FAA0684844A0602069E1
:102490004844206100BF00BF00200B900025BDE331
:1024A000E06828440A9061680A98B0FBF1F201FBE9
:1024B00012000A9021680A98085C09900998AA28D5
:1024C0007DD10026002008902069401B07900798C6
:1024D000072806DB606928B1A08AC0F30726207DA3
:1024E000089085E0E26850192168821C6368B2FB9D
:1024F000F3FC03FB1C228A5C042A78D1C21C6368AB
:10250000B2FBF3FC03FB1C228A5C002A6FD1421D44
:102510006368B2FBF3FC03FB1C228E5C821D6368C4
:10252000B2FBF3FC03FB1C228A5C0892079A082A80
:102530005DDBD4F80CC0AC44CDF818C005F1070C35
:10254000D4F80CB00CEB0B034FF0000CCDF814C01A
:10255000069A10E0D4F804C0B2FBFCFB0CFB1B2C69
:10256000D4F800B01BF80CC0DDF814B08CEA0B0CEA
:10257000CDF814C0521C9A42ECD3D4F804C0B3FB7B
:10258000FCFB0CFB1B3CD4F800B01BF80CC0CDF8D6
:1025900010C0DDE904CBE3451BD005F1010CD4F8F4
:1025A00010B0ABEB0C0CC4F810C005F1010CD4F862
:1025B0000CB0DC44C4F80CC0D4F80CC000E03FE11F
:1025C000D4F804B0BCFBFBFE0BFB1ECCC4F80CC063
:1025D00028E3F6B2DDF820C00CF0FF0CCDF820C0E7
:1025E000DDF820C00CEB062CC4F814C000BF00BFFF
:1025F000F6B20898C0B20890089800EB0626083694
:102600006068B6EB500F11D9681C2169081A206167
:10261000681CE1680844E0606168E068B0FBF1F2C2
:1026200001FB1200E0600020606108E1079886422B
:1026300075DC082E75D100200690019601981CF0DB
:1026400079FF07461FB94FF0FF300C9007E305975D
:10265000E06828440390701E2844E1680844029012
:102660000398049015E061680498B0FBF1F201FB57
:102670001200216811F800B0069880EA0B0006905D
:10268000059880F800B00598401C05900498401CFF
:102690000490029904988842E5D361680298B0FBDF
:1026A000F1F201FB1200216811F800B006985845BC
:1026B0001FD101200B90059880F800B02169019886
:1026C0002844081A2061E068411901980844E06034
:1026D0006168E068B0FBF1F201FB1200E060019874
:1026E000CAF80000B8F1000F18D00120C8F80000A7
:1026F00014E038461CF04DFF0027681C2169081AB9
:102700002061681CE1680844E0606168E068B0FB33
:10271000F1F201FB1200E060002060618FE07FE0D9
:10272000FFE7059605981CF005FF07461FB94FF017
:10273000FF300C9093E2E06828446168B0FBF1F24E
:1027400001FB120B7019E16808446168B0FBF1F2FB
:1027500001FB120006900698584507D9206800EB47
:102760000B01324638461DF09FF811E06068A0EB7F
:102770000B000290206800EB0B013846029A1DF016
:1027800093F8029BF21AF81821681DF08DF800BF2B
:1027900000206061A6F10A0081B207F10800FEF78F
:1027A0002FFA049000200390B819811E022203A87A
:1027B000FEF702FABDF80C10049881421CD10120EA
:1027C0000B90216905982844081A2061E068411996
:1027D00005980844E0606168E068B0FBF1F201FB35
:1027E0001200E0600598CAF80000B8F1000F16D09A
:1027F0000120C8F8000012E038461CF0CAFE00278D
:10280000681C2169081A2061681CE1680844E060BE
:102810006168E068B0FBF1F201FB1200E0600EE0DD
:102820002069401B2061E0682844E0606168E0683E
:10283000B0FBF1F201FB1200E06001200B90F1E12E
:102840000998FA2870D12069A0EB050BBBF1070F9E
:102850006BDB002008900720039003981CF06AFEB1
:1028600007461FB94FF0FF300C90F8E13E46E06894
:1028700028440590A81DE168084404900598069036
:102880000FE060680699B1FBF0F200FB12102168BE
:10289000085C07909DF81C0006F8010B0698401C88
:1028A0000690049906988842EBD30220069009E02E
:1028B0000698385C9DF820100844C0B2089006982D
:1028C000401C069006980628F2D360680499B1FB74
:1028D000F0F200FB12102168085C07909DF82000C0
:1028E0009DF81C10884221D101200B909DF81C00FE
:1028F0003070206903992944401A2061E068284417
:1029000003990844E0606168E068B0FBF1F201FB04
:102910001200E0600398CAF80000B8F1000F18D068
:102920000520C8F8000014E024E013E038461CF04D
:1029300030FE0027681C2169081A2061681CE168C4
:102940000844E0606168E068B0FBF1F201FB12004E
:10295000E0600EE02069401B2061E0682844E060F0
:102960006168E068B0FBF1F201FB1200E060012059
:102970000B9057E1099800F0F000802879D1206988
:10298000401B08900898032874DBE06828440790EF
:10299000D4E9031000EB010B002006900798861C79
:1029A0000DE06068B6FBF0F100FB11602168085C87
:1029B00006900698FF2801D1B34602E0761C5E45DA
:1029C000EFD300BF0698FF2855D10798ABEB000066
:1029D000401C102810D90027681C2169081A2061A2
:1029E000681CE1680844E0606168E068B0FBF1F2EF
:1029F00001FB1200E06063E00798ABEB0000401CB5
:102A0000049004981CF096FD07461FB94FF0FF3064
:102A10000C9024E1059701200B90079E0CE0606864
:102A2000B6FBF0F100FB11612068415C0598017074
:102A30000598401C0590761C5E45F0D921690498E4
:102A40002844081A2061E068411904980844E060AD
:102A50006168E068B0FBF1F201FB1200E0600498ED
:102A6000CAF80000B8F1000F02D00420C8F8000036
:102A700026E036E025E00798ABEB0000102810D3E5
:102A80000027681C2169081A2061681CE168084455
:102A9000E0606168E068B0FBF1F201FB1200E06009
:102AA0000EE02069401B2061E0682844E060616816
:102AB000E068B0FBF1F201FB1200E06001200B9036
:102AC0000EE02069401B2061E0682844E0606168F6
:102AD000E068B0FBF1F201FB1200E06001200B9016
:102AE000A0E00998A52871D12069A0EB050BBBF1E6
:102AF0000B0F6CDB002008900B20039003981CF058
:102B000019FD07461FB94FF0FF300C90A7E03E4675
:102B1000E0682844059005F10A00E1680844049043
:102B2000059806900FE060680699B1FBF0F200FB93
:102B300012112068405C07909DF81C0006F8010BFC
:102B40000698401C0690049906988842EBD3012011
:102B5000069009E00698385C9DF820100844C0B241
:102B600008900698401C069006980A28F2D36068E0
:102B70000499B1FBF0F200FB12102168085C079089
:102B80009DF820009DF81C10884221D101200B9057
:102B90009DF81C003070206903992944401A206177
:102BA000E068284403990844E0606168E068B0FB8D
:102BB000F1F201FB1200E0600398CAF80000B8F1DE
:102BC000000F18D00620C8F8000014E024E013E03D
:102BD00038461CF0DEFC0027681C2169081A2061B9
:102BE000681CE1680844E0606168E068B0FBF1F2ED
:102BF00001FB1200E0600EE02069401B2061E068EC
:102C00002844E0606168E068B0FBF1F201FB12006B
:102C1000E06001200B9005E000BF6D1C2069A84218
:102C20003FF63EAC00BF2069A8420FD10B9868B9AF
:102C300000202061E0682844E0606168E068B0FB43
:102C4000F1F201FB1200E060002060610B9800B11E
:102C500003E0206900283FF71FAC00BF00BF1B98AE
:102C600010B11B990C980860384611B0BDE8F08F80
:102C700010B501460B78FC4C24680CB1092200E029
:102C80000722012002E00C5C6340401C9042FADB0A
:102C90000B5410BD2DE9FF4381B08846DDF830901C
:102CA0000024B8F1000F03D1002005B0BDE8F08387
:102CB000DDE9030100FB01F707F1100630461CF0C7
:102CC00039FC04460CB90020EFE7314620461CF0E1
:102CD0006AFEAA2020700420A0700020E070A6F1F7
:102CE0000800009002226946601DFDF765FF20463E
:102CF000FFF7BEFF04F10805022201A92846FDF7EF
:102D00005BFF022203A9A81CFDF756FF022204A9BB
:102D1000281DFDF751FF3A464146A81D1CF0C4FD91
:102D2000B81D81B22846FDF76BFF0090A91DC81998
:102D300002226946FDF740FFB9F1000F01D0C9F842
:102D400000602046B1E7F8B506460F4614461D461A
:102D500023460122394630460095FFF79BFFF8BD18
:102D600070B505460C46ADB1A4B120461CF0E2FB9F
:102D7000064676B12246294630461CF095FD23468C
:102D8000062201213046FFF74EF910B130461CF003
:102D900000FC00BF70BD704770B505460C46ADB174
:102DA000A4B120461CF0C6FB064676B12246294651
:102DB00030461CF079FD234606220121304601F001
:102DC000C6FB10B130461CF0E4FB00BF70BD2DE91E
:102DD000F04105460E461446BDB1B6B1ACB1204631
:102DE0001CF0A8FB07467FB12246314638461CF04E
:102DF0005BFD2346062201213846D5F814C0E04782
:102E000010B138461CF0C5FB00BFBDE8F0812DE9CC
:102E1000F04F8FB007460C4601200E901FB9801E60
:102E20000FB0BDE8F08F3D682878AA2802D04FF097
:102E3000FF30F5E7A8780C287AD1E878802878D197
:102E400000200C900D9000260B904FF001094FF0E0
:102E5000010A8346AA208DF830000C208DF832003C
:102E600080208DF8330001208DF83400A8790D28DA
:102E700060D2DFE800F05F0708165F245F5F5F380D
:102E80005F3A4B0000BFA8798DF8360008201CF08F
:102E900051FB064616B94FF0000950E008200B9090
:102EA0004DE008A8FEF715F84FF0000A0BAB0C2216
:102EB00008A948F20300FFF746FF06463FE000205E
:102EC0000A902CB1206918B12069804780B20A901D
:102ED0004FF0000A0BAB02220AA948F20500FFF7E7
:102EE00032FF06462BE001F087F84FF0FF300A90E2
:102EF000FDF7FAFF0A904FF0000A0BAB04220AA973
:102F000048F20B00FFF71FFF064618E00FF25C18AF
:102F10004FF0000A40461CF09CFC401C0BAB0246E4
:102F200041460A9048F20C00FFF70DFF064606E006
:102F300030E0C9E04FF0000900200E9000BF00BF54
:102F4000B9F1000F20D0FEB1BAF1000F06D00CA8E5
:102F5000FFF78EFE0C9830600D9870601CB93046FB
:102F60001CF017FB10E0606918B930461CF011FB2B
:102F70000AE0D4F814C00622012130460B9BE0473A
:102F800010B130461CF005FBBBF1000F01D001F081
:102F900033F899E0A878042865D100200D90804688
:102FA0000E900222691D0DA8FDF706FE05F1080628
:102FB0000D98801E0D9080E04FF0000900200C90CD
:102FC0004FF0010A0B900A900990022231460BA89B
:102FD000FDF7F2FD0222B11C0AA8FDF7EDFD022269
:102FE000311D09A8FDF7E8FDBDF82C00A0F5004053
:102FF0000A3858BB06F1060B01A8FDF76AFF4FF02F
:10300000FF30FDF771FF0090012301A904A8009A89
:10301000FDF790FF1022594604A81CF0CAFB38B9EE
:10302000002008900022012104A8FDF7A9FF02E07A
:103030004FF0FF3008900CAB042208A948F20A00B8
:10304000FFF781FE814601200E9000E000BF00BF27
:10305000BAF1000F25D0B9F1000F22D084B948464B
:103060001CF097FA1DE02DE04C00002059415F470D
:1030700055495F415544494F5F313830383035004C
:10308000606918B948461CF084FA0AE0D4F814C004
:103090000622012148460C9BE04710B148461CF02F
:1030A00078FABDF82800BDF824104843801D8044FC
:1030B00005F1080000EB080600BF0D988045FFF4FD
:1030C0007BAF01E000200E900E9808B10020A7E62B
:1030D0004FF0FF30A4E60020FA49087070477047AF
:1030E0007047704701460022012003E00B5C134447
:1030F000DAB2401C0628F9DB0A5470477047704763
:10310000704700207047704770472DE9F041064630
:1031100000274FE006F1080000EB8705A878EE28AD
:1031200000D146E095F80080E74C00202060606008
:103130002081AA202070E348007860700720A070EA
:10314000A878012800D12071B8F1010F17D0B8F18B
:10315000020F20D1A878022801D1012000E0002030
:1031600001460A2004F021FBA878022801D10120A1
:1031700000E0002001460A2001F040FE0CE0A878A3
:10318000022807D101F0BAFB10B101F0C4FB01E045
:1031900001F0BDFB00E00CE000BF01F0B2FB84F8E1
:1031A00005802046FFF764FD08212046FFF7D8FD83
:1031B00000BF7F1C7068B842ACD80120BDE8F08128
:1031C000704770B50446C04D0DB9002070BD002099
:1031D000286068602881AA202870BA480078687042
:1031E0000820A870207A2871A07B68712846FFF714
:1031F0003FFD08212846FFF7B3FDA07B00F0010644
:10320000208958B9608920B13146092001F0F6FDC6
:1032100015E031460B2001F0F1FD10E02089012876
:103220000DD1A08904F0AAFA608920B1314613209B
:1032300001F0E4FD03E03146142001F0DFFD01F070
:1032400060FB0120C2E770B505462C682078052890
:1032500001DB002070BD20789C4951F8200030B17E
:1032600020780A4652F8201020468847F2E70020CE
:10327000F0E70246002070470246002070470246F1
:103280000020704702460020704702460020704729
:103290000020704700207047024600207047024619
:1032A0000020704770470246002070472DE9F04F1C
:1032B00087B081460E46B9F1000F03D1002007B058
:1032C000BDE8F08FD9F80040A07807280DD1E0784C
:1032D000502808D1A379DA106379D9102379D8104E
:1032E00000F0F0FE00E000BF10E2A078062878D1E0
:1032F000754D4FF0000A002006904FF0010B0120A1
:103300000590AA2028700620A8708020E87001206F
:103310002871E07846286BD008DC40280DD0412881
:1033200034D043285ED0442875D15EE0502873D055
:10333000802872D08128F7D1F1E014201CF0FAF82F
:10334000804600200590B8F1000F1ED000270CE049
:1033500004A9384601F0D1FE08F817709DF8100056
:1033600008EB47014870781C87B2072FF0DB06A8EE
:1033700002230722414600904FF4C860FFF78AFC01
:10338000824640461CF005F900BFD2E006201CF042
:10339000D1F8804600200590B8F1000F20D000271A
:1033A0000EE0F91D88B204A901F0A7FEF81D08F887
:1033B00017009DF8100008EB47014870781C87B291
:1033C000032FEEDB06A8022303224146009040F2C1
:1033D0004160FFF75FFC824640461CF0DAF800BF10
:1033E000A7E0CDE04FF0000BA3E04FF0000BA0E012
:1033F000A079FF282BD10020049004201CF09AF81B
:10340000804600200590B8F1000F1FD004A801F0FD
:1034100020FF00270AE087E027E048E008F817705F
:1034200004A8C05D08EB470148707F1C022FF5DB44
:1034300006A8032302224146009040F24660FFF7AF
:1034400029FC824640461CF0A4F800BF0CE020791D
:103450000711607908B9012000E00020804641464C
:10346000384601F0E8FE00BF63E0207910B1207912
:1034700081280ED16179FF2001F008FFA179FF209A
:1034800001F02EFF0021032003F0D3FF0020059060
:103490000CE02079012809D15020E87081202871A2
:1034A00001F0EFFE687101F016FFA87141E01E20E7
:1034B0001CF040F8804600200590B8F1000F2DD098
:1034C00000271BE0480000209C1C00205400002026
:1034D00004A9384601F064FE07EB470108F80170C3
:1034E0009DF8100007EB4701414448709DF811001A
:1034F00007EB470141448870781C87B20A2FE7DB4D
:1035000006A803230A22414600904FF4D060FFF73B
:10351000C1FB824640461CF03CF800BF09E04FF07A
:10352000000B0020059004E04FF0000B00200590F8
:1035300000BF00BF059838B12846FFF799FB082265
:1035400029463046FFF743FCBBF1000F17D0BAF114
:10355000000F14D01EB950461CF01BF80FE0706924
:1035600018B950461CF015F809E0776906220121C8
:103570005046069BB84710B150461CF00AF8C5E00B
:10358000A0780428FBD10020069080460222611D0D
:1035900006A8FDF711FB04F108050698801E0690A9
:1035A000AFE04FF0000A00200590012004900020B9
:1035B0000390029001900222294603A8FDF7FCFA2D
:1035C0000222A91C02A8FDF7F7FA0222291D01A870
:1035D000FDF7F2FABDF80C0040F24262811A904207
:1035E0000ED006DCB0F5C86F08D0A0F24160D0BBA9
:1035F00005E004291BD03E295BD135E000BF00BFA8
:1036000005F1060B00270DE00BEB470251781BF884
:10361000170001F084FD1BF81710012003F009FFCB
:10362000781C87B2BDF808008742EDDB42E005F167
:10363000060B002712E00BEB470252780AB1012279
:1036400000E0002211461BF8170001F0F4FD1BF802
:103650001710022003F0EDFE781C87B2BDF80800B9
:103660008742E8DB26E024E005F1060B00271BE09B
:1036700007EB4700584440788DF8000007EB4700FF
:10368000584480788DF8010007EB47011BF80100D2
:10369000009901F06EFD07EB47001BF800100020B9
:1036A00003F0C7FE781C87B2BDF808008742DFDB55
:1036B00000E000BF00BF0498B8B1BAF1000F14D009
:1036C0001EB950461BF065FF0FE0706918B95046EF
:1036D0001BF05FFF09E07769062201215046059B38
:1036E000B84710B150461BF054FFBDF80800BDF8B4
:1036F00004104843801D804404F1080000EB0805D5
:1037000000BF06988045FFF44CAF00BF0120D6E50E
:1037100070B504460D46A07A012804D129462046FA
:10372000FFF7C4FD70BD0020FCE71CB50020009031
:103730000190AA208DF800000C208DF80200802056
:103740008DF8030000208DF8040002208DF806009B
:103750006846FFF78DFA08216846FFF71DFB1CBD80
:103760001CB5002000900190AA208DF800000620D2
:103770008DF8020040208DF803006846FFF778FAC4
:1037800008216846FFF708FB41208DF803006846D2
:10379000FFF76EFA08216846FFF7FEFA80208DF8E1
:1037A00003006846FFF764FA08216846FFF7F4FA59
:1037B00050208DF8030001208DF804006846FFF7C3
:1037C00057FA08216846FFF7E7FA00208DF8040051
:1037D00046208DF80300FF208DF806006846FFF7AD
:1037E00047FA08216846FFF7D7FA1CBD2DE9FE43CA
:1037F00004460F46154605F0050098B3E0B28DF873
:1038000008008DF8097000200190072C02DA4FF4AF
:10381000C86606E00A2C02DA40F2416601E040F296
:10382000426601A80223012202A900903046FFF758
:1038300031FA8046B8F1000F15D005F0010018B13B
:1038400040460199FFF78CFA05F0040018B1404694
:103850000199FFF7A1FA40461BF09BFE4FF0FF30A5
:10386000BDE8FE8300E000BF05F0100028B3F64875
:10387000006802900026072C03DA04F12000C6B28B
:1038800008E00A2C03DA04F12900C6B202E0A4F130
:103890004000C6B29DF80900EC49097801F00F011B
:1038A00008438DF809008DF80A608DF80B7004222A
:1038B000114602A801F006F900BF0020D0E777B555
:1038C00083B00446154605F0050068B3E0B28DF8F4
:1038D00008009DF810008DF809009DF811008DF882
:1038E0000A000020019001A80323012202A90090F0
:1038F0004FF4D060FFF7CEF90646A6B105F00100FF
:1039000018B130460199FFF72BFA05F0040018B101
:1039100030460199FFF740FA30461BF03AFE4FF06F
:10392000FF3006B070BD00BF05F0100080B3C64880
:10393000001D006802900026072C03DA04F1200025
:10394000C6B208E00A2C03DA04F12900C6B202E08C
:10395000A4F14000C6B29DF80900BC49097801F005
:103960000F0108438DF809008DF80A609DF81010CA
:103970009DF811208818C11700EB9171C1F38601E1
:103980008DF80B100422114602A801F09BF800BF2D
:103990000020C6E72DE9FC4706460F46154605F010
:1039A000050058B3AA208DF8000006208DF802000B
:1039B00050208DF8030081208DF8040001F061FC97
:1039C0008DF8050001F087FC8DF806006846FFF7CA
:1039D0004FF905F0010018B108216846FFF7C0F95A
:1039E00000208DF804006846FFF742F905F0010059
:1039F00018B108216846FFF7CFF900BF05F01000A5
:103A000000283ED090480830006801908E480C3065
:103A1000006800904FF000084FF00509052E02DA0B
:103A2000B04606F10109444628E00120A040384094
:103A3000B0B19DF805008549097801F00F010843F0
:103A40008DF8050004F15000C0B28DF806007F200B
:103A50008DF807000422114601A801F033F80CE0AC
:103A600004F15000C0B28DF8020000208DF8030070
:103A700004221146684601F025F8641C4C45D4DB4D
:103A800000BF0020BDE8FC872DE9FC4706460F4635
:103A9000154605F0050058B3AA208DF80000062051
:103AA0008DF8020050208DF8030081208DF804006D
:103AB00001F0E7FB8DF8050001F00DFC8DF8060024
:103AC0006846FFF7D5F805F0010018B108216846EF
:103AD000FFF746F900208DF804006846FFF7C8F8A4
:103AE00005F0010018B108216846FFF755F900BF3D
:103AF00005F01000002847D05348103000680190AE
:103B000051481430006800904FF000084FF003094E
:103B1000032E02DAB04606F101099DF805004B4973
:103B2000097801F00F0108438DF805009DF80100A8
:103B30004649097801F00F0108438DF80100444619
:103B40001FE00120A040384068B104F16000C0B21D
:103B50008DF806007F208DF807000422114601A889
:103B600000F0B0FF0CE004F16000C0B28DF802007C
:103B700000208DF8030004221146684600F0A2FFE1
:103B8000641C4C45DDDB00BF0020BDE8FC877CB534
:103B900004460D46164606F0050020B3AA208DF80F
:103BA000000000208DF8010006208DF802001DB1F4
:103BB00043208DF8030002E044208DF8030000202C
:103BC0008DF80400E0B28DF8050000208DF80600A5
:103BD0006846FFF74DF808216846FFF7DDF80DB994
:103BE000FFF7BEFD00BF06F0100018B316481830EE
:103BF000006801909DF805001449097801F00F0153
:103C000008438DF80500082C03DAE0B28DF80700B0
:103C100002E07F208DF807001DB170208DF80600AE
:103C200002E071208DF806000422114601A800F080
:103C300049FF00BF00207CBD10B50446224600218C
:103C4000FF20FFF7A4FF10BDC015020850000020A0
:103C50002DE9FE4304460F46E0B28DF808008DF8CA
:103C6000097000200190072C02DA4FF4C86506E0C5
:103C70000A2C02DA40F2416501E040F2426501A8F7
:103C80000223012202A900902846FFF703F8064606
:103C9000B6B1002201213046019BFEF7C4F98046EF
:103CA00030460199FFF778F8B8F1000F06D030469A
:103CB0001BF06FFC4FF0FF30BDE8FE830020FBE7F8
:103CC0004FF0FF30F8E773B584B00446E0B28DF8EA
:103CD0000C009DF814008DF80D009DF815008DF86E
:103CE0000E000020029002A80323012203A90090E5
:103CF0004FF4D060FEF7CEFF0546A5B100220121AA
:103D00002846029BFEF78FF9064628460299FFF7E0
:103D100043F836B128461BF03CFC4FF0FF3006B0AC
:103D200070BD0020FBE74FF0FF30F8E7FEB504461A
:103D30000D46E0B28DF808008DF809500020019082
:103D400001A80223012202A9009040F24660FEF77A
:103D5000A1FF06469EB1002201213046019BFEF7DD
:103D600062F9074630460199FFF716F82FB1304641
:103D70001BF00FFC4FF0FF30FEBD0020FCE74FF0C2
:103D8000FF30F9E77CB504460D46AA208DF8000007
:103D900006208DF8020050208DF8030081208DF858
:103DA000040001F06EFA8DF8050001F094FA8DF828
:103DB00006006846FEF75CFF08216846FEF7D0FF64
:103DC00000208DF804006846FEF752FF082168467F
:103DD000FEF7E2FF00207CBD70B504460D46294683
:103DE0002046FFF7CFFF70BD7CB505460C46AA20E4
:103DF0008DF8000000208DF8010006208DF80200EB
:103E00001CB143208DF8030002E044208DF803002C
:103E100000208DF80400E8B28DF8050000208DF830
:103E200006006846FEF724FF08216846FEF7B4FF47
:103E30000CB9FFF795FC00207CBD10B50021FF20D8
:103E4000FFF7D2FF10BD01B59DF800209DF80110CD
:103E50009DF8020000F036F9002008BD10B50446B8
:103E6000204600F0F4F9002010BD10B504462046AD
:103E700000F006FA002010BD01464FF0FF307047F9
:103E800001464FF0FF30704701464FF0FF3070475A
:103E900001464FF0FF30704701464FF0FF3070474A
:103EA00002464FF0FF30704770B50446052505E027
:103EB0006219511FA8B201F053FA6D1C092DF7DDEC
:103EC000A01D01F05BFA04F10A0001F064FA04F1AC
:103ED0000B0001F06AFA04F10C0001F0A6FA04F1FB
:103EE0000D0001F0ACFA70BD01464FF0FF30704795
:103EF00001464FF0FF30704701464FF0FF307047EA
:103F000001464FF0FF3070474FF0FF3070470246D8
:103F10004FF0FF30704738B50446052505E06A1FAD
:103F2000A15CA8B201F04BFA6D1C092DF7DDD4F8A5
:103F30000600009001F04FFAA07A01F064FAE07AEE
:103F400001F06AFA207B01F084FA607B01F08FFABD
:103F500038BD10B52F48FFF7DEFF10BD10B52E4855
:103F600001682E480068FCF753FB642800D210BD9E
:103F700029480068294908600E2129481BF013FDD3
:103F80002748FFF791FF0E22254926481BF011FC18
:103F900058B10E22224923481BF086FC01202249F9
:103FA00008701D480068214908601F480078C8B1A2
:103FB000194801681D480068FCF72AFB43F6982160
:103FC00088420FD90E22134916481BF0F2FB30B17C
:103FD0000E2214490F481BF067FCFDF745F900203D
:103FE0001149087000BFC2E77047704770477047BB
:103FF00002460020704770470D48006800F4E060FA
:104000000C490843001D0A490860BFF34F8F00BFE9
:10401000FEE700004605002014000020700000208C
:10402000C01C0020B21C0020680000206C00002092
:104030000CED00E00000FA0508B510208DF8030033
:1040400002208DF802004020ADF8000069469C482F
:1040500007F016F900224021994807F0C2F9202004
:10406000ADF800006946964807F00AF901222021C0
:10407000934807F0B6F91020ADF800006946904863
:1040800007F0FEF8012210218D4807F0AAF94FF43D
:104090008070ADF800006946894807F0F1F8002209
:1040A0004FF48071864807F09CF98020ADF800003D
:1040B0006946834807F0E4F800228021804807F031
:1040C00090F908BD2DE9F84F0746884691468DF8CE
:1040D00000808DF801708DF80290002280217848D0
:1040E00007F07FF900224FF48071754807F079F9E5
:1040F00000250BE001228021714807F072F90022AF
:1041000080216F4807F06DF9681CC5B2202DF1DBE6
:1041100000243BE001221102694807F062F9012204
:104120008021674807F05DF900228021644807F08C
:1041300058F9002626E01DF806B04FF0100A0025B9
:104140001CE00BEA0A0030B900224FF480715C4891
:1041500007F047F904E001221102594807F041F93C
:1041600001228021564807F03CF900228021544862
:1041700007F037F94FEA6A0A681CC5B2052DE0DB83
:10418000701CC6B2032ED6DB601CC4B2022CC1DB8D
:1041900000224FF480714A4807F023F900240BE015
:1041A00001228021464807F01CF900228021444862
:1041B00007F017F9601CC4B2022CF1DBBDE8F88FE0
:1041C00010B540480078C0F3411400203E49087003
:1041D0003E4908703E4908702CB93A48007800F012
:1041E0001F00087015E0012C06D13648007800F059
:1041F0001F00364908700CE0022C06D131480078C7
:1042000000F01F003049087003E000202D490870BD
:1042100010BD2D4802782D4801782D480078FFF711
:1042200051FF28480078401C2649087000BFEFE77E
:1042300008B510208DF8030003208DF8020004203B
:10424000ADF800006946234807F01AF808BD10B51C
:10425000044684F0010204211E4807F0C2F810BD94
:1042600008B510208DF8030003208DF802004FF4EC
:104270000040ADF800006946114807F001F808BD9C
:1042800010B504460CB1012000E0002002464FF4B6
:1042900000410B4807F0A5F810BD10B5FFF7CCFEA4
:1042A000002211461046FFF70DFFFFF7C1FF012066
:1042B000FFF7CDFFFFF7D4FF0020FFF7E1FF10BDB0
:1042C00000080140740000207700002076000020E4
:1042D000750000200018014000B587B00121880456
:1042E00007F01DFB03A808F02BFB4FF4E13003900F
:1042F00003A9AC4808F0BBFA0121AA4808F043FB27
:104300004FF48060ADF8080003208DF80A001820F3
:104310008DF80B0002A9A44806F0B2FF4FF400602C
:10432000ADF8080004208DF80B0002A99E4806F0A5
:10433000A7FF27208DF8040004208DF80500002039
:104340008DF8060001208DF8070001A805F033FF65
:10435000012240F22551934808F021FB0121084633
:1043600007F0C3FA43F290009049C8618D48001DE0
:10437000486200200862886201228021894808F092
:1043800033FB07B000BD38B58648048804F0200030
:1043900010B904F0080050B18248001D0088C0B276
:1043A0000090012269468248FDF7DAF800BF38BD67
:1043B00010B5062320227F497F48FCF7E5FF4FF424
:1043C00040727E497A48FDF7ADF84FF480627C492F
:1043D0007C48FEF701F8FFF77FFF10BDF0B585B010
:1043E000054600BF00270020049004A97048FDF78F
:1043F000FFF8074607B92CE028E0002600200390CC
:104400000290002402A903ABCDE9001039466D48A3
:10441000049AFDF7F3FF064606B918E06648FCF774
:10442000F3FF04461CB930461BF0B3F80FE02660DA
:1044300003986060012020720298A0720122214638
:104440005D48FCF7F8FF0020049000BFD5E700BFEF
:1044500000BF00BF00BF00245B480078E0B15348B4
:10446000006800F0200010B905B148E048E04D4870
:10447000008800F0400010B905B140E040E0102095
:104480004A4948605148007A18B1504908681BF001
:1044900080F800204C49087000214748FCF7F7FFDE
:1044A00004465CB36068002801DD206848B9207AC2
:1044B00020B1206810B120681BF06BF805B11EE038
:1044C0001EE03A48C06920F001003849C8616068C0
:1044D0000862206888620846C06940F00100C8612F
:1044E0000120394908701822214638481BF021FA6A
:1044F00021463148FDF702F805B100E000E0AAE7E7
:1045000000BF00BF002401212B48FCF7C0FF044678
:1045100014B1204605B0F0BD00BF0020FAE710B589
:10452000044644B1207A10B120681BF032F82146CD
:104530002148FCF7E3FF10BD10B504461CB121462D
:104540001D48FCF7DBFF10BD4FF4806070472DE97C
:10455000F04105460E4690461F46002415B9601EE0
:10456000BDE8F0811448FCF74FFF044614B94FF042
:10457000FF30F5E7256067602672002221460E486D
:10458000FCF759FF0020EBE710B5044604B910BD55
:104590000020A0810C2060812146024808F067F9C4
:1045A00000BFF4E700480040000C0140000002405A
:1045B000E4220020D01C0020D01F0020E41F002097
:1045C000FC220020FC260020780000201427002078
:1045D00010B5002046E0002141E000EB4002BD4B59
:1045E00003EBC20232F92120C2EB02124FF407732F
:1045F00003EB42125B0092FBF3F212B200EB4003BA
:10460000B44C04EBC30323F8212000EB4002234603
:1046100003EBC20202EB8102B2F90220C2EB0212EA
:104620004FF4077303EB42125B0092FBF3F212B2FA
:1046300000EB400304EBC30303EB81035A8000EB60
:104640004002234603EBC20232F82120A03212B20C
:1046500000EB400304EBC30323F82120491C052988
:10466000BBD3401C0328B6D3002046E0002141E024
:1046700000EB8002984B03EB820232F92120C2EB5F
:1046800002124FF4077303EB42125B0092FBF3F24A
:1046900012B200EB8003904C04EB830323F821203B
:1046A00000EB8002234603EB820202EB8102B2F9A7
:1046B0000220C2EB02124FF4077303EB42125B00BD
:1046C00092FBF3F212B200EB800304EB830303EBE3
:1046D00081035A8000EB8002234603EB820232F80A
:1046E0002120A03212B200EB800304EB830323F8F5
:1046F0002120491C0429BBD3401C0328B6D3002029
:1047000045E000EB4001754A32F82110C1EB011180
:104710004FF4077202EB4111520091FBF2F100EBF2
:1047200040026E4B23F8221000EB40011A4602EBC8
:1047300081014988C1EB01114FF4077202EB41116D
:10474000520091FBF2F100EB400203EB8202518038
:1047500000EB40011A4602EB81018988C1EB01118F
:104760004FF4077202EB4111520091FBF2F100EBA2
:10477000400203EB8202918000EB40011A4632F8BE
:104780002110A03100EB400223F82210401C042825
:10479000B7D310BD70B56FF07F4005F02CFB40F231
:1047A000DF1340F21F320021084605F05DFA0024B5
:1047B00029E004EB4401474A02EBC101897D4FF433
:1047C0007F0202EA014104EB4402424B03EBC202C6
:1047D000527D4FF47F4303EA0222114304EB44026B
:1047E0003C4B03EBC202127D41EA020005F003FBE1
:1047F00004EB4401374A02EBC10000231A460521AD
:1048000005F01EFA641C032CD3D3002429E004EB2A
:104810008401314A02EB8101897C4FF47F0202EA74
:10482000014104EB84022C4B03EB8202527C4FF4D7
:104830007F4303EA0222114304EB8402264B03EB7D
:104840008202127C41EA020005F0D5FA04EB8401F1
:10485000214A02EB810000231A46042105F0F0F9F9
:10486000641C032CD3D3002430E004EB44011B4A26
:1048700002EB8101897A4FF47F0202EA014104EBE5
:104880004402164B03EB8202527A4FF47F4303EA51
:104890000222114304EB4402104B03EB8202127A12
:1048A00041EA020005F0A7FA04EB44030B4D05EBC7
:1048B00083039A8804EB440305EB8303598804EBD4
:1048C000440335F8230005F095FB641C042CCCD37D
:1048D00070BD00007C000020C4000020000100200A
:1048E0000246914201D3881A7047C2F1FF30084452
:1048F000FAE7002044498871C8717047424800793E
:10490000704710B50FF0E1F93F49086010BD012074
:104910003D494871704702203B49487170477047D4
:1049200010B53948007900B110BD3748807910B909
:10493000FFF730FF02E0002003F0C2FA0120324905
:10494000087100BFF0E710B52F48007900B910BD1D
:10495000012003F0B5FAFFF7D4FF00202A490871BF
:1049600008F0CFFF044608F0DCFF00BFEFE770B5AA
:104970002548C079062818DA2348C079234951F818
:104980002040002572B60FF0A0F906461E490868BF
:104990003146FBF73DFE054662B61B48007918B963
:1049A000A54201D3FFF7BCFF00BF1748407901289B
:1049B00005D1FFF7B5FF00201349487108E0124800
:1049C0004079022804D1FFF7BEFF00200E4948714C
:1049D00070BD0146072902DB4FF0FF3070470A48DF
:1049E000C1710020FAE70146022902DB4FF0FF30D7
:1049F0007047054881710020FAE70348C079704785
:104A0000014880797047000030010020DC15020861
:104A100010B503231022AD49AD48FCF7B5FC4FF4A7
:104A20000072AC49AC48FCF77DFD002019F062F93A
:104A3000AA48046800BFA94801682046FBF7E8FDC2
:104A40006428F8D3012019F055F919F0F6F819F097
:104A5000B1F819F041FF10BD70B504460D462A4665
:104A600021469D48FCF77CFD70BD9D4800680528E7
:104A700001D1012070470020FCE72DE9F0410546F7
:104A80000E46174698460024FFF7EFFF10B9601E48
:104A9000BDE8F08115B94FF0FF30F9E78C48FCF71D
:104AA000B3FC044614B94FF0FF30F1E72560C4F8B9
:104AB00004802672A781002221468548FCF7BBFCB2
:104AC0000020E5E72DE9F04105460C461646FFF7C4
:104AD000CCFF08B9BDE8F081042E02D0052E00D02D
:104AE000F8E7ADB1A4B120461AF024FD074677B12E
:104AF0002246294638461AF0D7FE2346324601217F
:104B00003846FFF7BAFF10B138461AF042FD00BF31
:104B100000BFDFE7F8B5054600BF00270020009082
:104B200069466D48FCF764FD074607B928E022E0B6
:104B3000002404201AF0FEFC064606B91EE0644874
:104B4000FCF762FC04461CB930461AF022FD15E061
:104B500038683060266004206060012020720820E0
:104B6000A072012221465A48FCF765FC0098001FFC
:104B700000903F1D00BF00980428D9DA00BF00BF95
:104B800000BF00BF00245748007808B354480068AD
:104B9000052813D154488089042807D101201AF030
:104BA0002DF920280AD005B169E069E002201AF049
:104BB00025F9202802D005B161E061E04A48007A79
:104BC00018B1494908681AF0E4FC0020454908700A
:104BD00000213F48FCF75BFC0446002C4ED0606887
:104BE000002801DD206848B9207A20B1206810B182
:104BF00020681AF0CEFC05B141E041E03848006879
:104C000005280AD0207A10B120681AF0C2FC21468B
:104C10002F48FCF773FC85B331E00120314908705F
:104C20001822214630481AF084FE2F488089042833
:104C300008D18120D4E900121AF04AFC01201AF0B0
:104C4000EFF814E028488089052808D18220D4E9AB
:104C500000121AF03DFC02201AF0E2F807E0207A78
:104C600010B120681AF095FC00201E4908702146FA
:104C70001748FCF743FC05B101E0FFE700E081E7DE
:104C800000BF00BF002401211148FCF700FC0446CE
:104C90000CB12046F8BD00BF0020FBE710B504466C
:104CA00044B1207A10B120681AF073FC21460848FC
:104CB000FCF724FC10BD10B504461CB12146044885
:104CC000FCF71CFC10BD0020704700002C270020C2
:104CD000AC280020C0280020C02A0020140000209A
:104CE000FC04002038010020D82A00202DE9F047DC
:104CF00004460D4616461F46DDF82080301B401C3A
:104D0000791B491C00FB01F9A9B2A0B203F0E4F839
:104D1000B0B203F0F9F84FF430507B4908804946AF
:104D2000404604F0C1F90AF022FD0AF01CFDBDE87E
:104D3000F0872DE9F04104460D4616461F46301B0C
:104D4000401C791B491C00FB01F8A9B2A0B203F07A
:104D5000C3F8B0B203F0D8F84FF430506A49088075
:104D6000BDF81800414604F094F8BDE8F08130B574
:104D700087B00446A5680020019001A902A802F0AE
:104D800098FE9DF80410681C81420DD25F4830F8EF
:104D9000250000B220805D4800EB8500408800B20D
:104DA00060800020207112E00120207102A830F8FC
:104DB0002500564921F8250000B2208002A800EB0A
:104DC0008500408801EB8501488000B26080FFF7D4
:104DD00095FD08B100202071002007B030BD10B54E
:104DE00004464B48007820714A4800682060FFF76D
:104DF00085FD08B100202071002010BD454A1060DB
:104E0000434A1170704700B587B004A80EF062FEE7
:104E100041480490414805900020069004A80EF0F7
:104E20005EFE01A80EF0F4FE01208DF804003C485F
:104E300002900020039001A80EF0EFFE01200390E5
:104E400001A80EF0EAFE07B000BD10B509F06BF83E
:104E5000FFF7D9FF10BD10B59EB018A810F03CF8B0
:104E600064211A9848431899B0FBF1F408461A993E
:104E7000431A22462BA108A81AF0B2FB0020029088
:104E800002A903A802F015FE9DF8080078B108A851
:104E90001AF0DFFC08A94418BDF80E000090BDF818
:104EA0000C309DF8082025A120461AF099FB2948CE
:104EB000006818B12748006809F0A4F808F021FD3F
:104EC0000446002114F029FA2249086008460068C7
:104ED00070B108A91F48006814F025F86FF0310080
:104EE00000231A46194600901A48006809F0C8F9CC
:104EF0001EB010BD10B501200EF0DEFE10BD10B5C5
:104F000010F062F810BD0000FE07006CF02A0020CF
:104F1000400100203C010020ED4C0008334D00080A
:104F20006F4D0008667265653A20256425252C20A2
:104F30007573696E673A2025640000003B20633A70
:104F40002025642C20783A2025642C20793A2025CD
:104F5000640000004401002030B50446202901D23D
:104F6000002030BD80290AD2554AA1F1200000EB73
:104F7000C00303EB801002EB4002901CF1E7C1F389
:104F80000722CBB2812A01DBD72A01DD0020E8E726
:104F9000812B01DBDE2A01DD0020E2E742F2200066
:104FA0000144484A484B07E010888DB2A84201D11D
:104FB000901CD6E702F591729A42F5D3981CD0E77F
:104FC00010B50446802903D21F2901D90C2010BD39
:104FD000C1F30722CBB2812A01DBD72A02DD4FF0D1
:104FE000FF30F4E7812B01DBDE2A02DD4FF0FF30DA
:104FF000EDE71820EBE72DE9F04780460F46B8F1C2
:10500000000F00D017B90020BDE8F087002F03DAA9
:1050100040461AF01EFC07467F2F01DD0020F3E713
:10502000464608EB0709294D43E0307840B2002896
:1050300002DD3478761C0BE03078203884B24FF6ED
:10504000FF7000EA042470782038204384B2B61C34
:10505000802C02DA2C706D1C20E0B4F5006F0BDAA6
:10506000C4F3841040F0C000287004F03F0040F00A
:1050700080006870AD1C11E0B4F5803F0EDAE020CE
:1050800040EA14302870C4F3851040F08000687046
:1050900004F03F0040F08000A870ED1C0B48281A77
:1050A0007F2805DD4FF0FF3109A0FFF7A4FFABE734
:1050B00000BF4E45B9D3002028700448A4E7000083
:1050C000F8150208264C0208949C0208042B0020C4
:1050D000D7D6B7FBB9FDB3A40000000001460A29EA
:1050E00001DA08467047802904DB822902DAA1F13F
:1050F0007600F7E74FF0FF30F4E700B502460B46C5
:105100001046FFF7EBFF82B20C2A00DA13B94FF01A
:10511000FF3000BDFD48805C18700020F9E700B545
:1051200002460B461046FFF7D9FF82B20C2A01DA7D
:10513000072B02DB4FF0FF3000BDF4488354002002
:10514000FAE702460020704770B504460A252A4651
:10515000EE4920461AF0A8FB70BD30B50546002484
:1051600004E0295DA0B2FFF7DAFF641C0A2CF8DB2B
:1051700030BD03B502461046FFF7B0FF82B20C2ADD
:1051800002DB4FF0FF300CBDE048183800EB420066
:10519000BDF8041001800020F5E7024600207047AA
:1051A00000B502460B461046FFF798FF82B20C2A64
:1051B00000DA13B94FF0FF3000BDD448183800EBC7
:1051C0004200008818800020F6E770B504461425D8
:1051D0002A46CE49183920461AF066FB70BD38B50C
:1051E0000546002407E005EB44010988A0B20091C0
:1051F000FFF7BFFF641C0A2CF5DB38BD00B5024683
:105200000B461046FFF76AFF82B20C2A02DB4FF012
:10521000FF3000BDBE4883540020FAE70246022A50
:1052200000DA11B94FF0FF307047B8480C30805C9D
:1052300008700020F8E70246022A02DB4FF0FF3038
:105240007047B2480C3081540020F9E70246002034
:10525000704710B50446002304E0E11898B2FFF748
:10526000DDFF5B1C022BF8DB10BD10B504460023EC
:1052700004E0E15C98B2FFF7DEFF5B1C022BF8DB79
:1052800010BDA248183890F8260070470246052A3B
:1052900004DB9E48183880F8261017E059B19B4867
:1052A000183890F82600012393401843974B183B79
:1052B00083F826000AE09548183890F82600012364
:1052C00093409843914B183B83F826000020704789
:1052D0000246002070478D48183890F82700704724
:1052E0000246032A04DB8948183880F8271017E0A3
:1052F00059B18648183890F8270001239340184385
:10530000824B183B83F827000AE08048183890F851
:1053100027000123934098437C4B183B83F82700D8
:105320000020704702460020704702460020704768
:10533000002070470020704701460020704701465A
:105340000020704710B504462046FFF742FB0020BE
:1053500010BD10B504462046FFF745FB002010BDE8
:105360000246092A07DC052A05DB21B16848805C72
:105370000870002070474FF0FF30FBE7014639B15D
:105380006448007C644A52F820000860002070479E
:105390004FF0FF30FBE7014621B16048007A08700A
:1053A000002070474FF0FF30FBE7014621B15B481A
:1053B000407A0870002070474FF0FF30FBE702464C
:1053C000092A05DC052A03DB514881540020704777
:1053D0004FF0FF30FBE731B500240FE04E4800EB03
:1053E0008401042268461AF0E4F930B949490C7482
:1053F0000098FEF728FD002038BD641C042CEDDB6E
:105400004FF0FF30F8E710B50446444804722046D8
:10541000FEF724FD002010BD10B504463F4844723D
:105420002046FEF722FD002010BD014611B94FF0C5
:10543000FF3070473A48007A08700020F9E70146CB
:1054400011B94FF0FF3070473548407A087000209E
:10545000F9E710B50446072C02DB4FF0FF3010BD12
:105460002F4804722046FFF76DFF0020F7E710B5C4
:105470000446022C02DB4FF0FF3010BD2848447276
:105480002046FFF766FF0020F7E770B5054628467F
:105490000AF03CF90446206908F0B4FD60690FF099
:1054A00075FC002020616061A06128460FF06EFC51
:1054B00070BD2DE9F04397B00646304615F087FBE6
:1054C00085B2304609F025FA044694F8280028B938
:1054D000E06898B1E06802F0A2F978B12068B042C3
:1054E00006D1606820B129B2606802F07EF905E05B
:1054F000206818B129B2206802F077F9606888B98D
:10550000E8B28DF859008DF8580021E09C2E00205B
:10551000E001002030020020CCA10208440200205B
:105520007C3100202068B04209D1E8B28DF85800E3
:10553000606815F04CFBC0B28DF8590008E0E8B285
:105540008DF85900206815F042FBC0B28DF8580064
:10555000A07F1699FFF70DFEA07F1699FEF7B3FB0B
:1055600000BFA069002862D1304608F0C1F90746A3
:10557000002113F0D2FE2061206900B919E13C201E
:105580000FF0E7FB6061606928B9206908F03AFD17
:10559000002020610DE12769384608F0FAFA8046BC
:1055A0004146606909F009FFD4E90478414638466C
:1055B00008F047FA00BF08A8616909F0FEFE002163
:1055C0008DF84C10606903906069019008A8029002
:1055D0004FF60C60ADF816004FF4FA60ADF8140009
:1055E0009DF81C0020F001008DF81C000020ADF893
:1055F00018009DF81C0020F002008DF81C0000200F
:10560000ADF81A00AFF27D100490214601A80AF00F
:1056100037F8A061A06948B9206908F0F3FC606917
:105620000FF0B4FB002020616061C2E000BFEDB26A
:10563000A069002871D0A07F052825D006DC0528A8
:105640006CD2DFE800F0101112131400082866D0A5
:1056500004DC062832D007287FD149E080286BD0AF
:1056600081287AD169E000BF00BF00BF00BFFC49BC
:1056700051F825001BF08CFA07463A460B46F9A173
:105680000FA819F0ADFF6EE0DFF8E09328461BF09D
:105690000DFB80464FF07C511BF01CFB0746494632
:1056A0001BF0A2FA814648461BF072FA07463A46BA
:1056B0000B46ECA10FA819F093FF54E0DFF8B0936C
:1056C00028461BF0F3FA80464FF07C511BF002FB9A
:1056D000074649461BF088FA814648461BF058FAAF
:1056E00007463A460B46DFA10FA819F079FF3AE0CA
:1056F0004FF00008C5F34707302F04DADDA10FA8EB
:1057000019F06EFF03E0A7F179004FFA80F84246E6
:10571000DAA10FA819F064FF25E049E01DE0D049A7
:1057200051F825001BF034FA07463A460B46CDA146
:105730000FA819F055FF16E000BF05EBC50000EB00
:105740000510802101EB8000FF2190FBF1F73A4624
:10575000CCA10FA819F044FF05E02A46C7A10FA865
:1057600019F03EFF00BF00BF1DB9C2A10FA819F07C
:1057700037FF0FA9206913F0D6FBE06848B16FF03E
:105780006300009000230A22A168206908F078FDD8
:1057900007E00A20009000230D22A168206908F08C
:1057A0006FFD0023B84A1946A0690EF099FB00BFAF
:1057B00000BF00BF012017B0BDE8F08370B50446FC
:1057C000204609F0A6F80546204602F028F80646CD
:1057D000A87F3146FFF712FD012070BD70B5054668
:1057E000284609F096F80446284612F0EEFF216A92
:1057F0000E5CA07F3146FFF792FC284612F0E5FFD1
:10580000216A0E5CA07F3146FEF722FA012070BDAE
:1058100070B5044614B94FF0FF3070BDA06968B18F
:105820000021A0690EF013FBA0690FF0AFFA002071
:10583000A06160690FF0AAFA002060612646002589
:1058400007E056F8250018B156F8250007F0DBFAF6
:105850006D1C042DF5D30020DFE72DE9FF4F99B033
:10586000884617461C46DDE9289A2CB1199818B1CC
:10587000279808B12A9820B94FF0FF301DB0BDE835
:10588000F08FB7F5487F02DD4FF0FF30F6E72C21AF
:1058900020461AF0AAF8B9F1070F01DD4FF0070909
:1058A000A7832698A07784F81F9027982062C4F8D1
:1058B00024A000208DF8040000260DE01EB173A185
:1058C00001A819F0E5FF206A825D2A9850F822109D
:1058D00001A819F0DDFF761C4E45EFD30021199881
:1058E00012F001FE054605B9D2E0A56040F23B1278
:1058F00039B2284608F0F9F84FF0FF3101A8FFF758
:105900007AFB83465946284612F03FFB0121284680
:1059100012F043FF284608F0CAFF0121D0F828B052
:10592000584613F054FB284608F0C1FF0121D0F877
:1059300028B0584613F0C2FB284608F0B8FF64218F
:10594000D0F828B0584608F081FC0021199815F0CD
:1059500055FD054605B99BE04FF480727821284635
:1059600008F03EFCFF220021284601F046FF0222FB
:105970000621284615F0FEFD0121284615F0D1FD2F
:105980000121284615F0DCFD6FF013000090002384
:105990000A222846A16808F073FC2560012084F8DB
:1059A00028000021199813F0B8FC064606B96FE0EC
:1059B0000121304613F00BFBBAF1000F0FD131A1DA
:1059C00011A8269A19F00CFE4FF0FF3111A8FFF72D
:1059D00012FB83465946304613F0A5FA09E04FF012
:1059E000FF315046FFF707FB83465946304613F018
:1059F0009AFA6FF48E70009000230A223046A16854
:105A000008F03EFCAFF25551206815F081FDAFF271
:105A10003321A06812F057FE0121A06808F01CFE97
:105A2000A346002610E05BF8260060B15BF8260074
:105A3000214608F057FEB8F1000F04D05BF826109D
:105A4000404607F0CEF9761C042EECD38021206866
:105A500008F046FE8221A06808F042FE00200DE713
:105A6000B89D0208252E3166444200000000CFC2D6
:105A70000000FFC26D75746500000000256444429B
:105A800000000000256400000CFEFFFF0A0000007B
:105A90004FF0FF30F2E62DE9FF4F99B088461646E9
:105AA0001C46DDE9289A1CB1199808B1279820B93D
:105AB0004FF0FF301DB0BDE8F08FB6F5487F02DD36
:105AC0004FF0FF30F6E72C21204619F08EFFB9F198
:105AD000070F01DD4FF00709A6832698A07784F809
