:020000040800F2
:10000000A8F2002001020008090200080B02000803
:100010000D0200080F020008110200080000000095
:1000200000000000000000000000000013020008B3
:100030001502000800000000170200085906000819
:100040001B0200081B0200081B0200081B0200081C
:100050001B0200081B020008A70800088B09000803
:100060001B0200081B0200081B0200081B020008FC
:100070001B0200081B0200081B0200081B020008EC
:100080001B0200081B0200081B0200081B020008DC
:10009000EFDC01081B0200081B0200081B0200081D
:1000A0001B0200081B0200081B0200081B020008BC
:1000B0001B0200081B0200081B0200081B020008AC
:1000C0001B0200081B0200081B0200081B0200089C
:1000D0001B020008731E00087B2100083343000840
:1000E000437A00081B020008F7DC010800F002F860
:1000F00000F06EF80AA090E8000C82448344AAF154
:100100000107DA4501D100F063F8AFF2090EBAE851
:100110000F0013F0010F18BFFB1A43F0010318473B
:10012000D4EC0200F4EC02000A444FF0000C10F88A
:10013000013B13F0070408BF10F8014B1D1108BF65
:1001400010F8015B641E05D010F8016B641E01F805
:10015000016BF9D113F0080F1EBF10F8014BAD1C55
:100160000C1B09D16D1E58BF01F801CBFAD505E073
:1001700014F8016B01F8016B6D1EF9D59142D6D3CD
:10018000704700000023002400250026103A28BFF5
:1001900078C1FBD8520728BF30C148BF0B607047F9
:1001A000662920F0AE8664291FF004820020704783
:1001B0001FB59DE803001FF075FC1FF031FF040020
:1001C0000020002120F09EFCE0601FBD10B510BD96
:1001D00020F040F81146FFF7EBFF00F036F920F071
:1001E0005EF803B4FFF7F2FF03BC20F08FF80000C5
:1001F000EFF3108072B6704780F3108870470000EC
:100200000948804709480047FEE7FEE7FEE7FEE7AA
:10021000FEE7FEE7FEE7FEE7FEE7FEE704480549E6
:10022000054A064B704700001F030008ED00000858
:10023000A8DE0020A8F20020A8EE0020A8EE0020F2
:100240000CB50020019000906D48006840F48030AB
:100250006B49086000BF6A48006800F400300090F5
:100260000198401C0190009818B90198B0F5A06F52
:10027000F1D16348006800F4003010B10120009013
:1002800001E0002000900098012843D15D480068FB
:1002900040F010005B4908600846006820F0030049
:1002A00008600846006840F0020008605448406852
:1002B000534948600846406848600846406840F432
:1002C000806048600846406820F47C10486008461A
:1002D000406840F4E81048600846006840F08070CC
:1002E000086000BF4648006800F000700028F9D0A0
:1002F0004348406820F00300414948600846406890
:1003000040F00200486000BF3D48406800F00C002B
:100310000828F9D10CBD10B5FFF792FF10BD10B53C
:100320003748006840F001003549086008464068D9
:10033000354908403249486008460068334908405A
:100340002F4908600846006820F4802008600846AD
:10035000406820F4FE0048604FF41F008860FFF7FB
:10036000DAFF4FF000602A4908602A48091D08603A
:1003700010BD10B5002100200022214B5B6803F066
:100380000C0121B1042906D0082928D107E0224B0D
:10039000224C236027E0204B204C236023E0184BA5
:1003A0005B6803F47010164B5B6803F48032022321
:1003B00003EB904022B91A4B4343184C23600DE0E5
:1003C0000F4B5B6803F4003323B1154B4343134CCD
:1003D000236003E0104B4343104C236003E00E4BBB
:1003E0000E4C236000BF00BF054B5B68C3F30313D3
:1003F0000C4CE15C094B1B68CB40084C236010BDE2
:1004000000100240002002400000FFF8FFFFF6FE4F
:1004100008ED00E00003FA0500127A000000002059
:1004200000093D000400002010B545F255500BF0C6
:100430004BF803200BF04BF84FF49C700BF04AF88C
:100440000BF04BF80BF04EF810BD1CB50027B8466A
:10045000B946DFF8ACA101F063FC02F03CFE00F00D
:100460000BF900F014F900F054FF01F083FB00F0E9
:10047000A0FA01F013FD01F095FE03F06FFF03F009
:10048000E2FE00F00AF904F099FA08F01AFD07F00C
:1004900006FC07F0DCF901220021084601F0A2FB6E
:1004A00004F0A9FC09F080FC04F068F804F048F9B5
:1004B00040F6B83000F0B5F803F022FD07F066F81A
:1004C0009CE050480168404600F0A2F838B14D4821
:1004D000D0F8008004F0E8F908B904F0E6FC04F074
:1004E0001CFA48480168384600F092F8642801D99F
:1004F00044480768002001F0E7FC0446002001F0B2
:1005000067FE0190002003F03FFF0546002004F045
:10051000D7FA009001F027FC064616B1304602F0EB
:1005200092FE0CB33849204602F071FC18B92046FF
:1005300001F06CFD18E04FF0000B3349204603F04A
:1005400090FB217A0022D4E9000303F0D6FF834612
:10055000BBF1000F04D0207A10B120681EF0EFFF2D
:10056000204601F07DFD00BF7DB30021284602F04A
:100570004EFC88B923480168504600F049F842F221
:100580001071884201D903F094FB1E48D0F800A0F6
:10059000284603F09AFF18E04FF0000B0021284690
:1005A00003F05FFB297A0022D5E9000301F03BFD4F
:1005B0008346BBF1000F04D0287A10B128681EF0E2
:1005C000BEFF284603F08EFF00BF019801F0ABFE8E
:1005D000304601F0CEFB009804F036FB0948016874
:1005E000484600F015F841F28831884204D30548A6
:1005F000D0F8009003F042FB03F087FC61E70000B5
:10060000E0B1FFFF140000205415020800BFFEE710
:100610000246914201D3881A7047C2F1FF30084464
:10062000FAE710B503461348046800BF1148016893
:100630002046FFF7EDFF9842F8D310BD002105E0FA
:10064000002200E0521C0A2AFCD3491C8142F7D345
:10065000704770477047704710B506480068401CE7
:100660000449086004F01CFC01F019FB00F00DFACD
:1006700010BD00001400002010B5012108070BF088
:1006800024F9012140F2FD100BF012F910BD10B554
:10069000012129480AF09BFE10BD30B527480068AB
:1006A0004FF47A72B0FBF2F1B1F1807F00D31DE01C
:1006B00021F07F40401E4FF0E022506150170F2282
:1006C000002807DA13071D0E1D4B00F00F04241F2E
:1006D0001D5503E013071C0E1A4B1C5400BF0020CD
:1006E0004FF0E02290610720106100BF30BD3EB5A1
:1006F000124800681449B0FBF1F0401E84B2012199
:1007000008460BF0E2F868460BF036FD4FF6FF7036
:10071000ADF80400ADF800400020ADF80600ADF8DB
:10072000020069464FF080400BF0FAF9012188077A
:100730000BF052FD3EBD0000000230000000002022
:1007400018ED00E000E400E040420F001FB5042077
:100750008DF80F0002208DF80E000120ADF80C007E
:1007600003A9F7480AF062FD4FF40050ADF80C0001
:1007700003A9F3480AF05AFD00208DF80800102064
:100780008DF8090001208DF80A00002102200AF0EE
:1007900063FE0120019001A809F084FE01208DF87C
:1007A000010000208DF8020001208DF803000620D2
:1007B0008DF80000684609F0D4FC0220ADF80C006A
:1007C00003A9DF480AF032FD4FF48040ADF80C0079
:1007D00003A9DB480AF02AFD012102200AF03CFEB1
:1007E0000220019001A809F05DFE07208DF80000AD
:1007F000684609F0B6FC1FBD28B1D249C988491C1A
:10080000D04AD18004E0CF49C988491ECD4AD18061
:10081000CC494880C9883F2907DD18B10021C94A61
:10082000D18002E03F21C74AD18070472DE9F041D5
:10083000C348806886B2C248806887B207F0010763
:1008400006F4005627B90EB9012405E0002403E0A0
:100850000EB9002400E0012484F001042046FFF7D3
:10086000CBFFB848C568B8480068B649C860B64804
:1008700001682846FFF7CCFE0546FA2D03D9012072
:10088000B04988800DE02DB14FF4FA70B0FBF5F05F
:10089000AC498880AB488088502802DD5020A949A7
:1008A0008880BDE8F08110B5012009F061FE68B1D3
:1008B0000024FFF79DFC04460120A449087020464F
:1008C000FFF79AFC012009F064FE00BF10BD30B1B3
:1008D0009C49C98A491C8AB29A49CA8205E0994949
:1008E000C98A491E8AB29749CA8296494882C98AEA
:1008F0003F2907DD18B100229249CA8202E03F2257
:100900009049CA8270472DE9F041002000E0401C68
:100910007828FCDB8A48806886B28948806887B27C
:1009200007F0020706F4804627B90EB9012405E056
:10093000002403E00EB9002400E0012484F0010447
:100940002046FFF7C4FF7F48C5697F4801687D489E
:10095000C1617D4801682846FFF75AFE0546FA2D19
:1009600003D90121774881820DE02DB14FF4FA704F
:10097000B0FBF5F1734881827248808A502802DD0D
:10098000502170488182BDE8F08110B5022009F045
:10099000EFFD68B10024FFF72BFC044601206B49F2
:1009A00048702046FFF728FC022009F0F2FD00BF46
:1009B00010BD10B5FFF7CAFE00240DE0614901EB40
:1009C00004110C8000205F4901EB0411C8805D49CF
:1009D00001EB04110881641C022CEFD310BD014609
:1009E000C8880A89904203D0C888088101207047CE
:1009F0000020FCE770B504460026022C02DD4FF60D
:100A0000FF7070BD4F4800EB0410C088401C85B2D9
:100A1000FFF7EEFB06464E4830F81400A84200DA15
:100A20000025484800EB04100581464800EB0410FF
:100A3000C5803046FFF7E0FB2846E2E70146414823
:100A400000EB01100089704770B504460D46002682
:100A5000022C02DD4FF6FF7070BD3D4830F81400E7
:100A6000A84202DA3A4830F81450FFF7C1FB0646B4
:100A7000344800EB04100581324800EB0410C580B7
:100A80003046FFF7B9FB2846E6E770B58AB000208C
:100A900009900026FFF7ACFB064600241BE02B481C
:100AA000005D20B12948005D401C284908552748B1
:100AB000005D032803D1012009A9085509E0234856
:100AC000005D1C2805D1002020490855022009A9F5
:100AD0000855601CC4B2022CE1DB3046FFF78CFBEA
:100AE0009DF82400012802D1FFF7A0FE17E09DF831
:100AF0002400022813D11349498809B1012100E0DB
:100B000000210846FFF778FE0E48C0884FF6FE71B8
:100B100008400C49C8800846C088401E08819DF8DE
:100B20002500012802D1FFF7EEFE24E09DF8250004
:100B3000022820D10349498A61B101210BE000005C
:100B4000001001402405002014000020180000209F
:100B5000060F020800210846FFF7B9FE1548C08AB3
:100B60004FF6FE7108401349C8820846C08A401EED
:100B700081B210480183002518E00E4901EB0510F1
:100B8000FFF72DFF88B104208DF80000094800EB25
:100B90000513D3E90012D3E90203CDE90403CDE93B
:100BA0000212684601F0ECF800BF6D1C022DE4D380
:100BB0000AB070BD2405002010B50346002004E0F3
:100BC000141A641E0C5D1C54401C9042F8D310BDD6
:100BD00030B502460B464FF0FF3002B103B930BDCD
:100BE000002108E0C4B2555C6C40734D55F82440B8
:100BF00084EA1020491C9942F4D3C04300BFEEE7B9
:100C000070B502460C46FF25FF2312B94FF6FF7060
:100C100070BD09E012F8010B80EA03016748405CEF
:100C200080EA05036648455C201EA4F10106B4B2C3
:100C3000F0D143EA0520EBE72DE9F04F03460C46DF
:100C4000944600221D680026DFF87891012C57DDBC
:100C5000601E53F82020342090FBF4F000F10608C9
:100C600046E04E44C6F3810700211FE0481C53F8BC
:100C70002050500980EA85004FEAD50A8AEA021A14
:100C8000504486EA050A01F0030B8BEA070B5CF877
:100C90002BB08BEA020BDA4480EA0A0053F821A059
:100CA000504443F8210053F82120491C601E88421B
:100CB000DCDC1D68500980EA85004FEAD50A8AEA23
:100CC000021A824486EA050001F0030B8BEA070B47
:100CD0005CF82BB08BEA020B58448AEA000A601ECB
:100CE00053F820008244601E43F820A053F82020CF
:100CF000B8F10000A8F10108B3DC0020BDE8F08FD6
:100D0000B4F1FF3F56DA6442601E53F820203420CD
:100D100090FBF4F000F1060808FB09F646E0C6F384
:100D20008107611E20E0481E53F82020500980EA08
:100D300085004FEAD50A8AEA021A504486EA050A73
:100D400001F0030B8BEA070B5CF82BB08BEA020B6C
:100D5000DA4480EA0A0053F821A0AAEB000043F825
:100D6000210053F82150491E0029DCDC601E53F895
:100D70002020500980EA85004FEAD50A8AEA021A43
:100D8000504486EA050A01F0030B8BEA070B5CF876
:100D90002BB08BEA020BDA4480EA0A00D3F800A0F9
:100DA000AAEB000018601D68A6EB0906002EB6D15C
:100DB0000020A3E70120A1E71C0F02081C13020872
:100DC0001C140208B979379E2DE9F0410646042724
:100DD00009F007FC09F071FE04466EB1E04340F0F3
:100DE000C005C020A043C02815D009F0C4FC284687
:100DF00009F081FD00F0B3FA44F0C000C54364F08F
:100E0000C000401C38B109F0B6FC15B1284609F005
:100E100072FD00F0A4FA09F0F0FBBDE8F0812DE9C5
:100E2000F74F044690460426DDF804B028F003008E
:100E3000404502D0701FBDE8FE8FE40AE40204EBD7
:100E4000080909F0CEFB08F2FF704FEAD02A3520DE
:100E500009F062FE002707E04FF4006101FB074044
:100E600009F004FC06467F1C574501D2042EF3D03E
:100E7000042E00D026E02546002708E038467F1CD7
:100E80005BF82010284609F0C1FC06462D1D4D4593
:100E900001D2042EF2D0042E00D013E02546042601
:100EA000002708E02A6838467F1C5BF82000824251
:100EB00000D002262D1D4D4501D2042EF2D109F09D
:100EC00090FB00BF042E02D04FF0FF30B3E70020AC
:100ED000B1E770B5044634B10C252A46FA492046DC
:100EE0001EF0FDFC00BF70BD2DE9F0410746002655
:100EF000F64D002415E055F82400401C78B9601C1C
:100F000055F82000401C50B9A01C55F82000401C8A
:100F100028B9E01C55F82000401C00B903E0361D3C
:100F2000641CBE42E7D300BF3146E848FFF750FEDD
:100F3000BDE8F0812DE9FF4104460D4616461F46E7
:100F400004B125B94FF0FF3004B0BDE8F08195E859
:100F500007008DE8070003964FB19DE80F0084E875
:100F60000F006A4604212046FFF766FE06E0D848D7
:100F700020606A4601212046FFF75EFE0020E3E77D
:100F80002DE9F0438BB006460F46154626B94FF0C3
:100F9000FF300BB0BDE8F0834FF00409E84696E857
:100FA0000F0001AC0FC417B1CA48009009E0C8484F
:100FB00000900020CDE9065001AA022106A8FFF703
:100FC0003BFE00200890002405E058F82410089803
:100FD00048400890641C082CF7D309F002FB342029
:100FE00009F09AFDBC4809F041FB8146E84600241F
:100FF00010E058F82410B84A02EB840009F006FC0F
:101000008146B9F1040F04D009F0F7FA4FF0FF3030
:10101000BFE7641C0A2CECD309F0EFFA0020B8E714
:101020002DE9F04387B005468846AB4CAB480068D5
:10103000401CB0B9AA48FFF74CFF4FF0FF30FFF754
:1010400053FFA649086000230846A5490268A54841
:10105000FFF770FF0123A148A1490268A248FFF7EA
:1010600069FFA248007800287CD19949206888420D
:1010700003D098492068884267D1DFF85C92002746
:10108000002603E059F826004740761C082EF9D3C5
:10109000206AB84258D18E492068884238D1914898
:1010A00000686168884224D1D4E90601CDE90401D1
:1010B000221D6FF0010104A8FFF7BEFD0020DDE94D
:1010C0000421D2F10302884103D204208749087029
:1010D0000EE0844B0FCB8DE80F0004994A1C4FF0B3
:1010E00000016846FFF74CFF01208049087000BFEF
:1010F0002AE07C4B0FCBCDE90423CDE90201042289
:10110000002102A8FFF73CFF0420784908701BE08B
:101110001022211D74481EF022FB18B903207349C8
:10112000087011E06F4BD3E901211868DB68CDE945
:101130000413CDE902020422002102A8FFF720FFD8
:1011400004206A49087000BF0CE0664B0FCB02AE6A
:101150000FC60022114602A8FFF712FF01206349C3
:10116000087000BF61480078012831D160480168EB
:1011700060480068FFF74CFA44F62061884227D99E
:10118000D4E90601CDE90401201D0FC88DE80F0048
:101190005748006857490860221D6FF0010104A8F4
:1011A000FFF74AFD0498421C4FF000016846FFF724
:1011B000E7FE0020DDE90421D2F10302884102D2DA
:1011C00004204A49087015B141460220A84700BFD3
:1011D00046480078042821D11022211D42481EF0E3
:1011E000BEFA28B903204149087007B0BDE8F08372
:1011F00015B141460420A8473D4801683D480068B4
:10120000FFF706FA44F62061884207D9384800689B
:101210003849086015B141460520A84700BFE4E7FA
:1012200070B50446042509F0DCF900BF342009F04C
:1012300073FC09F0A0FA0546042D00D006E0214613
:1012400021481C3009F033FB054600BF00BF09F000
:10125000D4F9042D01D1002070BD4FF0FF30FBE721
:1012600019481C30007870472DE9F0414FF0040810
:101270000025214E214F4AF2A55031460880002416
:1012800004E036F81400284485B2641C082CF8D316
:101290001948058209F0A5F9342009F03DFC1748EA
:1012A00009F0E4F9804600242CE036F814103846A2
:1012B00009F0DFFA8046B8F1040F21D009F09DF95A
:1012C0000020BDE8F0810000E8F7FF1F00300008B3
:1012D00067452301EFCDAB8900900708240000206B
:1012E0005805002074050020640500201C00002023
:1012F000140000202000002044050020009807086A
:10130000BF1C641C092CD0D309F077F90120BDE87B
:10131000F08170B50025184E1222184930461EF093
:1013200099FA304600884AF2A551884200D00EE072
:10133000002404E036F81400284485B2641C082C0C
:10134000F8D30D48008AA84200D170BD00BF0A48FA
:10135000801C02F080FDFFF787FF00BFF5E708481B
:10136000006800F4E06007490843001D0449086074
:10137000BFF34F8F00BFFEE7440500200098070829
:101380000CED00E00000FA052DE9F04707460C4699
:10139000164698464FF0000917B10CB1002E03DA3B
:1013A0004FF0FF30BDE8F087FEF722FF814606EBE5
:1013B0004600C10020461EF0EEFA142138461EF009
:1013C000EAFA002510E005EB450004EBC000A0F8A8
:1013D0000C8005EB450004EBC000183005EB45011F
:1013E00004EBC10108616D1C701EA842EBDC0020FB
:1013F00005EB450104EBC10108617E603C60484695
:10140000FEF7FAFE0020CDE770B504460026002561
:101410000CB9002070BDFEF7EBFE0646206828B12F
:101420002568286920600020686128613046FEF741
:10143000E3FE2846EEE72DE9F04106460C46174646
:1014400006B11CB94FF0FF30BDE8F0814FF0000845
:1014500017B106F10C0001E006F110000546FEF799
:10146000C7FE8046286818B92C606461246109E0D1
:1014700028682061286840690461286840696061C3
:10148000286844614046FEF7B7FE0020DCE72DE9FE
:10149000F04105460F464FF00008002615B9002020
:1014A000BDE8F08117B105F10C0001E005F1100075
:1014B0000446FEF79DFE8046206808B9002618E025
:1014C0002668206800692168884202D100202060D7
:1014D0000CE020684069216809694861206800695A
:1014E00021684969086120680069206000207061F6
:1014F00030614046FEF780FE3046D1E770B50446C5
:101500000D4604B115B94FF0FF3070BD0026FEF74F
:101510006FFE06462068286125603046FEF76CFEA7
:101520000020F2E72DE9F04104460D46164600275B
:1015300004B11DB94FF0FF30BDE8F081FEF758FE51
:101540000746182120461EF026FA25607008A06084
:10155000A068284460603846FEF74EFE0020EBE7A6
:101560002DE9F04704460F4615464FF00008C146E6
:1015700004B11FB94FF0FF30BDE8F087FEF738FE29
:1015800080466169A068461AB54202D94FF0FF391A
:1015900029E0E0682844A16888420FD9D4E9020113
:1015A000461AE26821688818324639461EF052F918
:1015B000AA1BB91920681EF04DF906E0E2682168FF
:1015C00088182A4639461EF045F9E0682844E0604C
:1015D000D4E90210B0FBF1F201FB1200E060606997
:1015E0002844606100BF4046FEF706FE4846C3E758
:1015F0002DE9F04104460D46002714B90020BDE84E
:10160000F081606908B90020F9E7FEF7F1FD0746AF
:10161000D4E904010844A168884211D92169A0686D
:10162000461A23692268D118324660681EF012F902
:1016300063699A1BD4E9001398191EF00BF906E0B0
:10164000266923689919626960681EF003F9D4E974
:10165000040108442061A1682069B0FBF1F201FB9C
:10166000120020610DB16069286000206061384679
:10167000FEF7C2FD6068C2E7F0B5024692F8284066
:1016800004F0070600210DE0FA4C605CFA4C54F8B7
:10169000204034B1F94C34F81040F74D55F8205043
:1016A0002C61491C0429EFD3002342E0F14FF85C80
:1016B000F14F57F8207047B1F04F37F81070DFF84E
:1016C000B8C35CF820C0CCF81470002100E0491CBD
:1016D0002829FCD300BF00BF00BF0024002113E075
:1016E000E74F57F82170BF68DFF898C33CF811C086
:1016F00007EA0C050DB1012700E000273D4605FA79
:1017000001F72743BCB2491C0329E9D3DA4F57F844
:10171000207047B1D94F37F81070DFF85CC35CF820
:1017200020C0CCF8107002F1080707EB8607FC54C4
:101730005B1C042BBAD3946A641C9462F0BDF0B5B0
:1017400003460C46FF260025002114E000220BE092
:1017500003EB8100875C481C03EB8000805C8742C0
:1017600001D06D1C02E0521C042AF1DB00BF042AE8
:1017700000D10E46491C0729E8DB052D01DD0020BC
:10178000F0BD082E01DB0020FAE703EB86000068BD
:1017900020600120F4E770B502460D46002366E0A4
:1017A000581CC4B25FE002EB8300407800F0F00008
:1017B00002EB8406767806F0F006B04251D10021A3
:1017C0000FE002EB8300407800F00F0002EB81068F
:1017D000767806F00F06B04201D1012070BD481C9A
:1017E000C1B29942EDDB581CC1B20FE002EB83009D
:1017F000407800F00F0002EB8106767806F00F06C5
:10180000B04201D10120E9E7481CC1B2A942EDDB99
:1018100000210FE002EB8400407800F00F0002EBA3
:101820008106767806F00F06B04201D10120D5E797
:10183000481CC1B2A142EDDB601CC1B20FE002EB5B
:101840008400407800F00F0002EB8106767806F005
:101850000F06B04201D10120C0E7481CC1B2A94225
:10186000EDDB601CC4B2AC429DDB581CC3B2681EE9
:10187000984295DC0020B1E72DE9F05F074697F824
:10188000280000F0070007287ED1394607F108003C
:10189000FFF755FF8346BBF1000F02D10020BDE8E2
:1018A000F09FB94607F1040A07F12C08002400252F
:1018B0005FE00020002119F805201AF8053082EABF
:1018C000030019F805201AF8053002EA030160B395
:1018D000002628E00122B24002401AB3082C00DBA7
:1018E0004AE0F02202EA051206F00F031A4308EB61
:1018F00084035A7005EB4502634B1A44925D08F865
:10190000242019F805200123B3401A4022B10222F5
:1019100008EB84039A7003E0012208EB84039A70B9
:10192000621CD4B2761C032ED4DB09B300261DE062
:101930000122B2400A40C2B1082C00DB1CE0F022B8
:1019400002EA051206F00F031A4308EB84035A70EB
:1019500005EB45024C4B1A44925D08F82420EE2218
:1019600008EB84039A70621CD4B2761C032EDFDB72
:101970006D1C042D9DDB00BFD9F80000CAF80000E3
:10198000042C09DB214600E008E007F12C00FFF7FA
:1019900002FF08B1002082E7204680E700207EE7B2
:1019A00038B503208DF8020010208DF803000024C4
:1019B00012E0344830F81400ADF80000304951F816
:1019C0002400694609F032FC2E4830F814002C49F6
:1019D00051F824104861641C032CEAD300BF28206E
:1019E0008DF8030000240BE0264830F81400ADF811
:1019F0000000234951F82400694609F017FC641CD3
:101A0000032CF1D300BF38BD38B503208DF8020098
:101A100010208DF8030000240BE01C4830F814005F
:101A2000ADF800001A4951F82400694609F0FEFBA0
:101A3000641C002CF1D038BD38B503208DF80200AD
:101A400010208DF8030000240FE00C4830F814003B
:101A5000ADF80000084850F8240028B1064951F8B4
:101A60002400694609F0E2FB641C042CEDD3002439
:101A700020E000004E15020830150208401502084B
:101A80001C15020828150208390000204C15020810
:101A900048150208964830F81400ADF80000954843
:101AA00050F8240028B1934951F82400694609F000
:101AB000BDFB641C002CEDD038BD002007E08E4932
:101AC00031F810108D4A52F820201161401C002876
:101AD000F5D0704700200BE0864951F8201031B155
:101AE000834931F81010834A52F820201161401CBC
:101AF0000028F1D0704700200BE07E4951F82010FB
:101B000031B17B4931F810107A4A52F82020116126
:101B1000401C0428F1D3704710B5FFF7ECFFFFF726
:101B2000D9FF10BD2DE9F04106460024375DFFF7CF
:101B3000C4FFFFF7CFFF00250BE00120A84038408D
:101B400030B16D4830F815006C4951F825104861E6
:101B50006D1C002DF1D0674850F8240030B1644866
:101B600030F81400634951F824104861601C70601B
:101B7000BDE8F08110B5FFF713FFFFF745FFFFF752
:101B80005BFFFFF7C9FF4C215D481DF004FF5D4876
:101B90000021016041605C4801705C4801705C4854
:101BA000017010BD30B5034600230021554C60186C
:101BB0002AB1047801259D402C43047004E0057887
:101BC00001249C40A543057030BD0246002200213F
:101BD0004C48435C01209040184008B101207047F8
:101BE0000020FCE730B5034600230021464C601876
:101BF0002AB1047801259D402C43047004E0057847
:101C000001249C40A543057030BD10B541480168D2
:101C100041480068FEF7FCFCB0F5FA7F1ED90021B0
:101C20000FE0384B5818384B5A5C4AB13B4B1B7885
:101C30001BB103781343037002E0037893430370EE
:101C4000491C0029EDD0334B1B68334C2360334BC8
:101C50001B7883F00103314C237000BF10BD70B5B9
:101C60000446002504B1FF252748002101702A46BB
:101C7000012124481DF065FE70BD254822490978E0
:101C8000017022481F490978017070471E48204999
:101C9000097801701B481D4909780170704710B51B
:101CA0008AB01C48007800F00100D0B90024FFF78A
:101CB00004FF1348FFF7E0FC1148FFF7DDFD044681
:101CC000002C0DDD019401208DF80000A2000C49CC
:101CD0002C3102A81DF003FE684600F051F800BF49
:101CE00000BFFFF792FF0748FFF71CFF0AB010BDC7
:101CF00040150208301502084C1502084815020864
:101D00008405002028000020300000203100002041
:101D10003200002014000020340000203800002091
:101D200010B50623082224492448FFF72DFB002480
:101D300016E0002004EB44011F4A02EBC1010872C7
:101D400004EB84001E4901EBC00004EB440142F89F
:101D50003100282004EB440102EBC1014860641CFF
:101D6000082CE6D310BD10B501211448FFF78FFBF6
:101D700010BD10B5044621461048FFF7BFFB10BD4B
:101D800070B50446002504B970BD0C48FFF73CFB54
:101D9000054675B12822214628681DF05BFD012209
:101DA00029460648FFF747FB18B129460348FFF7C5
:101DB000A5FB00BFE8E7000010070020D0070020C7
:101DC000D005002000B587B00121880309F070FD1F
:101DD00003A80AF08BFD4FF4E130039003A9AD484E
:101DE0000AF01BFD0121AB480AF0A3FD4FF400707F
:101DF000ADF8080003208DF80A0018208DF80B00BC
:101E000002A9A54809F012FA4FF48060ADF8080065
:101E100004208DF80B0002A99F4809F007FA25203D
:101E20008DF8040004208DF8050000208DF80600D0
:101E300001208DF8070001A808F093F9012240F273
:101E4000255194480AF081FD0121084609F023FD3F
:101E500043F29000914948648E48001DC8640020F8
:101E600088640865012280218A480AF093FD07B042
:101E700000BD38B58748048804F0200010B904F08C
:101E8000080050B18348001D0088C0B200900122B4
:101E900069468348FFF764FB00BF38BD10B50023D7
:101EA000202280498048FFF76FFA4FF440727F4943
:101EB0007B48FFF737FB4FF480627D497D4800F097
:101EC0008BFAFFF77FFF10BDF0B585B0054600BF68
:101ED00000270020049004A97148FFF789FB0746FA
:101EE00007B92CE028E0002600200390029000248F
:101EF00002A903ABCDE9001039466E48049A00F000
:101F00007DFA064606B918E06748FFF77DFA0446F1
:101F10001CB930461DF013FB0FE02660039860608B
:101F2000012020720298A072012221465E48FFF72C
:101F300082FA0020049000BFD5E700BF00BF00BFB9
:101F400000BF00245C480078E8B15448006800F401
:101F5000005010B905B149E049E04E48008800F052
:101F6000400010B905B141E041E04FF480504B49C9
:101F700048605248007A18B1504908681DF0DFFAED
:101F800000204D49087000214748FFF780FA0446B9
:101F90005CB36068002801DD206848B9207A20B170
:101FA000206810B120681DF0CAFA05B11EE01EE0DD
:101FB0003A48406C20F00100384948646068886401
:101FC000206808650846406C40F001004864012024
:101FD000394908701822214638481DF080FC2146F6
:101FE0003148FFF78BFA05B100E000E0A9E700BF38
:101FF00000BF002401212C48FFF749FA044614B120
:10200000204605B0F0BD00BF0020FAE710B5044639
:1020100044B1207A10B120681DF091FA214622487F
:10202000FFF76CFA10BD2DE9F04105460E469046CB
:102030001F46002415B9601EBDE8F0811A48FFF75D
:10204000E3F9044614B94FF0FF30F5E72560676007
:102050002672002221461448FFF7EDF90020EBE735
:1020600010B504461CB121460F48FFF747FA10BDD2
:102070004FF48060704710B5044604B910BD0020CD
:10208000A0810C206081214602480AF0C6FB00BFF7
:10209000F4E7000000380140000801400000024061
:1020A000F80D0020E4070020E40A0020F80A0020D0
:1020B000100E0020101200204500002028120020E1
:1020C00000B587B00121480409F0FFFB03A80AF01E
:1020D0000DFC4FF4E130039003A9B4480AF09DFBD6
:1020E0000121B2480AF025FC0420ADF808000320C5
:1020F0008DF80A0018208DF80B0002A9AC4809F0F1
:1021000095F80820ADF8080004208DF80B0002A90E
:10211000A74809F08BF826208DF8040004208DF8DC
:10212000050000208DF8060001208DF8070001A8A9
:1021300008F017F8012240F225519C480AF005FCEE
:102140000121084609F0A7FB43F290009949086075
:102150009648001D97498039C1F8880000209549AC
:10216000091D086093498039C1F88C000122802143
:102170008E480AF00FFC07B000BD38B58B480488C4
:1021800004F0200010B904F0080050B18748001D89
:102190000088C0B20090012269468748FFF7E0F945
:1021A00000BF38BD10B50623202284498448FFF7BC
:1021B000EBF84FF4407283497F48FFF7B3F94FF4CF
:1021C00080628149814800F007F9FFF779FF10BD6F
:1021D000F0B585B0054600BF00270020049004A993
:1021E0007548FFF705FA074607B92CE028E00026F6
:1021F000002003900290002402A903ABCDE9001057
:1022000039467248049A00F0F9F8064606B918E013
:102210006B48FFF7F9F804461CB930461DF08FF9FA
:102220000FE0266003986060012020720298A0727F
:10223000012221466248FFF7FEF80020049000BF0B
:10224000D5E700BF00BF00BF00BF00246048007892
:10225000F8B158488038006800F0007010B905B136
:1022600051E051E05148008800F0400010B905B13C
:1022700049E049E04FF080704E4980394860554848
:10228000007A18B1534908681DF059F900205049E7
:10229000087000214A48FFF7FAF804468CB36068DA
:1022A000002801DD206848B9207A20B1206810B1EB
:1022B00020681DF044F905B125E025E03D4800689F
:1022C00020F001003B490860091D60680860394939
:1022D00080392068C1F88C000846D0F8800040F0B2
:1022E000010034490860012039490870182221464C
:1022F00038481DF0F4FA21463148FFF7FFF805B1E0
:1023000001E0FFE700E0A0E700BF00BF00240121DB
:102310002B48FFF7BCF8044614B1204605B0F0BDC9
:1023200000BF0020FAE710B5044644B1207A10B18E
:1023300020681DF004F921462148FFF7DFF810BDA1
:1023400010B504461CB121461D48FFF7D7F810BD53
:102350004FF4806070472DE9F04105460E469046E7
:102360001F46002415B9601EBDE8F0811448FFF730
:102370004BF8044614B94FF0FF30F5E7256067606D
:102380002672002221460E48FFF755F80020EBE7A1
:1023900010B5044604B910BD0020A0810C20608156
:1023A000214602480AF039FA00BFF4E70044004031
:1023B0000008014080000240541800204012002014
:1023C00040150020541500206C1800206C1C0020C3
:1023D00046000020841C002070B504460E461546B9
:1023E0000CB106B115B94FF0FF3070BD1821204671
:1023F0001DF0D1FA266065600020F6E72DE9FF4F59
:102400008DB0044691469A46DDF86880002700208A
:102410000C9014B1BAF1000F03D14FF0FF300C90C3
:1024200023E221696068401A484502D24FF0FF302C
:102430000C90B9F1000F2ED00E9818B94FF0FF3064
:102440000C90EDE7A06800EB09066068B04214D27A
:10245000D4E90101451AA268216888182A460E9914
:102460001DF0F8F9A9EB05020E9B591920681DF023
:10247000F1F9A9EB0500A06009E0A26821688818BD
:102480004A460E991DF0E6F9A0684844A06020690C
:102490004844206100BF00BF00200B900025BDE331
:1024A000E06828440A9061680A98B0FBF1F201FBE9
:1024B00012000A9021680A98085C09900998AA28D5
:1024C0007DD10026002008902069401B07900798C6
:1024D000072806DB606928B1A08AC0F30726207DA3
:1024E000089085E0E26850192168821C6368B2FB9D
:1024F000F3FC03FB1C228A5C042A78D1C21C6368AB
:10250000B2FBF3FC03FB1C228A5C002A6FD1421D44
:102510006368B2FBF3FC03FB1C228E5C821D6368C4
:10252000B2FBF3FC03FB1C228A5C0892079A082A80
:102530005DDBD4F80CC0AC44CDF818C005F1070C35
:10254000D4F80CB00CEB0B034FF0000CCDF814C01A
:10255000069A10E0D4F804C0B2FBFCFB0CFB1B2C69
:10256000D4F800B01BF80CC0DDF814B08CEA0B0CEA
:10257000CDF814C0521C9A42ECD3D4F804C0B3FB7B
:10258000FCFB0CFB1B3CD4F800B01BF80CC0CDF8D6
:1025900010C0DDE904CBE3451BD005F1010CD4F8F4
:1025A00010B0ABEB0C0CC4F810C005F1010CD4F862
:1025B0000CB0DC44C4F80CC0D4F80CC000E03FE11F
:1025C000D4F804B0BCFBFBFE0BFB1ECCC4F80CC063
:1025D00028E3F6B2DDF820C00CF0FF0CCDF820C0E7
:1025E000DDF820C00CEB062CC4F814C000BF00BFFF
:1025F000F6B20898C0B20890089800EB0626083694
:102600006068B6EB500F11D9681C2169081A206167
:10261000681CE1680844E0606168E068B0FBF1F2C2
:1026200001FB1200E0600020606108E1079886422B
:1026300075DC082E75D100200690019601981CF0DB
:102640004FFF07461FB94FF0FF300C9007E3059787
:10265000E06828440390701E2844E1680844029012
:102660000398049015E061680498B0FBF1F201FB57
:102670001200216811F800B0069880EA0B0006905D
:10268000059880F800B00598401C05900498401CFF
:102690000490029904988842E5D361680298B0FBDF
:1026A000F1F201FB1200216811F800B006985845BC
:1026B0001FD101200B90059880F800B02169019886
:1026C0002844081A2061E068411901980844E06034
:1026D0006168E068B0FBF1F201FB1200E060019874
:1026E000CAF80000B8F1000F18D00120C8F80000A7
:1026F00014E038461CF023FF0027681C2169081AE3
:102700002061681CE1680844E0606168E068B0FB33
:10271000F1F201FB1200E060002060618FE07FE0D9
:10272000FFE7059605981CF0DBFE07461FB94FF042
:10273000FF300C9093E2E06828446168B0FBF1F24E
:1027400001FB120B7019E16808446168B0FBF1F2FB
:1027500001FB120006900698584507D9206800EB47
:102760000B01324638461DF075F811E06068A0EBA9
:102770000B000290206800EB0B013846029A1DF016
:1027800069F8029BF21AF81821681DF063F800BF7F
:1027900000206061A6F10A0081B207F10800FEF78F
:1027A0002FFA049000200390B819811E022203A87A
:1027B000FEF702FABDF80C10049881421CD10120EA
:1027C0000B90216905982844081A2061E068411996
:1027D00005980844E0606168E068B0FBF1F201FB35
:1027E0001200E0600598CAF80000B8F1000F16D09A
:1027F0000120C8F8000012E038461CF0A0FE0027B7
:10280000681C2169081A2061681CE1680844E060BE
:102810006168E068B0FBF1F201FB1200E0600EE0DD
:102820002069401B2061E0682844E0606168E0683E
:10283000B0FBF1F201FB1200E06001200B90F1E12E
:102840000998FA2870D12069A0EB050BBBF1070F9E
:102850006BDB002008900720039003981CF040FEDB
:1028600007461FB94FF0FF300C90F8E13E46E06894
:1028700028440590A81DE168084404900598069036
:102880000FE060680699B1FBF0F200FB12102168BE
:10289000085C07909DF81C0006F8010B0698401C88
:1028A0000690049906988842EBD30220069009E02E
:1028B0000698385C9DF820100844C0B2089006982D
:1028C000401C069006980628F2D360680499B1FB74
:1028D000F0F200FB12102168085C07909DF82000C0
:1028E0009DF81C10884221D101200B909DF81C00FE
:1028F0003070206903992944401A2061E068284417
:1029000003990844E0606168E068B0FBF1F201FB04
:102910001200E0600398CAF80000B8F1000F18D068
:102920000520C8F8000014E024E013E038461CF04D
:1029300006FE0027681C2169081A2061681CE168EE
:102940000844E0606168E068B0FBF1F201FB12004E
:10295000E0600EE02069401B2061E0682844E060F0
:102960006168E068B0FBF1F201FB1200E060012059
:102970000B9057E1099800F0F000802879D1206988
:10298000401B08900898032874DBE06828440790EF
:10299000D4E9031000EB010B002006900798861C79
:1029A0000DE06068B6FBF0F100FB11602168085C87
:1029B00006900698FF2801D1B34602E0761C5E45DA
:1029C000EFD300BF0698FF2855D10798ABEB000066
:1029D000401C102810D90027681C2169081A2061A2
:1029E000681CE1680844E0606168E068B0FBF1F2EF
:1029F00001FB1200E06063E00798ABEB0000401CB5
:102A0000049004981CF06CFD07461FB94FF0FF308E
:102A10000C9024E1059701200B90079E0CE0606864
:102A2000B6FBF0F100FB11612068415C0598017074
:102A30000598401C0590761C5E45F0D921690498E4
:102A40002844081A2061E068411904980844E060AD
:102A50006168E068B0FBF1F201FB1200E0600498ED
:102A6000CAF80000B8F1000F02D00420C8F8000036
:102A700026E036E025E00798ABEB0000102810D3E5
:102A80000027681C2169081A2061681CE168084455
:102A9000E0606168E068B0FBF1F201FB1200E06009
:102AA0000EE02069401B2061E0682844E060616816
:102AB000E068B0FBF1F201FB1200E06001200B9036
:102AC0000EE02069401B2061E0682844E0606168F6
:102AD000E068B0FBF1F201FB1200E06001200B9016
:102AE000A0E00998A52871D12069A0EB050BBBF1E6
:102AF0000B0F6CDB002008900B20039003981CF058
:102B0000EFFC07461FB94FF0FF300C90A7E03E46A0
:102B1000E0682844059005F10A00E1680844049043
:102B2000059806900FE060680699B1FBF0F200FB93
:102B300012112068405C07909DF81C0006F8010BFC
:102B40000698401C0690049906988842EBD3012011
:102B5000069009E00698385C9DF820100844C0B241
:102B600008900698401C069006980A28F2D36068E0
:102B70000499B1FBF0F200FB12102168085C079089
:102B80009DF820009DF81C10884221D101200B9057
:102B90009DF81C003070206903992944401A206177
:102BA000E068284403990844E0606168E068B0FB8D
:102BB000F1F201FB1200E0600398CAF80000B8F1DE
:102BC000000F18D00620C8F8000014E024E013E03D
:102BD00038461CF0B4FC0027681C2169081A2061E3
:102BE000681CE1680844E0606168E068B0FBF1F2ED
:102BF00001FB1200E0600EE02069401B2061E068EC
:102C00002844E0606168E068B0FBF1F201FB12006B
:102C1000E06001200B9005E000BF6D1C2069A84218
:102C20003FF63EAC00BF2069A8420FD10B9868B9AF
:102C300000202061E0682844E0606168E068B0FB43
:102C4000F1F201FB1200E060002060610B9800B11E
:102C500003E0206900283FF71FAC00BF00BF1B98AE
:102C600010B11B990C980860384611B0BDE8F08F80
:102C700010B501460B78FC4C24680CB1092200E029
:102C80000722012002E00C5C6340401C9042FADB0A
:102C90000B5410BD2DE9FF4381B08846DDF830901C
:102CA0000024B8F1000F03D1002005B0BDE8F08387
:102CB000DDE9030100FB01F707F1100630461CF0C7
:102CC0000FFC04460CB90020EFE7314620461CF00B
:102CD00040FEAA2020700420A0700020E070A6F121
:102CE0000800009002226946601DFDF765FF20463E
:102CF000FFF7BEFF04F10805022201A92846FDF7EF
:102D00005BFF022203A9A81CFDF756FF022204A9BB
:102D1000281DFDF751FF3A464146A81D1CF09AFDBB
:102D2000B81D81B22846FDF76BFF0090A91DC81998
:102D300002226946FDF740FFB9F1000F01D0C9F842
:102D400000602046B1E7F8B506460F4614461D461A
:102D500023460122394630460095FFF79BFFF8BD18
:102D600070B505460C46ADB1A4B120461CF0B8FBC9
:102D7000064676B12246294630461CF06BFD2346B6
:102D8000062201213046FFF74EF910B130461CF003
:102D9000D6FB00BF70BD704770B505460C46ADB19F
:102DA000A4B120461CF09CFB064676B1224629467B
:102DB00030461CF04FFD234606220121304601F02B
:102DC0009CFB10B130461CF0BAFB00BF70BD2DE972
:102DD000F04105460E461446BDB1B6B1ACB1204631
:102DE0001CF07EFB07467FB12246314638461CF078
:102DF00031FD2346062201213846D5F814C0E047AC
:102E000010B138461CF09BFB00BFBDE8F0812DE9F6
:102E1000F04F8FB007460C4601200E901FB9801E60
:102E20000FB0BDE8F08F3D682878AA2802D04FF097
:102E3000FF30F5E7A8780C287AD1E878802878D197
:102E400000200C900D9000260B904FF001094FF0E0
:102E5000010A8346AA208DF830000C208DF832003C
:102E600080208DF8330001208DF83400A8790D28DA
:102E700060D2DFE800F05F0708165F245F5F5F380D
:102E80005F3A4B0000BFA8798DF8360008201CF08F
:102E900027FB064616B94FF0000950E008200B90BA
:102EA0004DE008A8FEF715F84FF0000A0BAB0C2216
:102EB00008A948F20300FFF746FF06463FE000205E
:102EC0000A902CB1206918B12069804780B20A901D
:102ED0004FF0000A0BAB02220AA948F20500FFF7E7
:102EE00032FF06462BE001F05EF84FF0FF300A900B
:102EF000FDF7FAFF0A904FF0000A0BAB04220AA973
:102F000048F20B00FFF71FFF064618E00FF25C18AF
:102F10004FF0000A40461CF072FC401C0BAB02460E
:102F200041460A9048F20C00FFF70DFF064606E006
:102F300030E0C9E04FF0000900200E9000BF00BF54
:102F4000B9F1000F20D0FEB1BAF1000F06D00CA8E5
:102F5000FFF78EFE0C9830600D9870601CB93046FB
:102F60001CF0EDFA10E0606918B930461CF0E7FA81
:102F70000AE0D4F814C00622012130460B9BE0473A
:102F800010B130461CF0DBFABBF1000F01D001F0AC
:102F90000AF899E0A878042865D100200D908046B1
:102FA0000E900222691D0DA8FDF706FE05F1080628
:102FB0000D98801E0D9080E04FF0000900200C90CD
:102FC0004FF0010A0B900A900990022231460BA89B
:102FD000FDF7F2FD0222B11C0AA8FDF7EDFD022269
:102FE000311D09A8FDF7E8FDBDF82C00A0F5004053
:102FF0000A3858BB06F1060B01A8FDF76AFF4FF02F
:10300000FF30FDF771FF0090012301A904A8009A89
:10301000FDF790FF1022594604A81CF0A0FB38B918
:10302000002008900022012104A8FDF7A9FF02E07A
:103030004FF0FF3008900CAB042208A948F20A00B8
:10304000FFF781FE814601200E9000E000BF00BF27
:10305000BAF1000F25D0B9F1000F22D084B948464B
:103060001CF06DFA1DE02DE04C00002059415F4737
:1030700055495F415544494F5F313830383035004C
:10308000606918B948461CF05AFA0AE0D4F814C02E
:103090000622012148460C9BE04710B148461CF02F
:1030A0004EFABDF82800BDF824104843801D804426
:1030B00005F1080000EB080600BF0D988045FFF4FD
:1030C0007BAF01E000200E900E9808B10020A7E62B
:1030D0004FF0FF30A4E60020FE49087070477047AB
:1030E0007047704701460022012003E00B5C134447
:1030F000DAB2401C0628F9DB0A5470477047704763
:10310000704700207047704770472DE9F041064630
:1031100000274FE006F1080000EB8705A878EE28AD
:1031200000D146E095F80080EB4C00202060606004
:103130002081AA202070E748007860700720A070E6
:10314000A878012800D12071B8F1010F17D0B8F18B
:10315000020F20D1A878022801D1012000E0002030
:1031600001460A2004F0F7FAA878022801D10120CC
:1031700000E0002001460A2001F016FE0CE0A878CD
:10318000022807D101F090FB10B101F09AFB01E099
:1031900001F093FB00E00CE000BF01F088FB84F835
:1031A00005802046FFF764FD08212046FFF7D8FD83
:1031B00000BF7F1C7068B842ACD80120BDE8F08128
:1031C000704770B50446C44D0DB9002070BD002095
:1031D000286068602881AA202870BE48007868703E
:1031E0000820A870207A2871A07B68712846FFF714
:1031F0003FFD08212846FFF7B3FDA07B00F0010644
:10320000208958B9608920B13146092001F0CCFDF0
:1032100015E031460B2001F0C7FD10E020890128A0
:103220000DD1A08904F080FA608920B131461320C5
:1032300001F0BAFD03E03146142001F0B5FD01F0C4
:1032400036FB0120C2E770B505462C6820780528BA
:1032500001DB002070BD2078A04951F8200030B17A
:1032600020780A4652F8201020468847F2E70020CE
:10327000F0E701460020704777B583B00446154655
:10328000204601F001FF86B20C2E03DB4FF0FF3029
:1032900006B070BD05F0050048B3E0B28DF8080037
:1032A0009DF810008DF809009DF811008DF80A00B6
:1032B0000020019001A80323012202A900904FF4ED
:1032C000D060FFF7E7FC064686B105F0010018B1B3
:1032D00030460199FFF744FD05F0040018B130466F
:1032E0000199FFF759FD30461CF029F900BF05F0A0
:1032F0001000B8B37A48006802900026072C03DA61
:1033000004F12000C6B210E00A2C03DA04F129000F
:10331000C6B20AE0812C05DC802C03DBA4F140005E
:10332000C6B202E04FF0FF30B2E79DF809006D49E8
:10333000097801F00F0108438DF809008DF80A6043
:103340009DF810109DF811208818C11700EB91719D
:10335000C1F386018DF80B100422114602A801F07A
:1033600087FB00BF002093E702460020704702461B
:1033700000207047FEB504460E461546022C02DBBF
:103380004FF0FF30FEBD05F0050018B3E0B28DF838
:1033900008008DF809600020019001A80223012295
:1033A00002A9009040F24660FFF774FC074687B11F
:1033B00005F0010018B138460199FFF7D1FC05F07E
:1033C000040018B138460199FFF7E6FC38461CF0B6
:1033D000B6F800BF05F01000B0B3414814300068E3
:1033E00002903F481830006801909DF809003D495F
:1033F000097801F00F0108438DF809009DF80500D8
:103400003849097801F00F0108438DF805006EB1C5
:1034100004F17000C0B28DF80A007F208DF80B0017
:103420000422114602A801F023FB0CE004F1700015
:10343000C0B28DF8060000208DF807000422114666
:1034400001A801F015FB00BF00209BE70246002009
:1034500070472DE9FE4304460D46164606F005006A
:10346000B0B3E0B28DF808008DF80950002001904B
:10347000072C02DA4FF4C8670FE00A2C02DA40F298
:1034800041670AE0812C04DC802C02DB40F24267B9
:1034900003E04FF0FF30BDE8FE8301A802230122C4
:1034A00002A900903846FFF7F5FB8046B8F1000FFF
:1034B0001DD006F0010018B140460199FFF750FCFD
:1034C00006F0040018B140460199FFF765FC0BE0D7
:1034D0000EE00000480000209C1C0020540000204A
:1034E000701502085000002040461CF028F800BF6C
:1034F00006F01000A8B3F648006802900027072CD9
:1035000005DA002000EBC4002844C7B215E00A2CFD
:1035100006DAE01F382101EBC0002844C7B20CE0F6
:10352000812C07DC802C05DB502101EBC4002844F2
:10353000C7B202E04FF0FF30ADE79DF80900E54962
:10354000097801F00F0108438DF809008DF80A7021
:103550007F208DF80B000422114602A801F088FAA2
:1035600000BF002097E70246002070470246002077
:10357000704700207047002070472DE9FC47064641
:103580000F46154605F0050058B3AA208DF8000037
:1035900006208DF8020050208DF8030081208DF860
:1035A000040001F044FE8DF8050001F06AFE8DF87C
:1035B00006006846FFF75CFB05F0010018B1082122
:1035C0006846FFF7CDFB00208DF804006846FFF742
:1035D0004FFB05F0010018B108216846FFF7DCFB3E
:1035E00000BF05F01000002847D0B948103000682F
:1035F0000190B7481430006800904FF000084FF079
:103600000309032E02DAB04606F101099DF8050010
:10361000B049097801F00F0108438DF805009DF8C5
:103620000100AC49097801F00F0108438DF8010051
:1036300044461FE00120A040384068B104F1680012
:10364000C0B28DF806007F208DF8070004221146D5
:1036500001A801F00DFA0CE004F16800C0B28DF889
:10366000020000208DF8030004221146684601F094
:10367000FFF9641C4C45DDDB00BF0020BDE8FC8782
:103680002DE9FC4706460F46154605F0050058B3E0
:10369000AA208DF8000006208DF8020050208DF839
:1036A000030081208DF8040001F0C1FD8DF80500B4
:1036B00001F0E7FD8DF806006846FFF7D9FA05F03E
:1036C000010018B108216846FFF74AFB00208DF879
:1036D00004006846FFF7CCFA05F0010018B1082194
:1036E0006846FFF759FB00BF05F01000002847D0DF
:1036F000774808300068019075480C3000680090E9
:103700004FF000084FF00509052E02DAB04606F129
:1037100001099DF805006F49097801F00F01084380
:103720008DF805009DF801006A49097801F00F0144
:1037300008438DF8010044461FE00120A0403840B6
:1037400068B104F16000C0B28DF806007F208DF8EA
:1037500007000422114601A801F08AF90CE004F1E7
:103760006000C0B28DF8020000208DF80300042232
:103770001146684601F07CF9641C4C45DDDB00BF56
:103780000020BDE8FC87024600207047024600206A
:10379000704770470246002070472DE9F04F87B010
:1037A00080460E46B8F1000F03D1002007B0BDE8F7
:1037B000F08FD8F80040A07807280DD1E078502885
:1037C00008D1A379DA106379D9102379D81000F0E1
:1037D0004FFC00E000BF42E2A07806287ED13E4DBB
:1037E0004FF0000A002006904FF0010B01200590D9
:1037F000AA2028700620A8708020E8700120287177
:10380000E078462872D008DC40280DD0412834D01A
:10381000432865D044287CD165E050287AD08028A0
:1038200079D08128F7D105E114201BF059FE81469B
:1038300000200590B9F1000F1ED000270CE004A96C
:10384000384601F030FC09F817709DF8100009EBBC
:1038500047014870781C87B2072FF0DB06A80223C7
:103860000722494600904FF4C860FFF713FA8246DA
:1038700048461BF064FE00BFE6E006201BF030FE69
:10388000814600200590B9F1000F20D000270EE0FE
:10389000F91D88B204A901F006FCF81D09F817000B
:1038A0009DF8100009EB47014870781C87B2032F80
:1038B000EEDB06A8022303224946009040F2416055
:1038C000FFF7E8F9824648461BF039FE00BFBBE02F
:1038D0006C150208500000209C1C0020DBE005E075
:1038E0004FF0000BB0E04FF0000BADE0A079FF28E7
:1038F0002BD10020049004201BF0F2FD8146002013
:103900000590B9F1000F1FD004A801F078FC002742
:103910000AE094E030E05BE009F8177004A8C05DAD
:1039200009EB470148707F1C022FF5DB06A8032333
:1039300002224946009040F24660FFF7ABF982460A
:1039400048461BF0FCFD00BF15E0207907116079A7
:1039500008B9012000E0002081464946384601F0C0
:1039600040FC3946022003F03AFD10224946384611
:10397000FFF700FD00BF67E0207910B120798128B2
:1039800018D16179FF2001F057FCA179FF2001F0E7
:103990007DFC0021032003F022FD61791022FF202D
:1039A000FFF76EFEA1791022FF20FFF7E6FD002051
:1039B00005900CE02079012809D15020E870812081
:1039C000287101F034FC687101F05BFCA8713BE0E8
:1039D0001E201BF085FD814600200590B9F1000FE7
:1039E00027D0002715E004A9384601F0AFFB07EB0C
:1039F000470109F801709DF8100007EB47014944A1
:103A000048709DF8110007EB470149448870781C05
:103A100087B20A2FE7DB06A803230A224946009053
:103A20004FF4D060FFF736F9824648461BF087FD19
:103A300000BF09E04FF0000B0020059004E04FF0BC
:103A4000000B0020059000BF00BF059838B1284644
:103A5000FFF70EF9082229463046FFF7B8F9BBF107
:103A6000000F17D0BAF1000F14D01EB950461BF04A
:103A700066FD0FE0706918B950461BF060FD09E063
:103A80007769062201215046069BB84710B150467F
:103A90001BF055FDE3E0A0780428FBD10020069040
:103AA00081460222611D06A8FDF786F804F1080789
:103AB0000698801E0690CDE04FF0000A0020059089
:103AC00001200490002003900290019002223946C8
:103AD00003A8FDF771F80222B91C02A8FDF76CF8E3
:103AE0000222391D01A8FDF767F8BDF80C0040F26D
:103AF0004262811A90420FD007DCB0F5C86F09D03E
:103B0000A0F2416000287DD105E0042923D03E29A0
:103B100078D149E000BF00BF07F1060B002515E092
:103B20000BEB450251781BF8150001F0CEFA1BF89B
:103B30001510012003F053FC0BEB450251781BF8E4
:103B400015001022FFF785FC681C85B2BDF808003F
:103B50008542E5DB57E007F1060B00251FE00BEB84
:103B6000450252780AB1012200E0002211461BF8FA
:103B7000150001F036FB1BF81510022003F02FFC96
:103B80000BEB450252780AB1012200E000221146F7
:103B90001BF815001022FFF7EDFB681C85B2BDF87D
:103BA00008008542DBDB2EE007F1060B002523E051
:103BB00005EB4500584440788DF8000005EB4500C2
:103BC000584480788DF8010005EB45011BF8010091
:103BD000009901F0A4FA05EB45001BF80010002045
:103BE00003F0FDFB05EB45011BF8010010220099D5
:103BF000FFF742FB681C85B2BDF808008542D7DBA1
:103C000001E0FFE700BF00BF0498B8B1BAF1000FB0
:103C100014D01EB950461BF092FC0FE0706918B921
:103C200050461BF08CFC09E07569062201215046C4
:103C3000059BA84710B150461BF081FCBDF8080059
:103C4000BDF804104843801D814404F1080000EBD6
:103C5000090700BF06988145FFF42EAF00BF012081
:103C6000A4E570B504460D46A07A012804D1294682
:103C70002046FFF792FD70BD0020FCE71CB5002038
:103C800000900190AA208DF800000C208DF8020011
:103C900080208DF8030000208DF8040002208DF8AC
:103CA00006006846FEF7E4FF08216846FFF774F84F
:103CB0001CBD1CB5002000900190AA208DF80000CA
:103CC00006208DF8020040208DF803006846FEF7BC
:103CD000CFFF08216846FFF75FF841208DF8030009
:103CE0006846FEF7C5FF08216846FFF755F88020B3
:103CF0008DF803006846FEF7BBFF08216846FFF712
:103D00004BF850208DF8030001208DF80400684620
:103D1000FEF7AEFF08216846FFF73EF800208DF859
:103D2000040046208DF80300FF208DF80600684649
:103D3000FEF79EFF08216846FFF72EF81CBD70B500
:103D400004460D46152229462046FFF782FB70BD2A
:103D500013B50446152220460199FFF78DFA1CBDC4
:103D600070B504460D46152229462046FFF702FB92
:103D700070BD70B504460D46152229462046FFF752
:103D80007FFC70BD70B504460D46152229462046BD
:103D9000FFF7F3FB70BD7CB505460C46AA208DF8F5
:103DA000000000208DF8010006208DF802001CB1F3
:103DB00043208DF8030002E044208DF8030000202A
:103DC0008DF80400E8B28DF8050000208DF806009B
:103DD0006846FEF74DFF08216846FEF7DDFF0CB987
:103DE000FFF767FF00207CBD10B50021FF20FFF723
:103DF000D2FF10BD01B59DF800209DF801109DF87F
:103E0000020000F035F9002008BD10B50446204638
:103E100000F0F3F9002010BD10B50446204600F074
:103E200005FA002010BD01464FF0FF3070470146F3
:103E30004FF0FF30704701464FF0FF3070470146AA
:103E40004FF0FF30704701464FF0FF307047024699
:103E50004FF0FF30704770B50446052505E0621944
:103E6000511FA8B201F052FA6D1C092DF7DDA01DFB
:103E700001F05AFA04F10A0001F063FA04F10B00B0
:103E800001F069FA04F10C0001F0A5FA04F10D004B
:103E900001F0ABFA70BD01464FF0FF3070470146AC
:103EA0004FF0FF30704701464FF0FF30704701463A
:103EB0004FF0FF3070474FF0FF30704702464FF031
:103EC000FF30704738B50446052505E06A1FA15C40
:103ED000A8B201F04AFA6D1C092DF7DDD4F80600EE
:103EE000009001F04EFAA07A01F063FAE07A01F056
:103EF00069FA207B01F083FA607B01F08EFA38BD0D
:103F000010B52F48FFF7DEFF10BD10B52D48016832
:103F10002D480068FCF77CFB642800D210BD2948BE
:103F20000068294908600E2128481BF012FD274827
:103F3000FFF791FF0E22254925481BF010FC58B1D0
:103F40000E22224922481BF085FC012021490870DD
:103F50001C480068204908601E480078C8B119480C
:103F600001681D480068FCF753FB43F6982188421E
:103F70000FD90E22124916481BF0F1FB30B10E2268
:103F800013490F481BF066FCFDF76EF9002011493C
:103F9000087000BFC2E7704770477047704702461D
:103FA0000020704770470D48006800F4E0600C493D
:103FB0000843001D09490860BFF34F8F00BFFEE7AB
:103FC000460500201400002070000020C01C0020C6
:103FD000B21C0020680000206C0000200CED00E006
:103FE0000000FA0508B510208DF8030002208DF8B6
:103FF00002004020ADF8000069469C4807F016F921
:1040000000224021994807F0C2F92020ADF80000B5
:104010006946964807F00AF901222021934807F0E3
:10402000B6F91020ADF800006946904807F0FEF898
:10403000012210218D4807F0AAF94FF48070ADF8E5
:1040400000006946894807F0F1F800224FF48071BA
:10405000864807F09CF98020ADF800006946834847
:1040600007F0E4F800228021804807F090F908BDAD
:104070002DE9F84F0746884691468DF800808DF867
:1040800001708DF8029000228021784807F07FF9B6
:1040900000224FF48071754807F079F900250BE094
:1040A00001228021714807F072F9002280216F48B7
:1040B00007F06DF9681CC5B2202DF1DB00243BE050
:1040C00001221102694807F062F901228021674844
:1040D00007F05DF900228021644807F058F90026B6
:1040E00026E01DF806B04FF0100A00251CE00BEA90
:1040F0000A0030B900224FF480715C4807F047F99C
:1041000004E001221102594807F041F901228021FF
:10411000564807F03CF900228021544807F037F94F
:104120004FEA6A0A681CC5B2052DE0DB701CC6B2F6
:10413000032ED6DB601CC4B2022CC1DB00224FF47C
:1041400080714A4807F023F900240BE00122802106
:10415000464807F01CF900228021444807F017F96F
:10416000601CC4B2022CF1DBBDE8F88F10B54048EA
:104170000078C0F3411400203E4908703E490870A1
:104180003E4908702CB93A48007800F01F000870CA
:1041900015E0012C06D13648007800F01F003649A2
:1041A00008700CE0022C06D13148007800F01F00A6
:1041B0003049087003E000202D49087010BD2D48DB
:1041C00002782D4801782D480078FFF751FF2848E4
:1041D0000078401C2649087000BFEFE708B51020A2
:1041E0008DF8030003208DF802000420ADF80000D4
:1041F0006946234807F01AF808BD10B5044684F054
:10420000010204211E4807F0C2F810BD08B51020B5
:104210008DF8030003208DF802004FF40040ADF844
:1042200000006946114807F001F808BD10B50446C2
:104230000CB1012000E0002002464FF400410B4881
:1042400007F0A5F810BD10B5FFF7CCFE002211460F
:104250001046FFF70DFFFFF7C1FF0120FFF7CDFF6D
:10426000FFF7D4FF0020FFF7E1FF10BD0008014079
:1042700074000020770000207600002075000020E8
:104280000018014000B587B00121880407F01DFB2C
:1042900003A808F02BFB4FF4E130039003A9AC48CE
:1042A00008F0BBFA0121AA4808F043FB4FF48060F4
:1042B000ADF8080003208DF80A0018208DF80B00D7
:1042C00002A9A44806F0B2FF4FF40060ADF8080060
:1042D00004208DF80B0002A99E4806F0A7FF2720B6
:1042E0008DF8040004208DF8050000208DF80600EC
:1042F00001208DF8070001A805F033FF012240F2EC
:104300002551934808F021FB0121084607F0C3FA24
:1043100043F290009049C8618D48001D486200201A
:104320000862886201228021894808F033FB07B0C7
:1043300000BD38B58648048804F0200010B904F0A8
:10434000080050B18248001D0088C0B200900122D0
:1043500069468248FDF704F900BF38BD10B5062351
:1043600020227F497F48FDF70FF84FF440727E49C5
:104370007A48FDF7D7F84FF480627C497C48FEF715
:104380002BF8FFF77FFF10BDF0B585B0054600BFE5
:1043900000270020049004A97048FDF729F907467A
:1043A00007B92CE028E000260020039002900024AA
:1043B00002A903ABCDE9001039466D48049AFEF717
:1043C0001DF8064606B918E06648FDF71DF80446D4
:1043D0001CB930461BF0B3F80FE02660039860600C
:1043E000012020720298A072012221465D48FDF74B
:1043F00022F80020049000BFD5E700BF00BF00BF37
:1044000000BF00245B480078E0B15348006800F02A
:10441000200010B905B148E048E04D48008800F0A0
:10442000400010B905B140E040E010204A49486022
:104430005148007A18B1504908681BF080F80020F4
:104440004C49087000214748FDF721F804465CB349
:104450006068002801DD206848B9207A20B1206812
:1044600010B120681BF06BF805B11EE01EE03A4861
:10447000C06920F001003849C8616068086220689E
:1044800088620846C06940F00100C86101203949CE
:1044900008701822214638481BF021FA214631487D
:1044A000FDF72CF805B100E000E0AAE700BF00BF6F
:1044B000002401212B48FCF7EAFF044614B12046F2
:1044C00005B0F0BD00BF0020FAE710B5044644B1C6
:1044D000207A10B120681BF032F821462148FDF700
:1044E0000DF810BD10B504461CB121461D48FDF75E
:1044F00005F810BD4FF4806070472DE9F041054686
:104500000E4690461F46002415B9601EBDE8F08196
:104510001448FCF779FF044614B94FF0FF30F5E773
:10452000256067602672002221460E48FCF783FF53
:104530000020EBE710B5044604B910BD0020A081AF
:104540000C2060812146024808F067F900BFF4E7BB
:1045500000480040000C014000000240E42200201E
:10456000D01C0020D01F0020E41F0020FC220020CF
:10457000FC260020780000201427002010B5002021
:1045800046E0002141E000EB4002BD4B03EBC202DC
:1045900032F92120C2EB02124FF4077303EB4212EF
:1045A0005B0092FBF3F212B200EB4003B44C04EB5D
:1045B000C30323F8212000EB4002234603EBC20291
:1045C00002EB8102B2F90220C2EB02124FF4077330
:1045D00003EB42125B0092FBF3F212B200EB4003DA
:1045E00004EBC30303EB81035A8000EB4002234634
:1045F00003EBC20232F82120A03212B200EB4003DA
:1046000004EBC30323F82120491C0529BBD3401C1C
:104610000328B6D3002046E0002141E000EB8002F1
:10462000984B03EB820232F92120C2EB02124FF4C5
:10463000077303EB42125B0092FBF3F212B200EB42
:104640008003904C04EB830323F8212000EB8002CD
:10465000234603EB820202EB8102B2F90220C2EB95
:1046600002124FF4077303EB42125B0092FBF3F26A
:1046700012B200EB800304EB830303EB81035A8047
:1046800000EB8002234603EB820232F82120A032A5
:1046900012B200EB800304EB830323F82120491CB2
:1046A0000429BBD3401C0328B6D3002045E000EB0F
:1046B0004001754A32F82110C1EB01114FF4077225
:1046C00002EB4111520091FBF2F100EB40026E4B04
:1046D00023F8221000EB40011A4602EB81014988C1
:1046E000C1EB01114FF4077202EB4111520091FB33
:1046F000F2F100EB400203EB8202518000EB40013B
:104700001A4602EB81018988C1EB01114FF407724F
:1047100002EB4111520091FBF2F100EB400203EB7E
:104720008202918000EB40011A4632F82110A0313C
:1047300000EB400223F82210401C0428B7D310BD20
:1047400070B56FF07F4005F02CFB40F2DF1340F2B4
:104750001F320021084605F05DFA002429E004EB31
:104760004401474A02EBC101897D4FF47F0202EA0E
:10477000014104EB4402424B03EBC202527D4FF471
:104780007F4303EA0222114304EB44023C4B03EB58
:10479000C202127D41EA020005F003FB04EB440172
:1047A000374A02EBC10000231A46052105F01EFA24
:1047B000641C032CD3D3002429E004EB8401314A88
:1047C00002EB8101897C4FF47F0202EA014104EB94
:1047D00084022C4B03EB8202527C4FF47F4303EAAA
:1047E0000222114304EB8402264B03EB8202127C6B
:1047F00041EA020005F0D5FA04EB8401214A02EBFC
:10480000810000231A46042105F0F0F9641C032CF2
:10481000D3D3002430E004EB44011B4A02EB8101B6
:10482000897A4FF47F0202EA014104EB4402164BFD
:1048300003EB8202527A4FF47F4303EA02221143D0
:1048400004EB4402104B03EB8202127A41EA0200AD
:1048500005F0A7FA04EB44030B4D05EB83039A889C
:1048600004EB440305EB8303598804EB440335F858
:10487000230005F095FB641C042CCCD370BD000014
:104880007C000020C400002000010020024691426C
:1048900001D3881A7047C2F1FF300844FAE70020BC
:1048A00044498871C871704742480079704710B513
:1048B0000FF0E1F93F49086010BD01203D49487102
:1048C000704702203B4948717047704710B539481E
:1048D000007900B110BD3748807910B9FFF730FF7B
:1048E00002E0002003F0C2FA01203249087100BF43
:1048F000F0E710B52F48007900B910BD012003F092
:10490000B5FAFFF7D4FF00202A49087108F0CFFF5D
:10491000044608F0DCFF00BFEFE770B52548C0791A
:10492000062818DA2348C079234951F82040002589
:1049300072B60FF0A0F906461E4908683146FBF72B
:1049400067FE054662B61B48007918B9A54201D337
:10495000FFF7BCFF00BF17484079012805D1FFF7DA
:10496000B5FF00201349487108E012484079022839
:1049700004D1FFF7BEFF00200E49487170BD01460B
:10498000072902DB4FF0FF3070470A48C171002051
:10499000FAE70146022902DB4FF0FF307047054875
:1049A00081710020FAE70348C07970470148807997
:1049B00070470000300100208C15020810B5032359
:1049C0001022AD49AD48FCF7DFFC4FF40072AC4952
:1049D000AC48FCF7A7FD002019F062F9AA4804686A
:1049E00000BFA94801682046FBF712FE6428F8D3EF
:1049F000012019F055F919F0F6F819F0B1F819F08D
:104A000041FF10BD70B504460D462A4621469D481B
:104A1000FCF7A6FD70BD9D480068052801D1012066
:104A200070470020FCE72DE9F04105460E46174689
:104A300098460024FFF7EFFF10B9601EBDE8F08133
:104A400015B94FF0FF30F9E78C48FCF7DDFC044660
:104A500014B94FF0FF30F1E72560C4F804802672E6
:104A6000A781002221468548FCF7E5FC0020E5E708
:104A70002DE9F04105460C461646FFF7CCFF08B974
:104A8000BDE8F081042E02D0052E00D0F8E7ADB1CC
:104A9000A4B120461AF024FD074677B122462946E4
:104AA00038461AF0D7FE2346324601213846FFF732
:104AB000BAFF10B138461AF042FD00BF00BFDFE771
:104AC000F8B5054600BF00270020009069466D48F4
:104AD000FCF78EFD074607B928E022E000240420F9
:104AE0001AF0FEFC064606B91EE06448FCF78CFC92
:104AF00004461CB930461AF022FD15E038683060D3
:104B0000266004206060012020720820A07201222B
:104B100021465A48FCF78FFC0098001F00903F1D6B
:104B200000BF00980428D9DA00BF00BF00BF00BF53
:104B300000245748007808B354480068052813D16A
:104B400054488089042807D101201AF02DF9202823
:104B50000AD005B169E069E002201AF025F92028A1
:104B600002D005B161E061E04A48007A18B14949D4
:104B700008681AF0E4FC00204549087000213F480D
:104B8000FCF785FC0446002C4ED06068002801DD4F
:104B9000206848B9207A20B1206810B120681AF046
:104BA000CEFC05B141E041E03848006805280AD054
:104BB000207A10B120681AF0C2FC21462F48FCF779
:104BC0009DFC85B331E0012031490870182221464F
:104BD00030481AF084FE2F488089042808D18120AB
:104BE000D4E900121AF04AFC01201AF0EFF814E0A0
:104BF00028488089052808D18220D4E900121AF0BB
:104C00003DFC02201AF0E2F807E0207A10B120689B
:104C10001AF095FC00201E49087021461748FCF741
:104C20006DFC05B101E0FFE700E081E700BF00BFD8
:104C3000002401211148FCF72AFC04460CB120464F
:104C4000F8BD00BF0020FBE710B5044644B1207A50
:104C500010B120681AF073FC21460848FCF74EFC9E
:104C600010BD10B504461CB121460448FCF746FCB3
:104C700010BD0020704700002C270020AC28002029
:104C8000C0280020C02A002014000020FC040020BE
:104C900038010020D82A00202DE9F04704460D46AF
:104CA00016461F46DDF82080301B401C791B491C2E
:104CB00000FB01F9A9B2A0B203F0E4F8B0B203F02E
:104CC000F9F84FF430507B4908804946404604F0DB
:104CD000C1F90AF022FD0AF01CFDBDE8F0872DE9BC
:104CE000F04104460D4616461F46301B401C791BFA
:104CF000491C00FB01F8A9B2A0B203F0C3F8B0B29E
:104D000003F0D8F84FF430506A490880BDF8180015
:104D1000414604F094F8BDE8F08130B587B0044610
:104D2000A5680020019001A902A802F09AFE9DF852
:104D30000410681C81420DD25F4830F8250000B293
:104D400020805D4800EB8500408800B26080002034
:104D5000207112E00120207102A830F82500564988
:104D600021F8250000B2208002A800EB85004088D1
:104D700001EB8501488000B26080FFF795FD08B126
:104D800000202071002007B030BD10B504464B480C
:104D9000007820714A4800682060FFF785FD08B15F
:104DA00000202071002010BD454A1060434A117058
:104DB000704700B587B004A80EF062FE4148049029
:104DC000414805900020069004A80EF05EFE01A860
:104DD0000EF0F4FE01208DF804003C480290002003
:104DE000039001A80EF0EFFE0120039001A80EF041
:104DF000EAFE07B000BD10B509F06BF8FFF7D9FF68
:104E000010BD10B59EB018A810F03CF864211A9897
:104E100048431899B0FBF1F408461A99431A224600
:104E20002BA108A81AF0B2FB0020029002A903A847
:104E300002F017FE9DF8080078B108A81AF0DFFC10
:104E400008A94418BDF80E000090BDF80C309DF87C
:104E5000082025A120461AF099FB2948006818B1BE
:104E60002748006809F0A4F808F021FD0446002155
:104E700014F029FA224908600846006870B108A9B0
:104E80001F48006814F025F86FF0310000231A461F
:104E9000194600901A48006809F0C8F91EB010BD04
:104EA00010B501200EF0DEFE10BD10B510F062F856
:104EB00010BD0000FE07006CF02A00204001002019
:104EC0003C010020994C0008DF4C00081B4D0008F5
:104ED000667265653A20256425252C207573696EF8
:104EE000673A2025640000003B20633A2025642CAB
:104EF00020783A2025642C20793A2025640000008F
:104F00004401002030B50446202901D2002030BDE4
:104F100080290AD2554AA1F1200000EBC00303EB1F
:104F2000801002EB4002901CF1E7C1F30722CBB2E4
:104F3000812A01DBD72A01DD0020E8E7812B01DB94
:104F4000DE2A01DD0020E2E742F220000144484A67
:104F5000484B07E010888DB2A84201D1901CD6E7DB
:104F600002F591729A42F5D3981CD0E710B5044629
:104F7000802903D21F2901D90C2010BDC1F30722BB
:104F8000CBB2812A01DBD72A02DD4FF0FF30F4E7F4
:104F9000812B01DBDE2A02DD4FF0FF30EDE7182028
:104FA000EBE72DE9F04780460F46B8F1000F00D03F
:104FB00017B90020BDE8F087002F03DA40461AF049
:104FC0001EFC07467F2F01DD0020F3E7464608EB75
:104FD0000709294D43E0307840B2002802DD3478DB
:104FE000761C0BE03078203884B24FF6FF7000EA70
:104FF000042470782038204384B2B61C802C02DA56
:105000002C706D1C20E0B4F5006F0BDAC4F3841033
:1050100040F0C000287004F03F0040F0800068704D
:10502000AD1C11E0B4F5803F0EDAE02040EA143008
:105030002870C4F3851040F08000687004F03F00D1
:1050400040F08000A870ED1C0B48281A7F2805DD71
:105050004FF0FF3109A0FFF7A4FFABE700BF4E45BB
:10506000B9D3002028700448A4E70000A81502085E
:10507000D64B0208449C0208042B0020D7D6B7FB6D
:10508000B9FDB3A40000000001460A2901DA084670
:105090007047802904DB822902DAA1F17600F7E764
:1050A0004FF0FF30F4E700B502460B461046FFF71D
:1050B000EBFF82B20C2A00DA13B94FF0FF3000BDCB
:1050C000FD48805C18700020F9E700B502460B46E9
:1050D0001046FFF7D9FF82B20C2A01DA072B02DB58
:1050E0004FF0FF3000BDF44883540020FAE7024639
:1050F0000020704770B504460A252A46EE4920462E
:105100001AF0A8FB70BD30B50546002404E0295D07
:10511000A0B2FFF7DAFF641C0A2CF8DB30BD03B540
:1051200002461046FFF7B0FF82B20C2A02DB4FF0B6
:10513000FF300CBDE048183800EB4200BDF8041009
:1051400001800020F5E702460020704700B50246C6
:105150000B461046FFF798FF82B20C2A00DA13B90B
:105160004FF0FF3000BDD448183800EB42000088F3
:1051700018800020F6E770B5044614252A46CE496B
:10518000183920461AF066FB70BD38B50546002474
:1051900007E005EB44010988A0B20091FFF7BFFFCB
:1051A000641C0A2CF5DB38BD00B502460B461046E0
:1051B000FFF76AFF82B20C2A02DB4FF0FF3000BD1E
:1051C000BE4883540020FAE70246022A00DA11B9E9
:1051D0004FF0FF307047B8480C30805C08700020FA
:1051E000F8E70246022A02DB4FF0FF307047B24870
:1051F0000C3081540020F9E702460020704710B5BA
:105200000446002304E0E11898B2FFF7DDFF5B1CC1
:10521000022BF8DB10BD10B50446002304E0E15C6E
:1052200098B2FFF7DEFF5B1C022BF8DB10BDA24833
:10523000183890F8260070470246052A04DB9E487D
:10524000183880F8261017E059B19B48183890F8A4
:105250002600012393401843974B183B83F8260000
:105260000AE09548183890F82600012393409843A7
:10527000914B183B83F8260000207047024600201F
:1052800070478D48183890F8270070470246032A67
:1052900004DB8948183880F8271017E059B1864890
:1052A000183890F82700012393401843824B183B8D
:1052B00083F827000AE08048183890F82700012377
:1052C000934098437C4B183B83F82700002070479D
:1052D00002460020704702460020704700207047B9
:1052E00000207047014600207047014600207047AB
:1052F00010B504462046FFF742FB002010BD10B554
:1053000004462046FFF745FB002010BD0246092A4F
:1053100007DC052A05DB21B16848805C08700020A5
:1053200070474FF0FF30FBE7014639B16448007C1D
:10533000644A52F820000860002070474FF0FF30A8
:10534000FBE7014621B16048007A087000207047F1
:105350004FF0FF30FBE7014621B15B48407A08700F
:10536000002070474FF0FF30FBE70246092A05DCBA
:10537000052A03DB51488154002070474FF0FF306D
:10538000FBE731B500240FE04E4800EB8401042216
:1053900068461AF0E4F930B949490C740098FEF7F0
:1053A00029FD002038BD641C042CEDDB4FF0FF30DC
:1053B000F8E710B50446444804722046FEF725FD80
:1053C000002010BD10B504463F4844722046FEF749
:1053D00023FD002010BD014611B94FF0FF3070478A
:1053E0003A48007A08700020F9E7014611B94FF0F9
:1053F000FF3070473548407A08700020F9E710B553
:105400000446072C02DB4FF0FF3010BD2F4804721A
:105410002046FFF76DFF0020F7E710B50446022C89
:1054200002DB4FF0FF3010BD284844722046FFF7E2
:1054300066FF0020F7E770B5054628460AF03CF9FC
:105440000446206908F0B4FD60690FF075FC002087
:1054500020616061A06128460FF06EFC70BD2DE9EF
:10546000F04397B00646304615F087FB85B23046CC
:1054700009F025FA044694F8280028B9E06898B1A4
:10548000E06802F0A2F978B12068B04206D1606805
:1054900020B129B2606802F07EF905E0206818B1F9
:1054A00029B2206802F077F9606888B9E8B28DF80F
:1054B00059008DF8580021E09C2E0020E0010020CA
:1054C000300200207CA10208440200207C31002030
:1054D0002068B04209D1E8B28DF85800606815F034
:1054E0004CFBC0B28DF8590008E0E8B28DF85900C5
:1054F000206815F042FBC0B28DF85800A07F1699C5
:10550000FFF70DFEA07F1699FEF722FC00BFA069F1
:10551000002862D1304608F0C1F90746002113F097
:10552000D2FE2061206900B919E13C200FF0E7FBB1
:105530006061606928B9206908F03AFD00202061A7
:105540000DE12769384608F0FAFA8046414660695D
:1055500009F009FFD4E904784146384608F047FAD3
:1055600000BF08A8616909F0FEFE00218DF84C100B
:10557000606903906069019008A802904FF60C6082
:10558000ADF816004FF4FA60ADF814009DF81C0059
:1055900020F001008DF81C000020ADF818009DF8E7
:1055A0001C0020F002008DF81C000020ADF81A004D
:1055B000AFF27D100490214601A80AF037F8A061EF
:1055C000A06948B9206908F0F3FC60690FF0B4FBEA
:1055D000002020616061C2E000BFEDB2A069002838
:1055E00071D0A07F052825D006DC05286CD2DFE825
:1055F00000F0101112131400082866D004DC0628ED
:1056000032D007287FD149E080286BD081287AD119
:1056100069E000BF00BF00BF00BFFC4951F8250092
:105620001BF08CFA07463A460B46F9A10FA819F071
:10563000ADFF6EE0DFF8E09328461BF00DFB8046DF
:105640004FF07C511BF01CFB074649461BF0A2FAA9
:10565000814648461BF072FA07463A460B46ECA1D3
:105660000FA819F093FF54E0DFF8B09328461BF021
:10567000F3FA80464FF07C511BF002FB0746494687
:105680001BF088FA814648461BF058FA07463A460E
:105690000B46DFA10FA819F079FF3AE04FF00008A0
:1056A000C5F34707302F04DADDA10FA819F06EFF0C
:1056B00003E0A7F179004FFA80F84246DAA10FA87B
:1056C00019F064FF25E049E01DE0D04951F82500BC
:1056D0001BF034FA07463A460B46CDA10FA819F045
:1056E00055FF16E000BF05EBC50000EB051080215B
:1056F00001EB8000FF2190FBF1F73A46CCA10FA807
:1057000019F044FF05E02A46C7A10FA819F03EFF93
:1057100000BF00BF1DB9C2A10FA819F037FF0FA924
:10572000206913F0D6FBE06848B16FF06300009089
:1057300000230A22A168206908F078FD07E00A200A
:10574000009000230D22A168206908F06FFD00235E
:10575000B84A1946A0690EF099FB00BF00BF00BF10
:10576000012017B0BDE8F08370B50446204609F06B
:10577000A6F80546204602F028F80646A87F3146DE
:10578000FFF712FD012070BD70B50546284609F0EF
:1057900096F80446284612F0EEFF216A0E5CA07FC0
:1057A0003146FFF792FC284612F0E5FF216A0E5CB5
:1057B000A07F3146FEF7C3FA012070BD70B50446E4
:1057C00014B94FF0FF3070BDA06968B10021A06925
:1057D0000EF013FBA0690FF0AFFA0020A061606922
:1057E0000FF0AAFA002060612646002507E056F86F
:1057F000250018B156F8250007F0DBFA6D1C042DC2
:10580000F5D30020DFE72DE9FF4F99B08846174612
:105810001C46DDE9289A2CB1199818B1279808B1CF
:105820002A9820B94FF0FF301DB0BDE8F08FB7F5D2
:10583000487F02DD4FF0FF30F6E72C2120461AF0BA
:10584000AAF8B9F1070F01DD4FF00709A7832698E1
:10585000A07784F81F9027982062C4F824A0002025
:105860008DF8040000260DE01EB173A101A819F007
:10587000E5FF206A825D2A9850F8221001A819F0ED
:10588000DDFF761C4E45EFD30021199812F001FE82
:10589000054605B9D2E0A56040F23B1239B2284670
:1058A00008F0F9F84FF0FF3101A8FFF77AFB8346C3
:1058B0005946284612F03FFB0121284612F043FFCB
:1058C000284608F0CAFF0121D0F828B0584613F046
:1058D00054FB284608F0C1FF0121D0F828B05846F3
:1058E00013F0C2FB284608F0B8FF6421D0F828B0B6
:1058F000584608F081FC0021199815F055FD054621
:1059000005B99BE04FF480727821284608F03EFCF0
:10591000FF220021284601F046FF022206212846E8
:1059200015F0FEFD0121284615F0D1FD0121284684
:1059300015F0DCFD6FF01300009000230A222846CA
:10594000A16808F073FC2560012084F8280000217C
:10595000199813F0B8FC064606B96FE001213046ED
:1059600013F00BFBBAF1000F0FD131A111A8269A49
:1059700019F00CFE4FF0FF3111A8FFF712FB834620
:105980005946304613F0A5FA09E04FF0FF31504672
:10599000FFF707FB83465946304613F09AFA6FF437
:1059A0008E70009000230A223046A16808F03EFC69
:1059B000AFF25551206815F081FDAFF23321A06898
:1059C00012F057FE0121A06808F01CFEA346002635
:1059D00010E05BF8260060B15BF82600214608F075
:1059E00057FEB8F1000F04D05BF82610404607F0D0
:1059F000CEF9761C042EECD38021206808F046FEF8
:105A00008221A06808F042FE00200DE7689D020890
:105A1000252E3166444200000000CFC20000FFC2C4
:105A20006D757465000000002564444200000000AC
:105A3000256400000CFEFFFF0A0000004FF0FF305D
:105A4000F2E62DE9FF4F99B0884616461C46DDE97F
:105A5000289A1CB1199808B1279820B94FF0FF3047
:105A60001DB0BDE8F08FB6F5487F02DD4FF0FF3086
:105A7000F6E72C21204619F08EFFB9F1070F01DD62
:105A80004FF00709A6832698A07784F81F902798DF
:105A90002062C4F824A000208DF8040000270EE046
:105AA00027B1AFF26C0101A819F0C8FE206AC05DF1
:105AB000FD4A52F8201001A819F0C0FE7F1C4F4586
:105AC000EED30021199812F0E4FC054605B92AE14D
:105AD000A5604FF4917231B2284607F0DCFF4FF019
