:020000040800F2
:10000000B8F2002001020008090200080B020008F3
:100010000D0200080F020008110200080000000095
:1000200000000000000000000000000013020008B3
:10003000150200080000000017020008650600080D
:100040001B0200081B0200081B0200081B0200081C
:100050001B0200081B020008B308000897090008EB
:100060001B0200081B0200081B0200081B020008FC
:100070001B0200081B0200081B0200081B020008EC
:100080001B0200081B0200081B0200081B020008DC
:1000900023E101081B0200081B0200081B020008E4
:1000A0001B0200081B0200081B0200081B020008BC
:1000B0001B0200081B0200081B0200081B020008AC
:1000C0001B0200081B0200081B0200081B0200089C
:1000D0001B0200087F1E0008872100088F450008CA
:1000E000777E00081B0200082BE1010800F002F8EF
:1000F00000F06EF80AA090E8000C82448344AAF154
:100100000107DA4501D100F063F8AFF2090EBAE851
:100110000F0013F0010F18BFFB1A43F0010318473B
:100120004CF302006CF302000A444FF0000C10F88C
:10013000013B13F0070408BF10F8014B1D1108BF65
:1001400010F8015B641E05D010F8016B641E01F805
:10015000016BF9D113F0080F1EBF10F8014BAD1C55
:100160000C1B09D16D1E58BF01F801CBFAD505E073
:1001700014F8016B01F8016B6D1EF9D59142D6D3CD
:10018000704700000023002400250026103A28BFF5
:1001900078C1FBD8520728BF30C148BF0B607047F9
:1001A000662921F0C88064291FF01E840020704752
:1001B0001FB59DE803001FF08FFE20F04BF90400EF
:1001C0000020002120F0B8FEE0601FBD10B510BD7A
:1001D00020F05AFA1146FFF7EBFF00F036F920F055
:1001E00078FA03B4FFF7F2FF03BC20F0A9FA00008D
:1001F000EFF3108072B6704780F3108870470000EC
:100200000948804709480047FEE7FEE7FEE7FEE7AA
:10021000FEE7FEE7FEE7FEE7FEE7FEE704480549E6
:10022000054A064B704700001F030008ED00000858
:10023000B8DE0020B8F20020B8EE0020B8EE0020B2
:100240000CB50020019000906D48006840F48030AB
:100250006B49086000BF6A48006800F400300090F5
:100260000198401C0190009818B90198B0F5A06F52
:10027000F1D16348006800F4003010B10120009013
:1002800001E0002000900098012843D15D480068FB
:1002900040F010005B4908600846006820F0030049
:1002A00008600846006840F0020008605448406852
:1002B000534948600846406848600846406840F432
:1002C000806048600846406820F47C10486008461A
:1002D000406840F4E81048600846006840F08070CC
:1002E000086000BF4648006800F000700028F9D0A0
:1002F0004348406820F00300414948600846406890
:1003000040F00200486000BF3D48406800F00C002B
:100310000828F9D10CBD10B5FFF792FF10BD10B53C
:100320003748006840F001003549086008464068D9
:10033000354908403249486008460068334908405A
:100340002F4908600846006820F4802008600846AD
:10035000406820F4FE0048604FF41F008860FFF7FB
:10036000DAFF4FF000602A4908602A48091D08603A
:1003700010BD10B5002100200022214B5B6803F066
:100380000C0121B1042906D0082928D107E0224B0D
:10039000224C236027E0204B204C236023E0184BA5
:1003A0005B6803F47010164B5B6803F48032022321
:1003B00003EB904022B91A4B4343184C23600DE0E5
:1003C0000F4B5B6803F4003323B1154B4343134CCD
:1003D000236003E0104B4343104C236003E00E4BBB
:1003E0000E4C236000BF00BF054B5B68C3F30313D3
:1003F0000C4CE15C094B1B68CB40084C236010BDE2
:1004000000100240002002400000FFF8FFFFF6FE4F
:1004100008ED00E00003FA0500127A000000002059
:1004200000093D000400002010B545F255500BF0C6
:1004300065FA03200BF065FA4FF49C700BF064FA38
:100440000BF065FA0BF068FA10BD1CB54FF0000810
:10045000C146C2466D48019001F068FC02F041FEC1
:1004600000F010F900F019F900F059FF01F088FBD5
:1004700000F0A5FA01F018FD01F09AFE04F09CF8D6
:1004800004F00FF800F00FF904F0C6FB08F033FF9A
:1004900007F01FFE07F0F5FB01220021084601F0DE
:1004A000A7FB04F0D6FD09F099FE04F095F904F0DD
:1004B00075FA40F6B83000F0BAF803F04EFE07F0D7
:1004C0008EFAA2E052480168484600F0A7F838B119
:1004D0004F48D0F8009004F015FB08B904F013FE63
:1004E00004F049FB4A480168404600F097F8642848
:1004F00002D94748D0F80080002001F0EBFC044608
:10050000002001F06BFE0090002004F06BF805461F
:10051000002004F003FC064601F02BFC074617B14F
:10052000384602F096FE0CB33A49204602F075FCBC
:1005300018B9204601F070FD18E04FF0000B354966
:10054000204603F0A4FC217A0022D4E9000304F041
:1005500002F98346BBF1000F04D0207A10B1206865
:100560001FF007FA204601F081FD00BF7DB3002196
:10057000284602F052FC88B925480168019800F02D
:100580004DF842F21071884201D903F0B0FC2048C6
:1005900000680190284604F0C6F818E04FF0000B00
:1005A0000021284603F073FC297A0022D5E90003D4
:1005B00001F03FFD8346BBF1000F04D0287A10B153
:1005C00028681FF0D6F9284604F0BAF800BF1EB11B
:1005D0000021304603F05BFC009801F0AAFE38468B
:1005E00001F0CDFB304604F05DFC0948016850463F
:1005F00000F014F841F28831884204D30448D0F85E
:1006000000A003F059FC03F0ADFD5BE7E0B1FFFF94
:10061000140000208819020800BFFEE7024691423C
:1006200001D3881A7047C2F1FF300844FAE710B5C9
:1006300003461348046800BF114801682046FFF7CD
:10064000EDFF9842F8D310BD002105E0002200E044
:10065000521C0A2AFCD3491C8142F7D370477047C9
:100660007047704710B506480068401C0449086090
:1006700004F044FD01F019FB00F00DFA10BD00007C
:100680001400002010B5012108070BF038FB0121F0
:1006900040F2FD100BF026FB10BD10B501212948DA
:1006A0000BF0AFF810BD30B5274800684FF47A72F0
:1006B000B0FBF2F1B1F1807F00D31DE021F07F406B
:1006C000401E4FF0E022506150170F22002807DA39
:1006D00013071D0E1D4B00F00F04241F1D5503E0D2
:1006E00013071C0E1A4B1C5400BF00204FF0E022D1
:1006F00090610720106100BF30BD3EB51248006810
:100700001449B0FBF1F0401E84B2012108460BF001
:10071000F6FA68460BF04AFF4FF6FF70ADF804009A
:10072000ADF800400020ADF80600ADF802006946C3
:100730004FF080400BF00EFC012188070BF066FFA4
:100740003EBD0000000230000000002018ED00E077
:1007500000E400E040420F001FB504208DF80F00B8
:1007600002208DF80E000120ADF80C0003A9F74817
:100770000AF076FF4FF40050ADF80C0003A9F348DF
:100780000AF06EFF00208DF8080010208DF8090097
:1007900001208DF80A00002102200BF077F80120DB
:1007A000019001A80AF098F801208DF801000020BE
:1007B0008DF8020001208DF8030006208DF800005E
:1007C000684609F0E8FE0220ADF80C0003A9DF48F6
:1007D0000AF046FF4FF48040ADF80C0003A9DB4857
:1007E0000AF03EFF012102200BF050F80220019098
:1007F00001A80AF071F807208DF80000684609F09A
:10080000CAFE1FBD28B1D249C988491CD04AD1802F
:1008100004E0CF49C988491ECD4AD180CC494880DF
:10082000C9883F2907DD18B10021C94AD18002E0FB
:100830003F21C74AD18070472DE9F041C348806805
:1008400086B2C248806887B207F0010706F40056F6
:1008500027B90EB9012405E0002403E00EB90024F5
:1008600000E0012484F001042046FFF7CBFFB848E4
:10087000C568B8480068B649C860B64801682846E7
:10088000FFF7CCFE0546FA2D03D90120B049888038
:100890000DE02DB14FF4FA70B0FBF5F0AC49888053
:1008A000AB488088502802DD5020A9498880BDE8E7
:1008B000F08110B501200AF075F868B10024FFF747
:1008C00097FC04460120A44908702046FFF794FCD9
:1008D00001200AF078F800BF10BD30B19C49C98AE8
:1008E000491C8AB29A49CA8205E09949C98A491EB7
:1008F0008AB29749CA8296494882C98A3F2907DD48
:1009000018B100229249CA8202E03F229049CA826D
:1009100070472DE9F041002000E0401C7828FCDB06
:100920008A48806886B28948806887B207F00207E3
:1009300006F4804627B90EB9012405E0002403E03F
:100940000EB9002400E0012484F001042046FFF7E2
:10095000C4FF7F48C5697F4801687D48C1617D4803
:1009600001682846FFF75AFE0546FA2D03D90121F2
:10097000774881820DE02DB14FF4FA70B0FBF5F1AC
:10098000734881827248808A502802DD5021704865
:100990008182BDE8F08110B502200AF003F868B149
:1009A0000024FFF725FC044601206B4948702046CF
:1009B000FFF722FC02200AF006F800BF10BD10B5B8
:1009C000FFF7CAFE00240DE0614901EB04110C8021
:1009D00000205F4901EB0411C8805D4901EB04115F
:1009E0000881641C022CEFD310BD0146C8880A8917
:1009F000904203D0C8880881012070470020FCE79E
:100A000070B504460026022C02DD4FF6FF7070BD63
:100A10004F4800EB0410C088401C85B2FFF7E8FB8C
:100A200006464E4830F81400A84200DA002548482F
:100A300000EB04100581464800EB0410C5803046E9
:100A4000FFF7DAFB2846E2E70146414800EB0110D8
:100A50000089704770B504460D460026022C02DD61
:100A60004FF6FF7070BD3D4830F81400A84202DA1E
:100A70003A4830F81450FFF7BBFB0646344800EB09
:100A800004100581324800EB0410C5803046FFF7A2
:100A9000B3FB2846E6E770B58AB00020099000262F
:100AA000FFF7A6FB064600241BE02B48005D20B1A3
:100AB0002948005D401C284908552748005D032847
:100AC00003D1012009A9085509E02348005D1C282D
:100AD00005D1002020490855022009A90855601CAD
:100AE000C4B2022CE1DB3046FFF786FB9DF8240000
:100AF000012802D1FFF7A0FE17E09DF8240002288C
:100B000013D11349498809B1012100E000210846A9
:100B1000FFF778FE0E48C0884FF6FE7108400C497A
:100B2000C8800846C088401E08819DF8250001281D
:100B300002D1FFF7EEFE24E09DF82500022820D127
:100B40000349498A61B101210BE000000010014016
:100B50002C05002014000020180000203A13020881
:100B600000210846FFF7B9FE1548C08A4FF6FE710E
:100B700008401349C8820846C08A401E81B2104806
:100B80000183002518E00E4901EB0510FFF72DFF4A
:100B900088B104208DF80000094800EB0513D3E963
:100BA0000012D3E90203CDE90403CDE9021268463D
:100BB00001F0ECF800BF6D1C022DE4D30AB070BD4B
:100BC0002C05002010B50346002004E0141A641E12
:100BD0000C5D1C54401C9042F8D310BD30B5024649
:100BE0000B464FF0FF3002B103B930BD002108E0E1
:100BF000C4B2555C6C40734D55F8244084EA102013
:100C0000491C9942F4D3C04300BFEEE770B50246D9
:100C10000C46FF25FF2312B94FF6FF7070BD09E0A7
:100C200012F8010B80EA03016748405C80EA050383
:100C30006648455C201EA4F10106B4B2F0D143EA37
:100C40000520EBE72DE9F04F03460C4694460022C1
:100C50001D680026DFF87891012C57DD601E53F8DF
:100C60002020342090FBF4F000F1060846E04E44CA
:100C7000C6F3810700211FE0481C53F8205050099B
:100C800080EA85004FEAD50A8AEA021A504486EAC9
:100C9000050A01F0030B8BEA070B5CF82BB08BEA1B
:100CA000020BDA4480EA0A0053F821A0504443F8CA
:100CB000210053F82120491C601E8842DCDC1D689D
:100CC000500980EA85004FEAD50A8AEA021A82446E
:100CD00086EA050001F0030B8BEA070B5CF82BB0EA
:100CE0008BEA020B58448AEA000A601E53F820007F
:100CF0008244601E43F820A053F82020B8F1000081
:100D0000A8F10108B3DC0020BDE8F08FB4F1FF3F8B
:100D100056DA6442601E53F82020342090FBF4F031
:100D200000F1060808FB09F646E0C6F38107611EDC
:100D300020E0481E53F82020500980EA85004FEA41
:100D4000D50A8AEA021A504486EA050A01F0030B22
:100D50008BEA070B5CF82BB08BEA020BDA4480EAD3
:100D60000A0053F821A0AAEB000043F8210053F831
:100D70002150491E0029DCDC601E53F82020500958
:100D800080EA85004FEAD50A8AEA021A504486EAC8
:100D9000050A01F0030B8BEA070B5CF82BB08BEA1A
:100DA000020BDA4480EA0A00D3F800A0AAEB0000A4
:100DB00018601D68A6EB0906002EB6D10020A3E737
:100DC0000120A1E75013020850170208501802082A
:100DD000B979379E2DE9F0410646042709F01BFE3C
:100DE0000AF085F804466EB1E04340F0C005C0202B
:100DF000A043C02815D009F0D8FE284609F095FF79
:100E000000F0B3FA44F0C000C54364F0C000401CD9
:100E100038B109F0CAFE15B1284609F086FF00F086
:100E2000A4FA09F004FEBDE8F0812DE9F74F04466D
:100E300090460426DDF804B028F00300404502D0B7
:100E4000701FBDE8FE8FE40AE40204EB080909F014
:100E5000E2FD08F2FF704FEAD02A35200AF076F85A
:100E6000002707E04FF4006101FB074009F018FE7E
:100E700006467F1C574501D2042EF3D0042E00D025
:100E800026E02546002708E038467F1C5BF8201046
:100E9000284609F0D5FE06462D1D4D4501D2042EEB
:100EA000F2D0042E00D013E025460426002708E0E7
:100EB0002A6838467F1C5BF82000824200D0022658
:100EC0002D1D4D4501D2042EF2D109F0A4FD00BF25
:100ED000042E02D04FF0FF30B3E70020B1E770B529
:100EE000044634B10C252A46FA4920461EF011FF6B
:100EF00000BF70BD2DE9F04107460026F64D0024E5
:100F000015E055F82400401C78B9601C55F8200005
:100F1000401C50B9A01C55F82000401C28B9E01C0A
:100F200055F82000401C00B903E0361D641CBE4289
:100F3000E7D300BF3146E848FFF750FEBDE8F08137
:100F40002DE9FF4104460D4616461F4604B125B95A
:100F50004FF0FF3004B0BDE8F08195E807008DE860
:100F6000070003964FB19DE80F0084E80F006A4622
:100F700004212046FFF766FE06E0D84820606A4656
:100F800001212046FFF75EFE0020E3E72DE9F04354
:100F90008BB006460F46154626B94FF0FF300BB012
:100FA000BDE8F0834FF00409E84696E80F0001AC75
:100FB0000FC417B1CA48009009E0C848009000204B
:100FC000CDE9065001AA022106A8FFF73BFE00204A
:100FD0000890002405E058F824100898484008902C
:100FE000641C082CF7D309F016FD342009F0AEFF7D
:100FF000BC4809F055FD8146E846002410E058F849
:101000002410B84A02EB840009F01AFE8146B9F1B7
:10101000040F04D009F00BFD4FF0FF30BFE7641C54
:101020000A2CECD309F003FD0020B8E72DE9F043CA
:1010300087B005468846AB4CAB480068401CB0B949
:10104000AA48FFF74CFF4FF0FF30FFF753FFA649C8
:10105000086000230846A5490268A548FFF770FF0D
:101060000123A148A1490268A248FFF769FFA248ED
:10107000007800287CD199492068884203D098499B
:101080002068884267D1DFF85C920027002603E0E1
:1010900059F826004740761C082EF9D3206AB8423A
:1010A00058D18E492068884238D1914800686168DB
:1010B000884224D1D4E90601CDE90401221D6FF054
:1010C000010104A8FFF7BEFD0020DDE90421D2F1F3
:1010D0000302884103D20420874908700EE0844B44
:1010E0000FCB8DE80F0004994A1C4FF000016846B1
:1010F000FFF74CFF01208049087000BF2AE07C4BBD
:101100000FCBCDE90423CDE902010422002102A87E
:10111000FFF73CFF0420784908701BE01022211DD6
:1011200074481EF036FD18B903207349087011E0A9
:101130006F4BD3E901211868DB68CDE90413CDE9D1
:1011400002020422002102A8FFF720FF04206A49BE
:10115000087000BF0CE0664B0FCB02AE0FC600223A
:10116000114602A8FFF712FF01206349087000BF73
:1011700061480078012831D1604801686048006802
:10118000FFF74CFA44F62061884227D9D4E90601DA
:10119000CDE90401201D0FC88DE80F0057480068F5
:1011A00057490860221D6FF0010104A8FFF74AFDAE
:1011B0000498421C4FF000016846FFF7E7FE00204C
:1011C000DDE90421D2F10302884102D204204A4918
:1011D000087015B141460220A84700BF4648007874
:1011E000042821D11022211D42481EF0D2FC28B92A
:1011F00003204149087007B0BDE8F08315B14146AE
:101200000420A8473D4801683D480068FFF706FAFA
:1012100044F62061884207D9384800683849086098
:1012200015B141460520A84700BFE4E770B5044664
:10123000042509F0F0FB00BF342009F087FE09F017
:10124000B4FC0546042D00D006E0214621481C30A0
:1012500009F047FD054600BF00BF09F0E8FB042D7B
:1012600001D1002070BD4FF0FF30FBE719481C3062
:10127000007870472DE9F0414FF004080025214E19
:10128000214F4AF2A55031460880002404E036F888
:101290001400284485B2641C092CF8D319484582EF
:1012A00009F0B9FB342009F051FE174809F0F8FBAA
:1012B000804600242CE036F81410384609F0F3FC80
:1012C0008046B8F1040F21D009F0B1FB0020BDE841
:1012D000F0810000E8F7FF1F003000086745230198
:1012E000EFCDAB89009007082400002060050020A6
:1012F0007C0500206C0500201C000020140000204C
:10130000200000204C05002000980708BF1C641C2A
:101310000A2CD0D309F08BFB0120BDE8F08170B519
:101320000025184E1422184930461EF0ADFC3046F8
:1013300000884AF2A551884200D00EE0002404E063
:1013400036F81400284485B2641C092CF8D30D48E3
:10135000408AA84200D170BD00BF0A48801C02F03C
:10136000A0FEFFF787FF00BFF5E70848006800F41C
:10137000E06007490843001D04490860BFF34F8F30
:1013800000BFFEE74C050020009807080CED00E0C8
:101390000000FA052DE9F04707460C461646984628
:1013A0004FF0000917B10CB1002E03DA4FF0FF30F7
:1013B000BDE8F087FEF71CFF814606EB4600C10042
:1013C00020461EF002FD142138461EF0FEFC0025CA
:1013D00010E005EB450004EBC000A0F80C8005EB25
:1013E000450004EBC000183005EB450104EBC101DA
:1013F00008616D1C701EA842EBDC002005EB450166
:1014000004EBC10108617E603C604846FEF7F4FED3
:101410000020CDE770B50446002600250CB9002059
:1014200070BDFEF7E5FE0646206828B125682869EC
:1014300020600020686128613046FEF7DDFE284606
:10144000EEE72DE9F04106460C46174606B11CB9F9
:101450004FF0FF30BDE8F0814FF0000817B106F102
:101460000C0001E006F110000546FEF7C1FE8046C3
:10147000286818B92C606461246109E0286820613B
:10148000286840690461286840696061286844618F
:101490004046FEF7B1FE0020DCE72DE9F0410546AD
:1014A0000F464FF00008002615B90020BDE8F08176
:1014B00017B105F10C0001E005F110000446FEF73C
:1014C00097FE8046206808B9002618E02668206844
:1014D00000692168884202D1002020600CE0206869
:1014E0004069216809694861206800692168496983
:1014F000086120680069206000207061306140460A
:10150000FEF77AFE3046D1E770B504460D4604B1C9
:1015100015B94FF0FF3070BD0026FEF769FE064694
:101520002068286125603046FEF766FE0020F2E75D
:101530002DE9F04104460D461646002704B11DB9B9
:101540004FF0FF30BDE8F081FEF752FE074618214C
:1015500020461EF03AFC25607008A060A068284470
:1015600060603846FEF748FE0020EBE72DE9F047C3
:1015700004460F4615464FF00008C14604B11FB996
:101580004FF0FF30BDE8F087FEF732FE804661691C
:10159000A068461AB54202D94FF0FF3929E0E06849
:1015A0002844A16888420FD9D4E90201461AE268AA
:1015B00021688818324639461EF066FBAA1BB91905
:1015C00020681EF061FB06E0E268216888182A4660
:1015D00039461EF059FBE0682844E060D4E9021067
:1015E000B0FBF1F201FB1200E06060692844606129
:1015F00000BF4046FEF700FE4846C3E72DE9F04134
:1016000004460D46002714B90020BDE8F08160694A
:1016100008B90020F9E7FEF7EBFD0746D4E904011D
:101620000844A168884211D92169A068461A236933
:101630002268D118324660681EF026FB63699A1B47
:10164000D4E9001398191EF01FFB06E026692368F1
:101650009919626960681EF017FBD4E90401084417
:101660002061A1682069B0FBF1F201FB120020614A
:101670000DB160692860002060613846FEF7BCFD4E
:101680006068C2E7F0B5024692F8284004F0070609
:1016900000210DE0FA4C605CFA4C54F8204034B163
:1016A000F94C34F81040F74D55F820502C61491C86
:1016B0000429EFD3002342E0F14FF85CF14F57F8D3
:1016C000207047B1F04F37F81070DFF8B8C35CF8FE
:1016D00020C0CCF81470002100E0491C2829FCD35C
:1016E00000BF00BF00BF0024002113E0E74F57F800
:1016F0002170BF68DFF898C33CF811C007EA0C05F9
:101700000DB1012700E000273D4605FA01F7274308
:10171000BCB2491C0329E9D3DA4F57F8207047B10E
:10172000D94F37F81070DFF85CC35CF820C0CCF8F4
:10173000107002F1080707EB8607FC545B1C042BB2
:10174000BAD3946A641C9462F0BDF0B503460C46AB
:10175000FF260025002114E000220BE003EB8100AE
:10176000875C481C03EB8000805C874201D06D1CC5
:1017700002E0521C042AF1DB00BF042A00D10E460D
:10178000491C0729E8DB052D01DD0020F0BD082EEE
:1017900001DB0020FAE703EB8600006820600120EF
:1017A000F4E770B502460D46002366E0581CC4B24B
:1017B0005FE002EB8300407800F0F00002EB84066B
:1017C000767806F0F006B04251D100210FE002EB2E
:1017D0008300407800F00F0002EB8106767806F077
:1017E0000F06B04201D1012070BD481CC1B2994220
:1017F000EDDB581CC1B20FE002EB8300407800F033
:101800000F0002EB8106767806F00F06B04201D198
:101810000120E9E7481CC1B2A942EDDB00210FE03D
:1018200002EB8400407800F00F0002EB810676782E
:1018300006F00F06B04201D10120D5E7481CC1B225
:10184000A142EDDB601CC1B20FE002EB84004078E6
:1018500000F00F0002EB8106767806F00F06B0422A
:1018600001D10120C0E7481CC1B2A942EDDB601CD8
:10187000C4B2AC429DDB581CC3B2681E984295DCD2
:101880000020B1E72DE9F05F074697F8280000F047
:10189000070007287ED1394607F10800FFF755FFFA
:1018A0008346BBF1000F02D10020BDE8F09FB9468E
:1018B00007F1040A07F12C08002400255FE000204E
:1018C000002119F805201AF8053082EA030019F8FA
:1018D00005201AF8053002EA030160B3002628E06B
:1018E0000122B24002401AB3082C00DB4AE0F02289
:1018F00002EA051206F00F031A4308EB84035A703C
:1019000005EB4502634B1A44925D08F8242019F850
:1019100005200123B3401A4022B1022208EB8403C0
:101920009A7003E0012208EB84039A70621CD4B21F
:10193000761C032ED4DB09B300261DE00122B24041
:101940000A40C2B1082C00DB1CE0F02202EA0512BA
:1019500006F00F031A4308EB84035A7005EB4502A7
:101960004C4B1A44925D08F82420EE2208EB8403C5
:101970009A70621CD4B2761C032EDFDB6D1C042D22
:101980009DDB00BFD9F80000CAF80000042C09DB79
:10199000214600E008E007F12C00FFF702FF08B144
:1019A000002082E7204680E700207EE738B503204C
:1019B0008DF8020010208DF80300002412E0344856
:1019C00030F81400ADF80000304951F824006946A1
:1019D00009F046FE2E4830F814002C4951F8241026
:1019E0004861641C032CEAD300BF28208DF8030053
:1019F00000240BE0264830F81400ADF8000023491D
:101A000051F82400694609F02BFE641C032CF1D325
:101A100000BF38BD38B503208DF8020010208DF8C6
:101A2000030000240BE01C4830F81400ADF800005F
:101A30001A4951F82400694609F012FE641C002C72
:101A4000F1D038BD38B503208DF8020010208DF894
:101A5000030000240FE00C4830F81400ADF800003B
:101A6000084850F8240028B1064951F82400694676
:101A700009F0F6FD641C042CEDD3002420E00000E6
:101A80008219020864190208741902085019020820
:101A90005C19020839000020801902087C1902082C
:101AA000964830F81400ADF80000954850F824002E
:101AB00028B1934951F82400694609F0D1FD641C0E
:101AC000002CEDD038BD002007E08E4931F8101011
:101AD0008D4A52F820201161401C0028F5D0704733
:101AE00000200BE0864951F8201031B1834931F8CC
:101AF0001010834A52F820201161401C0028F1D0B8
:101B0000704700200BE07E4951F8201031B17B492D
:101B100031F810107A4A52F820201161401C042834
:101B2000F1D3704710B5FFF7ECFFFFF7D9FF10BDF9
:101B30002DE9F04106460024375DFFF7C4FFFFF7AB
:101B4000CFFF00250BE00120A840384030B16D48A0
:101B500030F815006C4951F8251048616D1C002DB6
:101B6000F1D0674850F8240030B1644830F81400D0
:101B7000634951F824104861601C7060BDE8F08131
:101B800010B5FFF713FFFFF745FFFFF75BFFFFF708
:101B9000C9FF4C215D481EF018F95D480021016025
:101BA00041605C4801705C4801705C48017010BD88
:101BB00030B5034600230021554C60182AB1047843
:101BC00001259D402C43047004E0057801249C40CD
:101BD000A543057030BD0246002200214C48435CFD
:101BE00001209040184008B1012070470020FCE718
:101BF00030B5034600230021464C60182AB1047812
:101C000001259D402C43047004E0057801249C408C
:101C1000A543057030BD10B54148016841480068D2
:101C2000FEF7FCFCB0F5FA7F1ED900210FE0384B1F
:101C30005818384B5A5C4AB13B4B1B781BB10378A0
:101C40001343037002E0037893430370491C002997
:101C5000EDD0334B1B68334C2360334B1B7883F040
:101C60000103314C237000BF10BD70B50446002540
:101C700004B1FF252748002101702A46012124488C
:101C80001EF079F870BD2548224909780170224874
:101C90001F490978017070471E4820490978017072
:101CA0001B481D4909780170704710B58AB01C485F
:101CB000007800F00100D0B90024FFF704FF1348BA
:101CC000FFF7E0FC1148FFF7DDFD0446002C0DDDB9
:101CD000019401208DF80000A2000C492C3102A8CB
:101CE0001EF017F8684600F051F800BF00BFFFF77C
:101CF00092FF0748FFF71CFF0AB010BD74190208D5
:101D000064190208801902087C1902088C05002059
:101D10002800002030000020310000203200002088
:101D200014000020340000203800002010B50623E5
:101D3000082224492448FFF72DFB002416E0002048
:101D400004EB44011F4A02EBC101087204EB84005A
:101D50001E4901EBC00004EB440142F83100282089
:101D600004EB440102EBC1014860641C082CE6D37B
:101D700010BD10B501211448FFF78FFB10BD10B541
:101D8000044621461048FFF7BFFB10BD70B504465E
:101D9000002504B970BD0C48FFF73CFB054675B142
:101DA0002822214628681DF06FFF01222946064897
:101DB000FFF747FB18B129460348FFF7A5FB00BF13
:101DC000E8E7000018070020D8070020D805002009
:101DD00000B587B00121880309F084FF03A80AF049
:101DE0009FFF4FF4E130039003A9AD480AF02FFFA5
:101DF0000121AB480AF0B7FF4FF40070ADF80800BE
:101E000003208DF80A0018208DF80B0002A9A548C0
:101E100009F026FC4FF48060ADF8080004208DF82E
:101E20000B0002A99F4809F01BFC25208DF8040037
:101E300004208DF8050000208DF8060001208DF8A3
:101E4000070001A808F0A7FB012240F225519448A1
:101E50000AF095FF0121084609F037FF43F2900090
:101E6000914948648E48001DC86400208864086554
:101E7000012280218A480AF0A7FF07B000BD38B5CB
:101E80008748048804F0200010B904F0080050B11D
:101E90008348001D0088C0B2009001226946834833
:101EA000FFF764FB00BF38BD10B500232022804936
:101EB0008048FFF76FFA4FF440727F497B48FFF785
:101EC00037FB4FF480627D497D4800F08BFAFFF7C5
:101ED0007FFF10BDF0B585B0054600BF002700208C
:101EE000049004A97148FFF789FB074607B92CE065
:101EF00028E00026002003900290002402A903ABF2
:101F0000CDE9001039466E48049A00F07DFA064685
:101F100006B918E06748FFF77DFA04461CB9304659
:101F20001DF027FD0FE026600398606001202072FD
:101F30000298A072012221465E48FFF782FA002033
:101F4000049000BFD5E700BF00BF00BF00BF002462
:101F50005C480078E8B15448006800F4005010B9BB
:101F600005B149E049E04E48008800F0400010B952
:101F700005B141E041E04FF480504B494860524880
:101F8000007A18B1504908681DF0F3FC00204D4953
:101F9000087000214748FFF780FA04465CB3606888
:101FA000002801DD206848B9207A20B1206810B1EE
:101FB00020681DF0DEFC05B11EE01EE03A48406CD2
:101FC00020F001003849486460688864206808652A
:101FD0000846406C40F0010048640120394908700F
:101FE0001822214638481DF094FE21463148FFF75B
:101FF0008BFA05B100E000E0A9E700BF00BF0024B4
:1020000001212C48FFF749FA044614B1204605B0D7
:10201000F0BD00BF0020FAE710B5044644B1207AB5
:1020200010B120681DF0A5FC21462248FFF76CFA8C
:1020300010BD2DE9F04105460E4690461F4600248E
:1020400015B9601EBDE8F0811A48FFF7E3F90446B0
:1020500014B94FF0FF30F5E7256067602672002263
:1020600021461448FFF7EDF90020EBE710B50446D0
:102070001CB121460F48FFF747FA10BD4FF48060AE
:10208000704710B5044604B910BD0020A0810C2093
:102090006081214602480AF0DAFD00BFF4E7000043
:1020A000003801400008014000000240000E0020FE
:1020B000EC070020EC0A0020000B0020180E002086
:1020C00018120020450000203012002000B587B013
:1020D0000121480409F013FE03A80AF021FE4FF481
:1020E000E130039003A9B4480AF0B1FD0121B248E0
:1020F0000AF039FE0420ADF8080003208DF80A002C
:1021000018208DF80B0002A9AC4809F0A9FA0820A4
:10211000ADF8080004208DF80B0002A9A74809F0CB
:102120009FFA26208DF8040004208DF80500002079
:102130008DF8060001208DF8070001A808F02BFAA1
:10214000012240F225519C480AF019FE012108465F
:1021500009F0BBFD43F29000994908609648001DC4
:1021600097498039C1F8880000209549091D086009
:1021700093498039C1F88C00012280218E480AF0F1
:1021800023FE07B000BD38B58B48048804F020005A
:1021900010B904F0080050B18748001D0088C0B293
:1021A0000090012269468748FFF7E0F900BF38BD7B
:1021B00010B50623202284498448FFF7EBF84FF43A
:1021C000407283497F48FFF7B3F94FF48062814939
:1021D000814800F007F9FFF779FF10BDF0B585B031
:1021E000054600BF00270020049004A97548FFF7AA
:1021F00005FA074607B92CE028E0002600200390E6
:102200000290002402A903ABCDE9001039467248C0
:10221000049A00F0F9F8064606B918E06B48FFF793
:10222000F9F804461CB930461DF0A3FB0FE0266008
:1022300003986060012020720298A072012221465A
:102240006248FFF7FEF80020049000BFD5E700BF0A
:1022500000BF00BF00BF002460480078F8B15848B4
:102260008038006800F0007010B905B151E051E00D
:102270005148008800F0400010B905B149E049E03C
:102280004FF080704E49803948605548007A18B147
:10229000534908681DF06DFB00205049087000216B
:1022A0004A48FFF7FAF804468CB36068002801DD5D
:1022B000206848B9207A20B1206810B120681DF04C
:1022C00058FB05B125E025E03D48006820F00100FD
:1022D0003B490860091D60680860394980392068F9
:1022E000C1F88C000846D0F8800040F00100344965
:1022F00008600120394908701822214638481DF02D
:1023000008FD21463148FFF7FFF805B101E0FFE77E
:1023100000E0A0E700BF00BF002401212B48FFF729
:10232000BCF8044614B1204605B0F0BD00BF002043
:10233000FAE710B5044644B1207A10B120681DF0C8
:1023400018FB21462148FFF7DFF810BD10B5044601
:102350001CB121461D48FFF7D7F810BD4FF480602F
:1023600070472DE9F04105460E4690461F46002471
:1023700015B9601EBDE8F0811448FFF74BF804461C
:1023800014B94FF0FF30F5E7256067602672002230
:1023900021460E48FFF755F80020EBE710B504463C
:1023A00004B910BD0020A0810C20608121460248A4
:1023B0000AF04DFC00BFF4E7004400400008014073
:1023C000800002405C1800204812002048150020C0
:1023D0005C15002074180020741C002046000020AA
:1023E0008C1C002070B504460E4615460CB106B193
:1023F00015B94FF0FF3070BD182120461DF0E5FCE7
:10240000266065600020F6E72DE9FF4F8DB0044699
:1024100091469A46DDF86880002700200C9014B1A0
:10242000BAF1000F03D14FF0FF300C9023E2216985
:102430006068401A484502D24FF0FF300C90B9F165
:10244000000F2ED00E9818B94FF0FF300C90EDE72A
:10245000A06800EB09066068B04214D2D4E901011B
:10246000451AA268216888182A460E991DF00CFCAE
:10247000A9EB05020E9B591920681DF005FCA9EB7C
:102480000500A06009E0A268216888184A460E99F4
:102490001DF0FAFBA0684844A06020694844206110
:1024A00000BF00BF00200B900025BDE3E06828447A
:1024B0000A9061680A98B0FBF1F201FB12000A90E1
:1024C00021680A98085C09900998AA287DD10026FD
:1024D000002008902069401B07900798072806DB1A
:1024E000606928B1A08AC0F30726207D089085E0A6
:1024F000E26850192168821C6368B2FBF3FC03FB9D
:102500001C228A5C042A78D1C21C6368B2FBF3FCEB
:1025100003FB1C228A5C002A6FD1421D6368B2FB58
:10252000F3FC03FB1C228E5C821D6368B2FBF3FC90
:1025300003FB1C228A5C0892079A082A5DDBD4F808
:102540000CC0AC44CDF818C005F1070CD4F80CB0A1
:102550000CEB0B034FF0000CCDF814C0069A10E002
:10256000D4F804C0B2FBFCFB0CFB1B2CD4F800B06D
:102570001BF80CC0DDF814B08CEA0B0CCDF814C0BD
:10258000521C9A42ECD3D4F804C0B3FBFCFB0CFB06
:102590001B3CD4F800B01BF80CC0CDF810C0DDE92E
:1025A00004CBE3451BD005F1010CD4F810B0ABEB24
:1025B0000C0CC4F810C005F1010CD4F80CB0DC44CC
:1025C000C4F80CC0D4F80CC000E03FE1D4F804B06B
:1025D000BCFBFBFE0BFB1ECCC4F80CC028E3F6B220
:1025E000DDF820C00CF0FF0CCDF820C0DDF820C0D5
:1025F0000CEB062CC4F814C000BF00BFF6B208985C
:10260000C0B20890089800EB062608366068B6EB62
:10261000500F11D9681C2169081A2061681CE168F3
:102620000844E0606168E068B0FBF1F201FB120071
:10263000E0600020606108E10798864275DC082EA2
:1026400075D100200690019601981DF063F90746A8
:102650001FB94FF0FF300C9007E30597E06828445E
:102660000390701E2844E168084402900398049087
:1026700015E061680498B0FBF1F201FB12002168DB
:1026800011F800B0069880EA0B000690059880F8D3
:1026900000B00598401C05900498401C04900299D5
:1026A00004988842E5D361680298B0FBF1F201FB1F
:1026B0001200216811F800B0069858451FD101207A
:1026C0000B90059880F800B0216901982844081AF9
:1026D0002061E068411901980844E0606168E068A1
:1026E000B0FBF1F201FB1200E0600198CAF80000B3
:1026F000B8F1000F18D00120C8F8000014E03846E7
:102700001DF037F90027681C2169081A2061681C30
:10271000E1680844E0606168E068B0FBF1F201FB49
:102720001200E060002060618FE07FE0FFE7059627
:1027300005981DF0EFF807461FB94FF0FF300C90D9
:1027400093E2E06828446168B0FBF1F201FB120BF0
:102750007019E16808446168B0FBF1F201FB1200F6
:1027600006900698584507D9206800EB0B013246C1
:1027700038461DF089FA11E06068A0EB0B0002906A
:10278000206800EB0B013846029A1DF07DFA029B8F
:10279000F21AF81821681DF077FA00BF0020606176
:1027A000A6F10A0081B207F10800FEF72FFA0490A3
:1027B00000200390B819811E022203A8FEF702FA36
:1027C000BDF80C10049881421CD101200B902169A6
:1027D00005982844081A2061E068411905980844C2
:1027E000E0606168E068B0FBF1F201FB1200E060BC
:1027F0000598CAF80000B8F1000F16D00120C8F8FB
:10280000000012E038461DF0B4F80027681C21696A
:10281000081A2061681CE1680844E0606168E068AB
:10282000B0FBF1F201FB1200E0600EE02069401BFA
:102830002061E0682844E0606168E068B0FBF1F284
:1028400001FB1200E06001200B90F1E10998FA28E9
:1028500070D12069A0EB050BBBF1070F6BDB0020EB
:1028600008900720039003981DF054F807461FB9FD
:102870004FF0FF300C90F8E13E46E06828440590A8
:10288000A81DE16808440490059806900FE0606870
:102890000699B1FBF0F200FB12102168085C07906A
:1028A0009DF81C0006F8010B0698401C0690049940
:1028B00006988842EBD30220069009E00698385C1F
:1028C0009DF820100844C0B208900698401C06905D
:1028D00006980628F2D360680499B1FBF0F200FB79
:1028E00012102168085C07909DF820009DF81C10CC
:1028F000884221D101200B909DF81C003070206986
:1029000003992944401A2061E06828440399084447
:10291000E0606168E068B0FBF1F201FB1200E0608A
:102920000398CAF80000B8F1000F18D00520C8F8C5
:10293000000014E024E013E038461DF01AF80027E8
:10294000681C2169081A2061681CE1680844E0607D
:102950006168E068B0FBF1F201FB1200E0600EE09C
:102960002069401B2061E0682844E0606168E068FD
:10297000B0FBF1F201FB1200E06001200B9057E187
:10298000099800F0F000802879D12069401B089058
:102990000898032874DBE06828440790D4E9031002
:1029A00000EB010B002006900798861C0DE0606884
:1029B000B6FBF0F100FB11602168085C06900698F8
:1029C000FF2801D1B34602E0761C5E45EFD300BF7D
:1029D0000698FF2855D10798ABEB0000401C102843
:1029E00010D90027681C2169081A2061681CE16859
:1029F0000844E0606168E068B0FBF1F201FB12009E
:102A0000E06063E00798ABEB0000401C0490049882
:102A10001CF080FF07461FB94FF0FF300C9024E1F7
:102A2000059701200B90079E0CE06068B6FBF0F163
:102A300000FB11612068415C059801700598401CFD
:102A40000590761C5E45F0D9216904982844081A3F
:102A50002061E068411904980844E0606168E0681A
:102A6000B0FBF1F201FB1200E0600498CAF800002C
:102A7000B8F1000F02D00420C8F8000026E036E0CC
:102A800025E00798ABEB0000102810D30027681C46
:102A90002169081A2061681CE1680844E0606168E7
:102AA000E068B0FBF1F201FB1200E0600EE020698B
:102AB000401B2061E0682844E0606168E068B0FB8A
:102AC000F1F201FB1200E06001200B900EE02069A2
:102AD000401B2061E0682844E0606168E068B0FB6A
:102AE000F1F201FB1200E06001200B90A0E00998D8
:102AF000A52871D12069A0EB050BBBF10B0F6CDB96
:102B0000002008900B20039003981CF003FF074659
:102B10001FB94FF0FF300C90A7E03E46E068284414
:102B2000059005F10A00E1680844049005980690B4
:102B30000FE060680699B1FBF0F200FB121120680B
:102B4000405C07909DF81C0006F8010B0698401C9D
:102B50000690049906988842EBD30120069009E07C
:102B60000698385C9DF820100844C0B2089006987A
:102B7000401C069006980A28F2D360680499B1FBBD
:102B8000F0F200FB12102168085C07909DF820000D
:102B90009DF81C10884221D101200B909DF81C004B
:102BA0003070206903992944401A2061E068284464
:102BB00003990844E0606168E068B0FBF1F201FB52
:102BC0001200E0600398CAF80000B8F1000F18D0B6
:102BD0000620C8F8000014E024E013E038461CF09A
:102BE000C8FE0027681C2169081A2061681CE1687A
:102BF0000844E0606168E068B0FBF1F201FB12009C
:102C0000E0600EE02069401B2061E0682844E0603D
:102C10006168E068B0FBF1F201FB1200E0600120A6
:102C20000B9005E000BF6D1C2069A8423FF63EAC4A
:102C300000BF2069A8420FD10B9868B9002020611D
:102C4000E0682844E0606168E068B0FBF1F201FBF5
:102C50001200E060002060610B9800B103E0206981
:102C600000283FF71FAC00BF00BF1B9810B11B9995
:102C70000C980860384611B0BDE8F08F10B50146D9
:102C80000B78FC4C24680CB1092200E007220120DB
:102C900002E00C5C6340401C9042FADB0B5410BD18
:102CA0002DE9FF4381B08846DDF830900024B8F16B
:102CB000000F03D1002005B0BDE8F083DDE903017A
:102CC00000FB01F707F1100630461CF023FE044616
:102CD0000CB90020EFE7314620461DF054F8AA2039
:102CE00020700420A0700020E070A6F10800009081
:102CF00002226946601DFDF765FF2046FFF7BEFF13
:102D000004F10805022201A92846FDF75BFF022213
:102D100003A9A81CFDF756FF022204A9281DFDF7F0
:102D200051FF3A464146A81D1CF0AEFFB81D81B2C6
:102D30002846FDF76BFF0090A91DC81902226946BD
:102D4000FDF740FFB9F1000F01D0C9F8006020463F
:102D5000B1E7F8B506460F4614461D462346012244
:102D6000394630460095FFF79BFFF8BD70B5054624
:102D70000C46ADB1A4B120461CF0CCFD064676B1A0
:102D80002246294630461CF07FFF234606220121B9
:102D90003046FFF74EF910B130461CF0EAFD00BF97
:102DA00070BD704770B505460C46ADB1A4B1204664
:102DB0001CF0B0FD064676B12246294630461CF08E
:102DC00063FF234606220121304601F0C4FC10B106
:102DD00030461CF0CEFD00BF70BD2DE9F041054628
:102DE0000E461446BDB1B6B1ACB120461CF092FD02
:102DF00007467FB12246314638461CF045FF234640
:102E0000062201213846D5F814C0E04710B13846F3
:102E10001CF0AFFD00BFBDE8F0812DE9F04F8FB091
:102E200007460C4601200E901FB9801E0FB0BDE86A
:102E3000F08F3D682878AA2802D04FF0FF30F5E7E0
:102E4000A8780C287AD1E878802878D100200C90D6
:102E50000D9000260B904FF001094FF0010A8346B8
:102E6000AA208DF830000C208DF8320080208DF8DB
:102E7000330001208DF83400A8790D2860D2DFE8F6
:102E800000F05F0708165F245F5F5F385F3A4B0012
:102E900000BFA8798DF8360008201CF03BFD0646DF
:102EA00016B94FF0000950E008200B904DE008A83B
:102EB000FEF715F84FF0000A0BAB0C2208A948F2F8
:102EC0000300FFF746FF06463FE000200A902CB1C2
:102ED000206918B12069804780B20A904FF0000A3B
:102EE0000BAB02220AA948F20500FFF732FF0646A3
:102EF0002BE001F086F94FF0FF300A90FDF7FAFF62
:102F00000A904FF0000A0BAB04220AA948F20B000A
:102F1000FFF71FFF064618E00FF25C184FF0000A9B
:102F200040461CF086FE401C0BAB024641460A9010
:102F300048F20C00FFF70DFF064606E030E0C9E05E
:102F40004FF0000900200E9000BF00BFB9F1000F44
:102F500020D0FEB1BAF1000F06D00CA8FFF78EFE0C
:102F60000C9830600D9870601CB930461CF001FD63
:102F700010E0606918B930461CF0FBFC0AE0D4F898
:102F800014C00622012130460B9BE04710B13046A9
:102F90001CF0EFFCBBF1000F01D001F032F999E019
:102FA000A878042865D100200D9080460E9002225A
:102FB000691D0DA8FDF706FE05F108060D98801E97
:102FC0000D9080E04FF0000900200C904FF0010AB6
:102FD0000B900A900990022231460BA8FDF7F2FDF2
:102FE0000222B11C0AA8FDF7EDFD0222311D09A83D
:102FF000FDF7E8FDBDF82C00A0F500400A3858BBED
:1030000006F1060B01A8FDF76AFF4FF0FF30FDF750
:1030100071FF0090012301A904A8009AFDF790FF19
:103020001022594604A81CF0B4FD38B900200890BD
:103030000022012104A8FDF7A9FF02E04FF0FF30B4
:1030400008900CAB042208A948F20A00FFF781FEA1
:10305000814601200E9000E000BF00BFBAF1000FD2
:1030600025D0B9F1000F22D084B948461CF081FC6C
:103070001DE02DE04C00002059415F4755495F415C
:103080005544494F5F31383038303500606918B9E0
:1030900048461CF06EFC0AE0D4F814C00622012158
:1030A00048460C9BE04710B148461CF062FCBDF856
:1030B0002800BDF824104843801D804405F1080015
:1030C00000EB080600BF0D988045FFF47BAF01E0E0
:1030D00000200E900E9808B10020A7E64FF0FF30B8
:1030E000A4E60020FE49087070477047704770479B
:1030F00001460022012003E00B5C1344DAB2401CBD
:103100000628F9DB0A547047704770477047002063
:103110007047704770472DE9F041064600274FE0A1
:1031200006F1080000EB8705A878EE2800D146E0FC
:1031300095F80080EB4C0020206060602081AA2080
:103140002070E748007860700720A070A8780128F8
:1031500000D12071B8F1010F17D0B8F1020F20D1C2
:10316000A878022801D1012000E0002001460A20B1
:1031700004F0FFFCA878022801D1012000E0002023
:1031800001460A2001F03EFF0CE0A878022807D192
:1031900001F0B8FC10B101F0C2FC01E001F0BBFC91
:1031A00000E00CE000BF01F0B0FC84F80580204690
:1031B000FFF764FD08212046FFF7D8FD00BF7F1C04
:1031C0007068B842ACD80120BDE8F081704770B596
:1031D0000446C44D0DB9002070BD00202860686011
:1031E0002881AA202870BE48007868700820A8703E
:1031F000207A2871A07B68712846FFF73FFD0821DF
:103200002846FFF7B3FDA07B00F00106208958B9DE
:10321000608920B13146092001F0F4FE15E0314605
:103220000B2001F0EFFE10E0208901280DD1A089CC
:1032300004F088FC608920B13146132001F0E2FEE1
:1032400003E03146142001F0DDFE01F05EFC0120B8
:10325000C2E770B505462C682078052801DB002000
:1032600070BD2078A04951F8200030B120780A467E
:1032700052F8201020468847F2E70020F0E7014688
:1032800000207047F7B584B005461446284602F082
:1032900029F886B20C2E03DB4FF0FF3007B0F0BDEB
:1032A00004F0050048B3E8B28DF80C009DF8140056
:1032B0008DF80D009DF815008DF80E00002002908D
:1032C00002A80323012203A900904FF4D060FFF766
:1032D000E7FC074687B104F0010018B138460299AF
:1032E000FFF744FD04F0040018B138460299FFF7D7
:1032F00059FD38461CF03DFB00BF04F0100008B338
:103300007A4800680390301DC7B29DF80D007849D7
:10331000097801F00F0108438DF80D008DF80E704B
:103320009DF814109DF815208818C11700EB9171B5
:10333000C1F386018DF80F100422114603A801F095
:10334000C5FC00BF0020A9E70246002070470246E6
:1033500000207047FEB504460E461546022C02DBDF
:103360004FF0FF30FEBD05F0050018B3E0B28DF858
:1033700008008DF809600020019001A802230122B5
:1033800002A9009040F24660FFF78AFC074687B129
:1033900005F0010018B138460199FFF7E7FC05F088
:1033A000040018B138460199FFF7FCFC38461CF0C0
:1033B000E0FA00BF05F01000B0B34C4814300068CC
:1033C00002904A481830006801909DF80900484969
:1033D000097801F00F0108438DF809009DF80500F8
:1033E0004349097801F00F0108438DF805006EB1DB
:1033F00004F16000C0B28DF80A007F208DF80B0048
:103400000422114602A801F061FC0CE004F1600006
:10341000C0B28DF8060000208DF807000422114686
:1034200001A801F053FC00BF00209BE702460020EA
:1034300070472DE9FE4304460D461646204601F02E
:1034400051FF1FFA80F8B8F10C0F03DB4FF0FF308B
:10345000BDE8FE8306F00500C0B3E0B28DF80800B9
:103460008DF8095000200190072C02DA4FF4C8674C
:103470000EE00A2C02DA40F2416709E0812C04DCFC
:10348000802C02DB40F2426702E04FF0FF30DFE7C2
:1034900001A80223012202A900903846FFF700FC90
:1034A0008146B9F1000F10D006F0010018B148466E
:1034B0000199FFF75BFC06F0040018B1484601993A
:1034C000FFF770FC48461CF054FA00BF06F01000ED
:1034D000E8B30648001F0068029000270AE00000D9
:1034E00048000020A41C002054000020A419020859
:1034F000500000204FF07F09032D01DD781EA7E763
:10350000012D01D0022D09D1052C04D0062C02D0AA
:103510004FF0FF309CE72846C7B209E0032D07D1E2
:1035200008208DF8080080208DF809004FF0000970
:10353000202000EB88003844C7B29DF80900FE49FE
:10354000097801F00F0108438DF8090000E009E057
:103550008DF80A708DF80B900422114602A801F034
:10356000B5FB00BF002073E702460020704702460B
:103570000020704700207047002070472DE9FC476D
:1035800006460F46154605F0050058B3AA208DF8EB
:10359000000006208DF8020050208DF803008120E5
:1035A0008DF8040001F07EFF8DF8050001F0A4FF06
:1035B0008DF806006846FFF761FB05F0010018B1C1
:1035C00008216846FFF7D2FB00208DF8040068460A
:1035D000FFF754FB05F0010018B108216846FFF71A
:1035E000E1FB00BF05F01000002846D0D34800687A
:1035F0000190D248001D006800904FF000084FF085
:103600000309032E02DAB04606F101099DF8050010
:10361000C949097801F00F0108438DF805009DF8AC
:103620000100C549097801F00F0108438DF8010038
:1036300044461FE00120A040384068B104F1580022
:10364000C0B28DF806007F208DF8070004221146D5
:1036500001A801F03BFB0CE004F15800C0B28DF86A
:10366000020000208DF8030004221146684601F094
:103670002DFB641C4C45DDDB00BF0020BDE8FC8752
:103680002DE9FC4706460F46154605F0050058B3E0
:10369000AA208DF8000006208DF8020050208DF839
:1036A000030081208DF8040001F0FCFE8DF8050078
:1036B00001F022FF8DF806006846FFF7DFFA05F0FB
:1036C000010018B108216846FFF750FB00208DF873
:1036D00004006846FFF7D2FA05F0010018B108218E
:1036E0006846FFF75FFB00BF05F01000002847D0D9
:1036F00092480838006801909048001F00680090C8
:103700004FF000084FF00509052E02DAB04606F129
:1037100001099DF805008849097801F00F01084367
:103720008DF805009DF801008349097801F00F012B
:1037300008438DF8010044461FE00120A0403840B6
:1037400068B104F15000C0B28DF806007F208DF8FA
:1037500007000422114601A801F0B8FA0CE004F1B8
:103760005000C0B28DF8020000208DF80300042242
:103770001146684601F0AAFA641C4C45DDDB00BF27
:103780000020BDE8FC87024600207047024600206A
:10379000704770470246002070472DE9F04F87B010
:1037A00080460E46B8F1000F03D1002007B0BDE8F7
:1037B000F08FD8F80040A07807280DD1E078502885
:1037C00008D1A379DA106379D9102379D81000F0E1
:1037D0007DFD00E000BF43E2A078062878D1584D77
:1037E0004FF0000A002006904FF0010B01200590D9
:1037F000AA2028700620A8708020E8700120287177
:10380000E07846286BD008DC40280DD0412834D021
:1038100043285ED0442875D15EE0502873D08028BC
:1038200072D08128F7D106E114201CF073F881468C
:1038300000200590B9F1000F1ED000270CE004A96C
:10384000384601F06BFD09F817709DF8100009EB80
:1038500047014870781C87B2072FF0DB06A80223C7
:103860000722494600904FF4C860FFF719FA8246D4
:1038700048461CF07EF800BFE7E006201CF04AF83E
:10388000814600200590B9F1000F20D000270EE0FE
:10389000F91D88B204A901F041FDF81D09F81700CF
:1038A0009DF8100009EB47014870781C87B2032F80
:1038B000EEDB06A8022303224946009040F2416055
:1038C000FFF7EEF9824648461CF053F800BFBCE013
:1038D000E2E04FF0000BB8E04FF0000BB5E0A0794C
:1038E000FF2833D10020049004201CF013F88146F7
:1038F00000200590B9F1000F27D004A801F0BAFD0F
:1039000000270AE09CE038E063E009F8177004A89B
:10391000C05D09EB470148707F1C022FF5DB06A84C
:10392000032302224946009040F24660FFF7B8F9AF
:103930008246484606E0000050000020B019020808
:10394000A41C00201CF015F800BF15E02079071119
:10395000607908B9012000E00020814649463846D8
:1039600001F07AFD3946022003F049FF1022494652
:103970003846FFF7EFFC00BF67E0207910B12079EF
:10398000812818D16179FF2001F091FDA179FF20F4
:1039900001F0B7FD0021032003F031FF617910220F
:1039A000FF20FFF76DFEA1791022FF20FFF7E6FD53
:1039B000002005900CE02079012809D15020E87002
:1039C0008120287101F06EFD687101F095FDA871EC
:1039D0003BE01E201BF09EFF814600200590B9F1C0
:1039E000000F27D0002715E004A9384601F0E9FCB4
:1039F00007EB470109F801709DF8100007EB47013C
:103A0000494448709DF8110007EB4701494488700C
:103A1000781C87B20A2FE7DB06A803230A2249464F
:103A200000904FF4D060FFF73BF9824648461BF008
:103A3000A0FF00BF09E04FF0000B0020059004E05C
:103A40004FF0000B0020059000BF00BF059838B173
:103A50002846FFF713F9082229463046FFF7BDF93B
:103A6000BBF1000F17D0BAF1000F14D01EB95046A9
:103A70001BF07FFF0FE0706918B950461BF079FF0B
:103A800009E07769062201215046069BB84710B12C
:103A900050461BF06EFFE3E0A0780428FBD1002025
:103AA000069081460222611D06A8FDF78BF804F1FD
:103AB00008070698801E0690CDE04FF0000A00200F
:103AC00005900120049000200390029001900222B2
:103AD000394603A8FDF776F80222B91C02A8FDF7C3
:103AE00071F80222391D01A8FDF76CF8BDF80C0031
:103AF00040F24262811A90420FD007DCB0F5C86FE5
:103B000009D0A0F2416000287DD105E0042923D02E
:103B10003E2978D149E000BF00BF07F1060B002520
:103B200015E00BEB450251781BF8150001F008FC7D
:103B30001BF81510012003F062FE0BEB45025178D3
:103B40001BF815001022FFF774FC681C85B2BDF845
:103B500008008542E5DB57E007F1060B00251FE072
:103B60000BEB450252780AB1012200E00022114617
:103B70001BF8150001F070FC1BF81510022003F073
:103B80003EFE0BEB450252780AB1012200E0002212
:103B900011461BF815001022FFF7DCFB681C85B2EC
:103BA000BDF808008542DBDB2EE007F1060B00259F
:103BB00023E005EB4500584440788DF8000005EB04
:103BC0004500584480788DF8010005EB45011BF84D
:103BD0000100009901F0DEFB05EB45001BF8001029
:103BE000002003F00CFE05EB45011BF8010010223C
:103BF0000099FFF747FB681C85B2BDF808008542B5
:103C0000D7DB01E0FFE700BF00BF0498B8B1BAF10D
:103C1000000F14D01EB950461BF0ABFE0FE07069C8
:103C200018B950461BF0A5FE09E07569062201216E
:103C30005046059BA84710B150461BF09AFEBDF8B0
:103C40000800BDF804104843801D814404F10800B9
:103C500000EB090700BF06988145FFF42EAF00BFB7
:103C60000120A3E50246002070470146002070476E
:103C70002DE9F84F82460127BAF1000F02D100204A
:103C8000BDE8F88FDAF80050687800F00F00F849C6
:103C90000978884201D00020F2E7687800F0F00847
:103CA000B8F1800F01D100270DE0B8F1900F02D0DC
:103CB000B8F1B00F05D1E87800F07F0018B90027FF
:103CC00001E00020DCE7AC78042C36DB0F2C34DC80
:103CD000211F88B201F015FB1FFA80F90020009027
:103CE0006946484601F06DFB8346BBF1000F01D0E9
:103CF0000020C5E79DF800009DF801104618B608A1
:103D0000E878864217D0EE787600F6B2FE2E00D123
:103D1000FF26F0B28DF801008DF8000048460099AA
:103D200001F038FB4946002003F069FD05224846B2
:103D30000099FFF7A7FA00BFA7E0202C37DB502C33
:103D400035DAA4F12000C0F38F0904F00306002047
:103D50000090484601F0D5FA1FFA80F916B96FB9FC
:103D600003260BE0012E01D0022E07D1B9F1050F79
:103D700004D0B9F1060F01D0002081E7694648461A
:103D800001F0CCFA9DF80000B0420DD03146484613
:103D900001F0D6FA4946012003F031FD05223146F3
:103DA0004846FFF746FB01E0002069E76DE0502C34
:103DB00023DB542C21DC01F075FB8146A4F150007B
:103DC000C6B20120B04000EA090008B1012000E0BD
:103DD00000208346BB450DD03946304601F067FBD5
:103DE0000021032003F00BFD03220021FF20FFF739
:103DF00047FC01E0002043E747E0582C23DB5A2C26
:103E000021DC01F079FB8146A4F15800C6B2012003
:103E1000B04000EA090008B1012000E0002083461C
:103E2000BB450DD03946304601F06BFB0021042024
:103E300003F0E5FC03220021FF20FFF79FFB01E0D8
:103E400000201DE721E0602C1FDB612C1DDCA4F1AC
:103E50006000C6B2002000906946304601F0EFFADB
:103E60009DF80000B8420DD03946304601F0F4FA12
:103E70003946022003F0C3FC052239463046FFF7DD
:103E800069FA01E00020FBE600BF0120F8E670B50A
:103E900004460D46A07A012804D129462046FFF7A2
:103EA0007CFC70BDA07A082804D129462046FFF783
:103EB000DFFEF6E70020F4E71CB50020009001903B
:103EC000AA208DF800000C208DF8020080208DF8CB
:103ED000030000208DF8040002208DF806006846DB
:103EE000FEF7CCFE08216846FEF75CFF1CBD1CB542
:103EF000002000900190AA208DF8000006208DF887
:103F0000020040208DF803006846FEF7B7FE082146
:103F10006846FEF747FF41208DF803006846FEF72C
:103F2000ADFE08216846FEF73DFF80208DF80300B6
:103F30006846FEF7A3FE08216846FEF733FF5020CF
:103F40008DF8030001208DF804006846FEF796FE08
:103F500008216846FEF726FF00208DF80400462061
:103F60008DF80300FF208DF806006846FEF786FEF8
:103F700008216846FEF716FF1CBD70B504460D46C5
:103F8000152229462046FFF754FA70BD13B50446A2
:103F9000152220460199FFF775F91CBD70B504463E
:103FA0000D46152229462046FFF7D4F970BD70B59D
:103FB00004460D46152229462046FFF761FB70BDD9
:103FC00070B504460D46152229462046FFF7D6FA5D
:103FD00070BD7CB505460C46AA208DF80000002077
:103FE0008DF8010006208DF802001CB143208DF8E9
:103FF000030002E044208DF8030000208DF8040047
:10400000E8B28DF8050000208DF806006846FEF73E
:1040100035FE08216846FEF7C5FE0CB9FFF767FFBD
:1040200000207CBD10B50021FF20FFF7D2FF10BD9E
:1040300001B59DF800209DF801109DF8020000F0E8
:1040400045F9002008BD10B50446204600F003FAEB
:10405000002010BD10B50446204600F015FA0020DF
:1040600010BD0146102901DA014801700020704797
:104070005000002001460020704701464FF0FF30FD
:10408000704701464FF0FF30704701464FF0FF3058
:10409000704701464FF0FF30704702464FF0FF3047
:1040A000704770B50446052505E06219511FA8B296
:1040B00001F06AFA6D1C092DF7DDA01D01F072FAFE
:1040C00004F10A0001F07BFA04F10B0001F081FA1F
:1040D00004F10C0001F0BDFA04F10E0001F0E9FA60
:1040E00070BD01464FF0FF30704701464FF0FF3082
:1040F000704701464FF0FF30704701464FF0FF30E8
:10410000704701464FF0FF3070474FF0FF30704767
:1041100002464FF0FF30704738B50446052505E0EC
:104120006A1FA15CA8B201F05EFA6D1C092DF7DDD3
:10413000D4F80600009001F062FAA07A01F077FA54
:10414000E07A01F07DFA207B01F097FA607B01F0C4
:10415000A2FAA07B01F0B7FA38BD10B52F48FFF7DF
:10416000DBFF10BD10B52E4801682E480068FCF733
:1041700055FA642800D210BD294800682949086012
:10418000102129481BF0FFFD2748FFF78AFF102266
:10419000254926481BF0FDFC58B11022224923482E
:1041A0001BF072FD0120224908701D48006821495A
:1041B00008601F480078C8B1194801681D480068A8
:1041C000FCF72CFA43F6982188420FD910221349A4
:1041D00016481BF0DEFC30B1102214490F481BF0CA
:1041E00053FDFDF747F800201149087000BFC2E7F2
:1041F0007047704770477047704701464FF0FF3077
:1042000070470D48006800F4E0600C490843001D49
:1042100009490860BFF34F8F00BFFEE74E0500203D
:104220001400002070000020CA1C0020BA1C0020CE
:10423000680000206C0000200CED00E00000FA0592
:1042400008B510208DF8030002208DF802004020F0
:10425000ADF8000069469C4807F002FA00224021B0
:10426000994807F0AEFA2020ADF80000694696485C
:1042700007F0F6F901222021934807F0A2FA102056
:10428000ADF800006946904807F0EAF901221021D4
:104290008D4807F096FA4FF48070ADF8000069463B
:1042A000894807F0DDF900224FF48071864807F055
:1042B00088FA8020ADF800006946834807F0D0F9FD
:1042C00000228021804807F07CFA08BD2DE9F84FD4
:1042D0000746884691468DF800808DF801708DF86C
:1042E000029000228021784807F06BFA00224FF4F8
:1042F0008071754807F065FA00250BE001228021E6
:10430000714807F05EFA002280216F4807F059FAE1
:10431000681CC5B2202DF1DB00243BE00122110214
:10432000694807F04EFA01228021674807F049FAF0
:1043300000228021644807F044FA002626E01DF898
:1043400006B04FF0100A00251CE00BEA0A0030B955
:1043500000224FF480715C4807F033FA04E0012238
:104360001102594807F02DFA01228021564807F022
:1043700028FA00228021544807F023FA4FEA6A0AFB
:10438000681CC5B2052DE0DB701CC6B2032ED6DB5F
:10439000601CC4B2022CC1DB00224FF480714A4879
:1043A00007F00FFA00240BE001228021464807F0B5
:1043B00008FA00228021444807F003FA601CC4B2C6
:1043C000022CF1DBBDE8F88F10B540480078C0F34F
:1043D000411400203E4908703E4908703E4908706B
:1043E0002CB93A48007800F01F00087015E0012C45
:1043F00006D13648007800F01F00364908700CE0FE
:10440000022C06D13148007800F01F0030490870B6
:1044100003E000202D49087010BD2D4802782D487A
:1044200001782D480078FFF751FF28480078401C9C
:104430002649087000BFEFE708B510208DF803008B
:1044400003208DF802000420ADF8000069462348DF
:1044500007F006F908BD10B5044684F001020421F6
:104460001E4807F0AEF910BD08B510208DF8030006
:1044700003208DF802004FF40040ADF800006946BB
:10448000114807F0EDF808BD10B504460CB1012045
:1044900000E0002002464FF400410B4807F091F97C
:1044A00010BD10B5FFF7CCFE002211461046FFF7F5
:1044B0000DFFFFF7C1FF0120FFF7CDFFFFF7D4FF8E
:1044C0000020FFF7E1FF10BD00080140740000204C
:1044D00077000020760000207500002000180140C1
:1044E00000B587B00121880407F009FC03A808F093
:1044F00017FC4FF4E130039003A9AC4808F0A7FB88
:104500000121AA4808F02FFC4FF48060ADF80800A4
:1045100003208DF80A0018208DF80B0002A9A4488A
:1045200007F09EF84FF40060ADF8080004208DF805
:104530000B0002A99E4807F093F827208DF804008D
:1045400004208DF8050000208DF8060001208DF86C
:10455000070001A806F01FF8012240F225519348F8
:1045600008F00DFC0121084607F0AFFB43F2900074
:104570009049C8618D48001D486200200862886229
:1045800001228021894808F01FFC07B000BD38B522
:104590008648048804F0200010B904F0080050B1E7
:1045A0008248001D0088C0B20090012269468248FE
:1045B000FCF7DCFF00BF38BD10B5062320227F4981
:1045C0007F48FCF7E7FE4FF440727E497A48FCF7DB
:1045D000AFFF4FF480627C497C48FDF703FFFFF793
:1045E0007FFF10BDF0B585B0054600BF0027002055
:1045F000049004A97048FDF701F8074607B92CE0BC
:1046000028E00026002003900290002402A903ABBA
:10461000CDE9001039466D48049AFDF7F5FE0646CF
:1046200006B918E06648FCF7F5FE04461CB93046AA
:104630001BF09FF90FE02660039860600120207254
:104640000298A072012221465D48FCF7FAFE002084
:10465000049000BFD5E700BF00BF00BF00BF00242B
:104660005B480078E0B15348006800F0200010B9C2
:1046700005B148E048E04D48008800F0400010B91E
:1046800005B140E040E010204A4948605148007AB6
:1046900018B1504908681BF06CF900204C490870AB
:1046A00000214748FCF7F9FE04465CB36068002827
:1046B00001DD206848B9207A20B1206810B1206857
:1046C0001BF057F905B11EE01EE03A48C06920F022
:1046D00001003849C861606808622068886208463D
:1046E000C06940F00100C8610120394908701822F2
:1046F000214638481BF00DFB21463148FCF704FFEA
:1047000005B100E000E0AAE700BF00BF00240121DE
:104710002B48FCF7C2FE044614B1204605B0F0BD9C
:1047200000BF0020FAE710B5044644B1207A10B16A
:1047300020681BF01EF921462148FCF7E5FE10BD5C
:1047400010B504461CB121461D48FCF7DDFE10BD26
:104750004FF4806070472DE9F04105460E469046C3
:104760001F46002415B9601EBDE8F0811448FCF70F
:1047700051FE044614B94FF0FF30F5E7256067603D
:104780002672002221460E48FCF75BFE0020EBE774
:1047900010B5044604B910BD0020A0810C20608132
:1047A0002146024808F053FA00BFF4E700480040F1
:1047B000000C014000000240F0220020DC1C002020
:1047C000DC1F0020F01F0020082300200827002005
:1047D000780000202027002010B5002046E00021AE
:1047E00041E000EB4002BD4B03EBC20232F9212055
:1047F000C2EB02124FF4077303EB42125B0092FB11
:10480000F3F212B200EB4003B44C04EBC30323F801
:10481000212000EB4002234603EBC20202EB81029F
:10482000B2F90220C2EB02124FF4077303EB4212FB
:104830005B0092FBF3F212B200EB400304EBC30304
:1048400003EB81035A8000EB4002234603EBC202D4
:1048500032F82120A03212B200EB400304EBC30374
:1048600023F82120491C0529BBD3401C0328B6D3BB
:10487000002046E0002141E000EB8002984B03EB72
:10488000820232F92120C2EB02124FF4077303EBCC
:1048900042125B0092FBF3F212B200EB8003904CE9
:1048A00004EB830323F8212000EB8002234603EB73
:1048B000820202EB8102B2F90220C2EB02124FF433
:1048C000077303EB42125B0092FBF3F212B200EBB0
:1048D000800304EB830303EB81035A8000EB800227
:1048E000234603EB820232F82120A03212B200EB01
:1048F000800304EB830323F82120491C0429BBD344
:10490000401C0328B6D3002045E000EB4001754A67
:1049100032F82110C1EB01114FF4077202EB411183
:10492000520091FBF2F100EB40026E4B23F8221093
:1049300000EB40011A4602EB81014988C1EB0111ED
:104940004FF4077202EB4111520091FBF2F100EBC0
:10495000400203EB8202518000EB40011A4602EB59
:1049600081018988C1EB01114FF4077202EB4111FB
:10497000520091FBF2F100EB400203EB82029180C6
:1049800000EB40011A4632F82110A03100EB400242
:1049900023F82210401C0428B7D310BD70B56FF067
:1049A0007F4005F018FC40F2DF1340F21F32002177
:1049B000084605F049FB002429E004EB4401474A7E
:1049C00002EBC101897D4FF47F0202EA014104EB51
:1049D0004402424B03EBC202527D4FF47F4303EA91
:1049E0000222114304EB44023C4B03EBC202127D52
:1049F00041EA020005F0EFFB04EB4401374A02EB09
:104A0000C10000231A46052105F00AFB641C032C93
:104A1000D3D3002429E004EB8401314A02EB810165
:104A2000897C4FF47F0202EA014104EB84022C4BA3
:104A300003EB8202527C4FF47F4303EA02221143CC
:104A400004EB8402264B03EB8202127C41EA020053
:104A500005F0C1FB04EB8401214A02EB8100002335
:104A60001A46042105F0DCFA641C032CD3D300247D
:104A700030E004EB44011B4A02EB8101897A4FF4D8
:104A80007F0202EA014104EB4402164B03EB82026F
:104A9000527A4FF47F4303EA0222114304EB4402AB
:104AA000104B03EB8202127A41EA020005F093FBFD
:104AB00004EB44030B4D05EB83039A8804EB44039A
:104AC00005EB8303598804EB440335F8230005F014
:104AD00081FC641C042CCCD370BD00007C00002041
:104AE000C4000020000100200246914201D3881A30
:104AF0007047C2F1FF300844FAE70020444988714A
:104B0000C871704742480079704710B50FF0CDFA70
:104B10003F49086010BD01203D494871704702209F
:104B20003B4948717047704710B53948007900B16A
:104B300010BD3748807910B9FFF730FF02E0002040
:104B400003F0AEFB01203249087100BFF0E710B559
:104B50002F48007900B910BD012003F0A1FBFFF739
:104B6000D4FF00202A49087109F0BBF8044609F077
:104B7000C8F800BFEFE770B52548C079062818DAF5
:104B80002348C079234951F82040002572B60FF020
:104B90008CFA06461E4908683146FBF73FFD05467C
:104BA00062B61B48007918B9A54201D3FFF7BCFFD4
:104BB00000BF17484079012805D1FFF7B5FF002055
:104BC0001349487108E012484079022804D1FFF7E0
:104BD000BEFF00200E49487170BD0146072902DB67
:104BE0004FF0FF3070470A48C1710020FAE70146D4
:104BF000022902DB4FF0FF30704705488171002029
:104C0000FAE70348C079704701488079704700008F
:104C100030010020C019020810B503231022AD494D
:104C2000AD48FCF7B7FB4FF40072AC49AC48FCF759
:104C30007FFC002019F04EFAAA48046800BFA9487A
:104C400001682046FBF7EAFC6428F8D3012019F03C
:104C500041FA19F0E2F919F09DF91AF02DF810BD9A
:104C600070B504460D462A4621469D48FCF77EFC59
:104C700070BD9D480068052801D1012070470020C3
:104C8000FCE72DE9F04105460E46174698460024FC
:104C9000FFF7EFFF10B9601EBDE8F08115B94FF0C6
:104CA000FF30F9E78C48FCF7B5FB044614B94FF028
:104CB000FF30F1E72560C4F804802672A781002246
:104CC00021468548FCF7BDFB0020E5E72DE9F041D2
:104CD00005460C461646FFF7CCFF08B9BDE8F08143
:104CE000042E02D0052E00D0F8E7ADB1A4B12046C5
:104CF0001AF010FE074677B12246294638461AF0C8
:104D0000C3FF2346324601213846FFF7BAFF10B1F0
:104D100038461AF02EFE00BF00BFDFE7F8B50546A3
:104D200000BF00270020009069466D48FCF766FC34
:104D3000074607B928E022E0002404201AF0EAFD23
:104D4000064606B91EE06448FCF764FB04461CB93D
:104D500030461AF00EFE15E03868306026600420F8
:104D60006060012020720820A072012221465A486A
:104D7000FCF767FB0098001F00903F1D00BF0098E4
:104D80000428D9DA00BF00BF00BF00BF0024574885
:104D9000007808B354480068052813D15448808926
:104DA000042807D101201AF019FA20280AD005B1E9
:104DB00069E069E002201AF011FA202802D005B15A
:104DC00061E061E04A48007A18B1494908681AF080
:104DD000D0FD00204549087000213F48FCF75DFBED
:104DE0000446002C4ED06068002801DD206848B9D8
:104DF000207A20B1206810B120681AF0BAFD05B100
:104E000041E041E03848006805280AD0207A10B116
:104E100020681AF0AEFD21462F48FCF775FB85B3DC
:104E200031E00120314908701822214630481AF03B
:104E300070FF2F488089042808D18120D4E900120E
:104E40001AF036FD01201AF0DBF914E028488089B9
:104E5000052808D18220D4E900121AF029FD022089
:104E60001AF0CEF907E0207A10B120681AF081FD1F
:104E700000201E49087021461748FCF745FB05B184
:104E800001E0FFE700E081E700BF00BF002401214F
:104E90001148FCF702FB04460CB12046F8BD00BFE8
:104EA0000020FBE710B5044644B1207A10B1206819
:104EB0001AF05FFD21460848FCF726FB10BD10B52F
:104EC00004461CB121460448FCF71EFB10BD00201F
:104ED0007047000038270020B8280020CC28002088
:104EE000CC2A0020140000200405002038010020F6
:104EF000E42A00202DE9F04704460D4616461F46D9
:104F0000DDF82080301B401C791B491C00FB01F997
:104F1000A9B2A0B203F0D0F9B0B203F0E5F94FF4B2
:104F200030507B4908804946404604F0ADFA0AF00B
:104F30000EFE0AF008FEBDE8F0872DE9F0410446B8
:104F40000D4616461F46301B401C791B491C00FBB2
:104F500001F8A9B2A0B203F0AFF9B0B203F0C4F9FE
:104F60004FF430506A490880BDF81800414604F0FB
:104F700080F9BDE8F08130B587B00446A56800200F
:104F8000019001A902A802F086FF9DF80410681C98
:104F900081420DD25F4830F8250000B220805D4884
:104FA00000EB8500408800B260800020207112E094
:104FB0000120207102A830F82500564921F825006B
:104FC00000B2208002A800EB8500408801EB85013B
:104FD000488000B26080FFF795FD08B10020207185
:104FE000002007B030BD10B504464B480078207152
:104FF0004A4800682060FFF785FD08B10020207155
:10500000002010BD454A1060434A1170704700B53A
:1050100087B004A80EF04EFF414804904148059027
:105020000020069004A80EF04AFF01A80EF0E0FF51
:1050300001208DF804003C4802900020039001A854
:105040000EF0DBFF0120039001A80EF0D6FF07B0A1
:1050500000BD10B509F057F9FFF7D9FF10BD10B525
:105060009EB018A810F028F964211A98484318999E
:10507000B0FBF1F408461A99431A22462BA108A85E
:105080001AF09EFC0020029002A903A802F003FF80
:105090009DF8080078B108A81AF0CBFD08A94418BB
:1050A000BDF80E000090BDF80C309DF8082025A139
:1050B00020461AF085FC2948006818B12748006886
:1050C00009F090F908F00DFE0446002114F015FBDC
:1050D000224908600846006870B108A91F480068A6
:1050E00014F011F96FF0310000231A4619460090B0
:1050F0001A48006809F0B4FA1EB010BD10B50120BE
:105100000EF0CAFF10BD10B510F04EF910BD000032
:10511000FE07006CFC2A0020400100203C0100201A
:10512000F54E00083B4F0008774F00086672656532
:105130003A20256425252C207573696E673A202551
:10514000640000003B20633A2025642C20783A203C
:1051500025642C20793A20256400000044010020B9
:1051600030B50446202901D2002030BD80290AD262
:10517000554AA1F1200000EBC00303EB801002EBC5
:105180004002901CF1E7C1F30722CBB2812A01DB78
:10519000D72A01DD0020E8E7812B01DBDE2A01DDD3
:1051A0000020E2E742F220000144484A484B07E071
:1051B00010888DB2A84201D1901CD6E702F59172F9
:1051C0009A42F5D3981CD0E710B50446802903D243
:1051D0001F2901D90C2010BDC1F30722CBB2812AAF
:1051E00001DBD72A02DD4FF0FF30F4E7812B01DB32
:1051F000DE2A02DD4FF0FF30EDE71820EBE72DE966
:10520000F04780460F46B8F1000F00D017B90020D4
:10521000BDE8F087002F03DA40461AF00AFD074682
:105220007F2F01DD0020F3E7464608EB0709294DF3
:1052300043E0307840B2002802DD3478761C0BE081
:105240003078203884B24FF6FF7000EA042470787A
:105250002038204384B2B61C802C02DA2C706D1CDE
:1052600020E0B4F5006F0BDAC4F3841040F0C00006
:10527000287004F03F0040F080006870AD1C11E021
:10528000B4F5803F0EDAE02040EA14302870C4F311
:10529000851040F08000687004F03F0040F080000E
:1052A000A870ED1C0B48281A7F2805DD4FF0FF3150
:1052B00009A0FFF7A4FFABE700BF4E45B9D300201C
:1052C00028700448A4E70000DC1902080A5002080C
:1052D000BCA20208102B0020D7D6B7FBB9FDB3A49F
:1052E0000000000001460A2901DA084670478029BB
:1052F00004DB822902DAA1F17600F7E74FF0FF30F4
:10530000F4E701460C2902DB4FF0FF3070470A2911
:1053100001DA0846FAE701F17600F7E700B5024640
:105320000B461046FFF7DEFF82B20C2A00DA13B9F3
:105330004FF0FF3000BDFE48805C18700020F9E798
:1053400000B502460B461046FFF7CCFF82B20C2A8E
:1053500001DA072B02DB4FF0FF3000BDF448835425
:105360000020FAE702460020704770B504460A257F
:105370002A46EF4920461AF087FC70BD30B5054635
:10538000002404E0295DA0B2FFF7DAFF641C0A2CB8
:10539000F8DB30BD03B502461046FFF7A3FF82B22B
:1053A0000C2A02DB4FF0FF300CBDE148183800EB4F
:1053B0004200BDF8041001800020F5E702460020FD
:1053C000704700B502460B461046FFF78BFF82B2CE
:1053D0000C2A00DA13B94FF0FF3000BDD44818385A
:1053E00000EB4200008818800020F6E770B5044604
:1053F00014252A46CE49183920461AF045FC70BDBE
:1054000038B50546002407E005EB44010988A0B241
:105410000091FFF7BFFF641C0A2CF5DB38BD00B517
:1054200002460B461046FFF75DFF82B20C2A02DBF4
:105430004FF0FF3000BDBF4883540020FAE702461A
:10544000022A00DA11B94FF0FF307047B8480C302B
:10545000805C08700020F8E70246022A02DB4FF069
:10546000FF307047B2480C3081540020F9E7024603
:105470000020704710B50446002304E0E11898B2FC
:10548000FFF7DDFF5B1C022BF8DB10BD10B50446F7
:10549000002304E0E15C98B2FFF7DEFF5B1C022B07
:1054A000F8DB10BDA248183890F826007047024675
:1054B000052A04DB9E48183880F8261017E059B1F9
:1054C0009B48183890F82600012393401843984BC6
:1054D000183B83F826000AE09548183890F8260013
:1054E000012393409843924B183B83F826000020F9
:1054F00070470246002070478D48183890F8270002
:1055000070470246032A04DB8948183880F82710C0
:1055100017E059B18648183890F8270001239340C6
:105520001843834B183B83F827000AE0804818385B
:1055300090F827000123934098437D4B183B83F854
:1055400027000020704702460020704702460020D6
:1055500070470020704700207047014600207047C8
:1055600001460020704710B504462046FFF735FB82
:10557000002010BD10B504462046FFF738FB002080
:1055800010BD0146002070470246092A07DC052AA3
:1055900005DB21B16748805C0870002070474FF040
:1055A000FF30FBE7014639B16348007C634A52F89B
:1055B00020000860002070474FF0FF30FBE70146F5
:1055C00021B15F48007A0870002070474FF0FF302B
:1055D000FBE7014621B15A48407A08700020704725
:1055E0004FF0FF30FBE70246092A05DC052A03DB02
:1055F00050488154002070474FF0FF30FBE731B531
:1056000000240FE04D4800EB8401042268461AF0A4
:10561000C0FA30B948490C740098FEF709FD002023
:1056200038BD641C042CEDDB4FF0FF30F8E710B5FB
:105630000446434804722046FEF705FD002010BDD5
:1056400010B504463E4844722046FEF703FD002094
:1056500010BD014611B94FF0FF3070473948007A4C
:1056600008700020F9E7014611B94FF0FF3070478C
:105670003448407A08700020F9E710B50446072C3A
:1056800002DB4FF0FF3010BD2E4804722046FFF7BA
:105690006AFF0020F7E710B50446022C02DB4FF04A
:1056A000FF3010BD274844722046FFF763FF0020FB
:1056B000F7E7014611B94FF0FF30704722480079F3
:1056C00008700020F9E710B50446102C02DB4FF0FB
:1056D000FF3010BD1C4804712046FEF7C2FC0020BC
:1056E000F7E770B5054628460AF000FA0446206937
:1056F00008F078FE60690FF039FD002020616061DC
:10570000A06128460FF032FD70BD2DE9F04397B03F
:105710000646304615F04BFC85B2304609F0E9FAF2
:10572000044694F82800A0B9E06810B3E0680DE0E2
:10573000A82E0020E001002030020020F4A702087B
:1057400044020020883100205002002002F04BFA71
:1057500078B12068B04206D1606820B129B2606893
:1057600002F027FA05E0206818B129B2206802F09B
:1057700020FA606828B9E8B28DF859008DF8580011
:1057800015E02068B04209D1E8B28DF85800606891
:1057900015F00DFCC0B28DF8590008E0E8B28DF8A4
:1057A0005900206815F003FCC0B28DF85800A07FA6
:1057B0001699FFF7EFFDA07F1699FEF7E7FB00BFF4
:1057C000A069002862D1304608F082FA074600211D
:1057D00013F093FF2061206900B919E13C200FF01C
:1057E000A8FC6061606928B9206908F0FBFD002011
:1057F00020610DE12769384608F0BBFB8046414631
:10580000606909F0CAFFD4E904784146384608F0D7
:1058100008FB00BF08A8616909F0BFFF00218DF8EF
:105820004C10606903906069019008A802904FF6DF
:105830000C60ADF816004FF4FA60ADF814009DF856
:105840001C0020F001008DF81C000020ADF81800AD
:105850009DF81C0020F002008DF81C000020ADF81F
:105860001A00AFF281100490214601A80AF0F8F85E
:10587000A061A06948B9206908F0B4FD60690FF023
:1058800075FC002020616061C2E000BFEDB2A0693C
:10589000002871D0A07F052825D006DC05286CD211
:1058A000DFE800F0101112131400082866D004DCA1
:1058B000062832D007287FD149E080286BD0812884
:1058C0007AD169E000BF00BF00BF00BFFC4951F8BA
:1058D00025001BF04DFB07463A460B46F9A10FA8E1
:1058E0001AF06EF86EE0DFF8E49328461BF0CEFB6A
:1058F00080464FF07C511BF0DDFB074649461BF00C
:1059000063FB814648461BF033FB07463A460B468D
:10591000ECA10FA81AF054F854E0DFF8B49328462D
:105920001BF0B4FB80464FF07C511BF0C3FB0746D5
:1059300049461BF049FB814648461BF019FB0746C8
:105940003A460B46DFA10FA81AF03AF83AE04FF0BA
:105950000008C5F34707302F04DADEA10FA81AF0BC
:105960002FF803E0A7F179004FFA80F84246DBA157
:105970000FA81AF025F825E049E01DE0D04951F8BC
:1059800025001BF0F5FA07463A460B46CDA10FA8B5
:105990001AF016F816E000BF05EBC50000EB051085
:1059A000802101EB8000FF2190FBF1F73A46CDA169
:1059B0000FA81AF005F805E02A46C8A10FA819F0AB
:1059C000FFFF00BF00BF1DB9C2A10FA819F0F8FF6B
:1059D0000FA9206913F097FCE06848B16FF06300ED
:1059E000009000230A22A168206908F039FE07E030
:1059F0000A20009000230D22A168206908F030FEE3
:105A00000023B94A1946A0690EF05AFC00BF00BF36
:105A100000BF012017B0BDE8F08370B504462046F2
:105A200009F067F90546204602F0DDF80646A87F32
:105A30003146FFF7F4FC012070BD70B505462846DD
:105A400009F057F90446284613F0AFF8216A0E5CB6
:105A5000A07F3146FFF774FC284613F0A6F8216AB0
:105A60000E5CA07F3146FEF788FA012070BD70B54C
:105A7000044614B94FF0FF3070BDA06968B1002131
:105A8000A0690EF0D4FBA0690FF070FB0020A061AC
:105A900060690FF06BFB002060612646002507E07F
:105AA00056F8250018B156F8250007F09CFB6D1C30
:105AB000042DF5D30020DFE72DE9FF4F99B088468C
:105AC00017461C46DDE9289A2CB1199818B1279879
:105AD00008B12A9820B94FF0FF301DB0BDE8F08F13
