:020000040800F2
:10000000A882002001020008090200080B02000873
:100010000D0200080F020008110200080000000095
:1000200000000000000000000000000013020008B3
:100030001502000800000000170200085906000819
:100040001B0200081B0200081B0200081B0200081C
:100050001B0200081B020008A70800088B09000803
:100060001B0200081B0200081B0200081B020008FC
:100070001B0200081B0200081B0200081B020008EC
:100080001B0200081B0200081B0200081B020008DC
:1000900063D801081B0200081B0200081B020008AD
:1000A0001B0200081B0200081B0200081B020008BC
:1000B0001B0200081B0200081B0200081B020008AC
:1000C0001B0200081B0200081B0200081B0200089C
:1000D0001B020008731E00087B210008173F000860
:1000E000B37500081B0200086BD8010800F002F885
:1000F00000F06EF80AA090E8000C82448344AAF154
:100100000107DA4501D100F063F8AFF2090EBAE851
:100110000F0013F0010F18BFFB1A43F0010318473B
:1001200028E8020048E802000A444FF0000C10F8EA
:10013000013B13F0070408BF10F8014B1D1108BF65
:1001400010F8015B641E05D010F8016B641E01F805
:10015000016BF9D113F0080F1EBF10F8014BAD1C55
:100160000C1B09D16D1E58BF01F801CBFAD505E073
:1001700014F8016B01F8016B6D1EF9D59142D6D3CD
:10018000704700000023002400250026103A28BFF5
:1001900078C1FBD8520728BF30C148BF0B607047F9
:1001A000662920F0688464291EF0BE87002070470D
:1001B0001FB59DE803001FF02FFA1FF0EBFC0400B1
:1001C0000020002120F058FAE0601FBD10B510BDDE
:1001D0001FF0FAFD1146FFF7EBFF00F036F91FF0B4
:1001E00018FE03B4FFF7F2FF03BC1FF049FE000046
:1001F000EFF3108072B6704780F3108870470000EC
:100200000948804709480047FEE7FEE7FEE7FEE7AA
:10021000FEE7FEE7FEE7FEE7FEE7FEE704480549E6
:10022000054A064B704700001F030008ED00000858
:10023000A86E0020A8820020A87E0020A87E0020B2
:100240000CB50020019000906D48006840F48030AB
:100250006B49086000BF6A48006800F400300090F5
:100260000198401C0190009818B90198B0F5A06F52
:10027000F1D16348006800F4003010B10120009013
:1002800001E0002000900098012843D15D480068FB
:1002900040F010005B4908600846006820F0030049
:1002A00008600846006840F0020008605448406852
:1002B000534948600846406848600846406840F432
:1002C000806048600846406820F47C10486008461A
:1002D000406840F4E81048600846006840F08070CC
:1002E000086000BF4648006800F000700028F9D0A0
:1002F0004348406820F00300414948600846406890
:1003000040F00200486000BF3D48406800F00C002B
:100310000828F9D10CBD10B5FFF792FF10BD10B53C
:100320003748006840F001003549086008464068D9
:10033000354908403249486008460068334908405A
:100340002F4908600846006820F4802008600846AD
:10035000406820F4FE0048604FF41F008860FFF7FB
:10036000DAFF4FF000602A4908602A48091D08603A
:1003700010BD10B5002100200022214B5B6803F066
:100380000C0121B1042906D0082928D107E0224B0D
:10039000224C236027E0204B204C236023E0184BA5
:1003A0005B6803F47010164B5B6803F48032022321
:1003B00003EB904022B91A4B4343184C23600DE0E5
:1003C0000F4B5B6803F4003323B1154B4343134CCD
:1003D000236003E0104B4343104C236003E00E4BBB
:1003E0000E4C236000BF00BF054B5B68C3F30313D3
:1003F0000C4CE15C094B1B68CB40084C236010BDE2
:1004000000100240002002400000FFF8FFFFF6FE4F
:1004100008ED00E00003FA0500127A000000002059
:1004200000093D000400002010B545F255500AF0C7
:1004300005FE03200AF005FE4FF49C700AF004FE4E
:100440000AF005FE0AF008FE10BD1CB50027B846EC
:10045000B946DFF8ACA101F063FC02F03CFE00F00D
:100460000BF900F014F900F054FF01F083FB00F0E9
:10047000A0FA01F013FD01F095FE03F061FD03F019
:10048000D4FC00F00AF904F08BF808F0D4FA07F075
:10049000C0F906F096FF01220021084601F0A2FBF8
:1004A00004F09BFA09F03AFA03F05AFE03F03AFF1F
:1004B00040F6B83000F0B5F803F014FB06F020FE6B
:1004C0009CE050480168404600F0A2F838B14D4821
:1004D000D0F8008003F0DAFF08B904F0D8FA04F08D
:1004E0000EF848480168384600F092F8642801D9AF
:1004F00044480768002001F0E7FC0446002001F0B2
:1005000067FE0190002003F031FD0546002004F055
:10051000C9F8009001F027FC064616B1304602F0FB
:1005200092FE0CB33849204602F071FC18B92046FF
:1005300001F06CFD18E04FF0000B3349204603F04A
:10054000E5F8217A0022D4E9000303F0C8FD8346D0
:10055000BBF1000F04D0207A10B120681EF0A9FD75
:10056000204601F07DFD00BF7DB30021284602F04A
:100570004EFC88B923480168504600F049F842F221
:100580001071884201D903F0E9F81E48D0F800A0A4
:10059000284603F08CFD18E04FF0000B00212846A0
:1005A00003F0B4F8297A0022D5E9000301F03BFDFD
:1005B0008346BBF1000F04D0287A10B128681EF0E2
:1005C00078FD284603F080FD00BF019801F0ABFEE6
:1005D000304601F0CEFB009804F028F90948016884
:1005E000484600F015F841F28831884204D30548A6
:1005F000D0F8009003F097F803F079FA61E7000073
:10060000E0B1FFFF14000020C810020800BFFEE7A1
:100610000246914201D3881A7047C2F1FF30084464
:10062000FAE710B503461348046800BF1148016893
:100630002046FFF7EDFF9842F8D310BD002105E0FA
:10064000002200E0521C0A2AFCD3491C8142F7D345
:10065000704770477047704710B506480068401CE7
:100660000449086004F00EFA01F019FB00F00DFADD
:1006700010BD00001400002010B5012108070AF089
:10068000DEFE012140F2FD100AF0CCFE10BD10B5D7
:10069000012129480AF055FC10BD30B527480068F3
:1006A0004FF47A72B0FBF2F1B1F1807F00D31DE01C
:1006B00021F07F40401E4FF0E022506150170F2282
:1006C000002807DA13071D0E1D4B00F00F04241F2E
:1006D0001D5503E013071C0E1A4B1C5400BF0020CD
:1006E0004FF0E02290610720106100BF30BD3EB5A1
:1006F000124800681449B0FBF1F0401E84B2012199
:1007000008460AF09CFE68460BF0F0FA4FF6FF70C0
:10071000ADF80400ADF800400020ADF80600ADF8DB
:10072000020069464FF080400AF0B4FF01218807BB
:100730000BF00CFB3EBD000000023000000000206A
:1007400018ED00E000E400E040420F001FB5042077
:100750008DF80F0002208DF80E000120ADF80C007E
:1007600003A9F7480AF01CFB4FF40050ADF80C0049
:1007700003A9F3480AF014FB00208DF808001020AC
:100780008DF8090001208DF80A00002102200AF0EE
:100790001DFC0120019001A809F03EFC01208DF80C
:1007A000010000208DF8020001208DF803000620D2
:1007B0008DF80000684609F08EFA0220ADF80C00B2
:1007C00003A9DF480AF0ECFA4FF48040ADF80C00C2
:1007D00003A9DB480AF0E4FA012102200AF0F6FB43
:1007E0000220019001A809F017FC07208DF80000F5
:1007F000684609F070FA1FBD28B1D249C988491C62
:10080000D04AD18004E0CF49C988491ECD4AD18061
:10081000CC494880C9883F2907DD18B10021C94A61
:10082000D18002E03F21C74AD18070472DE9F041D5
:10083000C348806886B2C248806887B207F0010763
:1008400006F4005627B90EB9012405E0002403E0A0
:100850000EB9002400E0012484F001042046FFF7D3
:10086000CBFFB848C568B8480068B649C860B64804
:1008700001682846FFF7CCFE0546FA2D03D9012072
:10088000B04988800DE02DB14FF4FA70B0FBF5F05F
:10089000AC498880AB488088502802DD5020A949A7
:1008A0008880BDE8F08110B5012009F01BFC68B11B
:1008B0000024FFF79DFC04460120A449087020464F
:1008C000FFF79AFC012009F01EFC00BF10BD30B1FB
:1008D0009C49C98A491C8AB29A49CA8205E0994949
:1008E000C98A491E8AB29749CA8296494882C98AEA
:1008F0003F2907DD18B100229249CA8202E03F2257
:100900009049CA8270472DE9F041002000E0401C68
:100910007828FCDB8A48806886B28948806887B27C
:1009200007F0020706F4804627B90EB9012405E056
:10093000002403E00EB9002400E0012484F0010447
:100940002046FFF7C4FF7F48C5697F4801687D489E
:10095000C1617D4801682846FFF75AFE0546FA2D19
:1009600003D90121774881820DE02DB14FF4FA704F
:10097000B0FBF5F1734881827248808A502802DD0D
:10098000502170488182BDE8F08110B5022009F045
:10099000A9FB68B10024FFF72BFC044601206B493A
:1009A00048702046FFF728FC022009F0ACFB00BF8E
:1009B00010BD10B5FFF7CAFE00240DE0614901EB40
:1009C00004110C8000205F4901EB0411C8805D49CF
:1009D00001EB04110881641C022CEFD310BD014609
:1009E000C8880A89904203D0C888088101207047CE
:1009F0000020FCE770B504460026022C02DD4FF60D
:100A0000FF7070BD4F4800EB0410C088401C85B2D9
:100A1000FFF7EEFB06464E4830F81400A84200DA15
:100A20000025484800EB04100581464800EB0410FF
:100A3000C5803046FFF7E0FB2846E2E70146414823
:100A400000EB01100089704770B504460D46002682
:100A5000022C02DD4FF6FF7070BD3D4830F81400E7
:100A6000A84202DA3A4830F81450FFF7C1FB0646B4
:100A7000344800EB04100581324800EB0410C580B7
:100A80003046FFF7B9FB2846E6E770B58AB000208C
:100A900009900026FFF7ACFB064600241BE02B481C
:100AA000005D20B12948005D401C284908552748B1
:100AB000005D032803D1012009A9085509E0234856
:100AC000005D1C2805D1002020490855022009A9F5
:100AD0000855601CC4B2022CE1DB3046FFF78CFBEA
:100AE0009DF82400012802D1FFF7A0FE17E09DF831
:100AF0002400022813D11349498809B1012100E0DB
:100B000000210846FFF778FE0E48C0884FF6FE71B8
:100B100008400C49C8800846C088401E08819DF8DE
:100B20002500012802D1FFF7EEFE24E09DF8250004
:100B3000022820D10349498A61B101210BE000005C
:100B400000100140200500201400002018000020A3
:100B50007A0A020800210846FFF7B9FE1548C08A44
:100B60004FF6FE7108401349C8820846C08A401EED
:100B700081B210480183002518E00E4901EB0510F1
:100B8000FFF72DFF88B104208DF80000094800EB25
:100B90000513D3E90012D3E90203CDE90403CDE93B
:100BA0000212684601F0ECF800BF6D1C022DE4D380
:100BB0000AB070BD2005002010B50346002004E0F7
:100BC000141A641E0C5D1C54401C9042F8D310BDD6
:100BD00030B502460B464FF0FF3002B103B930BDCD
:100BE000002108E0C4B2555C6C40734D55F82440B8
:100BF00084EA1020491C9942F4D3C04300BFEEE7B9
:100C000070B502460C46FF25FF2312B94FF6FF7060
:100C100070BD09E012F8010B80EA03016748405CEF
:100C200080EA05036648455C201EA4F10106B4B2C3
:100C3000F0D143EA0520EBE72DE9F04F03460C46DF
:100C4000944600221D680026DFF87891012C57DDBC
:100C5000601E53F82020342090FBF4F000F10608C9
:100C600046E04E44C6F3810700211FE0481C53F8BC
:100C70002050500980EA85004FEAD50A8AEA021A14
:100C8000504486EA050A01F0030B8BEA070B5CF877
:100C90002BB08BEA020BDA4480EA0A0053F821A059
:100CA000504443F8210053F82120491C601E88421B
:100CB000DCDC1D68500980EA85004FEAD50A8AEA23
:100CC000021A824486EA050001F0030B8BEA070B47
:100CD0005CF82BB08BEA020B58448AEA000A601ECB
:100CE00053F820008244601E43F820A053F82020CF
:100CF000B8F10000A8F10108B3DC0020BDE8F08FD6
:100D0000B4F1FF3F56DA6442601E53F820203420CD
:100D100090FBF4F000F1060808FB09F646E0C6F384
:100D20008107611E20E0481E53F82020500980EA08
:100D300085004FEAD50A8AEA021A504486EA050A73
:100D400001F0030B8BEA070B5CF82BB08BEA020B6C
:100D5000DA4480EA0A0053F821A0AAEB000043F825
:100D6000210053F82150491E0029DCDC601E53F895
:100D70002020500980EA85004FEAD50A8AEA021A43
:100D8000504486EA050A01F0030B8BEA070B5CF876
:100D90002BB08BEA020BDA4480EA0A00D3F800A0F9
:100DA000AAEB000018601D68A6EB0906002EB6D15C
:100DB0000020A3E70120A1E7900A0208900E020894
:100DC000900F0208B979379E2DE9F04106460427B5
:100DD00009F0C1F909F02BFC04466EB1E04340F084
:100DE000C005C020A043C02815D009F07EFA2846CF
:100DF00009F03BFB00F0B3FA44F0C000C54364F0D7
:100E0000C000401C38B109F070FA15B1284609F04D
:100E10002CFB00F0A4FA09F0AAF9BDE8F0812DE955
:100E2000F74F044690460426DDF804B028F003008E
:100E3000404502D0701FBDE8FE8FE40AE40204EBD7
:100E4000080909F088F908F2FF704FEAD02A352026
:100E500009F01CFC002707E04FF4006101FB07408C
:100E600009F0BEF906467F1C574501D2042EF3D087
:100E7000042E00D026E02546002708E038467F1CD7
:100E80005BF82010284609F07BFA06462D1D4D45DB
:100E900001D2042EF2D0042E00D013E02546042601
:100EA000002708E02A6838467F1C5BF82000824251
:100EB00000D002262D1D4D4501D2042EF2D109F09D
:100EC0004AF900BF042E02D04FF0FF30B3E70020F4
:100ED000B1E770B5044634B10C252A46FA492046DC
:100EE0001EF0B7FA00BF70BD2DE9F041074600269D
:100EF000F64D002415E055F82400401C78B9601C1C
:100F000055F82000401C50B9A01C55F82000401C8A
:100F100028B9E01C55F82000401C00B903E0361D3C
:100F2000641CBE42E7D300BF3146E848FFF750FEDD
:100F3000BDE8F0812DE9FF4104460D4616461F46E7
:100F400004B125B94FF0FF3004B0BDE8F08195E859
:100F500007008DE8070003964FB19DE80F0084E875
:100F60000F006A4604212046FFF766FE06E0D848D7
:100F700020606A4601212046FFF75EFE0020E3E77D
:100F80002DE9F0438BB006460F46154626B94FF0C3
:100F9000FF300BB0BDE8F0834FF00409E84696E857
:100FA0000F0001AC0FC417B1CA48009009E0C8484F
:100FB00000900020CDE9065001AA022106A8FFF703
:100FC0003BFE00200890002405E058F82410089803
:100FD00048400890641C082CF7D309F0BCF8342072
:100FE00009F054FBBC4809F0FBF88146E8460024B0
:100FF00010E058F82410B84A02EB840009F0C0F958
:101000008146B9F1040F04D009F0B1F84FF0FF3078
:10101000BFE7641C0A2CECD309F0A9F80020B8E75C
:101020002DE9F04387B005468846AB4CAB480068D5
:10103000401CB0B9AA48FFF74CFF4FF0FF30FFF754
:1010400053FFA649086000230846A5490268A54841
:10105000FFF770FF0123A148A1490268A248FFF7EA
:1010600069FFA248007800287CD19949206888420D
:1010700003D098492068884267D1DFF85C92002746
:10108000002603E059F826004740761C082EF9D3C5
:10109000206AB84258D18E492068884238D1914898
:1010A00000686168884224D1D4E90601CDE90401D1
:1010B000221D6FF0010104A8FFF7BEFD0020DDE94D
:1010C0000421D2F10302884103D204208749087029
:1010D0000EE0844B0FCB8DE80F0004994A1C4FF0B3
:1010E00000016846FFF74CFF01208049087000BFEF
:1010F0002AE07C4B0FCBCDE90423CDE90201042289
:10110000002102A8FFF73CFF0420784908701BE08B
:101110001022211D74481EF0DCF818B90320734911
:10112000087011E06F4BD3E901211868DB68CDE945
:101130000413CDE902020422002102A8FFF720FFD8
:1011400004206A49087000BF0CE0664B0FCB02AE6A
:101150000FC60022114602A8FFF712FF01206349C3
:10116000087000BF61480078012831D160480168EB
:1011700060480068FFF74CFA44F62061884227D99E
:10118000D4E90601CDE90401201D0FC88DE80F0048
:101190005748006857490860221D6FF0010104A8F4
:1011A000FFF74AFD0498421C4FF000016846FFF724
:1011B000E7FE0020DDE90421D2F10302884102D2DA
:1011C00004204A49087015B141460220A84700BFD3
:1011D00046480078042821D11022211D42481EF0E3
:1011E00078F828B903204149087007B0BDE8F083BA
:1011F00015B141460420A8473D4801683D480068B4
:10120000FFF706FA44F62061884207D9384800689B
:101210003849086015B141460520A84700BFE4E7FA
:1012200070B50446042508F096FF00BF342009F08D
:101230002DFA09F05AF80546042D00D006E02146A3
:1012400021481C3009F0EDF8054600BF00BF08F04A
:101250008EFF042D01D1002070BD4FF0FF30FBE761
:1012600019481C30007870472DE9F0414FF0040810
:101270000025214E214F4AF2A55031460880002416
:1012800004E036F81400284485B2641C082CF8D316
:101290001948058208F05FFF342009F0F7F9174874
:1012A00008F09EFF804600242CE036F814103846E3
:1012B00009F099F88046B8F1040F21D008F057FFE3
:1012C0000020BDE8F0810000E8F7FF1F00300008B3
:1012D00067452301EFCDAB8900900708240000206B
:1012E0005405002070050020600500201C0000202F
:1012F000140000202000002040050020009807086E
:10130000BF1C641C092CD0D308F031FF0120BDE8BC
:10131000F08170B50025184E1222184930461EF093
:1013200053F8304600884AF2A551884200D00EE0BA
:10133000002404E036F81400284485B2641C082C0C
:10134000F8D30D48008AA84200D170BD00BF0A48FA
:10135000801C02F072FBFFF787FF00BFF5E708482B
:10136000006800F4E06007490843001D0449086074
:10137000BFF34F8F00BFFEE740050020009807082D
:101380000CED00E00000FA052DE9F04707460C4699
:10139000164698464FF0000917B10CB1002E03DA3B
:1013A0004FF0FF30BDE8F087FEF722FF814606EBE5
:1013B0004600C10020461EF0A8F8142138461EF051
:1013C000A4F8002510E005EB450004EBC000A0F8F0
:1013D0000C8005EB450004EBC000183005EB45011F
:1013E00004EBC10108616D1C701EA842EBDC0020FB
:1013F00005EB450104EBC10108617E603C60484695
:10140000FEF7FAFE0020CDE770B504460026002561
:101410000CB9002070BDFEF7EBFE0646206828B12F
:101420002568286920600020686128613046FEF741
:10143000E3FE2846EEE72DE9F04106460C46174646
:1014400006B11CB94FF0FF30BDE8F0814FF0000845
:1014500017B106F10C0001E006F110000546FEF799
:10146000C7FE8046286818B92C606461246109E0D1
:1014700028682061286840690461286840696061C3
:10148000286844614046FEF7B7FE0020DCE72DE9FE
:10149000F04105460F464FF00008002615B9002020
:1014A000BDE8F08117B105F10C0001E005F1100075
:1014B0000446FEF79DFE8046206808B9002618E025
:1014C0002668206800692168884202D100202060D7
:1014D0000CE020684069216809694861206800695A
:1014E00021684969086120680069206000207061F6
:1014F00030614046FEF780FE3046D1E770B50446C5
:101500000D4604B115B94FF0FF3070BD0026FEF74F
:101510006FFE06462068286125603046FEF76CFEA7
:101520000020F2E72DE9F04104460D46164600275B
:1015300004B11DB94FF0FF30BDE8F081FEF758FE51
:101540000746182120461DF0E0FF25607008A060C6
:10155000A068284460603846FEF74EFE0020EBE7A6
:101560002DE9F04704460F4615464FF00008C146E6
:1015700004B11FB94FF0FF30BDE8F087FEF738FE29
:1015800080466169A068461AB54202D94FF0FF391A
:1015900029E0E0682844A16888420FD9D4E9020113
:1015A000461AE26821688818324639461DF00CFF59
:1015B000AA1BB91920681DF007FF06E0E268216840
:1015C00088182A4639461DF0FFFEE0682844E0608E
:1015D000D4E90210B0FBF1F201FB1200E060606997
:1015E0002844606100BF4046FEF706FE4846C3E758
:1015F0002DE9F04104460D46002714B90020BDE84E
:10160000F081606908B90020F9E7FEF7F1FD0746AF
:10161000D4E904010844A168884211D92169A0686D
:10162000461A23692268D118324660681DF0CCFE44
:1016300063699A1BD4E9001398191DF0C5FE06E0F2
:10164000266923689919626960681DF0BDFED4E9B6
:10165000040108442061A1682069B0FBF1F201FB9C
:10166000120020610DB16069286000206061384679
:10167000FEF7C2FD6068C2E7F0B5024692F8284066
:1016800004F0070600210DE0FA4C605CFA4C54F8B7
:10169000204034B1F94C34F81040F74D55F8205043
:1016A0002C61491C0429EFD3002342E0F14FF85C80
:1016B000F14F57F8207047B1F04F37F81070DFF84E
:1016C000B8C35CF820C0CCF81470002100E0491CBD
:1016D0002829FCD300BF00BF00BF0024002113E075
:1016E000E74F57F82170BF68DFF898C33CF811C086
:1016F00007EA0C050DB1012700E000273D4605FA79
:1017000001F72743BCB2491C0329E9D3DA4F57F844
:10171000207047B1D94F37F81070DFF85CC35CF820
:1017200020C0CCF8107002F1080707EB8607FC54C4
:101730005B1C042BBAD3946A641C9462F0BDF0B5B0
:1017400003460C46FF260025002114E000220BE092
:1017500003EB8100875C481C03EB8000805C8742C0
:1017600001D06D1C02E0521C042AF1DB00BF042AE8
:1017700000D10E46491C0729E8DB052D01DD0020BC
:10178000F0BD082E01DB0020FAE703EB86000068BD
:1017900020600120F4E770B502460D46002366E0A4
:1017A000581CC4B25FE002EB8300407800F0F00008
:1017B00002EB8406767806F0F006B04251D10021A3
:1017C0000FE002EB8300407800F00F0002EB81068F
:1017D000767806F00F06B04201D1012070BD481C9A
:1017E000C1B29942EDDB581CC1B20FE002EB83009D
:1017F000407800F00F0002EB8106767806F00F06C5
:10180000B04201D10120E9E7481CC1B2A942EDDB99
:1018100000210FE002EB8400407800F00F0002EBA3
:101820008106767806F00F06B04201D10120D5E797
:10183000481CC1B2A142EDDB601CC1B20FE002EB5B
:101840008400407800F00F0002EB8106767806F005
:101850000F06B04201D10120C0E7481CC1B2A94225
:10186000EDDB601CC4B2AC429DDB581CC3B2681EE9
:10187000984295DC0020B1E72DE9F05F074697F824
:10188000280000F0070007287ED1394607F108003C
:10189000FFF755FF8346BBF1000F02D10020BDE8E2
:1018A000F09FB94607F1040A07F12C08002400252F
:1018B0005FE00020002119F805201AF8053082EABF
:1018C000030019F805201AF8053002EA030160B395
:1018D000002628E00122B24002401AB3082C00DBA7
:1018E0004AE0F02202EA051206F00F031A4308EB61
:1018F00084035A7005EB4502634B1A44925D08F865
:10190000242019F805200123B3401A4022B10222F5
:1019100008EB84039A7003E0012208EB84039A70B9
:10192000621CD4B2761C032ED4DB09B300261DE062
:101930000122B2400A40C2B1082C00DB1CE0F022B8
:1019400002EA051206F00F031A4308EB84035A70EB
:1019500005EB45024C4B1A44925D08F82420EE2218
:1019600008EB84039A70621CD4B2761C032EDFDB72
:101970006D1C042D9DDB00BFD9F80000CAF80000E3
:10198000042C09DB214600E008E007F12C00FFF7FA
:1019900002FF08B1002082E7204680E700207EE7B2
:1019A00038B503208DF8020010208DF803000024C4
:1019B00012E0344830F81400ADF80000304951F816
:1019C0002400694609F0ECF92E4830F814002C493F
:1019D00051F824104861641C032CEAD300BF28206E
:1019E0008DF8030000240BE0264830F81400ADF811
:1019F0000000234951F82400694609F0D1F9641C1C
:101A0000032CF1D300BF38BD38B503208DF8020098
:101A100010208DF8030000240BE01C4830F814005F
:101A2000ADF800001A4951F82400694609F0B8F9E8
:101A3000641C002CF1D038BD38B503208DF80200AD
:101A400010208DF8030000240FE00C4830F814003B
:101A5000ADF80000084850F8240028B1064951F8B4
:101A60002400694609F09CF9641C042CEDD3002481
:101A700020E00000C2100208A4100208B4100208FE
:101A8000901002089C10020839000020C0100208C3
:101A9000BC100208964830F81400ADF800009548D4
:101AA00050F8240028B1934951F82400694609F000
:101AB00077F9641C002CEDD038BD002007E08E497A
:101AC00031F810108D4A52F820201161401C002876
:101AD000F5D0704700200BE0864951F8201031B155
:101AE000834931F81010834A52F820201161401CBC
:101AF0000028F1D0704700200BE07E4951F82010FB
:101B000031B17B4931F810107A4A52F82020116126
:101B1000401C0428F1D3704710B5FFF7ECFFFFF726
:101B2000D9FF10BD2DE9F04106460024375DFFF7CF
:101B3000C4FFFFF7CFFF00250BE00120A84038408D
:101B400030B16D4830F815006C4951F825104861E6
:101B50006D1C002DF1D0674850F8240030B1644866
:101B600030F81400634951F824104861601C70601B
:101B7000BDE8F08110B5FFF713FFFFF745FFFFF752
:101B80005BFFFFF7C9FF4C215D481DF0BEFC5D48BF
:101B90000021016041605C4801705C4801705C4854
:101BA000017010BD30B5034600230021554C60186C
:101BB0002AB1047801259D402C43047004E0057887
:101BC00001249C40A543057030BD0246002200213F
:101BD0004C48435C01209040184008B101207047F8
:101BE0000020FCE730B5034600230021464C601876
:101BF0002AB1047801259D402C43047004E0057847
:101C000001249C40A543057030BD10B541480168D2
:101C100041480068FEF7FCFCB0F5FA7F1ED90021B0
:101C20000FE0384B5818384B5A5C4AB13B4B1B7885
:101C30001BB103781343037002E0037893430370EE
:101C4000491C0029EDD0334B1B68334C2360334BC8
:101C50001B7883F00103314C237000BF10BD70B5B9
:101C60000446002504B1FF252748002101702A46BB
:101C7000012124481DF01FFC70BD25482249097828
:101C8000017022481F490978017070471E48204999
:101C9000097801701B481D4909780170704710B51B
:101CA0008AB01C48007800F00100D0B90024FFF78A
:101CB00004FF1348FFF7E0FC1148FFF7DDFD044681
:101CC000002C0DDD019401208DF80000A2000C49CC
:101CD0002C3102A81DF0BDFB684600F051F800BF92
:101CE00000BFFFF792FF0748FFF71CFF0AB010BDC7
:101CF000B4100208A4100208C0100208BC100208A8
:101D00008005002028000020300000203100002045
:101D10003200002014000020340000203800002091
:101D200010B50523082224492448FFF72DFB002481
:101D300016E0002004EB44011F4A02EBC1010872C7
:101D400004EB84001E4901EBC00004EB440142F89F
:101D50003100282004EB440102EBC1014860641CFF
:101D6000082CE6D310BD10B501211448FFF78FFBF6
:101D700010BD10B5044621461048FFF7BFFB10BD4B
:101D800070B50446002504B970BD0C48FFF73CFB54
:101D9000054675B12822214628681DF015FB012251
:101DA00029460648FFF747FB18B129460348FFF7C5
:101DB000A5FB00BFE8E700000C070020CC070020CF
:101DC000CC05002000B587B00121880309F02AFB6B
:101DD00003A80AF045FB4FF4E130039003A9AD4896
:101DE0000AF0D5FA0121AB480AF05DFB4FF4007010
:101DF000ADF8080003208DF80A0018208DF80B00BC
:101E000002A9A54808F0CCFF4FF48060ADF80800A7
:101E100004208DF80B0002A99F4808F0C1FF25207F
:101E20008DF8040004208DF8050000208DF80600D0
:101E300001208DF8070001A807F04DFF012240F2B4
:101E4000255194480AF03BFB0121084609F0DDFAD0
:101E500043F29000914948648E48001DC8640020F8
:101E600088640865012280218A480AF04DFB07B08A
:101E700000BD38B58748048804F0200010B904F08C
:101E8000080050B18348001D0088C0B200900122B4
:101E900069468348FFF764FB00BF38BD10B50023D7
:101EA000202280498048FFF76FFA4FF440727F4943
:101EB0007B48FFF737FB4FF480627D497D4800F097
:101EC0008BFAFFF77FFF10BDF0B585B0054600BF68
:101ED00000270020049004A97148FFF789FB0746FA
:101EE00007B92CE028E0002600200390029000248F
:101EF00002A903ABCDE9001039466E48049A00F000
:101F00007DFA064606B918E06748FFF77DFA0446F1
:101F10001CB930461DF0CDF80FE0266003986060D4
:101F2000012020720298A072012221465E48FFF72C
:101F300082FA0020049000BFD5E700BF00BF00BFB9
:101F400000BF00245C480078E8B15448006800F401
:101F5000005010B905B149E049E04E48008800F052
:101F6000400010B905B141E041E04FF480504B49C9
:101F700048605248007A18B1504908681DF099F835
:101F800000204D49087000214748FFF780FA0446B9
:101F90005CB36068002801DD206848B9207A20B170
:101FA000206810B120681DF084F805B11EE01EE025
:101FB0003A48406C20F00100384948646068886401
:101FC000206808650846406C40F001004864012024
:101FD000394908701822214638481DF03AFA21463E
:101FE0003148FFF78BFA05B100E000E0A9E700BF38
:101FF00000BF002401212C48FFF749FA044614B120
:10200000204605B0F0BD00BF0020FAE710B5044639
:1020100044B1207A10B120681DF04BF821462248C7
:10202000FFF76CFA10BD2DE9F04105460E469046CB
:102030001F46002415B9601EBDE8F0811A48FFF75D
:10204000E3F9044614B94FF0FF30F5E72560676007
:102050002672002221461448FFF7EDF90020EBE735
:1020600010B504461CB121460F48FFF747FA10BDD2
:102070004FF48060704710B5044604B910BD0020CD
:10208000A0810C206081214602480AF080F900BF3F
:10209000F4E7000000380140000801400000024061
:1020A000F40D0020E0070020E00A0020F40A0020E0
:1020B0000C0E00200C1200204500002024120020ED
:1020C00000B587B00121480409F0B9F903A80AF066
:1020D000C7F94FF4E130039003A9B4480AF057F967
:1020E0000121B2480AF0DFF90420ADF8080003200E
:1020F0008DF80A0018208DF80B0002A9AC4808F0F2
:102100004FFE0820ADF8080004208DF80B0002A94E
:10211000A74808F045FE26208DF8040004208DF81D
:10212000050000208DF8060001208DF8070001A8A9
:1021300007F0D1FD012240F225519C480AF0BFF979
:102140000121084609F061F943F2900099490860BD
:102150009648001D97498039C1F8880000209549AC
:10216000091D086093498039C1F88C000122802143
:102170008E480AF0C9F907B000BD38B58B4804880D
:1021800004F0200010B904F0080050B18748001D89
:102190000088C0B20090012269468748FFF7E0F945
:1021A00000BF38BD10B50523202284498448FFF7BD
:1021B000EBF84FF4407283497F48FFF7B3F94FF4CF
:1021C00080628149814800F007F9FFF779FF10BD6F
:1021D000F0B585B0054600BF00270020049004A993
:1021E0007548FFF705FA074607B92CE028E00026F6
:1021F000002003900290002402A903ABCDE9001057
:1022000039467248049A00F0F9F8064606B918E013
:102210006B48FFF7F9F804461CB930461CF049FF3B
:102220000FE0266003986060012020720298A0727F
:10223000012221466248FFF7FEF80020049000BF0B
:10224000D5E700BF00BF00BF00BF00246048007892
:10225000F8B158488038006800F0007010B905B136
:1022600051E051E05148008800F0400010B905B13C
:1022700049E049E04FF080704E4980394860554848
:10228000007A18B1534908681CF013FF0020504928
:10229000087000214A48FFF7FAF804468CB36068DA
:1022A000002801DD206848B9207A20B1206810B1EB
:1022B00020681CF0FEFE05B125E025E03D480068E1
:1022C00020F001003B490860091D60680860394939
:1022D00080392068C1F88C000846D0F8800040F0B2
:1022E000010034490860012039490870182221464C
:1022F00038481DF0AEF821463148FFF7FFF805B128
:1023000001E0FFE700E0A0E700BF00BF00240121DB
:102310002B48FFF7BCF8044614B1204605B0F0BDC9
:1023200000BF0020FAE710B5044644B1207A10B18E
:1023300020681CF0BEFE21462148FFF7DFF810BDE3
:1023400010B504461CB121461D48FFF7D7F810BD53
:102350004FF4806070472DE9F04105460E469046E7
:102360001F46002415B9601EBDE8F0811448FFF730
:102370004BF8044614B94FF0FF30F5E7256067606D
:102380002672002221460E48FFF755F80020EBE7A1
:1023900010B5044604B910BD0020A0810C20608156
:1023A0002146024809F0F3FF00BFF4E70044004073
:1023B0000008014080000240501800203C1200201C
:1023C0003C1500205015002068180020681C0020D3
:1023D00046000020801C002070B504460E461546BD
:1023E0000CB106B115B94FF0FF3070BD1821204671
:1023F0001DF08BF8266065600020F6E72DE9FF4FA1
:102400008DB0044691469A46DDF86880002700208A
:102410000C9014B1BAF1000F03D14FF0FF300C90C3
:1024200023E221696068401A484502D24FF0FF302C
:102430000C90B9F1000F2ED00E9818B94FF0FF3064
:102440000C90EDE7A06800EB09066068B04214D27A
:10245000D4E90101451AA268216888182A460E9914
:102460001CF0B2FFA9EB05020E9B591920681CF065
:10247000ABFFA9EB0500A06009E0A26821688818FD
:102480004A460E991CF0A0FFA0684844A06020694D
:102490004844206100BF00BF00200B900025BDE331
:1024A000E06828440A9061680A98B0FBF1F201FBE9
:1024B00012000A9021680A98085C09900998AA28D5
:1024C0007DD10026002008902069401B07900798C6
:1024D000072806DB606928B1A08AC0F30726207DA3
:1024E000089085E0E26850192168821C6368B2FB9D
:1024F000F3FC03FB1C228A5C042A78D1C21C6368AB
:10250000B2FBF3FC03FB1C228A5C002A6FD1421D44
:102510006368B2FBF3FC03FB1C228E5C821D6368C4
:10252000B2FBF3FC03FB1C228A5C0892079A082A80
:102530005DDBD4F80CC0AC44CDF818C005F1070C35
:10254000D4F80CB00CEB0B034FF0000CCDF814C01A
:10255000069A10E0D4F804C0B2FBFCFB0CFB1B2C69
:10256000D4F800B01BF80CC0DDF814B08CEA0B0CEA
:10257000CDF814C0521C9A42ECD3D4F804C0B3FB7B
:10258000FCFB0CFB1B3CD4F800B01BF80CC0CDF8D6
:1025900010C0DDE904CBE3451BD005F1010CD4F8F4
:1025A00010B0ABEB0C0CC4F810C005F1010CD4F862
:1025B0000CB0DC44C4F80CC0D4F80CC000E03FE11F
:1025C000D4F804B0BCFBFBFE0BFB1ECCC4F80CC063
:1025D00028E3F6B2DDF820C00CF0FF0CCDF820C0E7
:1025E000DDF820C00CEB062CC4F814C000BF00BFFF
:1025F000F6B20898C0B20890089800EB0626083694
:102600006068B6EB500F11D9681C2169081A206167
:10261000681CE1680844E0606168E068B0FBF1F2C2
:1026200001FB1200E0600020606108E1079886422B
:1026300075DC082E75D100200690019601981CF0DB
:1026400009FD07461FB94FF0FF300C9007E30597CF
:10265000E06828440390701E2844E1680844029012
:102660000398049015E061680498B0FBF1F201FB57
:102670001200216811F800B0069880EA0B0006905D
:10268000059880F800B00598401C05900498401CFF
:102690000490029904988842E5D361680298B0FBDF
:1026A000F1F201FB1200216811F800B006985845BC
:1026B0001FD101200B90059880F800B02169019886
:1026C0002844081A2061E068411901980844E06034
:1026D0006168E068B0FBF1F201FB1200E060019874
:1026E000CAF80000B8F1000F18D00120C8F80000A7
:1026F00014E038461CF0DDFC0027681C2169081A2C
:102700002061681CE1680844E0606168E068B0FB33
:10271000F1F201FB1200E060002060618FE07FE0D9
:10272000FFE7059605981CF095FC07461FB94FF08A
:10273000FF300C9093E2E06828446168B0FBF1F24E
:1027400001FB120B7019E16808446168B0FBF1F2FB
:1027500001FB120006900698584507D9206800EB47
:102760000B01324638461CF02FFE11E06068A0EBEA
:102770000B000290206800EB0B013846029A1CF017
:1027800023FE029BF21AF81821681CF01DFE00BF00
:1027900000206061A6F10A0081B207F10800FEF78F
:1027A0002FFA049000200390B819811E022203A87A
:1027B000FEF702FABDF80C10049881421CD10120EA
:1027C0000B90216905982844081A2061E068411996
:1027D00005980844E0606168E068B0FBF1F201FB35
:1027E0001200E0600598CAF80000B8F1000F16D09A
:1027F0000120C8F8000012E038461CF05AFC0027FF
:10280000681C2169081A2061681CE1680844E060BE
:102810006168E068B0FBF1F201FB1200E0600EE0DD
:102820002069401B2061E0682844E0606168E0683E
:10283000B0FBF1F201FB1200E06001200B90F1E12E
:102840000998FA2870D12069A0EB050BBBF1070F9E
:102850006BDB002008900720039003981CF0FAFB24
:1028600007461FB94FF0FF300C90F8E13E46E06894
:1028700028440590A81DE168084404900598069036
:102880000FE060680699B1FBF0F200FB12102168BE
:10289000085C07909DF81C0006F8010B0698401C88
:1028A0000690049906988842EBD30220069009E02E
:1028B0000698385C9DF820100844C0B2089006982D
:1028C000401C069006980628F2D360680499B1FB74
:1028D000F0F200FB12102168085C07909DF82000C0
:1028E0009DF81C10884221D101200B909DF81C00FE
:1028F0003070206903992944401A2061E068284417
:1029000003990844E0606168E068B0FBF1F201FB04
:102910001200E0600398CAF80000B8F1000F18D068
:102920000520C8F8000014E024E013E038461CF04D
:10293000C0FB0027681C2169081A2061681CE16837
:102940000844E0606168E068B0FBF1F201FB12004E
:10295000E0600EE02069401B2061E0682844E060F0
:102960006168E068B0FBF1F201FB1200E060012059
:102970000B9057E1099800F0F000802879D1206988
:10298000401B08900898032874DBE06828440790EF
:10299000D4E9031000EB010B002006900798861C79
:1029A0000DE06068B6FBF0F100FB11602168085C87
:1029B00006900698FF2801D1B34602E0761C5E45DA
:1029C000EFD300BF0698FF2855D10798ABEB000066
:1029D000401C102810D90027681C2169081A2061A2
:1029E000681CE1680844E0606168E068B0FBF1F2EF
:1029F00001FB1200E06063E00798ABEB0000401CB5
:102A0000049004981CF026FB07461FB94FF0FF30D6
:102A10000C9024E1059701200B90079E0CE0606864
:102A2000B6FBF0F100FB11612068415C0598017074
:102A30000598401C0590761C5E45F0D921690498E4
:102A40002844081A2061E068411904980844E060AD
:102A50006168E068B0FBF1F201FB1200E0600498ED
:102A6000CAF80000B8F1000F02D00420C8F8000036
:102A700026E036E025E00798ABEB0000102810D3E5
:102A80000027681C2169081A2061681CE168084455
:102A9000E0606168E068B0FBF1F201FB1200E06009
:102AA0000EE02069401B2061E0682844E060616816
:102AB000E068B0FBF1F201FB1200E06001200B9036
:102AC0000EE02069401B2061E0682844E0606168F6
:102AD000E068B0FBF1F201FB1200E06001200B9016
:102AE000A0E00998A52871D12069A0EB050BBBF1E6
:102AF0000B0F6CDB002008900B20039003981CF058
:102B0000A9FA07461FB94FF0FF300C90A7E03E46E8
:102B1000E0682844059005F10A00E1680844049043
:102B2000059806900FE060680699B1FBF0F200FB93
:102B300012112068405C07909DF81C0006F8010BFC
:102B40000698401C0690049906988842EBD3012011
:102B5000069009E00698385C9DF820100844C0B241
:102B600008900698401C069006980A28F2D36068E0
:102B70000499B1FBF0F200FB12102168085C079089
:102B80009DF820009DF81C10884221D101200B9057
:102B90009DF81C003070206903992944401A206177
:102BA000E068284403990844E0606168E068B0FB8D
:102BB000F1F201FB1200E0600398CAF80000B8F1DE
:102BC000000F18D00620C8F8000014E024E013E03D
:102BD00038461CF06EFA0027681C2169081A20612B
:102BE000681CE1680844E0606168E068B0FBF1F2ED
:102BF00001FB1200E0600EE02069401B2061E068EC
:102C00002844E0606168E068B0FBF1F201FB12006B
:102C1000E06001200B9005E000BF6D1C2069A84218
:102C20003FF63EAC00BF2069A8420FD10B9868B9AF
:102C300000202061E0682844E0606168E068B0FB43
:102C4000F1F201FB1200E060002060610B9800B11E
:102C500003E0206900283FF71FAC00BF00BF1B98AE
:102C600010B11B990C980860384611B0BDE8F08F80
:102C700010B501460B78FC4C24680CB1092200E029
:102C80000722012002E00C5C6340401C9042FADB0A
:102C90000B5410BD2DE9FF4381B08846DDF830901C
:102CA0000024B8F1000F03D1002005B0BDE8F08387
:102CB000DDE9030100FB01F707F1100630461CF0C7
:102CC000C9F904460CB90020EFE7314620461CF054
:102CD000FAFBAA2020700420A0700020E070A6F16A
:102CE0000800009002226946601DFDF765FF20463E
:102CF000FFF7BEFF04F10805022201A92846FDF7EF
:102D00005BFF022203A9A81CFDF756FF022204A9BB
:102D1000281DFDF751FF3A464146A81D1CF054FB03
:102D2000B81D81B22846FDF76BFF0090A91DC81998
:102D300002226946FDF740FFB9F1000F01D0C9F842
:102D400000602046B1E7F8B506460F4614461D461A
:102D500023460122394630460095FFF79BFFF8BD18
:102D600070B505460C46ADB1A4B120461CF072F911
:102D7000064676B12246294630461CF025FB2346FE
:102D8000052201213046FFF74EF910B130461CF004
:102D900090F900BF70BD704770B505460C46ADB1E7
:102DA000A4B120461CF056F9064676B122462946C3
:102DB00030461CF009FB234605220121304601F074
:102DC0008EF910B130461CF074F900BF70BD2DE9CA
:102DD000F04105460E461446BDB1B6B1ACB1204631
:102DE0001CF038F907467FB12246314638461CF0C0
:102DF000EBFA2346052201213846D5F814C0E047F6
:102E000010B138461CF055F900BFBDE8F0812DE93E
:102E1000F04F8FB007460C4601200E901FB9801E60
:102E20000FB0BDE8F08F3D682878AA2802D04FF097
:102E3000FF30F5E7A8780C287AD1E878802878D197
:102E400000200C900D9000260B904FF001094FF0E0
:102E5000010A8346AA208DF830000C208DF832003C
:102E600080208DF8330001208DF83400A8790D28DA
:102E700060D2DFE800F05F0708165F245F5F5F380D
:102E80005F3A4B0000BFA8798DF8360008201CF08F
:102E9000E1F8064616B94FF0000950E008200B9003
:102EA0004DE008A8FEF715F84FF0000A0BAB0C2216
:102EB00008A948F20300FFF746FF06463FE000205E
:102EC0000A902CB1206918B12069804780B20A901D
:102ED0004FF0000A0BAB02220AA948F20500FFF7E7
:102EE00032FF06462BE000F050FE4FF0FF300A9014
:102EF000FDF7FAFF0A904FF0000A0BAB04220AA973
:102F000048F20B00FFF71FFF064618E00FF25C18AF
:102F10004FF0000A40461CF02CFA401C0BAB024656
:102F200041460A9048F20C00FFF70DFF064606E006
:102F300030E0C9E04FF0000900200E9000BF00BF54
:102F4000B9F1000F20D0FEB1BAF1000F06D00CA8E5
:102F5000FFF78EFE0C9830600D9870601CB93046FB
:102F60001CF0A7F810E0606918B930461CF0A1F811
:102F70000AE0D4F814C00522012130460B9BE0473B
:102F800010B130461CF095F8BBF1000F01D000F0F5
:102F9000FCFD99E0A878042865D100200D908046BA
:102FA0000E900222691D0DA8FDF706FE05F1080628
:102FB0000D98801E0D9080E04FF0000900200C90CD
:102FC0004FF0010A0B900A900990022231460BA89B
:102FD000FDF7F2FD0222B11C0AA8FDF7EDFD022269
:102FE000311D09A8FDF7E8FDBDF82C00A0F5004053
:102FF0000A3858BB06F1060B01A8FDF76AFF4FF02F
:10300000FF30FDF771FF0090012301A904A8009A89
:10301000FDF790FF1022594604A81CF05AF938B960
:10302000002008900022012104A8FDF7A9FF02E07A
:103030004FF0FF3008900CAB042208A948F20A00B8
:10304000FFF781FE814601200E9000E000BF00BF27
:10305000BAF1000F25D0B9F1000F22D084B948464B
:103060001CF027F81DE02DE04C00002059415F477F
:1030700055495F415544494F5F313830383035004C
:10308000606918B948461CF014F80AE0D4F814C076
:103090000522012148460C9BE04710B148461CF030
:1030A00008F8BDF82800BDF824104843801D80446E
:1030B00005F1080000EB080600BF0D988045FFF4FD
:1030C0007BAF01E000200E900E9808B10020A7E62B
:1030D0004FF0FF30A4E60020F949087070477047B0
:1030E0007047704701460022012003E00B5C134447
:1030F000DAB2401C0628F9DB0A5470477047704763
:10310000704700207047704770472DE9F041064630
:1031100000274FE006F1080000EB8705A878EE28AD
:1031200000D146E095F80080E64C00202060606009
:103130002081AA202070E248007860700720A070EB
:10314000A878012800D12071B8F1010F17D0B8F18B
:10315000020F20D1A878022801D1012000E0002030
:1031600001460A2004F0B1F8A878022801D1012014
:1031700000E0002001460A2001F008FC0CE0A878DD
:10318000022807D101F082F910B101F08CF901E0B9
:1031900001F085F900E00CE000BF01F07AF984F855
:1031A00005802046FFF764FD08212046FFF7D8FD83
:1031B00000BF7F1C7068B842ACD80120BDE8F08128
:1031C000704770B50446BF4D0DB9002070BD00209A
:1031D000286068602881AA202870B9480078687043
:1031E0000820A870207A2871A07B68712846FFF714
:1031F0003FFD08212846FFF7B3FDA07B00F0010644
:10320000208958B9608920B13146092001F0BEFB00
:1032100015E031460B2001F0B9FB10E020890128B0
:103220000DD1A08904F03AF8608920B1314613200D
:1032300001F0ACFB03E03146142001F0A7FB01F0E4
:1032400028F90120C2E770B505462C6820780528CA
:1032500001DB002070BD20789B4951F8200030B17F
:1032600020780A4652F8201020468847F2E70020CE
:10327000F0E70246002070470246002070470246F1
:103280000020704702460020704702460020704729
:10329000002070470020704701460020704701461B
:1032A0000020704770470246002070472DE9F04F1C
:1032B00087B081460E46B9F1000F03D1002007B058
:1032C000BDE8F08FD9F80040A07807280DD1E0784C
:1032D000502808D1A379DA106379D9102379D8104E
:1032E00000F0B8FC00E000BF0EE2A078062878D11C
:1032F000744D4FF0000A002006904FF0010B0120A2
:103300000590AA2028700620A8708020E87001206F
:103310002871E07846286BD008DC40280DD0412881
:1033200034D043285ED0442875D15EE0502873D055
:10333000802872D08128F7D1EFE014201BF08AFE9C
:10334000804600200590B8F1000F1ED000270CE049
:1033500004A9384601F099FC08F817709DF8100090
:1033600008EB47014870781C87B2072FF0DB06A8EE
:1033700002230722414600904FF4C860FFF78AFC01
:10338000824640461BF095FE00BFD0E006201BF0B1
:1033900061FE804600200590B8F1000F20D0002784
:1033A0000EE0F91D88B204A901F06FFCF81D08F8C1
:1033B00017009DF8100008EB47014870781C87B291
:1033C000032FEEDB06A8022303224146009040F2C1
:1033D0004160FFF75FFC824640461BF06AFE00BF7B
:1033E000A5E0CBE04FF0000BA1E04FF0000B9EE01A
:1033F000A079FF282BD10020049004201BF02AFE86
:10340000804600200590B8F1000F1FD004A801F0FD
:10341000E8FC00270AE085E027E046E008F817709E
:1034200004A8C05D08EB470148707F1C022FF5DB44
:1034300006A8032302224146009040F24660FFF7AF
:1034400029FC824640461BF034FE00BF0CE0207988
:103450000711607908B9012000E00020804641464C
:10346000384601F0B0FC00BF61E0207910B120794E
:1034700081280CD1607901F0D1FCA07901F0DDFC4C
:103480000021032003F065FD002005900CE0207969
:10349000012809D15020E8708120287101F0B9FC81
:1034A000687101F0C5FCA87141E01E201BF0D2FD3F
:1034B000804600200590B8F1000F2DD000271BE0BA
:1034C00048000020981C00205000002004A9384625
:1034D00001F02EFC07EB470108F801709DF8100081
:1034E00007EB4701414448709DF8110007EB470185
:1034F00041448870781C87B20A2FE7DB06A80323B3
:103500000A22414600904FF4D060FFF7C3FB824689
:1035100040461BF0CEFD00BF09E04FF0000B00203D
:10352000059004E04FF0000B0020059000BF00BFA5
:10353000059838B12846FFF79BFB082229463046FC
:10354000FFF745FCBBF1000F17D0BAF1000F14D004
:103550001EB950461BF0ADFD0FE0706918B950461A
:103560001BF0A7FD09E07769052201215046069B63
:10357000B84710B150461BF09CFDC5E0A078042868
:10358000FBD10020069080460222611D06A8FDF7AF
:1035900013FB04F108050698801E0690AFE04FF07B
:1035A000000A002005900120049000200390029062
:1035B00001900222294603A8FDF7FEFA0222A91C67
:1035C00002A8FDF7F9FA0222291D01A8FDF7F4FA75
:1035D000BDF80C0040F24262811A90420ED006DC27
:1035E000B0F5C86F08D0A0F24160D0BB05E0042957
:1035F0001BD03E295BD135E000BF00BF05F1060BB3
:1036000000270DE00BEB470251781BF8170001F083
:103610004EFB1BF81710012003F09BFC781C87B2AF
:10362000BDF808008742EDDB42E005F1060B0027FC
:1036300012E00BEB470252780AB1012200E00022AF
:1036400011461BF8170001F0BEFB1BF817100220F3
:1036500003F07FFC781C87B2BDF808008742E8DBE6
:1036600026E024E005F1060B00271BE007EB4700EE
:10367000584440788DF8000007EB470058448078A4
:103680008DF8010007EB47011BF80100009901F0DC
:1036900038FB07EB47001BF80010002003F059FC33
:1036A000781C87B2BDF808008742DFDB00E000BF6E
:1036B00000BF0498B8B1BAF1000F14D01EB950463B
:1036C0001BF0F7FC0FE0706918B950461BF0F1FCD5
:1036D00009E07769052201215046059BB84710B1E2
:1036E00050461BF0E6FCBDF80800BDF80410484346
:1036F000801D804404F1080000EB080500BF069817
:103700008045FFF44CAF00BF0120D8E570B50446FA
:103710000D46A07A012804D129462046FFF7C6FDB0
:1037200070BD0020FCE71CB5002000900190AA208D
:103730008DF800000C208DF8020080208DF8030029
:1037400000208DF8040002208DF806006846FFF77F
:103750008FFA08216846FFF71FFB1CBD1CB500202F
:1037600000900190AA208DF8000006208DF802003C
:1037700040208DF803006846FFF77AFA0821684672
:10378000FFF70AFB41208DF803006846FFF770FA47
:1037900008216846FFF700FB80208DF8030068468B
:1037A000FFF766FA08216846FFF7F6FA50208DF811
:1037B000030001208DF804006846FFF759FA08213C
:1037C0006846FFF7E9FA00208DF8040046208DF8DE
:1037D0000300FF208DF806006846FFF749FA08212C
:1037E0006846FFF7D9FA1CBD2DE9FE4304460F4693
:1037F000E0B28DF808008DF8097000200190072CC8
:1038000002DA4FF4C86506E00A2C02DA40F241659C
:1038100001E040F2426501A80223012202A90090C2
:103820002846FFF737FA0646B6B100220121304696
:10383000019BFEF7F8FB804630460199FFF7ACFA92
:10384000B8F1000F06D030461BF033FC4FF0FF30CC
:10385000BDE8FE830020FBE74FF0FF30F8E773B5CB
:1038600084B00446E0B28DF80C009DF814008DF889
:103870000D009DF815008DF80E000020029002A8A2
:103880000323012203A900904FF4D060FFF702FA4E
:103890000546A5B1002201212846029BFEF7C3FB85
:1038A000064628460299FFF777FA36B128461BF0FC
:1038B00000FC4FF0FF3006B070BD0020FBE74FF07A
:1038C000FF30F8E7FEB504460D46E0B28DF808007B
:1038D0008DF809500020019001A80223012202A9BD
:1038E000009040F24660FFF7D5F906469EB10022EF
:1038F00001213046019BFEF796FB074630460199B1
:10390000FFF74AFA2FB130461BF0D3FB4FF0FF30E0
:10391000FEBD0020FCE74FF0FF30F9E71CB5044680
:10392000AA208DF8000006208DF8020050208DF8A6
:10393000030081208DF8040001F06BFA8DF805007A
:1039400001F076FA8DF806006846FFF791F9082134
:103950006846FFF705FA00208DF804006846FFF777
:1039600087F908216846FFF717FA00201CBD10B53B
:1039700004462046FFF7D2FF10BD7CB505460C4635
:10398000AA208DF8000000208DF8010006208DF897
:1039900002001CB143208DF8030002E044208DF8A2
:1039A000030000208DF80400E8B28DF80500002027
:1039B0008DF806006846FFF75BF908216846FFF7B7
:1039C000EBF90CB9FFF7CAFE00207CBD10B5002151
:1039D000FF20FFF7D2FF10BD01B59DF800209DF834
:1039E00001109DF8020000F035F9002008BD10B567
:1039F0000446204600F0F3F9002010BD10B504463F
:103A0000204600F005FA002010BD01464FF0FF30BF
:103A1000704701464FF0FF30704701464FF0FF30CE
:103A2000704701464FF0FF30704701464FF0FF30BE
:103A3000704702464FF0FF30704770B504460525C9
:103A400005E06219511FA8B201F01CFA6D1C092D86
:103A5000F7DDA01D01F024FA04F10A0001F02DFAAF
:103A600004F10B0001F033FA04F10C0001F06FFADD
:103A700004F10D0001F075FA70BD01464FF0FF3002
:103A8000704701464FF0FF30704701464FF0FF305E
:103A9000704701464FF0FF3070474FF0FF307047DE
:103AA00002464FF0FF30704738B50446052505E063
:103AB0006A1FA15CA8B201F014FA6D1C092DF7DD94
:103AC000D4F80600009001F018FAA07A01F02DFA5F
:103AD000E07A01F033FA207B01F04DFA607B01F0CF
:103AE00058FA38BD10B52F48FFF7DEFF10BD10B5EE
:103AF0002D4801682D480068FCF78AFD642800D233
:103B000010BD29480068294908600E2128481BF08B
:103B1000DAFC2748FFF791FF0E22254925481BF0C4
:103B2000D8FB58B10E22224922481BF04DFC01203F
:103B3000214908701C480068204908601E48007828
:103B4000C8B1194801681D480068FCF761FD43F6DB
:103B5000982188420FD90E22124916481BF0B9FB52
:103B600030B10E2213490F481BF02EFCFDF77CFBF1
:103B700000201149087000BFC2E7704770477047C6
:103B8000704702460020704770470D48006800F4F7
:103B9000E0600C490843001D09490860BFF34F8FDE
:103BA00000BFFEE742050020140000206C0000204A
:103BB000BC1C0020AE1C0020640000206800002017
:103BC0000CED00E00000FA0508B510208DF80300A8
:103BD00002208DF802004020ADF8000069469C48A4
:103BE00007F0DEF800224021994807F08AF92020EA
:103BF000ADF800006946964807F0D2F8012220216E
:103C0000934807F07EF91020ADF80000694690480F
:103C100007F0C6F8012210218D4807F072F94FF421
:103C20008070ADF800006946894807F0B9F80022B5
:103C30004FF48071864807F064F98020ADF80000E9
:103C40006946834807F0ACF800228021804807F0DD
:103C500058F908BD2DE9F84F0746884691468DF87A
:103C600000808DF801708DF8029000228021784844
:103C700007F047F900224FF48071754807F041F9C9
:103C800000250BE001228021714807F03AF900225B
:103C900080216F4807F035F9681CC5B2202DF1DB93
:103CA00000243BE001221102694807F02AF90122B1
:103CB0008021674807F025F900228021644807F039
:103CC00020F9002626E01DF806B04FF0100A002566
:103CD0001CE00BEA0A0030B900224FF480715C4806
:103CE00007F00FF904E001221102594807F009F921
:103CF00001228021564807F004F90022802154480F
:103D000007F0FFF84FEA6A0A681CC5B2052DE0DB30
:103D1000701CC6B2032ED6DB601CC4B2022CC1DB01
:103D200000224FF480714A4807F0EBF800240BE0C2
:103D300001228021464807F0E4F80022802144480F
:103D400007F0DFF8601CC4B2022CF1DBBDE8F88F8D
:103D500010B540480078C0F3411400203E49087077
:103D60003E4908703E4908702CB93A48007800F086
:103D70001F00087015E0012C06D13648007800F0CD
:103D80001F00364908700CE0022C06D1314800783B
:103D900000F01F003049087003E000202D49087032
:103DA00010BD2D4802782D4801782D480078FFF786
:103DB00051FF28480078401C2649087000BFEFE7F3
:103DC00008B510208DF8030003208DF802000420B0
:103DD000ADF800006946234806F0E2FF08BD10B5C3
:103DE000044684F0010204211E4807F08AF810BD41
:103DF00008B510208DF8030003208DF802004FF461
:103E00000040ADF800006946114806F0C9FF08BD42
:103E100010B504460CB1012000E0002002464FF42A
:103E200000410B4807F06DF810BD10B5FFF7CCFE50
:103E3000002211461046FFF70DFFFFF7C1FF0120DA
:103E4000FFF7CDFFFFF7D4FF0020FFF7E1FF10BD24
:103E50000008014070000020730000207200002064
:103E6000710000200018014000B587B001218804CE
:103E700007F0E5FA03A808F0F3FA4FF4E1300390F5
:103E800003A9AC4808F083FA0121AA4808F00BFB0B
:103E90004FF48060ADF8080003208DF80A00182068
:103EA0008DF80B0002A9A44806F07AFF4FF40060D9
:103EB000ADF8080004208DF80B0002A99E4806F01A
:103EC0006FFF27208DF8040004208DF805000020E6
:103ED0008DF8060001208DF8070001A805F0FBFE13
:103EE000012240F22551934808F0E9FA01210846E1
:103EF00007F08BFA43F290009049C8618D48001D8D
:103F0000486200200862886201228021894808F006
:103F1000FBFA07B000BD38B58648048804F02000DD
:103F200010B904F0080050B18248001D0088C0B2EA
:103F30000090012269468248FDF712FB00BF38BDA0
:103F400010B5052320227F497F48FDF71DFA4FF465
:103F500040727E497A48FDF7E5FA4FF480627C4969
:103F60007C48FEF739FAFFF77FFF10BDF0B585B04A
:103F7000054600BF00270020049004A97048FDF703
:103F800037FB074607B92CE028E000260020039005
:103F90000290002402A903ABCDE9001039466D4818
:103FA000049AFEF72BFA064606B918E06648FDF7B4
:103FB0002BFA04461CB930461BF07BF80FE0266054
:103FC00003986060012020720298A07201222146AD
:103FD0005D48FDF730FA0020049000BFD5E700BF30
:103FE00000BF00BF00BF00245B480078E0B1534829
:103FF000006800F0200010B905B148E048E04D48E5
:10400000008800F0400010B905B140E040E0102009
:104010004A4948605148007A18B1504908681BF075
:1040200048F800204C49087000214748FDF72FFA56
:1040300004465CB36068002801DD206848B9207A36
:1040400020B1206810B120681BF033F805B11EE0E4
:104050001EE03A48C06920F001003849C861606834
:104060000862206888620846C06940F00100C861A3
:104070000120394908701822214638481BF0E9F917
:1040800021463148FDF73AFA05B100E000E0AAE721
:1040900000BF00BF002401212B48FDF7F8F90446BA
:1040A00014B1204605B0F0BD00BF0020FAE710B5FE
:1040B000044644B1207A10B120681AF0FAFF214674
:1040C0002148FDF71BFA10BD10B504461CB121466E
:1040D0001D48FDF713FA10BD4FF4806070472DE9BD
:1040E000F04105460E4690461F46002415B9601E55
:1040F000BDE8F0811448FDF787F9044614B94FF084
:10410000FF30F5E7256067602672002221460E48E1
:10411000FDF791F90020EBE710B5044604B910BD96
:104120000020A0810C2060812146024808F02FF970
:1041300000BFF4E700480040000C014000000240CE
:10414000E0220020CC1C0020CC1F0020E01F00201B
:10415000F8220020F82600207400002010270020FC
:1041600010B5002046E0002141E000EB4002BD4BCD
:1041700003EBC20232F92120C2EB02124FF40773A3
:1041800003EB42125B0092FBF3F212B200EB40032E
:10419000B44C04EBC30323F8212000EB4002234678
:1041A00003EBC20202EB8102B2F90220C2EB02125F
:1041B0004FF4077303EB42125B0092FBF3F212B26F
:1041C00000EB400304EBC30303EB81035A8000EBD5
:1041D0004002234603EBC20232F82120A03212B281
:1041E00000EB400304EBC30323F82120491C0529FD
:1041F000BBD3401C0328B6D3002046E0002141E099
:1042000000EB8002984B03EB820232F92120C2EBD3
:1042100002124FF4077303EB42125B0092FBF3F2BE
:1042200012B200EB8003904C04EB830323F82120AF
:1042300000EB8002234603EB820202EB8102B2F91B
:104240000220C2EB02124FF4077303EB42125B0031
:1042500092FBF3F212B200EB800304EB830303EB57
:1042600081035A8000EB8002234603EB820232F87E
:104270002120A03212B200EB800304EB830323F869
:104280002120491C0429BBD3401C0328B6D300209D
:1042900045E000EB4001754A32F82110C1EB0111F5
:1042A0004FF4077202EB4111520091FBF2F100EB67
:1042B00040026E4B23F8221000EB40011A4602EB3D
:1042C00081014988C1EB01114FF4077202EB4111E2
:1042D000520091FBF2F100EB400203EB82025180AD
:1042E00000EB40011A4602EB81018988C1EB011104
:1042F0004FF4077202EB4111520091FBF2F100EB17
:10430000400203EB8202918000EB40011A4632F832
:104310002110A03100EB400223F82210401C042899
:10432000B7D310BD70B56FF07F4005F0F4FA40F2DE
:10433000DF1340F21F320021084605F025FA002461
:1043400029E004EB4401474A02EBC101897D4FF4A7
:104350007F0202EA014104EB4402424B03EBC2023A
:10436000527D4FF47F4303EA0222114304EB4402DF
:104370003C4B03EBC202127D41EA020005F0CBFA8E
:1043800004EB4401374A02EBC10000231A46052121
:1043900005F0E6F9641C032CD3D3002429E004EBD8
:1043A0008401314A02EB8101897C4FF47F0202EAE9
:1043B000014104EB84022C4B03EB8202527C4FF44C
:1043C0007F4303EA0222114304EB8402264B03EBF2
:1043D0008202127C41EA020005F09DFA04EB84019E
:1043E000214A02EB810000231A46042105F0B8F9A6
:1043F000641C032CD3D3002430E004EB44011B4A9B
:1044000002EB8101897A4FF47F0202EA014104EB59
:104410004402164B03EB8202527A4FF47F4303EAC5
:104420000222114304EB4402104B03EB8202127A86
:1044300041EA020005F06FFA04EB44030B4D05EB73
:1044400083039A8804EB440305EB8303598804EB48
:10445000440335F8230005F05DFB641C042CCCD329
:1044600070BD000078000020C0000020FC0000208B
:104470000246914201D3881A7047C2F1FF300844C6
:10448000FAE7002044498871C871704742480079B2
:10449000704710B50FF0A9F93F49086010BD012021
:1044A0003D494871704702203B4948717047704749
:1044B00010B53948007900B110BD3748807910B97E
:1044C000FFF730FF02E0002003F08AFA01203249B2
:1044D000087100BFF0E710B52F48007900B910BD92
:1044E000012003F07DFAFFF7D4FF00202A4908716C
:1044F00008F097FF044608F0A4FF00BFEFE770B58F
:104500002548C079062818DA2348C079234951F88C
:104510002040002572B60FF068F906461E4908686B
:104520003146FCF775F8054662B61B48007918B9A4
:10453000A54201D3FFF7BCFF00BF1748407901280F
:1045400005D1FFF7B5FF00201349487108E0124874
:104550004079022804D1FFF7BEFF00200E494871C0
:1045600070BD0146072902DB4FF0FF3070470A4853
:10457000C1710020FAE70146022902DB4FF0FF304B
:104580007047054881710020FAE70348C0797047F9
:1045900001488079704700002C010020E0100208DB
:1045A00010B502231022AD49AD48FCF7EDFE4FF4E3
:1045B0000072AC49AC48FCF7B5FF002019F02AF9AD
:1045C000AA48046800BFA94801682046FCF720F803
:1045D0006428F8D3012019F01DF919F0BEF819F07C
:1045E00079F819F009FF10BD70B504460D462A464A
:1045F00021469D48FCF7B4FF70BD9D480068052822
:1046000001D1012070470020FCE72DE9F04105466B
:104610000E46174698460024FFF7EFFF10B9601EBC
:10462000BDE8F08115B94FF0FF30F9E78C48FCF791
:10463000EBFE044614B94FF0FF30F1E72560C4F8F3
:1046400004802672A781002221468548FCF7F3FEEC
:104650000020E5E72DE9F04105460C461646FFF738
:10466000CCFF08B9BDE8F081032E02D0042E00D0A3
:10467000F8E7ADB1A4B120461AF0ECFC074677B1DB
:104680002246294638461AF09FFE2346324601212B
:104690003846FFF7BAFF10B138461AF00AFD00BFDE
:1046A00000BFDFE7F8B5054600BF002700200090F7
:1046B00069466D48FCF79CFF074607B928E022E0F1
:1046C000002404201AF0C6FC064606B91EE0644821
:1046D000FCF79AFE04461CB930461AF0EAFC15E0D5
:1046E0003868306026600420606001202072082055
:1046F000A072012221465A48FCF79DFE0098001F37
:1047000000903F1D00BF00980428D9DA00BF00BF09
:1047100000BF00BF00245748007808B35448006821
:10472000052813D154488089032807D101201AF0A5
:10473000F5F820280AD005B169E069E002201AF0F6
:10474000EDF8202802D005B161E061E04A48007A26
:1047500018B1494908681AF0ACFC002045490870B6
:1047600000213F48FCF793FE0446002C4ED06068C1
:10477000002801DD206848B9207A20B1206810B1F6
:1047800020681AF096FC05B141E041E03848006825
:1047900005280AD0207A10B120681AF08AFC214638
:1047A0002F48FCF7ABFE85B331E00120314908709A
:1047B0001822214630481AF04CFE2F4880890328E1
:1047C00008D18120D4E900121AF012FC01201AF05D
:1047D000B7F814E028488089042808D18220D4E959
:1047E00000121AF005FC02201AF0AAF807E0207A5D
:1047F00010B120681AF05DFC00201E4908702146A7
:104800001748FCF77BFE05B101E0FFE700E081E718
:1048100000BF00BF002401211148FCF738FE044608
:104820000CB12046F8BD00BF0020FBE710B50446E0
:1048300044B1207A10B120681AF03BFC21460848A8
:10484000FCF75CFE10BD10B504461CB121460448BF
:10485000FCF754FE10BD0020704700002827002000
:10486000A8280020BC280020BC2A0020140000201A
:10487000F804002034010020D42A00202DE9F0475C
:1048800004460D4616461F46DDF82080301B401CAE
:10489000791B491C00FB01F9A9B2A0B203F0ACF8E6
:1048A000B0B203F0C1F84FF430507B49088049465C
:1048B000404604F089F90AF0EAFC0AF0E4FCBDE89D
:1048C000F0872DE9F04104460D4616461F46301B81
:1048D000401C791B491C00FB01F8A9B2A0B203F0EF
:1048E0008BF8B0B203F0A0F84FF430506A4908805A
:1048F000BDF81800414604F05CF8BDE8F08130B521
:1049000087B00446A5680020019001A902A802F022
:1049100060FE9DF80410681C81420DD25F4830F89B
:10492000250000B220805D4800EB8500408800B281
:1049300060800020207112E00120207102A830F870
:104940002500564921F8250000B2208002A800EB7E
:104950008500408801EB8501488000B26080FFF748
:1049600095FD08B100202071002007B030BD10B5C2
:1049700004464B48007820714A4800682060FFF7E1
:1049800085FD08B100202071002010BD454A10604F
:10499000434A1170704700B587B004A80EF02AFE94
:1049A00041480490414805900020069004A80EF06C
:1049B00026FE01A80EF0BCFE01208DF804003C4844
:1049C00002900020039001A80EF0B7FE0120039092
:1049D00001A80EF0B2FE07B000BD10B509F033F823
:1049E000FFF7D9FF10BD10B59EB018A810F004F85D
:1049F00064211A9848431899B0FBF1F408461A99B3
:104A0000431A22462BA108A81AF07AFB0020029034
:104A100002A903A802F0DDFD9DF8080078B108A8FE
:104A20001AF0A7FC08A94418BDF80E000090BDF8C4
:104A30000C309DF8082025A120461AF061FB29487A
:104A4000006818B12748006809F06CF808F0E9FC24
:104A50000446002114F0F1F9224908600846006874
:104A600070B108A91F48006813F0EDFF6FF0310026
:104A700000231A46194600901A48006809F090F978
:104A80001EB010BD10B501200EF0A6FE10BD10B571
:104A900010F02AF810BD0000FE07006CEC2A002080
:104AA0003C010020380100207D480008C348000870
:104AB000FF480008667265653A20256425252C208C
:104AC0007573696E673A2025640000003B20633AE5
:104AD0002025642C20783A2025642C20793A202542
:104AE000640000004001002030B50446202901D2B6
:104AF000002030BD80290AD2554AA1F1200000EBE8
:104B0000C00303EB801002EB4002901CF1E7C1F3FD
:104B10000722CBB2812A01DBD72A01DD0020E8E79A
:104B2000812B01DBDE2A01DD0020E2E742F22000DA
:104B30000144484A484B07E010888DB2A84201D191
:104B4000901CD6E702F591729A42F5D3981CD0E7F3
:104B500010B50446802903D21F2901D90C2010BDAD
:104B6000C1F30722CBB2812A01DBD72A02DD4FF045
:104B7000FF30F4E7812B01DBDE2A02DD4FF0FF304E
:104B8000EDE71820EBE72DE9F04780460F46B8F136
:104B9000000F00D017B90020BDE8F087002F03DA1E
:104BA00040461AF0E6FB07467F2F01DD0020F3E7C1
:104BB000464608EB0709294D43E0307840B200280B
:104BC00002DD3478761C0BE03078203884B24FF662
:104BD000FF7000EA042470782038204384B2B61CA9
:104BE000802C02DA2C706D1C20E0B4F5006F0BDA1B
:104BF000C4F3841040F0C000287004F03F0040F07F
:104C000080006870AD1C11E0B4F5803F0EDAE02042
:104C100040EA14302870C4F3851040F080006870BA
:104C200004F03F0040F08000A870ED1C0B48281AEB
:104C30007F2805DD4FF0FF3109A0FFF7A4FFABE7A8
:104C400000BF4E45B9D3002028700448A4E70000F7
:104C5000FC1002082A47020898970208002B00203F
:104C6000D7D6B7FBB9FDB3A40000000001460A295E
:104C700001DA08467047802904DB822902DAA1F1B3
:104C80007600F7E74FF0FF30F4E700B502460B4639
:104C90001046FFF7EBFF82B20C2A00DA13B94FF08F
:104CA000FF3000BDF948805C18700020F9E700B5BE
:104CB00002460B461046FFF7D9FF82B20C2A01DAF2
:104CC000072B02DB4FF0FF3000BDF048835400207B
:104CD000FAE702460020704770B504460A252A46C6
:104CE000EA4920461AF070FB70BD30B50546002435
:104CF00004E0295DA0B2FFF7DAFF641C0A2CF8DBA0
:104D000030BD03B502461046FFF7B0FF82B20C2A51
:104D100002DB4FF0FF300CBDDC48183800EB4200DE
:104D2000BDF8041001800020F5E70246002070471E
:104D300000B502460B461046FFF798FF82B20C2AD8
:104D400000DA13B94FF0FF3000BDD048183800EB3F
:104D50004200008818800020F6E770B5044614254C
:104D60002A46CA49183920461AF02EFB70BD38B5BC
:104D70000546002407E005EB44010988A0B2009134
:104D8000FFF7BFFF641C0A2CF5DB38BD00B50246F7
:104D90000B461046FFF76AFF82B20C2A02DB4FF087
:104DA000FF3000BDBA4883540020FAE70246022AC9
:104DB00000DA11B94FF0FF307047B4480C30805C16
:104DC00008700020F8E70246022A02DB4FF0FF30AD
:104DD0007047AE480C3081540020F9E702460020AD
:104DE000704710B50446002304E0E11898B2FFF7BD
:104DF000DDFF5B1C022BF8DB10BD10B50446002361
:104E000004E0E15C98B2FFF7DEFF5B1C022BF8DBED
:104E100010BD9E48183890F82600704701469B4800
:104E2000183880F82610002070470146002070478F
:104E30009648183890F8270070470146934818386C
:104E400080F8271000207047014600207047024676
:104E50000020704700207047002070470146002066
:104E6000704701460020704710B504462046FFF702
:104E700078FB002010BD10B504462046FFF77BFBF1
:104E8000002010BD0246092A07DC052A05DB21B1F6
:104E90007F48805C0870002070474FF0FF30FBE7D0
:104EA000014639B17B48007C7B4A52F820000860FB
:104EB000002070474FF0FF30FBE7014621B17748F3
:104EC000007A0870002070474FF0FF30FBE7014682
:104ED00021B17248407A0870002070474FF0FF30CF
:104EE000FBE70246092A05DC052A03DB68488154F2
:104EF000002070474FF0FF30FBE731B500240FE092
:104F0000654800EB8401042268461AF0E2F930B9E2
:104F100060490C740098FEF75FFD002038BD641CEA
:104F2000042CEDDB4FF0FF30F8E710B504465B488A
:104F300004722046FEF75BFD002010BD10B504464C
:104F4000564844722046FEF759FD002010BD014628
:104F500011B94FF0FF3070475148007A08700020B7
:104F6000F9E7014611B94FF0FF3070474C48407ADD
:104F700008700020F9E710B50446072C02DB4FF05B
:104F8000FF3010BD464804722046FFF76DFF002039
:104F9000F7E710B50446022C02DB4FF0FF3010BDDE
:104FA0003F4844722046FFF766FF0020F7E770B5E0
:104FB000054628460AF03AF90446206908F0B2FD91
:104FC00060690FF073FC002020616061A0612846D9
:104FD0000FF06CFC70BD2DE9F04397B006463046EB
:104FE00015F085FB85B2304609F023FA044694F8A3
:104FF000280028B9E06898B1E06802F0A0F978B11B
:105000002068B04206D1606820B129B2606802F021
:105010007CF905E0206818B129B2206802F075F922
:10502000606828B9E8B28DF859008DF8580015E08D
:105030002068B04209D1E8B28DF85800606815F0D8
:1050400056FBC0B28DF8590008E0E8B28DF859005F
:10505000206815F04CFBC0B28DF85800A07F16995F
:10506000FFF74FFEA07F1699FEF7F9FB00BFA0697E
:10507000002870D1304608F0CBF90746002113F024
:10508000DCFE2061206968B927E10000982E00202D
:10509000DC0100202C020020D09C020840020020ED
:1050A000783100203C200FF0E4FB6061606928B992
:1050B000206908F037FD002020610EE1276938469D
:1050C00008F0F7FA80464146606909F006FFD4E926
:1050D00004784146384608F044FA00BF08A86169E0
:1050E00009F0FBFE00218DF84C10606903906069A7
:1050F000019008A802904FF60C60ADF816004FF42E
:10510000FA60ADF814009DF81C0020F001008DF845
:105110001C000020ADF818009DF81C0020F00200D3
:105120008DF81C000020ADF81A00AFF27D1004903D
:10513000214601A80AF034F8A061A06950B920699D
:1051400008F0F0FC60690FF0B1FB002020616061A5
:10515000C3E000E000BFEDB2A069002871D0A07FDD
:10516000052825D006DC05286CD2DFE800F01011F8
:1051700012131400082866D004DC062832D0072851
:105180007FD149E080286BD081287AD169E000BFC7
:1051900000BF00BF00BFFC4951F825001BF088FA92
:1051A00007463A460B46F9A10FA819F0A9FF6EE091
:1051B000DFF8E09328461BF009FB80464FF07C5156
:1051C0001BF018FB074649461BF09EFA81464846ED
:1051D0001BF06EFA07463A460B46ECA10FA819F0F1
:1051E0008FFF54E0DFF8B09328461BF0EFFA8046BB
:1051F0004FF07C511BF0FEFA074649461BF084FA3B
:10520000814648461BF054FA07463A460B46DFA152
:105210000FA819F075FF3AE04FF00008C5F34707F3
:10522000302F04DADDA10FA819F06AFF03E0A7F11F
:1052300079004FFA80F84246DAA10FA819F060FF12
:1052400025E049E01DE0D04951F825001BF030FA77
:1052500007463A460B46CDA10FA819F051FF16E0BC
:1052600000BF05EBC50000EB0510802101EB8000BD
:10527000FF2190FBF1F73A46CCA10FA819F040FFAF
:1052800005E02A46C7A10FA819F03AFF00BF00BFEA
:105290001DB9C2A10FA819F033FF0FA9206913F09F
:1052A000D2FBE06848B16FF06300009000230A224F
:1052B000A168206908F074FD07E00A20009000232F
:1052C0000D22A168206908F06BFD0023B84A194639
:1052D000A0690EF095FB00BF00BF00BF012017B012
:1052E000BDE8F08370B50446204609F0A2F80546F3
:1052F000204602F024F80646A87F3146FFF746FD17
:10530000012070BD70B50546284609F092F80446A4
:10531000284612F0EAFF216A0E5CA07F3146FFF7B3
:10532000C6FC284612F0E1FF216A0E5CA07F3146E0
:10533000FEF75AFA012070BD70B5044614B94FF05B
:10534000FF3070BDA06968B10021A0690EF00FFBAD
:10535000A0690FF0ABFA0020A06160690FF0A6FA17
:10536000002060612646002507E056F8250018B1A8
:1053700056F8250007F0D7FA6D1C042DF5D3002050
:10538000DFE72DE9FF4F99B0884617461C46DDE957
:10539000289A2CB1199818B1279808B12A9820B9E1
:1053A0004FF0FF301DB0BDE8F08FB7F5487F02DD4C
:1053B0004FF0FF30F6E72C2120461AF0A6F8B9F19D
:1053C000070F01DD4FF00709A7832698A07784F81F
:1053D0001F9027982062C4F824A000208DF80400B4
:1053E00000260DE01EB173A101A819F0E1FF206AAB
:1053F000825D2A9850F8221001A819F0D9FF761C76
:105400004E45EFD30021199812F0FDFD054605B970
:10541000D2E0A56040F23B1239B2284608F0F5F818
:105420004FF0FF3101A8FFF7AEFB834659462846EF
:1054300012F03BFB0121284612F03FFF284608F0FE
:10544000C6FF0121D0F828B0584613F050FB28467B
:1054500008F0BDFF0121D0F828B0584613F0BEFB7C
:10546000284608F0B4FF6421D0F828B0584608F068
:105470007DFC0021199815F051FD054605B99BE00A
:105480004FF480727821284608F03AFCFF22002170
:10549000284601F042FF02220621284615F0FAFDB7
:1054A0000121284615F0CDFD0121284615F0D8FD33
:1054B0006FF01300009000230A222846A16808F02C
:1054C0006FFC2560012084F828000021199813F052
:1054D000B4FC064606B96FE00121304613F007FB25
:1054E000BAF1000F0FD131A111A8269A19F008FEC8
:1054F0004FF0FF3111A8FFF746FB8346594630466F
:1055000013F0A1FA09E04FF0FF315046FFF73BFBE3
:1055100083465946304613F096FA6FF48E70009029
:1055200000230A223046A16808F03AFCAFF2595134
:10553000206815F07DFDAFF23321A06812F053FE14
:105540000121A06808F018FEA346002610E05BF8D1
:10555000260060B15BF82600214608F053FEB8F142
:10556000000F04D05BF82610404607F0CAF9761CFD
:10557000042EECD38021206808F042FE8221A0682E
:1055800008F03EFE00200DE7BC980208252E31668B
:10559000444200000000CFC20000FFC26D75746578
:1055A0000000000025644442000000002564000063
:1055B0000CFEFFFF0A0000004FF0FF30F2E62DE97D
:1055C000FF4F99B0884616461C46DDE9289A1CB163
:1055D000199808B1279820B94FF0FF301DB0BDE8E9
:1055E000F08FB6F5487F02DD4FF0FF30F6E72C2153
:1055F000204619F08AFFB9F1070F01DD4FF00709C6
:10560000A6832698A07784F81F9027982062C4F874
:1056100024A000208DF8040000270EE027B1AFF28F
:105620006C0101A819F0C4FE206AC05DFD4A52F861
:10563000201001A819F0BCFE7F1C4F45EED30021BD
:10564000199812F0E0FC054605B92AE1A5604FF46F
:10565000917231B2284607F0D8FF4FF0FF3101A810
:10566000FFF791FA83465946284612F01EFA0121A7
:10567000284612F022FE284608F0A9FE0121D0F8A3
:1056800028B0584613F033FA284608F0A0FE01214E
:10569000D0F828B0584613F0A1FA284608F097FE33
:1056A0009621D0F828B0584608F060FB00211998E0
:1056B00015F034FC054605B9F3E04FF480723C2147
:1056C000284608F01DFBFF220021284601F025FE98
:1056D00002220321284615F0DDFC0121284615F0A1
:1056E000B0FC0121284615F0BBFC6FF013000090C0
:1056F000002309222846A16808F052FB2560216892
:10570000199815F00BFC054605B9CAE06FF01300B7
:10571000009000230B222846A16808F041FB656039
:105720004FF0000B0021199815F033FE074607B91A
:10573000B7E002220321384615F0ACFC3722542191
:10574000384608F0DDFA0F2000906FF009030C22B4
:105750003846A16808F024FBE7600021199813F08F
:105760006CFB83464FF0FF31AFA0FFF70CFA014608
:105770001890584613F067F9352000900A23062246
:105780005846A16808F00CFB2A98E8B1384615F095
:105790003FFD0021384608F0E6FCA64A00213846C5
:1057A00015F0F0FCA34A3C320121384615F0EAFC22
:1057B000A04A78320221384615F0E4FC9D4A78323E
:1057C0000321384615F0DEFC2A9884F828000021D1
:1057D000199813F032FB074607B962E001213846F9
:1057E00013F085F9BAF1000F10D1AFF2402111A8E2
:1057F000269A19F085FC4FF0FF3111A8FFF7C3F985
:1058000083465946384613F01EF909E04FF0FF3140
:105810005046FFF7B8F983465946384613F013F956
:105820008548009000230A223846A16808F0B8FA9B
:105830000121A06808F0A0FCAFF66501206815F012
:10584000F7FBAFF66D01606815F0F2FBAFF26B513C
:10585000E06801F06CFDAFF25351A06812F0C3FC98
:10586000A34600270DE05BF82700214608F0CAFC9C
:10587000B8F1000F04D05BF82710404607F041F85C
:105880007F1C042FEFD38021206808F0B9FC802111
:10589000606808F0B5FC8221A06808F0B1FC002027
:1058A0009CE64FF0FF3099E62DE9F04106460D46A3
:1058B000304607F0ADFD0746384608F0BAFD04460D
:1058C000A06810B90020BDE8F0815C49284619F0B5
:1058D000EEFC20B1207C0021FEF74FF803E0207C95
:1058E0000121FEF74AF8A06840B1A06807F01BF854
:1058F0000020A0606421384613F084FE0020E2E717
:105900002DE9F04186B00646304607F081FD074696
:105910000021384613F000FE0546304608F089FDA8
:105920000446304612F0E1FC207445480068C0B9D6
:105930004FF0FF3143A0FFF726F9804641463F482C
:1059400019F0F3FC4FF0FF3140A0FFF71CF980463F
:105950004146404819F0E9FC3848394908603D485B
:10596000486000223649284613F08DFE0020034689
:10597000012231460090284608F012FA207C421C91
:1059800035A102A819F0BCFB4FF0FF3102A8FFF7C8
:10599000FAF880464146284613F0B5FEAFF2F7010B
:1059A000284613F0BFFE2146284608F02BFCA560D0
:1059B000304607F07BFE48B1304607F077FE804660
:1059C000294606F09EFF284606F0D5FF012006B0C6
:1059D000BDE8F08110B5044614B94FF0FF3010BD9A
:1059E000206806F0A0FF606806F09DFFA06810B177
:1059F000A06806F098FF0020F1E710B50446FDF717
:105A0000E5FF012010BD2DE9FF4FA9B00F469046DC
:105A10009946369C0CB1299810BB4FF0FF302DB041
:105A2000BDE8F08F6C010020CDB3D2BBD2F4C1BF72
:105A300000000000882B0020FCFEFFFF84310020C6
:105A400058020020D4D8C8EB00000000B1A3B4E68F
:105A500000000000A4310020B4E6B4A225640000D8
:105A6000B8F5487F02DAB9F5F07F04DB4FF0FF307C
:105A70002DB0BDE8F08F1421204619F046FD00211D
:105A8000299813F0DAF905464FF0FF31FEA0FFF731
:105A90007AF806463146284612F0D5FF0FFA89F209
:105AA0000FFA88F1284607F0B0FDE56000208DF878
:105AB000240000260FE0721CF6A101A819F020FBBB
:105AC00026B1AFF2105109A819F072FC01A909A87A
:105AD00019F06EFC761C082EEDDB0021299812F0DF
