:020000040800F2
:1000000000F90020390200084102000843020008FC
:1000100045020008470200084902000800000000ED
:100020000000000000000000000000004B0200087B
:100030004D020008000000004F020008BD06000845
:10004000530200085302000853020008530200083C
:1000500053020008530200080B090008EF090008CA
:10006000530200085302000853020008530200081C
:10007000530200085302000853020008530200080C
:1000800053020008530200085302000853020008FC
:10009000E30002085302000853020008530200085C
:1000A00053020008530200085302000853020008DC
:1000B00053020008530200085302000853020008CC
:1000C00053020008530200085302000853020008BC
:1000D00053020008D71E0008DF2100085B4A000811
:1000E000099B000853020008EB00020800F002F828
:1000F00000F08BF80AA090E8000C82448344AAF137
:100100000107DA4501D100F080F8AFF2090EBAE834
:100110000F0013F0010F18BFFB1A43F0010318473B
:1001200058460300784603000A444FF0000C10F8CC
:10013000013B13F0070408BF10F8014B1D1108BF65
:1001400010F8015B641E05D010F8016B641E01F805
:10015000016BF9D113F0080F1EBF10F8014BAD1C55
:100160000C1B09D16D1E58BF01F801CBFAD505E073
:1001700014F8016B01F8016B6D1EF9D59142D6D3CD
:10018000704700000023002400250026103A28BFF5
:1001900078C1FBD8520728BF30C148BF0B607047F9
:1001A000662923F06482692921F06084642921F0A2
:1001B0005D84752921F05A846F2921F0F184782912
:1001C00021F016850368DB0928BF41F0800163290F
:1001D00022F07782E32922F08A82002070471FB53F
:1001E0009DE8030021F0AAFF22F0BAFA04000020E3
:1001F000002123F03DF8401C60600020002123F026
:1002000021F8E0601FBD10B510BD22F0C3FB114600
:10021000FFF7E5FF00F035F922F0E1FB03B4FFF74B
:10022000F2FF03BC22F012FCEFF3108072B67047AD
:1002300080F310887047000009488047094800474C
:10024000FEE7FEE7FEE7FEE7FEE7FEE7FEE7FEE786
:10025000FEE7FEE704480549054A064B70470000E3
:1002600057030008ED00000800E4002000F900201A
:1002700000F4002000F400200CB500200190009054
:100280006D48006840F480306B49086000BF6A48E0
:10029000006800F4003000900198401C0190009824
:1002A00018B90198B0F5A06FF1D16348006800F467
:1002B000003010B10120009001E000200090009873
:1002C000012843D15D48006840F010005B49086098
:1002D0000846006820F0030008600846006840F007
:1002E0000200086054484068534948600846406826
:1002F00048600846406840F48060486008464068AE
:1003000020F47C1048600846406840F4E8104860DB
:100310000846006840F08070086000BF46480068EA
:1003200000F000700028F9D04348406820F0030036
:10033000414948600846406840F00200486000BFFC
:100340003D48406800F00C000828F9D10CBD10B5FC
:10035000FFF792FF10BD10B53748006840F001006C
:1003600035490860084640683549084032494860C8
:1003700008460068334908402F490860084600686D
:1003800020F4802008600846406820F4FE004860A1
:100390004FF41F008860FFF7DAFF4FF000602A4932
:1003A00008602A48091D086010BD10B50021002012
:1003B0000022214B5B6803F00C0121B1042906D017
:1003C000082928D107E0224B224C236027E0204B4C
:1003D000204C236023E0184B5B6803F47010164B2D
:1003E0005B6803F48032022303EB904022B91A4B7E
:1003F0004343184C23600DE00F4B5B6803F400335C
:1004000023B1154B4343134C236003E0104B43438C
:10041000104C236003E00E4B0E4C236000BF00BF66
:10042000054B5B68C3F303130C4CE15C094B1B6881
:10043000CB40084C236010BD001002400020024059
:100440000000FFF8FFFFF6FE08ED00E00003FA05EC
:1004500000127A000000002000093D000400002086
:1004600010B545F255500DF0A3F803200DF0A3F898
:1004700040F635400DF0A2F80DF0A3F80DF0A6F807
:1004800010BD1CB54FF00008C146C246754801902A
:1004900001F078FC02F07AFF00F020F900F029F971
:1004A00000F069FF01F098FB00F0B5FA05F0B9F82B
:1004B00001F026FD01F0A8FE04F0E4FA04F04FFA82
:1004C00000F01DF904F0A2FE0AF075FD09F049FCE8
:1004D00009F021FA01220021084601F0B5FB05F0E0
:1004E00091FD0BF0D5FC04F0DDFB04F0E3FD40F6DC
:1004F000B83000F0C8F804F073F808F0D0FF09F045
:100500002DF94FF6FF7009F018F8FFF7A9FFA8E0E2
:100510000DF057F854480168484600F0ABF838B180
:100520005148D0F8009004F0E3FD08B905F0C4FD8F
:1005300004F019FE09F0BCF84B480168404600F091
:1005400099F8642802D94848D0F80080002001F0CA
:10055000EDFC0446002001F06DFE0090002004F048
:10056000A7FA0546002004F0D3FE064601F02DFC54
:10057000074617B1384602F0CAFF0CB33B49204684
:1005800002F0F9FC18B9204601F072FD18E04FF0B6
:10059000000B3649204603F054FE217A0022D4E9AC
:1005A000000304F03EFB8346BBF1000F04D0207A29
:1005B00010B1206821F0BDF9204601F083FD00BF95
:1005C0007DB30021284602F0D6FC88B92648016890
:1005D000019800F04FF842F21071884201D903F0FF
:1005E00060FE214800680190284604F002FB18E0F4
:1005F0004FF0000B0021284603F023FE297A002249
:10060000D5E9000301F041FD8346BBF1000F04D0A2
:10061000287A10B1286821F08CF9284604F0F6FAFF
:1006200000BF1EB10021304603F00BFE009801F020
:10063000ACFE384601F0CFFB304604F02DFF0A48EF
:100640000168504600F016F841F28831884204D320
:100650000548D0F800A003F009FE03F0C6FF02F041
:1006600085FC55E7E0B1FFFF14000020C03C020804
:1006700000BFFEE70246914201D3881A7047C2F1DB
:10068000FF300844FAE710B503461348046800BF7A
:10069000114801682046FFF7EDFF9842F8D310BDDE
:1006A000002105E0002200E0521C0A2AFCD3491C6C
:1006B0008142F7D3704770477047704710B50648BE
:1006C0000068401C0449086005F0F1FC01F019FBCA
:1006D00000F00DFA10BD00001400002010B501213B
:1006E00008070DF066F9012140F2FD100DF054F9F4
:1006F00010BD10B5012129480CF0DDFE10BD30B54C
:10070000274800684FF47A72B0FBF2F1B1F1807FB4
:1007100000D31DE021F07F40401E4FF0E0225061E9
:1007200050170F22002807DA13071D0E1D4B00F08B
:100730000F04241F1D5503E013071C0E1A4B1C54F5
:1007400000BF00204FF0E02290610720106100BF41
:1007500030BD3EB5124800681449B0FBF1F0401EB0
:1007600084B2012108460DF024F968460DF0FEFE22
:100770004FF6FF70ADF80400ADF800400020ADF872
:100780000600ADF8020069464FF080400DF0C2FB54
:10079000012188070DF01AFF3EBD00000002300065
:1007A0000000002018ED00E000E400E040420F00EF
:1007B0001FB504208DF80F0002208DF80E000120D7
:1007C000ADF80C0003A9F7480CF0A4FD4FF400505D
:1007D000ADF80C0003A9F3480CF09CFD00208DF847
:1007E000080010208DF8090001208DF80A00002172
:1007F00002200CF0A5FE0120019001A80BF0C6FE1E
:1008000001208DF8010000208DF8020001208DF8F4
:10081000030006208DF8000068460BF016FD02204C
:10082000ADF80C0003A9DF480CF074FD4FF48040D4
:10083000ADF80C0003A9DB480CF06CFD012102208F
:100840000CF07EFE0220019001A80BF09FFE072015
:100850008DF8000068460BF0F8FC1FBD28B1D249A6
:10086000C988491CD04AD18004E0CF49C988491EB3
:10087000CD4AD180CC494880C9883F2907DD18B1CD
:100880000021C94AD18002E03F21C74AD180704788
:100890002DE9F041C348806886B2C248806887B2BB
:1008A00007F0010706F4005627B90EB9012405E048
:1008B000002403E00EB9002400E0012484F00104C8
:1008C0002046FFF7CBFFB848C568B8480068B6496E
:1008D000C860B64801682846FFF7CCFE0546FA2DE9
:1008E00003D90120B04988800DE02DB14FF4FA7092
:1008F000B0FBF5F0AC498880AB488088502802DD19
:100900005020A9498880BDE8F08110B501200BF086
:10091000A3FE68B10024FFF787FC04460120A44928
:1009200008702046FFF784FC01200BF0A6FE00BFF4
:1009300010BD30B19C49C98A491C8AB29A49CA8201
:1009400005E09949C98A491E8AB29749CA829649DF
:100950004882C98A3F2907DD18B100229249CA821C
:1009600002E03F229049CA8270472DE9F041002001
:1009700000E0401C7828FCDB8A48806886B2894801
:10098000806887B207F0020706F4804627B90EB9DF
:10099000012405E0002403E00EB9002400E0012456
:1009A00084F001042046FFF7C4FF7F48C5697F48F3
:1009B00001687D48C1617D4801682846FFF75AFEFD
:1009C0000546FA2D03D90121774881820DE02DB12A
:1009D0004FF4FA70B0FBF5F1734881827248808A57
:1009E000502802DD502170488182BDE8F08110B5A9
:1009F00002200BF031FE68B10024FFF715FC04461D
:100A000001206B4948702046FFF712FC02200BF0D2
:100A100034FE00BF10BD10B5FFF7CAFE00240DE084
:100A2000614901EB04110C8000205F4901EB0411C6
:100A3000C8805D4901EB04110881641C022CEFD3CE
:100A400010BD0146C8880A89904203D0C888088131
:100A5000012070470020FCE770B504460026022CF8
:100A600002DD4FF6FF7070BD4F4800EB0410C088E8
:100A7000401C85B2FFF7D8FB06464E4830F81400FC
:100A8000A84200DA0025484800EB041005814648DA
:100A900000EB0410C5803046FFF7CAFB2846E2E7AA
:100AA0000146414800EB01100089704770B50446CB
:100AB0000D460026022C02DD4FF6FF7070BD3D484A
:100AC00030F81400A84202DA3A4830F81450FFF720
:100AD000ABFB0646344800EB04100581324800EBBE
:100AE0000410C5803046FFF7A3FB2846E6E770B543
:100AF0008AB0002009900026FFF796FB06460024E6
:100B00001BE02B48005D20B12948005D401C2849AE
:100B100008552748005D032803D1012009A908557D
:100B200009E02348005D1C2805D100202049085514
:100B3000022009A90855601CC4B2022CE1DB304632
:100B4000FFF776FB9DF82400012802D1FFF7A0FEF5
:100B500017E09DF82400022813D11349498809B1F0
:100B6000012100E000210846FFF778FE0E48C0880A
:100B70004FF6FE7108400C49C8800846C088401EE8
:100B800008819DF82500012802D1FFF7EEFE24E040
:100B90009DF82500022820D10349498A61B101212D
:100BA0000BE00000001001408C0800201400002021
:100BB000180000207236020800210846FFF7B9FE2F
:100BC0001548C08A4FF6FE7108401349C88208468E
:100BD000C08A401E81B210480183002518E00E49EA
:100BE00001EB0510FFF72DFF88B104208DF8000000
:100BF000094800EB0513D3E90012D3E90203CDE95C
:100C00000403CDE90212684601F0ECF800BF6D1C48
:100C1000022DE4D30AB070BD8C08002010B5034645
:100C2000002004E0141A641E0C5D1C54401C904209
:100C3000F8D310BD30B502460B464FF0FF3002B17D
:100C400003B930BD002108E0C4B2555C6C40734D5F
:100C500055F8244084EA1020491C9942F4D3C0433B
:100C600000BFEEE770B502460C46FF25FF2312B920
:100C70004FF6FF7070BD09E012F8010B80EA030126
:100C80006748405C80EA05036648455C201EA4F185
:100C90000106B4B2F0D143EA0520EBE72DE9F04FAD
:100CA00003460C46944600221D680026DFF8789122
:100CB000012C57DD601E53F82020342090FBF4F007
:100CC00000F1060846E04E44C6F3810700211FE00C
:100CD000481C53F82050500980EA85004FEAD50A95
:100CE0008AEA021A504486EA050A01F0030B8BEAED
:100CF000070B5CF82BB08BEA020BDA4480EA0A009F
:100D000053F821A0504443F8210053F82120491CF6
:100D1000601E8842DCDC1D68500980EA85004FEACD
:100D2000D50A8AEA021A824486EA050001F0030B1A
:100D30008BEA070B5CF82BB08BEA020B58448AEA6B
:100D4000000A601E53F820008244601E43F820A071
:100D500053F82020B8F10000A8F10108B3DC00200E
:100D6000BDE8F08FB4F1FF3F56DA6442601E53F8DD
:100D70002020342090FBF4F000F1060808FB09F66F
:100D800046E0C6F38107611E20E0481E53F820208C
:100D9000500980EA85004FEAD50A8AEA021A5044CF
:100DA00086EA050A01F0030B8BEA070B5CF82BB00F
:100DB0008BEA020BDA4480EA0A0053F821A0AAEB7E
:100DC000000043F8210053F82150491E0029DCDCC3
:100DD000601E53F82020500980EA85004FEAD50AAA
:100DE0008AEA021A504486EA050A01F0030B8BEAEC
:100DF000070B5CF82BB08BEA020BDA4480EA0A009E
:100E0000D3F800A0AAEB000018601D68A6EB090645
:100E1000002EB6D10020A3E70120A1E78836020802
:100E2000883A0208883B0208B979379E2DE9F041DB
:100E3000064604270BF049FC0BF0B3FE04466EB1E6
:100E4000E04340F0C005C020A043C02815D00BF0FF
:100E500006FD28460BF0C3FD00F0B3FA44F0C000D5
:100E6000C54364F0C000401C38B10BF0F8FC15B16C
:100E700028460BF0B4FD00F0A4FA0BF032FCBDE8FC
:100E8000F0812DE9F74F044690460426DDF804B0C2
:100E900028F00300404502D0701FBDE8FE8FE40A31
:100EA000E40204EB08090BF010FC08F2FF704FEAB3
:100EB000D02A35200BF0A4FE002707E04FF4006194
:100EC00001FB07400BF046FC06467F1C574501D24C
:100ED000042EF3D0042E00D026E02546002708E09B
:100EE00038467F1C5BF8201028460BF003FD0646B1
:100EF0002D1D4D4501D2042EF2D0042E00D013E05A
:100F000025460426002708E02A6838467F1C5BF83F
:100F10002000824200D002262D1D4D4501D2042E14
:100F2000F2D10BF0D2FB00BF042E02D04FF0FF3005
:100F3000B3E70020B1E770B5044634B10C252A466A
:100F4000FA49204621F016F800BF70BD2DE9F041A6
:100F500007460026F64D002415E055F82400401CF5
:100F600078B9601C55F82000401C50B9A01C55F8F9
:100F70002000401C28B9E01C55F82000401C00B996
:100F800003E0361D641CBE42E7D300BF3146E8488B
:100F9000FFF750FEBDE8F0812DE9FF4104460D4604
:100FA00016461F4604B125B94FF0FF3004B0BDE826
:100FB000F08195E807008DE8070003964FB19DE8A2
:100FC0000F0084E80F006A4604212046FFF766FE02
:100FD00006E0D84820606A4601212046FFF75EFE01
:100FE0000020E3E72DE9F0438BB006460F46154697
:100FF00026B94FF0FF300BB0BDE8F0834FF0040985
:10100000E84696E80F0001AC0FC417B1CA4800903B
:1010100009E0C84800900020CDE9065001AA02214D
:1010200006A8FFF73BFE00200890002405E058F8D2
:101030002410089848400890641C082CF7D30BF043
:1010400044FB34200BF0DCFDBC480BF083FB8146F5
:10105000E846002410E058F82410B84A02EB840057
:101060000BF048FC8146B9F1040F04D00BF039FBBA
:101070004FF0FF30BFE7641C0A2CECD30BF031FBC0
:101080000020B8E72DE9F04387B005468846AB4C11
:10109000AB480068401CB0B9AA48FFF74CFF4FF0BE
:1010A000FF30FFF753FFA649086000230846A54913
:1010B0000268A548FFF770FF0123A148A149026813
:1010C000A248FFF769FFA248007800287CD199491F
:1010D0002068884203D098492068884267D1DFF8A9
:1010E0005C920027002603E059F826004740761C52
:1010F000082EF9D3206AB84258D18E492068884218
:1011000038D1914800686168884224D1D4E9060149
:10111000CDE90401221D6FF0010104A8FFF7BEFD17
:101120000020DDE90421D2F10302884103D204202A
:10113000874908700EE0844B0FCB8DE80F000499AF
:101140004A1C4FF000016846FFF74CFF0120804920
:10115000087000BF2AE07C4B0FCBCDE90423CDE91A
:1011600002010422002102A8FFF73CFF0420784975
:1011700008701BE01022211D744820F03BFE18B9B6
:1011800003207349087011E06F4BD3E901211868FF
:10119000DB68CDE90413CDE902020422002102A894
:1011A000FFF720FF04206A49087000BF0CE0664B7F
:1011B0000FCB02AE0FC60022114602A8FFF712FFA6
:1011C00001206349087000BF61480078012831D1CF
:1011D0006048016860480068FFF74CFA44F62061F7
:1011E000884227D9D4E90601CDE90401201D0FC8A2
:1011F0008DE80F005748006857490860221D6FF0BE
:10120000010104A8FFF74AFD0498421C4FF00001B9
:101210006846FFF7E7FE0020DDE90421D2F1030272
:10122000884102D204204A49087015B14146022083
:10123000A84700BF46480078042821D11022211D6C
:10124000424820F0D7FD28B903204149087007B073
:10125000BDE8F08315B141460420A8473D48016828
:101260003D480068FFF706FA44F62061884207D936
:10127000384800683849086015B141460520A8473C
:1012800000BFE4E770B5044604250BF01EFA00BF6A
:1012900034200BF0B5FC0BF0E2FA0546042D00D02B
:1012A00006E0214621481C300BF075FB054600BFC7
:1012B00000BF0BF016FA042D01D1002070BD4FF0D5
:1012C000FF30FBE719481C30007870472DE9F041EA
:1012D0004FF004080025214E214F4AF2A550314617
:1012E0000880002404E036F81400284485B2641C09
:1012F000092CF8D3194845820BF0E7F934200BF09C
:101300007FFC17480BF026FA804600242CE036F8C4
:10131000141038460BF021FB8046B8F1040F21D0A1
:101320000BF0DFF90020BDE8F0810000E8F7FF1FB7
:101330000030000867452301EFCDAB890090070816
:1013400024000020C0080020DC080020CC08002079
:101350001C0000201400002020000020AC08002009
:1013600000980708BF1C641C0A2CD0D30BF0B9F9F5
:101370000120BDE8F08170B50025184E14221849EF
:10138000304620F0B2FD304600884AF2A55188422E
:1013900000D00EE0002404E036F81400284485B2A2
:1013A000641C092CF8D30D48408AA84200D170BDB6
:1013B00000BF0A48801C03F0ACF8FFF787FF00BFAE
:1013C000F5E70848006800F4E06007490843001D9D
:1013D00004490860BFF34F8F00BFFEE7AC08002050
:1013E000009807080CED00E00000FA052DE9F04731
:1013F00007460C46164698464FF0000917B10CB147
:10140000002E03DA4FF0FF30BDE8F087FEF70CFF47
:10141000814606EB4600C100204620F007FE14215D
:10142000384620F003FE002510E005EB450004EBF4
:10143000C000A0F80C8005EB450004EBC00018309C
:1014400005EB450104EBC10108616D1C701EA8424B
:10145000EBDC002005EB450104EBC10108617E6077
:101460003C604846FEF7E4FE0020CDE770B5044638
:10147000002600250CB9002070BDFEF7D5FE0646FB
:10148000206828B1256828692060002068612861EB
:101490003046FEF7CDFE2846EEE72DE9F041064640
:1014A0000C46174606B11CB94FF0FF30BDE8F0817D
:1014B0004FF0000817B106F10C0001E006F1100032
:1014C0000546FEF7B1FE8046286818B92C606461B5
:1014D000246109E02868206128684069046128685F
:1014E00040696061286844614046FEF7A1FE002023
:1014F000DCE72DE9F04105460F464FF000080026D5
:1015000015B90020BDE8F08117B105F10C0001E02C
:1015100005F110000446FEF787FE8046206808B9F2
:10152000002618E02668206800692168884202D1F8
:10153000002020600CE0206840692168096948614A
:101540002068006921684969086120680069206095
:101550000020706130614046FEF76AFE3046D1E7F8
:1015600070B504460D4604B115B94FF0FF3070BD9B
:101570000026FEF759FE06462068286125603046A1
:10158000FEF756FE0020F2E72DE9F04104460D4635
:101590001646002704B11DB94FF0FF30BDE8F081B9
:1015A000FEF742FE07461821204620F03FFD256049
:1015B0007008A060A068284460603846FEF738FED6
:1015C0000020EBE72DE9F04704460F4615464FF0A3
:1015D0000008C14604B11FB94FF0FF30BDE8F087E5
:1015E000FEF722FE80466169A068461AB54202D91C
:1015F0004FF0FF3929E0E0682844A16888420FD9FC
:10160000D4E90201461AE268216888183246394650
:1016100020F06BFCAA1BB919206820F066FC06E0DC
:10162000E268216888182A46394620F05EFCE068A6
:101630002844E060D4E90210B0FBF1F201FB120093
:10164000E06060692844606100BF4046FEF7F0FD3D
:101650004846C3E72DE9F04104460D46002714B97A
:101660000020BDE8F081606908B90020F9E7FEF7C5
:10167000DBFD0746D4E904010844A168884211D97A
:101680002169A068461A23692268D1183246606829
:1016900020F02BFC63699A1BD4E90013981920F001
:1016A00024FC06E02669236899196269606820F0C5
:1016B0001CFCD4E9040108442061A1682069B0FB46
:1016C000F1F201FB120020610DB160692860002079
:1016D00060613846FEF7ACFD6068C2E7F0B50246CF
:1016E00092F8284004F0070600210DE0FA4C605CF7
:1016F000FA4C54F8204034B1F94C34F81040F74D0E
:1017000055F820502C61491C0429EFD3002342E0F6
:10171000F14FF85CF14F57F8207047B1F04F37F8B0
:101720001070DFF8B8C35CF820C0CCF8147000214A
:1017300000E0491C2829FCD300BF00BF00BF0024E3
:10174000002113E0E74F57F82170BF68DFF898C316
:101750003CF811C007EA0C050DB1012700E0002795
:101760003D4605FA01F72743BCB2491C0329E9D3DA
:10177000DA4F57F8207047B1D94F37F81070DFF8BB
:101780005CC35CF820C0CCF8107002F1080707EBCE
:101790008607FC545B1C042BBAD3946A641C9462C5
:1017A000F0BDF0B503460C46FF260025002114E0ED
:1017B00000220BE003EB8100875C481C03EB8000F8
:1017C000805C874201D06D1C02E0521C042AF1DBD0
:1017D00000BF042A00D10E46491C0729E8DB052D6D
:1017E00001DD0020F0BD082E01DB0020FAE703EB4D
:1017F0008600006820600120F4E770B502460D46BF
:10180000002366E0581CC4B25FE002EB830040781E
:1018100000F0F00002EB8406767806F0F006B042A5
:1018200051D100210FE002EB8300407800F00F005F
:1018300002EB8106767806F00F06B04201D1012056
:1018400070BD481CC1B29942EDDB581CC1B20FE01B
:1018500002EB8300407800F00F0002EB81067678FF
:1018600006F00F06B04201D10120E9E7481CC1B2E1
:10187000A942EDDB00210FE002EB8400407800F08C
:101880000F0002EB8106767806F00F06B04201D118
:101890000120D5E7481CC1B2A142EDDB601CC1B2FA
:1018A0000FE002EB8400407800F00F0002EB8106AD
:1018B000767806F00F06B04201D10120C0E7481C3F
:1018C000C1B2A942EDDB601CC4B2AC429DDB581C26
:1018D000C3B2681E984295DC0020B1E72DE9F05FA5
:1018E000074697F8280000F0070007287ED1394600
:1018F00007F10800FFF755FF8346BBF1000F02D147
:101900000020BDE8F09FB94607F1040A07F12C0852
:10191000002400255FE00020002119F805201AF8B6
:10192000053082EA030019F805201AF8053002EAAA
:10193000030160B3002628E00122B24002401AB33E
:10194000082C00DB4AE0F02202EA051206F00F0341
:101950001A4308EB84035A7005EB4502634B1A44A3
:10196000925D08F8242019F805200123B3401A409D
:1019700022B1022208EB84039A7003E0012208EBF3
:1019800084039A70621CD4B2761C032ED4DB09B394
:1019900000261DE00122B2400A40C2B1082C00DB43
:1019A0001CE0F02202EA051206F00F031A4308EBCE
:1019B00084035A7005EB45024C4B1A44925D08F8BB
:1019C0002420EE2208EB84039A70621CD4B2761CA9
:1019D000032EDFDB6D1C042D9DDB00BFD9F800005A
:1019E000CAF80000042C09DB214600E008E007F1FA
:1019F0002C00FFF702FF08B1002082E7204680E7B5
:101A000000207EE738B503208DF8020010208DF805
:101A10000300002412E0344830F81400ADF8000050
:101A2000304951F8240069460BF074FC2E4830F818
:101A300014002C4951F824104861641C032CEAD38B
:101A400000BF28208DF8030000240BE0264830F862
:101A50001400ADF80000234951F8240069460BF04A
:101A600059FC641C032CF1D300BF38BD38B50320EA
:101A70008DF8020010208DF8030000240BE01C48B4
:101A800030F81400ADF800001A4951F824006946F6
:101A90000BF040FC641C002CF1D038BD38B503209D
:101AA0008DF8020010208DF8030000240FE00C4890
:101AB00030F81400ADF80000084850F8240028B1B0
:101AC000064951F8240069460BF024FC641C042CE0
:101AD000EDD3002420E00000BA3C02089C3C020840
:101AE000AC3C0208883C0208943C02083900002003
:101AF000B83C0208B43C0208964830F81400ADF82F
:101B00000000954850F8240028B1934951F824006A
:101B100069460BF0FFFB641C002CEDD038BD0020A3
:101B200007E08E4931F810108D4A52F820201161DB
:101B3000401C0028F5D0704700200BE0864951F882
:101B4000201031B1834931F81010834A52F8202017
:101B50001161401C0028F1D0704700200BE07E4945
:101B600051F8201031B17B4931F810107A4A52F8FF
:101B700020201161401C0428F1D3704710B5FFF7F5
:101B8000ECFFFFF7D9FF10BD2DE9F0410646002418
:101B9000375DFFF7C4FFFFF7CFFF00250BE0012003
:101BA000A840384030B16D4830F815006C4951F804
:101BB000251048616D1C002DF1D0674850F82400B5
:101BC00030B1644830F81400634951F8241048617A
:101BD000601C7060BDE8F08110B5FFF713FFFFF7E0
:101BE00045FFFFF75BFFFFF7C9FF4C215D4820F081
:101BF0001DFA5D480021016041605C4801705C484D
:101C000001705C48017010BD30B50346002300210F
:101C1000554C60182AB1047801259D402C4304706E
:101C200004E0057801249C40A543057030BD0246C0
:101C3000002200214C48435C01209040184008B12C
:101C4000012070470020FCE730B503460023002147
:101C5000464C60182AB1047801259D402C4304703D
:101C600004E0057801249C40A543057030BD10B503
:101C70004148016841480068FEF7FCFCB0F5FA7F76
:101C80001ED900210FE0384B5818384B5A5C4AB126
:101C90003B4B1B781BB103781343037002E00378BE
:101CA00093430370491C0029EDD0334B1B68334C20
:101CB0002360334B1B7883F00103314C237000BF4A
:101CC00010BD70B50446002504B1FF25274800214A
:101CD00001702A460121244820F07EF970BD254874
:101CE00022490978017022481F490978017070471C
:101CF0001E482049097801701B481D490978017068
:101D0000704710B58AB01C48007800F00100D0B9C7
:101D10000024FFF704FF1348FFF7E0FC1148FFF72A
:101D2000DDFD0446002C0DDD019401208DF800003E
:101D3000A2000C492C3102A820F01CF9684600F0E2
:101D400051F800BF00BFFFF792FF0748FFF71CFFE5
:101D50000AB010BDAC3C02089C3C0208B83C02082A
:101D6000B43C0208EC0800202800002030000020CD
:101D70003100002032000020140000203400002038
:101D80003800002010B50623082224492448FFF714
:101D90002DFB002416E0002004EB44011F4A02EB57
:101DA000C101087204EB84001E4901EBC00004EB82
:101DB000440142F83100282004EB440102EBC10148
:101DC0004860641C082CE6D310BD10B501211448EE
:101DD000FFF78FFB10BD10B5044621461048FFF7F2
:101DE000BFFB10BD70B50446002504B970BD0C489A
:101DF000FFF73CFB054675B128222146286820F0F4
:101E000074F8012229460648FFF747FB18B1294616
:101E10000348FFF7A5FB00BFE8E70000780A0020B1
:101E2000380B00203809002000B587B00121880355
:101E30000BF0B2FD03A80CF053FF4FF4E130039018
:101E400003A9AD480CF0E3FE0121AB480CF06BFF99
:101E50004FF40070ADF8080003208DF80A00182038
:101E60008DF80B0002A9A5480BF054FA4FF48060DE
:101E7000ADF8080004208DF80B0002A99F480BF074
:101E800049FA25208DF8040001208DF80500002076
:101E90008DF8060001208DF8070001A80AF0D5F999
:101EA000012240F2255194480CF049FF01210846D7
:101EB0000BF065FD43F29000914948648E48001D87
:101EC000C864002088640865012280218A480CF0DB
:101ED0005BFF07B000BD38B58748048804F02000D8
:101EE00010B904F0080050B18348001D0088C0B24A
:101EF0000090012269468348FFF764FB00BF38BDAC
:101F000010B50023202280498048FFF76FFA4FF474
:101F100040727F497B48FFF737FB4FF480627D4971
:101F20007D4800F08BFAFFF77FFF10BDF0B585B05C
:101F3000054600BF00270020049004A97148FFF760
:101F400089FB074607B92CE028E000260020039013
:101F50000290002402A903ABCDE9001039466E4877
:101F6000049A00F07DFA064606B918E06748FFF7C4
:101F70007DFA04461CB930461FF0DBFC0FE02660FA
:101F800003986060012020720298A072012221460D
:101F90005E48FFF782FA0020049000BFD5E700BF3B
:101FA00000BF00BF00BF00245C480078E8B154487F
:101FB000006800F4005010B905B149E049E04E480E
:101FC000008800F0400010B905B141E041E04FF455
:101FD00080504B4948605248007A18B1504908680F
:101FE0001FF0A7FC00204D49087000214748FFF76B
:101FF00080FA04465CB36068002801DD206848B9B7
:10200000207A20B1206810B120681FF092FC05B141
:102010001EE01EE03A48406C20F001003849486458
:1020200060688864206808650846406C40F00100DC
:1020300048640120394908701822214638481FF0A9
:1020400099FF21463148FFF78BFA05B100E000E027
:10205000A9E700BF00BF002401212C48FFF749FA7F
:10206000044614B1204605B0F0BD00BF0020FAE7D9
:1020700010B5044644B1207A10B120681FF059FC15
:1020800021462248FFF76CFA10BD2DE9F0410546C4
:102090000E4690461F46002415B9601EBDE8F0812B
:1020A0001A48FFF7E3F9044614B94FF0FF30F5E79B
:1020B000256067602672002221461448FFF7EDF97B
:1020C0000020EBE710B504461CB121460F48FFF78E
:1020D00047FA10BD4FF48060704710B5044604B94C
:1020E00010BD0020A0810C206081214602480CF028
:1020F0008EFD00BFF4E700000038014000080140F9
:1021000000000240601100204C0B00204C0E00200B
:10211000600E002078110020781500204500002076
:102120009015002000B587B0012148040BF041FC58
:1021300003A80CF0D5FD4FF4E130039003A9B44897
:102140000CF065FD0121B2480CF0EDFD0420ADF866
:10215000080003208DF80A0018208DF80B0002A952
:10216000AC480BF0D7F80820ADF8080004208DF833
:102170000B0002A9A7480BF0CDF826208DF804002B
:1021800001208DF8050000208DF8060001208DF853
:10219000070001A80AF059F8012240F225519C4895
:1021A0000CF0CDFD012108460BF0E9FB43F2900055
:1021B000994908609648001D97498039C1F8880000
:1021C00000209549091D086093498039C1F88C00A9
:1021D000012280218E480CF0D7FD07B000BD38B534
:1021E0008B48048804F0200010B904F0080050B1B6
:1021F0008748001D0088C0B20090012269468748C8
:10220000FFF7E0F900BF38BD10B50623202284494E
:102210008448FFF7EBF84FF4407283497F48FFF79B
:10222000B3F94FF480628149814800F007F9FFF764
:1022300079FF10BDF0B585B0054600BF002700202E
:10224000049004A97548FFF705FA074607B92CE082
:1022500028E00026002003900290002402A903AB8E
:10226000CDE9001039467248049A00F0F9F80646A4
:1022700006B918E06B48FFF7F9F804461CB9304678
:102280001FF057FB0FE0266003986060012020726A
:102290000298A072012221466248FFF7FEF8002052
:1022A000049000BFD5E700BF00BF00BF00BF0024FF
:1022B00060480078F8B158488038006800F0007035
:1022C00010B905B151E051E05148008800F04000DC
:1022D00010B905B149E049E04FF080704E498039AE
:1022E00048605548007A18B1534908681FF021FB2F
:1022F00000205049087000214A48FFF7FAF80446C8
:102300008CB36068002801DD206848B9207A20B1CC
:10231000206810B120681FF00CFB05B125E025E016
:102320003D48006820F001003B490860091D6068D5
:102330000860394980392068C1F88C000846D0F817
:10234000800040F0010034490860012039490870DC
:102350001822214638481FF00DFE21463148FFF76C
:10236000FFF805B101E0FFE700E0A0E700BF00BF14
:10237000002401212B48FFF7BCF8044614B1204685
:1023800005B0F0BD00BF0020FAE710B5044644B127
:10239000207A10B120681FF0CCFA21462148FFF7BF
:1023A000DFF810BD10B504461CB121461D48FFF7EB
:1023B000D7F810BD4FF4806070472DE9F041054615
:1023C0000E4690461F46002415B9601EBDE8F081F8
:1023D0001448FFF74BF8044614B94FF0FF30F5E707
:1023E000256067602672002221460E48FFF755F8E7
:1023F0000020EBE710B5044604B910BD0020A08111
:102400000C206081214602480CF001FC00BFF4E77B
:10241000004400400008014080000240BC1B002036
:10242000A8150020A8180020BC180020D41B0020EC
:10243000D41F002046000020EC1F002070B5044689
:102440000E4615460CB106B115B94FF0FF3070BD00
:10245000182120461FF0EAFD266065600020F6E79F
:102460002DE9FF4F8DB0044691469A46DDF868800D
:10247000002700200C9014B1BAF1000F03D14FF0E7
:10248000FF300C9023E221696068401A484502D26F
:102490004FF0FF300C90B9F1000F2ED00E9818B904
:1024A0004FF0FF300C90EDE7A06800EB0906606884
:1024B000B04214D2D4E90101451AA26821688818F3
:1024C0002A460E991FF011FDA9EB05020E9B591922
:1024D00020681FF00AFDA9EB0500A06009E0A268D2
:1024E000216888184A460E991FF0FFFCA0684844EE
:1024F000A06020694844206100BF00BF00200B900D
:102500000025BDE3E06828440A9061680A98B0FBA2
:10251000F1F201FB12000A9021680A98085C099008
:102520000998AA287DD10026002008902069401B28
:1025300007900798072806DB606928B1A08AC0F3D6
:102540000726207D089085E0E26850192168821CEA
:102550006368B2FBF3FC03FB1C228A5C042A78D17B
:10256000C21C6368B2FBF3FC03FB1C228A5C002ADA
:102570006FD1421D6368B2FBF3FC03FB1C228E5C2F
:10258000821D6368B2FBF3FC03FB1C228A5C089289
:10259000079A082A5DDBD4F80CC0AC44CDF818C00B
:1025A00005F1070CD4F80CB00CEB0B034FF0000C4A
:1025B000CDF814C0069A10E0D4F804C0B2FBFCFBBE
:1025C0000CFB1B2CD4F800B01BF80CC0DDF814B0C9
:1025D0008CEA0B0CCDF814C0521C9A42ECD3D4F800
:1025E00004C0B3FBFCFB0CFB1B3CD4F800B01BF895
:1025F0000CC0CDF810C0DDE904CBE3451BD005F1DC
:10260000010CD4F810B0ABEB0C0CC4F810C005F101
:10261000010CD4F80CB0DC44C4F80CC0D4F80CC0E5
:1026200000E03FE1D4F804B0BCFBFBFE0BFB1ECC8A
:10263000C4F80CC028E3F6B2DDF820C00CF0FF0CA3
:10264000CDF820C0DDF820C00CEB062CC4F814C077
:1026500000BF00BFF6B20898C0B20890089800EB1F
:10266000062608366068B6EB500F11D9681C216940
:10267000081A2061681CE1680844E0606168E0684D
:10268000B0FBF1F201FB1200E0600020606108E1A4
:102690000798864275DC082E75D1002006900196B9
:1026A00001981FF017F907461FB94FF0FF300C9043
:1026B00007E30597E06828440390701E2844E1680A
:1026C000084402900398049015E061680498B0FBF8
:1026D000F1F201FB1200216811F800B0069880EABF
:1026E0000B000690059880F800B00598401C0590F6
:1026F0000498401C0490029904988842E5D36168CC
:102700000298B0FBF1F201FB1200216811F800B051
:10271000069858451FD101200B90059880F800B00D
:10272000216901982844081A2061E068411901983C
:102730000844E0606168E068B0FBF1F201FB120060
:10274000E0600198CAF80000B8F1000F18D001202D
:10275000C8F8000014E038461FF0EBF80027681CAA
:102760002169081A2061681CE1680844E06061681A
:10277000E068B0FBF1F201FB1200E0600020606154
:102780008FE07FE0FFE7059605981FF0A3F8074666
:102790001FB94FF0FF300C9093E2E0682844616865
:1027A000B0FBF1F201FB120B7019E168084461689B
:1027B000B0FBF1F201FB120006900698584507D9CC
:1027C000206800EB0B01324638461FF08EFB11E00B
:1027D0006068A0EB0B000290206800EB0B0138460C
:1027E000029A1FF082FB029BF21AF81821681FF070
:1027F0007CFB00BF00206061A6F10A0081B207F1F6
:102800000800FEF72FFA049000200390B819811EEB
:10281000022203A8FEF702FABDF80C1004988142C8
:102820001CD101200B90216905982844081A2061C9
:10283000E068411905980844E0606168E068B0FB11
:10284000F1F201FB1200E0600598CAF80000B8F14F
:10285000000F16D00120C8F8000012E038461FF023
:1028600068F80027681C2169081A2061681CE16863
:102870000844E0606168E068B0FBF1F201FB12001F
:10288000E0600EE02069401B2061E0682844E060C1
:102890006168E068B0FBF1F201FB1200E06001202A
:1028A0000B90F1E10998FA2870D12069A0EB050B93
:1028B000BBF1070F6BDB0020089007200390039803
:1028C0001FF008F807461FB94FF0FF300C90F8E1F1
:1028D0003E46E06828440590A81DE168084404903D
:1028E000059806900FE060680699B1FBF0F200FBD6
:1028F00012102168085C07909DF81C0006F8010B77
:102900000698401C0690049906988842EBD3022052
:10291000069009E00698385C9DF820100844C0B283
:1029200008900698401C069006980628F2D3606826
:102930000499B1FBF0F200FB12102168085C0790CB
:102940009DF820009DF81C10884221D101200B9099
:102950009DF81C003070206903992944401A2061B9
:10296000E068284403990844E0606168E068B0FBCF
:10297000F1F201FB1200E0600398CAF80000B8F120
:10298000000F18D00520C8F8000014E024E013E080
:1029900038461EF0CEFF0027681C2169081A206106
:1029A000681CE1680844E0606168E068B0FBF1F22F
:1029B00001FB1200E0600EE02069401B2061E0682E
:1029C0002844E0606168E068B0FBF1F201FB1200AE
:1029D000E06001200B9057E1099800F0F00080289A
:1029E00079D12069401B08900898032874DBE068BF
:1029F00028440790D4E9031000EB010B0020069057
:102A00000798861C0DE06068B6FBF0F100FB1160D2
:102A10002168085C06900698FF2801D1B34602E0C1
:102A2000761C5E45EFD300BF0698FF2855D1079866
:102A3000ABEB0000401C102810D90027681C21694E
:102A4000081A2061681CE1680844E0606168E06879
:102A5000B0FBF1F201FB1200E06063E00798ABEB22
:102A60000000401C049004981EF034FF07461FB974
:102A70004FF0FF300C9024E1059701200B90079E4A
:102A80000CE06068B6FBF0F100FB11612068415C6E
:102A9000059801700598401C0590761C5E45F0D99C
:102AA000216904982844081A2061E06841190498B3
:102AB0000844E0606168E068B0FBF1F201FB1200DD
:102AC000E0600498CAF80000B8F1000F02D00420BA
:102AD000C8F8000026E036E025E00798ABEB0000E0
:102AE000102810D30027681C2169081A2061681C6F
:102AF000E1680844E0606168E068B0FBF1F201FB66
:102B00001200E0600EE02069401B2061E06828446C
:102B1000E0606168E068B0FBF1F201FB1200E06088
:102B200001200B900EE02069401B2061E0682844E2
:102B3000E0606168E068B0FBF1F201FB1200E06068
:102B400001200B90A0E00998A52871D12069A0EB85
:102B5000050BBBF10B0F6CDB002008900B200390E2
:102B600003981EF0B7FE07461FB94FF0FF300C90D8
:102B7000A7E03E46E0682844059005F10A00E168B8
:102B800008440490059806900FE060680699B1FB30
:102B9000F0F200FB12112068405C07909DF81C00C9
:102BA00006F8010B0698401C069004990698884286
:102BB000EBD30120069009E00698385C9DF82010C0
:102BC0000844C0B208900698401C069006980A284F
:102BD000F2D360680499B1FBF0F200FB1210216897
:102BE000085C07909DF820009DF81C10884221D1B8
:102BF00001200B909DF81C00307020690399294436
:102C0000401A2061E068284403990844E060616844
:102C1000E068B0FBF1F201FB1200E0600398CAF833
:102C20000000B8F1000F18D00620C8F8000014E02A
:102C300024E013E038461EF07CFE0027681C216962
:102C4000081A2061681CE1680844E0606168E06877
:102C5000B0FBF1F201FB1200E0600EE02069401BC6
:102C60002061E0682844E0606168E068B0FBF1F250
:102C700001FB1200E06001200B9005E000BF6D1C1D
:102C80002069A8423FF63EAC00BF2069A8420FD1A0
:102C90000B9868B900202061E0682844E060616812
:102CA000E068B0FBF1F201FB1200E060002060611F
:102CB0000B9800B103E0206900283FF71FAC00BF6C
:102CC00000BF1B9810B11B990C980860384611B0D2
:102CD000BDE8F08F10B501460B78F84C24680CB1B4
:102CE000092200E00722012002E00C5C6340401C46
:102CF0009042FADB0B5410BD2DE9FF4381B08846AA
:102D0000DDF830900024B8F1000F03D1002005B0A9
:102D1000BDE8F083DDE9030100FB01F707F11006D0
:102D200030461EF0D7FD04460CB90020EFE73146CF
:102D300020461FF059F9AA2020700420A07000201E
:102D4000E070A6F10800009002226946601DFDF7C0
:102D500065FF2046FFF7BEFF04F10805022201A926
:102D60002846FDF75BFF022203A9A81CFDF756FFCA
:102D7000022204A9281DFDF751FF3A464146A81D2D
:102D80001FF0B3F8B81D81B22846FDF76BFF009025
:102D9000A91DC81902226946FDF740FFB9F1000FCD
:102DA00001D0C9F800602046B1E7F8B506460F46E5
:102DB00014461D4623460122394630460095FFF74A
:102DC0009BFFF8BD70B505460C46ADB1A4B12046D9
:102DD0001EF080FD064676B12246294630461FF099
:102DE00084F82346062201213046FFF74EF910B140
:102DF00030461EF09EFD00BF70BD704770B50546A1
:102E00000C46ADB1A4B120461EF064FD064676B175
:102E10002246294630461FF068F823460622012143
:102E2000304601F0FEFE10B130461EF082FD00BFBC
:102E300070BD2DE9F04105460E461446BDB1B6B150
:102E4000ACB120461EF046FD07467FB12246314612
:102E500038461FF04AF82346062201213846D5F8A5
:102E600014C0E04710B138461EF063FD00BFBDE856
:102E7000F08170B504460D46202120461FF0D6F89B
:102E80004FF47A72294604F1100002F03FFD70BD44
:102E900070B504460D46294604F1100002F057FDB6
:102EA00006202070002070BD0246D16000207047CF
:102EB00002465160002070470246117000207047A2
:102EC00001460878704770B504460D4616463246EE
:102ED000294604F1100002F093FD70BD01467848C8
:102EE0000068A0F5B8507038886000207047FEB5C3
:102EF00004462078062837D17149A0680968FDF793
:102F0000B9FB40F6B83188422ED30025002000904E
:102F1000606801904FF48070029060690199401AD6
:102F2000FF2803D860690199401A02906B46082275
:102F300001A948F20700FFF738FF05469DB1E06898
:102F400058B1E0684669062201212846009BB04737
:102F500030B128461EF0EDFC02E028461EF0E9FCE8
:102F600057480068A06000BF0020FEBD10B555485E
:102F7000FFF7BDFF10BD2DE9F04F93B007460D469A
:102F8000012012901FB9801E13B0BDE8F08F3C687D
:102F90002078AA2802D04FF0FF30F5E7A0780C285F
:102FA00077D1E078802875D100201090119000260C
:102FB0000F904FF001094FF0010A8346AA208DF8C7
:102FC00040000C208DF8420080208DF84300012045
:102FD0008DF84400A0790D2876D2DFE800F089074B
:102FE0001C2A38468989895C895E760020791028F8
:102FF00003D101213348FFF75FFFA0798DF8460028
:1030000008201EF067FC064616B94FF0000974E070
:1030100008200F9071E0A0798DF8460008201EF07E
:1030200059FC064616B94FF0000966E008200F90DB
:1030300063E00CA8FDF77FFF4FF0000A0FAB0C22F6
:103040000CA948F20300FFF7B0FE064655E0A07950
:103050008DF8460008201EF03DFC064616B94FF0DC
:1030600000094AE008200F9047E000200E902DB1A3
:10307000286918B12869804780B20E904FF0000A85
:103080000FAB02220EA948F20500FFF78EFE06469E
:1030900033E05DE073E101F0F7FA4FF0FF300E909E
:1030A000FDF754FF0E904FF0000A0FAB04220EA95B
:1030B00048F20B00FFF779FE06461EE050000020A4
:1030C000140000200420002012E0FE48D0F8008008
:1030D0004FF0000A40461EF0DDFE401C0FAB0246DA
:1030E00041460E9048F20C00FFF75FFE064604E0F2
:1030F0004FF000090020129000BF00BFB9F1000F8F
:1031000020D0FEB1BAF1000F06D010A8FFF7E2FD03
:1031100010983060119870601DB930461EF009FC9F
:1031200010E0686918B930461EF003FC0AE0D5F8D3
:1031300014C00622012130460F9BE04710B13046F3
:103140001EF0F7FBBBF1000F01D001F09DFA16E174
:10315000A078042870D1002011908046129002229D
:10316000611D11A8FDF75AFD04F108061198801E93
:103170001190FDE000200F90109081460E904FF0CE
:10318000010A0D900C900B900A90022231460CA877
:10319000FDF744FD0222B11C0BA8FDF73FFD022202
:1031A000311D0AA8FDF73AFDAA208DF83C000C203D
:1031B0008DF83E0080208DF83F0001208DF8400002
:1031C000BDF83000A0F50040063830B1012820D00D
:1031D000042858D0072874D182E0D6F80600089059
:1031E000D6F80A000990B8480899FFF751FE294619
:1031F000B548FFF759FE0621B348FFF75DFE0620EC
:103200008DF8420001200D9008201EF063FB8146DE
:1032100078E006F10E0BAC48FFF752FE062800D00E
:1032200070E0D6F806000890D6F80A0009900998D0
:10323000B0F5807F01D965E09FE05946A248099A20
:10324000FFF741FEDDE9080281189F48FFF730FED5
:103250009D48FFF743FE07208DF84200DDE9080195
:10326000014499484069814206D308208DF8420004
:1032700000219548FFF720FE01200D9008201EF048
:1032800029FB81463EE006F1060B02A8FDF753FE3E
:103290004FF0FF30FDF75AFE0190012302A905A867
:1032A000019AFDF779FE1022594605A81EF0A2FDED
:1032B00040B9002009900022012105A8FDF792FEE7
:1032C00003E01EE04FF0FF3009900EAB042209A985
:1032D00048F20A00FFF769FD81460120129011E0D3
:1032E00006F1060B7848DBF80010FFF7C2FD0D2051
:1032F0008DF8420001200D9008201EF0EBFA814667
:1033000000E000BF00BFBAF1000F25D0B9F1000FF7
:1033100022D00D9850B10FA8FFF7DCFC0F98C9F828
:1033200000001098C9F8040008200E901DB9484606
:103330001EF0FFFA10E0686918B948461EF0F9FA65
:103340000AE0D5F814C00622012148460E9BE0474A
:1033500010B148461EF0EDFABDF82C00BDF828105B
:103360004843801D804404F1080000EB080600BFBC
:1033700011988045FFF4FEAE01E0002012901298F3
:1033800008B1002000E64FF0FF30FDE500204F4976
:10339000087070477047704770470146002201204F
:1033A00003E00B5C1344DAB2401C0628F9DB0A5434
:1033B00070477047704770470020704770477047EC
:1033C0002DE9F041064600274FE006F1080000EB2A
:1033D0008705A878EE2800D146E095F800803C4C9F
:1033E0000020206060602081AA202070374800788B
:1033F00060700720A070A878012800D12071B8F172
:10340000010F17D0B8F1020F20D1A878022801D1FE
:10341000012000E0002001460A2006F005FAA87805
:10342000022801D1012000E0002001460A2002F01C
:10343000C7FD0CE0A878022807D101F059FE10B1B1
:1034400001F063FE01E001F05CFE00E00CE000BF73
:1034500001F051FE84F805802046FFF73BFC08216F
:103460002046FFF7AFFC00BF7F1C7068B842ACD8A5
:103470000120BDE8F081704770B50446144D0DB9C8
:10348000002070BD0020286068602881AA20287074
:103490000E48007868700820A870207A2871A07BF8
:1034A00068712846FFF716FC08212846FFF78AFCBA
:1034B000A07B00F001062089A0B9608968B131467F
:1034C000092007E048000020042000204C000020D4
:1034D0002420002002F074FD15E031460B2002F09C
:1034E0006FFD10E0208901280DD1A08906F06CF94C
:1034F000608920B13146132002F062FD03E03146BD
:10350000142002F05DFD01F0F6FD0120B9E770B571
:1035100005462C682078052801DB002070BD207846
:10352000FA4951F8200030B120780A4652F82010AC
:1035300020468847F2E70020F0E703460020704766
:10354000014600207047F7B584B00546144628466A
:1035500002F0A6FE86B20C2E03DB4FF0FF3007B060
:10356000F0BD04F0050048B3E8B28DF80C009DF8FA
:1035700014008DF80D009DF815008DF80E00002048
:10358000029002A80323012203A900904FF4D06007
:10359000FFF7B2FB074687B104F0010018B13846C7
:1035A0000299FFF70FFC04F0040018B138460299A5
:1035B000FFF724FC38461EF0BCF900BF04F01000F1
:1035C00008B3D34800680390301DC7B29DF80D00C2
:1035D000D049097801F00F0108438DF80D008DF8EE
:1035E0000E709DF814109DF815208818C11700EB77
:1035F0009171C1F386018DF80F100422114603A8C2
:1036000001F05EFE00BF0020A9E7024600207047DF
:10361000024600207047FEB504460E461546022CB1
:1036200002DB4FF0FF30FEBD05F0050018B3E0B23D
:103630008DF808008DF809600020019001A8022390
:10364000012202A9009040F24660FFF755FB0746B1
:1036500087B105F0010018B138460199FFF7B2FBB8
:1036600005F0040018B138460199FFF7C7FB38464A
:103670001EF05FF900BF05F01000B0B3A44814308D
:1036800000680290A2481830006801909DF8090077
:10369000A049097801F00F0108438DF809009DF851
:1036A00005009C49097801F00F0108438DF80500D9
:1036B0006EB104F16000C0B28DF80A007F208DF871
:1036C0000B000422114602A801F0FAFD0CE004F1FF
:1036D0006000C0B28DF8060000208DF807000422BB
:1036E000114601A801F0ECFD00BF00209BE7024657
:1036F000002070470146002070472DE9FE43044634
:103700000D461646204602F0CBFD1FFA80F8B8F1B0
:103710000C0F03DB4FF0FF30BDE8FE8306F0050021
:10372000C0B3E0B28DF808008DF809500020019078
:10373000072C02DA4FF4C8670EE00A2C02DA40F2D6
:10374000416709E0812C04DC802C02DB40F24267F7
:1037500002E04FF0FF30DFE701A80223012202A9B7
:1037600000903846FFF7C8FA8146B9F1000F10D033
:1037700006F0010018B148460199FFF723FB06F057
:10378000040018B148460199FFF738FB48461EF07F
:10379000D0F800BF06F01000D0B35D48001F0068ED
:1037A000029000274FF07F09032D01DD781EB3E75B
:1037B000012D01D0022D09D1052C04D0062C02D0F8
:1037C0004FF0FF30A8E72846C7B209E0032D07D124
:1037D00008208DF8080080208DF809004FF00009BE
:1037E000202000EB88003844C7B29DF80900494901
:1037F000097801F00F0108438DF809008DF80A706F
:103800008DF80B900422114602A801F059FD00BF6B
:10381000002081E7024600207047024600207047E2
:1038200002460020704700207047002070472DE9B5
:10383000FC4706460F46154605F0050058B3AA207A
:103840008DF8000006208DF8020050208DF803004E
:1038500081208DF8040002F05BFE8DF8050002F077
:1038600081FE8DF806006846FFF734FA05F0010086
:1038700018B108216846FFF7A5FA00208DF804006A
:103880006846FFF727FA05F0010018B108216846DD
:10389000FFF7B4FA00BF05F0100000284DD01C4817
:1038A0000C30006801901A481030006800904FF00A
:1038B00000084FF00309032E02DAB04606F10109B1
:1038C0009DF805001349097801F00F0108438DF8B0
:1038D00005009DF801000F49097801F00F01084328
:1038E0008DF80100444625E00120A040384098B101
:1038F00004F15800C0B28DF806007F208DF8070053
:103900000422114601A801F0DBFC12E0580000205F
:10391000DC3C02085400002004F15800C0B28DF8CD
:10392000020000208DF8030004221146684601F0D1
:10393000C7FC641C4C45D7DB00BF0020BDE8FC87FA
:103940002DE9FC4706460F46154605F0050058B31D
:10395000AA208DF8000006208DF8020050208DF876
:10396000030081208DF8040002F0D2FD8DF80500DF
:1039700002F0F8FD8DF806006846FFF7ABF905F098
:10398000010018B108216846FFF71CFA00208DF8E5
:1039900004006846FFF79EF905F0010018B1082100
:1039A0006846FFF72BFA00BF05F01000002846D04C
:1039B000F84800680190F748001D006800904FF03B
:1039C00000084FF00509052E02DAB04606F101099C
:1039D0009DF80500F049097801F00F0108438DF8C2
:1039E00005009DF80100EC49097801F00F0108433A
:1039F0008DF8010044461FE00120A040384068B126
:103A000004F15000C0B28DF806007F208DF8070049
:103A10000422114601A801F053FC0CE004F150000F
:103A2000C0B28DF8020000208DF803000422114678
:103A3000684601F045FC641C4C45DDDB00BF0020FE
:103A4000BDE8FC8702460020704702460020704710
:103A500070470246002070472DE9F04F89B080463C
:103A60000E46B8F1000F03D1002009B0BDE8F08F79
:103A7000D8F80040A07807280DD1E078502808D168
:103A8000A379DA106379D9102379D81000F064FE95
:103A900000E000BFBEE2A07806287AD1BF4D4FF00B
:103AA000000A002008904FF0010B01200790AA2087
:103AB00028700620A8708020E87001202871E07826
:103AC00046286ED008DC40280FD0412836D0432845
:103AD00061D0442878D161E0502876D0802875D014
:103AE000812874D0C128F5D105E114201DF0F2FE23
:103AF000814600200790B9F1000F1ED000270CE08E
:103B000006A9384602F0E8FB09F817709DF818007E
:103B100009EB47014870781C87B2072FF0DB08A833
:103B200002230722494600904FF4C860FFF7E4F8EB
:103B3000824648461DF0FDFE00BF3DE106201DF017
:103B4000C9FE814600200790B9F1000F20D0002760
:103B50000EE0F91D88B206A902F0BEFBF81D09F8B7
:103B600017009DF8180009EB47014870781C87B2D0
:103B7000032FEEDB08A8022303224946009040F2FF
:103B80004160FFF7B9F8824648461DF0D2FE00BFFB
:103B900012E138E105E04FF0000B0DE14FF0000BB2
:103BA0000AE1A079FF282CD10020069004201DF006
:103BB00091FE814600200790B9F1000F20D006A8A1
:103BC00002F08EFC00270BE0F1E031E05CE08DE0DC
:103BD00009F8177006A8C05D09EB470148707F1C03
:103BE000022FF5DB08A8032302224946009040F289
:103BF0004660FFF781F8824648461DF09AFE00BFF6
:103C000015E020790711607908B9012000E0002053
:103C100081464946384602F055FC3946022002F0FA
:103C2000E2FD102249463846FFF7F5FC00BFC3E02D
:103C3000207910B12079812818D16179FF2002F014
:103C40006CFCA179FF2002F092FC0021032002F01D
:103C5000CAFD61791022FF20FFF772FEA1791022C0
:103C6000FF20FFF7E4FD002007900CE020790128F9
:103C700009D15020E8708120287102F049FC687158
:103C800002F070FCA87197E01E201DF023FE814613
:103C900000200790B9F1000F27D0002715E006A9F2
:103CA000384602F06FFB07EB470109F801709DF8F9
:103CB000180007EB4701494448709DF8190007EBCD
:103CC000470149448870781C87B20A2FE7DB08A8AF
:103CD00003230A22494600904FF4D060FFF70CF806
:103CE000824648461DF025FE00BF65E04FF0000B00
:103CF0000020079060E0207930B1012818D0152805
:103D000027D020284CD133E0002767794FF6FF7089
:103D100000EA0727A0790743384602F09EFB4FF6DA
:103D2000FF7002F03AFD4FF0000B002007903CE0DE
:103D30000020069006A802F0A4FBC120E870002035
:103D40002871BDF8180000126871BDF81800A8713C
:103D50002BE0A079069006A9052002F054FB4FF64F
:103D6000FF7002F01AFD4FF0000B002007901CE0DE
:103D70006179802002F0BBFDA179812002F0B7FDBE
:103D80008121002002F02FFD4FF0000B0020079052
:103D90000BE00000E03C020854000020242000203A
:103DA0004FF0000B0020079000BF00BF04E04FF071
:103DB000000B0020079000BF00BF079838B12846CD
:103DC000FEF788FF082229463046FFF732F8BBF19C
:103DD000000F17D0BAF1000F14D01EB950461DF0D5
:103DE000A8FD0FE0706918B950461DF0A2FD09E06A
:103DF0007769062201215046089BB84710B150460A
:103E00001DF097FD06E1A0780428FBD10020089062
:103E100081460222611D08A8FCF700FF04F1080595
:103E20000898801E0890F0E000200790069001207E
:103E3000059000200490039002900222294604A8D5
:103E4000FCF7ECFE0222A91C03A8FCF7E7FE022205
:103E5000291D02A8FCF7E2FEBDF8100040F2466200
:103E6000811A90422ED008DCB0F5C86F0AD0A0F2BB
:103E7000416040B101287BD106E03A294BD07B2933
:103E800076D176E000BF00BF05F1060A002710E0FA
:103E90000AEB470251781AF8170002F02FFA0AEBE2
:103EA000470251781AF817001022FFF726FC781CF9
:103EB00087B2BDF80C008742EADB4FF6FF7002F0D4
:103EC0006CFC7CE005F1060A00271FE00AEB4702C4
:103ED00052780AB1012200E0002211461AF81700B8
:103EE00002F0F0FA1AF81710022002F07CFC0AEB3C
:103EF000470252780AB1012200E0002211461AF866
:103F000017001022FFF787FB781C87B2BDF80C0062
:103F10008742DBDB53E005F1060A002723E007EBCD
:103F20004700504440788DF8040007EB47005044A8
:103F300080788DF8050007EB47011AF80100019918
:103F400002F009FA07EB47001AF80010002002F00F
:103F50004AFC07EB47011AF8010010220199FFF70C
:103F6000F2FA781C87B2BDF80C008742D7DB26E056
:103F700024E0AF1D4FF0000B1BE097F801A038784C
:103F8000252805D15246B91C802002F07EFC07E0AE
:103F90003878262804D15246B91C812002F075FCDD
:103FA0000AF1020058441FFA80FB0AF1020007449C
:103FB00000BFBDF808008345DFDB00E000BF00BFA5
:103FC0000598B0B10798A0B11EB907981DF0B1FCD3
:103FD0000FE0706918B907981DF0ABFC09E077692C
:103FE00006220121DDE90630B84710B107981DF01F
:103FF000A0FCBDF80C00BDF808104843801D8144AA
:1040000004F1080000EB090500BF08988145FFF4A2
:104010000BAF00BF012028E5024600207047014693
:10402000002070472DE9F84F82460127BAF1000FB2
:1040300002D10020BDE8F88FDAF80050687800F06F
:104040000F00F7490978884201D00020F2E768782C
:1040500000F0F008B8F1800F01D100270DE0B8F1B1
:10406000900F02D0B8F1B00F05D1E87800F07F00D2
:1040700018B9002701E00020DCE7AC78042C36DB1F
:104080000F2C34DC211F88B202F019F91FFA80F9D5
:10409000002000906946484602F074F98346BBF15F
:1040A000000F01D00020C5E79DF800009DF8011029
:1040B0004618B608E878864217D0EE787600F6B251
:1040C000FE2E00D1FF26F0B28DF801008DF8000021
:1040D0004846009902F03FF94946002002F083FB70
:1040E000052248460099FFF72EFA00BFA7E0202CD2
:1040F00037DB502C35DAA4F12000C0F38F0904F02F
:10410000030600200090484602F0D9F81FFA80F913
:1041100016B96FB903260BE0012E01D0022E07D18C
:10412000B9F1050F04D0B9F1060F01D0002081E7E5
:104130006946484602F0D0F89DF80000B0420DD024
:104140003146484602F0DAF84946012002F04BFBBE
:10415000052231464846FFF7D0FA01E0002069E722
:104160006DE0502C23DB542C21DC02F0D1F9814688
:10417000A4F15000C6B20120B04000EA090008B125
:10418000012000E000208346BB450DD03946304673
:1041900002F0C3F90021032002F025FB03220021D5
:1041A000FF20FFF7CDFB01E0002043E747E0582C5C
:1041B00023DB5A2C21DC02F0D5F98146A4F158000A
:1041C000C6B20120B04000EA090008B1012000E0B9
:1041D00000208346BB450DD03946304602F0C7F972
:1041E0000021042002F0FFFA03220021FF20FFF744
:1041F0001EFB01E000201DE721E0602C1FDB612C8D
:104200001DDCA4F16000C6B2002000906946304673
:1042100002F04BF99DF80000B8420DD03946304607
:1042200002F050F93946022002F0DDFA0522394643
:104230003046FFF7F0F901E00020FBE600BF012067
:10424000F8E670B504460D46A07A012804D1294647
:104250002046FFF701FC70BDA07A082804D129464A
:104260002046FFF7DFFEF6E70020F4E71CB500204C
:1042700000900190AA208DF800000C208DF802001B
:1042800080208DF8030000208DF8040002208DF8B6
:1042900006006846FEF71EFD08216846FEF7AEFDE3
:1042A0001CBD1CB5002000900190AA208DF80000D4
:1042B00006208DF8020040208DF803006846FEF7C6
:1042C00009FD08216846FEF799FD41208DF803009D
:1042D0006846FEF7FFFC08216846FEF78FFD802048
:1042E0008DF803006846FEF7F5FC08216846FEF7E6
:1042F00085FD50208DF8030001208DF804006846EC
:10430000FEF7E8FC08216846FEF778FD00208DF8EE
:10431000040046208DF80300FF208DF80600684653
:10432000FEF7D8FC08216846FEF768FD1CBD70B595
:1043300004460D46152229462046FFF7DEF970BDDA
:104340003EB504460D4600200090684602F099F8FC
:10435000AA208DF8040006208DF80600C1208DF8F3
:10436000070000208DF80800BDF8000000128DF84D
:104370000900BDF80000C0B28DF80A0001A8FEF7E0
:10438000A9FC082101A8FEF71DFD00203EBD13B5C4
:104390000446152220460199FFF7D5F81CBD70B5DB
:1043A00004460D46152229462046FFF734F970BD14
:1043B00070B504460D46152229462046FFF7C0FA7F
:1043C00070BD70B504460D46152229462046FFF7FC
:1043D0002EFA70BD0246002070477CB504460D469B
:1043E000AA208DF8000006208DF80200C1208DF86B
:1043F000030020208DF804000DF10501802002F05B
:1044000090FA0DF10601812002F08BFA6846FEF762
:1044100061FC08216846FEF7D5FC00207CBD000049
:10442000540000207CB504460D46AA208DF80000FB
:1044300000208DF8010006208DF802001DB14320F8
:104440008DF8030002E044208DF8030000208DF871
:104450000400E0B28DF8050000208DF806006846E3
:10446000FEF738FCFF2C03D108216846FEF7AAFCB2
:1044700008216846FEF7C2FC0DB9FFF712FF0020C5
:104480007CBD10B50021FF20FFF7CCFF10BD01B5AA
:104490009DF800209DF801109DF8020000F05CF9E5
:1044A000002008BD10B50446204600F033FA002075
:1044B00010BD10B50446204600F044FA002010BD9F
:1044C00010B504460CB1012100E00021084600F0BF
:1044D00009FA002010BD0146102901DA7148017067
:1044E0000020704701460020704701464FF0FF3022
:1044F000704701464FF0FF30704701464FF0FF30E4
:10450000704701464FF0FF30704702464FF0FF30D2
:10451000704770B50446052505E06219511FA8B221
:1045200002F06EF86D1C092DF7DDA01D02F076F883
:1045300004F10A0002F07FF804F10B0002F085F8A4
:1045400004F10C0002F0C1F804F10E0002F0F9F8D9
:1045500004F10F0002F00DF970BD01464FF0FF307D
:10456000704701464FF0FF30704701464FF0FF3073
:10457000704701464FF0FF30704701464FF0FF3063
:10458000704701464FF0FF3070474FF0FF307047E3
:1045900002464FF0FF30704738B50446052505E068
:1045A0006A1FA15CA8B202F05AF86D1C092DF7DD54
:1045B000D4F80600009002F05EF8A07A02F073F8DA
:1045C000E07A02F079F8207B02F09FF8607B02F03D
:1045D000AAF8A07B02F0BFF8E07B02F0D4F838BD67
:1045E00010B53148FFF7D8FF10BD10B52F4801684E
:1045F0002F480068FCF73EF8642800D210BD2B4815
:1046000000682B49086010212A481DF0EDFC29485C
:10461000FFF77FFF1022274927481DF0EBFB58B119
:104620001022244924481DF060FC01202349087011
:104630001E4800682249086020480078C8B11B481D
:1046400001681F480068FCF715F843F69821884276
:104650000FD91022144918481DF0CCFB30B110229C
:10466000154911481DF041FCFCF730FE00201349AC
:10467000087000BFC2E770477047704770477047C7
:1046800001464FF0FF3070470E48006800F4E060CC
:104690000D490843001D0B490860BFF34F8F00BF51
:1046A000FEE7000054000020AE08002014000020A7
:1046B000740000203E2000202E2000206C000020EE
:1046C000700000200CED00E00000FA0508B5102095
:1046D0008DF8030002208DF802004020ADF80000A4
:1046E0006946AB4808F016FE00224021A84808F0B1
:1046F000C2FE2020ADF800006946A54808F00AFE79
:1047000001222021A24808F0B6FE1020ADF80000DA
:1047100069469F4808F0FEFD012210219C4808F0E0
:10472000AAFE4FF48070ADF800006946984808F082
:10473000F1FD00224FF48071954808F09CFE802026
:10474000ADF800006946924808F0E4FD002280219F
:104750008F4808F090FE08BD2DE9F84F07468846BF
:1047600091468DF800808DF801708DF8029000223E
:104770008021874808F07FFE00224FF48071844832
:1047800008F079FE00250BE001228021804808F026
:1047900072FE002280217E4808F06DFE681CC5B2C2
:1047A000202DF1DB00243BE001221102784808F0C3
:1047B00062FE01228021764808F05DFE0022802101
:1047C000734808F058FE002626E01DF806B04FF0AA
:1047D000100A00251CE00BEA0A0030B900224FF451
:1047E00080716B4808F047FE04E00122110268481E
:1047F00008F041FE01228021654808F03CFE0022BD
:104800008021634808F037FE4FEA6A0A681CC5B287
:10481000052DE0DB701CC6B2032ED6DB601CC4B2D3
:10482000022CC1DB00224FF48071594808F023FEAE
:1048300000240BE001228021554808F01CFE0022D4
:104840008021534808F017FE601CC4B2022CF1DB33
:10485000BDE8F88F10B54F480078C0F34114002030
:104860004D4908704D4908704D4908702CB94948A8
:10487000007800F01F00087015E0012C06D14548B3
:10488000007800F01F00454908700CE0022C06D1AA
:104890004048007800F01F003F49087003E0002006
:1048A0003C49087010BD3C4802783C4801783C48BF
:1048B0000078FFF751FF37480078401C35490870F1
:1048C00000BFEFE708B510208DF8030003208DF836
:1048D00002004FF48070ADF800006946314808F0DE
:1048E00019FD08BD10B5044622464FF480712D48CD
:1048F00008F0C1FD10BD08B510208DF8030003209D
:104900008DF802000420ADF800006946264808F042
:1049100001FD08BD10B5044622460421224808F0D6
:10492000AAFD10BD08B510208DF8030003208DF8F6
:1049300002004FF40040ADF800006946144808F04A
:10494000E9FC08BD10B504460CB1012000E00020D0
:1049500002464FF400410E4808F08DFD10BD10B521
:10496000FFF7B4FE002211461046FFF7F5FEFFF7F1
:10497000C2FF0120FFF7CEFFFFF7A4FF0120FFF7E2
:10498000B1FFFFF7CFFF0020FFF7DCFF10BD0000F5
:1049900000080140780000207B0000207A00002001
:1049A00079000020002001400018014000B587B0C8
:1049B0000121880408F0FDFF03A80AF091F94FF4E3
:1049C000E130039003A9AC480AF021F90121AA487B
:1049D0000AF0A9F94FF48060ADF8080003208DF8C3
:1049E0000A0018208DF80B0002A9A44808F092FCD8
:1049F0004FF40060ADF8080004208DF80B0002A908
:104A00009E4808F087FC27208DF8040001208DF8CF
:104A1000050000208DF8060001208DF8070001A890
:104A200007F013FC012240F2255193480AF087F960
:104A30000121084608F0A3FF43F290009049C861A5
:104A40008D48001D48620020086288620122802192
:104A500089480AF099F907B000BD38B5864804883E
:104A600004F0200010B904F0080050B18248001D85
:104A70000088C0B20090012269468248FCF7A2FD7E
:104A800000BF38BD10B5062320227F497F48FCF7C0
:104A9000ADFC4FF440727E497A48FCF775FD4FF447
:104AA00080627C497C48FDF7C9FCFFF77FFF10BDA1
:104AB000F0B585B0054600BF00270020049004A98A
:104AC0007048FCF7C7FD074607B92CE028E0002630
:104AD000002003900290002402A903ABCDE900104E
:104AE00039466D48049AFDF7BBFC064606B918E046
:104AF0006648FCF7BBFC04461CB930461CF019FFA5
:104B00000FE0266003986060012020720298A07276
:104B1000012221465D48FCF7C0FC0020049000BF44
:104B2000D5E700BF00BF00BF00BF00245B4800788E
:104B3000E0B15348006800F0200010B905B148E02A
:104B400048E04D48008800F0400010B905B140E051
:104B500040E010204A4948605148007A18B1504955
:104B600008681CF0E6FE00204C4908700021474808
:104B7000FCF7BFFC04465CB36068002801DD2068D8
:104B800048B9207A20B1206810B120681CF0D1FE0D
:104B900005B11EE01EE03A48C06920F00100384926
:104BA000C86160680862206888620846C06940F091
:104BB0000100C8610120394908701822214638488F
:104BC0001DF0D8F921463148FCF7CAFC05B100E0D8
:104BD00000E0AAE700BF00BF002401212B48FCF73A
:104BE00088FC044614B1204605B0F0BD00BF00208B
:104BF000FAE710B5044644B1207A10B120681CF0E1
:104C000098FE21462148FCF7ABFC10BD10B50446C8
:104C10001CB121461D48FCF7A3FC10BD4FF4806079
:104C200070472DE9F04105460E4690461F46002488
:104C300015B9601EBDE8F0811448FCF717FC044666
:104C400014B94FF0FF30F5E7256067602672002247
:104C500021460E48FCF721FC0020EBE710B5044686
:104C600004B910BD0020A0810C20608121460248BB
:104C700009F0CDFF00BFF4E700480040000C014000
:104C80000000024064260020502000205023002015
:104C9000642300207C2600207C2A00207C00002049
:104CA000942A002010B5002046E0002141E000EBEE
:104CB0004002F74B03EBC20232F92120C2EB021291
:104CC0004FF4077303EB42125B0092FBF3F212B254
:104CD00000EB4003EE4C04EBC30323F8212000EB70
:104CE0004002234603EBC20202EB8102B2F902202A
:104CF000C2EB02124FF4077303EB42125B0092FB0C
:104D0000F3F212B200EB400304EBC30303EB8103A5
:104D10005A8000EB4002234603EBC20232F8212006
:104D2000A03212B200EB400304EBC30323F82120AE
:104D3000491C0529BBD3401C0328B6D3002046E0FC
:104D4000002141E000EB8002D24B03EB820232F9FA
:104D50002120C2EB02124FF4077303EB42125B00F7
:104D600092FBF3F212B200EB8003CA4C04EB830314
:104D700023F8212000EB8002234603EB820202EBA2
:104D80008102B2F90220C2EB02124FF4077303EB67
:104D900042125B0092FBF3F212B200EB800304EBD1
:104DA000830303EB81035A8000EB8002234603EB6D
:104DB000820232F82120A03212B200EB800304EB11
:104DC000830323F82120491C0429BBD3401C03285A
:104DD000B6D3002045E000EB4001AF4A32F8211085
:104DE000C1EB01114FF4077202EB4111520091FB2C
:104DF000F2F100EB4002A84B23F8221000EB400137
:104E00001A4602EB81014988C1EB01114FF4077288
:104E100002EB4111520091FBF2F100EB400203EB77
:104E20008202518000EB40011A4602EB8101898821
:104E3000C1EB01114FF4077202EB4111520091FBDB
:104E4000F2F100EB400203EB8202918000EB4001A3
:104E50001A4632F82110A03100EB400223F822104C
:104E6000401C0428B7D310BD70B56FF07F4007F029
:104E70000CF840F2DF1340F21F320021084606F022
:104E80003DFF002429E004EB4401814A02EBC1010B
:104E9000897D4FF47F0202EA014104EB44027C4B1E
:104EA00003EBC202527D4FF47F4303EA0222114317
:104EB00004EB4402764B03EBC202127D41EA02008E
:104EC00006F0E3FF04EB4401714A02EBC10000234A
:104ED0001A46052106F0FEFE641C032CD3D30024E1
:104EE00029E004EB84016B4A02EB8101897C4FF4D9
:104EF0007F0202EA014104EB8402664B03EB82026B
:104F0000527C4FF47F4303EA0222114304EB8402F4
:104F1000604B03EB8202127C41EA020006F0B5FF0F
:104F200004EB84015B4A02EB810000231A46042152
:104F300006F0D0FE641C032CD3D3002430E004EB35
:104F40004401554A02EB8101897A4FF47F0202EA5B
:104F5000014104EB4402504B03EB8202527A4FF4BE
:104F60007F4303EA0222114304EB44024A4B03EB62
:104F70008202127A41EA020006F087FF04EB440342
:104F8000454D05EB83039A8804EB440305EB83034B
:104F9000598804EB440335F8230007F075F8641CC6
:104FA000042CCCD370BD2DE9F05F07460C461E469D
:104FB000012F1AD12546D5F80880D5F80490B9F507
:104FC000487F02DD801EBDE8F09FB8F1000F01DAD6
:104FD000C8F10008B8F5F07F02DD4FF0FF30F2E7CE
:104FE000A98E88B205F0DBFF2DE0022F2BD1B04651
:104FF0002546D8F81C10C1F5487000EBD0714FEA77
:105000006109D8F82010C1F5F07000EBD0714FEABB
:10501000610AA8886988A0EB010B2A88524491B2E2
:105020006A884A4490B204F08FFFA988494488B244
:1050300004F0A2FF4FF43050184908805946A86880
:1050400006F082F800BF0020BDE710B5144B154AEA
:105050000021184600F030FD044634B1104800F03D
:1050600059FDFFF701FF012010BD0020FCE710B53E
:105070000B4800F05DFD0446002C06DA084800F0FD
:1050800049FDFFF7F1FE012010BD2046FCE70000BE
:1050900080000020C800002004010020FE07006CF2
:1050A000AC2A0020A74F000810B5094800F032FDD7
:1050B000002010BD10B5FFF7C8FF04460CB100205A
:1050C00010BD00BFFFF7D3FF0028FBD00020F7E79B
:1050D000AC2A00200246914201D3881A7047C2F1DF
:1050E000FF300844FAE7002046498871C8717047CC
:1050F00044480079704710B510F0B7FF4149086087
:1051000010BD01203F494871704702203D49487158
:105110007047704710B53B48007900B110BD394861
:10512000807910B9FFF791FF02E0002004F000FF42
:1051300001203449087100BFF0E710B5314800790B
:1051400000B910BD012004F0F3FEFFF7ADFFFFF73B
:10515000D2FF00202B4908710AF0A3FD04460AF093
:10516000B0FD00BFEDE770B52648C079062818DA13
:105170002448C079244951F82040002572B610F027
:1051800074FF06461F4908683146FBF773FA054667
:1051900062B61C48007918B9A54201D3FFF7BAFFDF
:1051A00000BF18484079012805D1FFF7B3FF002060
:1051B0001449487108E013484079022804D1FFF7E8
:1051C000BCFF00200F494871FFF751FF70BD014639
:1051D000072902DB4FF0FF3070470A48C1710020F9
:1051E000FAE70146022902DB4FF0FF30704705481D
:1051F00081710020FAE70348C0797047014880793F
:105200007047000034010020F83C020810B5032369
:105210001022AD49AD48FCF7E9F84FF40072AC49F3
:10522000AC48FCF7B1F900201AF034FFAA48046832
:1052300000BFA94801682046FBF71CFA6428F8D390
:1052400001201AF027FF1AF0C8FE1AF083FE1BF0A7
:1052500013FD10BD70B504460D462A4621469D48F3
:10526000FCF7B0F970BD9D480068052801D1012008
:1052700070470020FCE72DE9F04105460E46174631
:1052800098460024FFF7EFFF10B9601EBDE8F081DB
:1052900015B94FF0FF30F9E78C48FCF7E7F8044602
:1052A00014B94FF0FF30F1E72560C4F8048026728E
:1052B000A781002221468548FCF7EFF80020E5E7AA
:1052C0002DE9F04105460C461646FFF7CCFF08B91C
:1052D000BDE8F081042E02D0052E00D0F8E7ADB174
:1052E000A4B120461CF0F6FA074677B122462946BB
:1052F00038461CF0FAFD2346324601213846FFF7B6
:10530000BAFF10B138461CF014FB00BF00BFDFE746
:10531000F8B5054600BF00270020009069466D489B
:10532000FCF798F9074607B928E022E0002404209A
:105330001CF0D0FA064606B91EE06448FCF796F861
:1053400004461CB930461CF0F4FA15E038683060A9
:10535000266004206060012020720820A0720122D3
:1053600021465A48FCF799F80098001F00903F1D0D
:1053700000BF00980428D9DA00BF00BF00BF00BFFB
:1053800000245748007808B354480068052813D112
:1053900054488089042807D101201BF0FFFE2028F3
:1053A0000AD005B169E069E002201BF0F7FE202871
:1053B00002D005B161E061E04A48007A18B149497C
:1053C00008681CF0B6FA00204549087000213F48E3
:1053D000FCF78FF80446002C4ED06068002801DDF1
:1053E000206848B9207A20B1206810B120681CF0EC
:1053F000A0FA05B141E041E03848006805280AD02C
:10540000207A10B120681CF094FA21462F48FCF74E
:10541000A7F885B331E001203149087018222146F0
:1054200030481CF0A7FD2F488089042808D181202E
:10543000D4E900121CF01CFA01201BF0C1FE14E09C
:1054400028488089052808D18220D4E900121CF060
:105450000FFA02201BF0B4FE07E0207A10B120689A
:105460001CF067FA00201E49087021461748FCF717
:1054700077F805B101E0FFE700E081E700BF00BF7A
:10548000002401211148FCF734F804460CB12046F1
:10549000F8BD00BF0020FBE710B5044644B1207AF8
:1054A00010B120681CF045FA21460848FCF758F86E
:1054B00010BD10B504461CB121460448FCF750F855
:1054C00010BD002070470000FC2A00207C2C00202A
:1054D000902C0020902E0020140000206408002052
:1054E0003C010020A82E002070B50546002405E0F0
:1054F000601CC4B2C82C01DD002070BD0221FB4835
:1055000008F0FDFB0028F3D02946F84808F0A4FB7A
:10551000002405E0601CC4B2C82C01DD0020ECE7CB
:105520000121F24808F0EBFB0028F3D0EF4808F027
:1055300095FBC0B2E1E700B587B00121880308F010
:1055400038FA4FF46040ADF8180018208DF81B00B1
:1055500003208DF81A0006A9E54807F0DBFE4FF49A
:105560006041E34807F083FF0020ADF804004FF4EA
:105570008270ADF806000020ADF808000220ADF8FA
:105580000A000120ADF80C004002ADF80E0000202A
:10559000ADF81000ADF812000720ADF8140001A915
:1055A000D24808F083FA0121D04808F024FBFF20FC
:1055B000FFF79AFF07B000BD10B50446CB4800883E
:1055C0004FF6C7710840C949088008460088204343
:1055D00008800121C54808F00EFB10BD10B500245D
:1055E0004FF48050C249143108609020FFF77CFFCF
:1055F0000020FFF779FF0020FFF776FF0020FFF77C
:1056000073FFFF20FFF770FF44EA0024FF20FFF73D
:105610006BFF04434FF48050B549103108602046B9
:1056200010BD08B54FF48050ADF8000010208DF883
:10563000030003208DF802006946AD4807F06AFEBA
:105640004FF48050AA4910310860FFF774FFFFF74C
:10565000C5FFA849088008BD10B500244FF480504C
:10566000A349143108600520FFF73EFFFF20FFF734
:105670003BFF04464FF480509D491031086020469E
:1056800010BD10B504464FF480509949143108609C
:105690000120FFF729FF2046FFF726FF4FF4805037
:1056A00093491031086010BD10B54FF480509049F7
:1056B000143108600620FFF717FF4FF480508C4923
:1056C0001031086010BD10B54FF480508849143176
:1056D00008600420FFF708FF4FF480508449103120
:1056E000086010BD10B5FFF7B7FF00F0010010BD56
:1056F0002DE9F04106460C461746FFF7F3FF18B1B7
:105700004FF0FF30BDE8F0814FF4805078491431FC
:1057100008600320FFF7E8FEC4F30740FFF7E4FE4C
:10572000C4F30720FFF7E0FEE0B2FFF7DDFE00253F
:1057300004E0FF20FFF7D8FE70556D1CBD42F8D382
:105740004FF480506A49103108600020DAE72DE9F3
:10575000F04106460C461746FFF7C4FF18B14FF05C
:10576000FF30BDE8F081FFF79FFF4FF480506049A4
:10577000143108600220FFF7B7FEC4F30740FFF7BB
:10578000B3FEC4F30720FFF7AFFEE0B2FFF7ACFEB5
:10579000002504E0705DFFF7A7FE681C85B2BD42DE
:1057A000F8DB4FF480505249103108600020D8E7F0
:1057B0002DE9F04107460E461446FFF793FF18B156
:1057C0004FF0FF30BDE8F081F0B2C0F58075AC421B
:1057D00000D8254617E0AAB231463846FFF7B7FF92
:1057E0008046B8F1000F00D00DE0AC4200D10BE0D4
:1057F0002F442E44641BB4F5807F02D94FF480758A
:1058000000E0254600BFE6E700BF0020DAE710B55C
:1058100000BFFFF721FF00F001000028F9D110BD03
:1058200010B5FFF75FFF10B14FF0FF3010BDFFF76D
:105830003BFFFFF7ECFF4FF480502D491431086017
:10584000C720FFF751FE4FF48050294910310860FE
:105850000020EBE770B505462C03FFF743FF10B1BE
:105860004FF0FF3070BDFFF71FFFFFF7D0FF4FF481
:1058700080501F49143108602020FFF735FEC4F323
:105880000740FFF731FEC4F30720FFF72DFEE0B21B
:10589000FFF72AFE4FF480501549103108600020B0
:1058A000E0E710B5FFF71EFF10B14FF0FF3010BD5D
:1058B0004FF480500E4914310860B920FFF714FEF0
:1058C0004FF480500A49103108600020EFE710B50E
:1058D0004FF48050064914310860AB20FFF704FEF6
:1058E0004FF4805002491031086010BD003800406C
:1058F000000C01403E0100206D4800884EF61771F3
:10590000884201D1012070470020FCE7034613B90B
:105910004FF0FF307047080B0003884202D04FF071
:10592000FF30F7E7B2F5000F03D88818B0F5000F85
:1059300001D9C1F500020020186058609860D86055
:10594000196099605A600120D8600020E2E70246A1
:1059500012B94FF0FF30704751600020FBE72DE98E
:10596000F04704460F46154614B10FB1002D03DC75
:105970004FF0FF30BDE8F087E06810B94FF0FF301E
:10598000F8E7FFF7AFFE10B16FF00100F2E7A06893
:105990006FF30B00A168884211D1E068032802D19F
:1059A0000220E0600BE0A168080BFFF753FF0646FA
:1059B0000EB13046DEE70320E060401FDAE7A06862
:1059C00000F580504FEA10384FEA08382E464FF065
:1059D0000009A0682844404502D9A068A8EB000649
:1059E00032463846A168FFF7E3FE8146B9F1000F61
:1059F00004D1A0683044A0603046BBE74846B9E710
:105A00002DE9F04780460F4615460024B94629483F
:105A1000D0F800A00EE02A1B09EB04014046FFF776
:105A20009EFF0646701C00B90EE0B01C00B901E0F4
:105A3000344400BFAC4207DA1E4801685046FAF70A
:105A400019FEB0F5FA6FE6D300BF2046BDE8F08737
:105A50002DE9F04104460E46154600271548D0F8BA
:105A6000008014B10EB1002D03DC4FF0FF30BDE813
:105A7000F081E06810B94FF0FF30F8E70DE02A46FA
:105A80003046A168FFF734FE074637B90220E060D0
:105A9000A0682844A0602846E9E706480168404617
:105AA000FAF7E8FDB0F5FA6FE9D32846DFE7000022
:105AB0003E010020140000202DE9F04104460D466F
:105AC00016461F461CB94FF0FF30BDE8F08150214B
:105AD00020461CF0ABFA0420E062FFF70DFF10B97E
