:020000040800F2
:10000000807D002001020008090200080B020008A0
:100010000D0200080F020008110200080000000095
:1000200000000000000000000000000013020008B3
:10003000150200080000000017020008450600082D
:100040001B0200081B0200081B0200081B0200081C
:100050001B0200081B02000893080008770900082B
:100060001B0200081B0200081B0200081B020008FC
:100070001B0200081B0200081B0200081B020008EC
:100080001B0200081B0200081B0200081B020008DC
:100090001B0200081B0200081B0200081B020008CC
:1000A0001B0200081B0200081B0200081B020008BC
:1000B0001B0200081B0200081B0200081B020008AC
:1000C0001B0200081B0200081B0200081B0200089C
:1000D0001B0200085F1E000867210008033F00089C
:1000E000C37200081B0200081B02000800F002F89F
:1000F00000F06EF80AA090E8000C82448344AAF154
:100100000107DA4501D100F063F8AFF2090EBAE851
:100110000F0013F0010F18BFFB1A43F0010318473B
:10012000D0C30200F0C302000A444FF0000C10F8E4
:10013000013B13F0070408BF10F8014B1D1108BF65
:1001400010F8015B641E05D010F8016B641E01F805
:10015000016BF9D113F0080F1EBF10F8014BAD1C55
:100160000C1B09D16D1E58BF01F801CBFAD505E073
:1001700014F8016B01F8016B6D1EF9D59142D6D3CD
:10018000704700000023002400250026103A28BFF5
:1001900078C1FBD8520728BF30C148BF0B607047F9
:1001A00066291EF0B68264291CF00C860020704778
:1001B0001FB59DE803001DF07DF81DF039FB04001C
:1001C000002000211EF0A6F8E0601FBD10B510BD94
:1001D0001DF048FC1146FFF7EBFF00F036F91DF06B
:1001E00066FC03B4FFF7F2FF03BC1DF097FC0000B0
:1001F000EFF3108072B6704780F3108870470000EC
:100200000948804709480047FEE7FEE7FEE7FEE7AA
:10021000FEE7FEE7FEE7FEE7FEE7FEE704480549E6
:10022000054A064B704700001F030008ED00000858
:1002300080690020807D0020807900208079002066
:100240000CB50020019000906D48006840F48030AB
:100250006B49086000BF6A48006800F400300090F5
:100260000198401C0190009818B90198B0F5A06F52
:10027000F1D16348006800F4003010B10120009013
:1002800001E0002000900098012843D15D480068FB
:1002900040F010005B4908600846006820F0030049
:1002A00008600846006840F0020008605448406852
:1002B000534948600846406848600846406840F432
:1002C000806048600846406820F47C10486008461A
:1002D000406840F4E81048600846006840F08070CC
:1002E000086000BF4648006800F000700028F9D0A0
:1002F0004348406820F00300414948600846406890
:1003000040F00200486000BF3D48406800F00C002B
:100310000828F9D10CBD10B5FFF792FF10BD10B53C
:100320003748006840F001003549086008464068D9
:10033000354908403249486008460068334908405A
:100340002F4908600846006820F4802008600846AD
:10035000406820F4FE0048604FF41F008860FFF7FB
:10036000DAFF4FF000602A4908602A48091D08603A
:1003700010BD10B5002100200022214B5B6803F066
:100380000C0121B1042906D0082928D107E0224B0D
:10039000224C236027E0204B204C236023E0184BA5
:1003A0005B6803F47010164B5B6803F48032022321
:1003B00003EB904022B91A4B4343184C23600DE0E5
:1003C0000F4B5B6803F4003323B1154B4343134CCD
:1003D000236003E0104B4343104C236003E00E4BBB
:1003E0000E4C236000BF00BF054B5B68C3F30313D3
:1003F0000C4CE15C094B1B68CB40084C236010BDE2
:1004000000100240002002400000FFF8FFFFF6FE4F
:1004100008ED00E00003FA0500127A000000002059
:1004200000093D000400002010B545F255500AF0C7
:100430008DFC03200AF08DFC4FF49C700AF08CFCBC
:100440000AF08DFC0AF090FC10BD08B50027B846F4
:10045000B946DFF898A101F059FC02F032FE00F035
:1004600001F900F00AF900F04AFF01F079FB00F011
:1004700096FA01F009FD01F08BFE03F057FD03F041
:10048000CAFC00F000F908F05EF907F04AF806F03F
:1004900020FE01220021084601F09AFB04F025F914
:1004A00009F0C4F803F052FE03F032FF40F6B83012
:1004B00000F0ADF803F00CFB06F0AAFC95E04C4808
:1004C0000168404600F09AF838B14948D0F80080F9
:1004D00003F0D2FF08B904F062F904F006F84448CA
:1004E0000168384600F08AF8642801D94048076856
:1004F000002001F0DFFC0446002001F05FFE0090C8
:10050000002003F029FD054601F023FC064616B144
:10051000304602F08EFE0CB33649204602F06DFCE8
:1005200018B9204601F068FD18E04FF0000B314982
:10053000204603F0E1F8217A0022D4E9000303F019
:10054000C4FD8346BBF1000F04D0207A10B12068AF
:100550001CF0FDFB204601F079FD00BF7DB30021BA
:10056000284602F04AFC88B921480168504600F04C
:1005700045F842F21071884201D903F0E5F81C48B1
:10058000D0F800A0284603F088FD18E04FF0000BDB
:100590000021284603F0B0F8297A0022D5E90003AB
:1005A00001F037FD8346BBF1000F04D0287A10B16B
:1005B00028681CF0CCFB284603F07CFD00BF0098A7
:1005C00001F0A7FE304601F0CAFB09480168484621
:1005D00000F014F841F28831884204D30448D0F87E
:1005E000009003F096F803F078FA68E7E0B1FFFFB7
:1005F0001400002064ED010800BFFEE702469142AE
:1006000001D3881A7047C2F1FF300844FAE710B5E9
:1006100003461348046800BF114801682046FFF7ED
:10062000EDFF9842F8D310BD002105E0002200E064
:10063000521C0A2AFCD3491C8142F7D370477047E9
:100640007047704710B506480068401C04490860B0
:1006500004F0A0F801F019FB00F00DFA10BD000045
:100660001400002010B5012108070AF00AFD01213D
:1006700040F2FD100AF0F8FC10BD10B50121294828
:100680000AF0E7FA10BD30B5274800684FF47A72D7
:10069000B0FBF2F1B1F1807F00D31DE021F07F408B
:1006A000401E4FF0E022506150170F22002807DA59
:1006B00013071D0E1D4B00F00F04241F1D5503E0F2
:1006C00013071C0E1A4B1C5400BF00204FF0E022F1
:1006D00090610720106100BF30BD3EB51248006830
:1006E0001449B0FBF1F0401E84B2012108460AF023
:1006F000C8FC68460BF01CF94FF6FF70ADF804001B
:10070000ADF800400020ADF80600ADF802006946E3
:100710004FF080400AF0E0FD012188070BF038F926
:100720003EBD0000000230000000002018ED00E097
:1007300000E400E040420F001FB504208DF80F00D8
:1007400002208DF80E000120ADF80C0003A9F74837
:100750000AF0AEF94FF40050ADF80C0003A9F348CD
:100760000AF0A6F900208DF8080010208DF8090085
:1007700001208DF80A00002102200AF0AFFA0120C2
:10078000019001A809F0D0FA01208DF801000020A5
:100790008DF8020001208DF8030006208DF800007E
:1007A000684609F020F90220ADF80C0003A9DF48E3
:1007B0000AF07EF94FF48040ADF80C0003A9DB4845
:1007C0000AF076F9012102200AF088FA022001904D
:1007D00001A809F0A9FA07208DF80000684609F081
:1007E00002F91FBD28B1D249C988491CD04AD1801D
:1007F00004E0CF49C988491ECD4AD180CC49488000
:10080000C9883F2907DD18B10021C94AD18002E01B
:100810003F21C74AD18070472DE9F041C348806825
:1008200086B2C248806887B207F0010706F4005616
:1008300027B90EB9012405E0002403E00EB9002415
:1008400000E0012484F001042046FFF7CBFFB84804
:10085000C568B8480068B649C860B6480168284607
:10086000FFF7CCFE0546FA2D03D90120B049888058
:100870000DE02DB14FF4FA70B0FBF5F0AC49888073
:10088000AB488088502802DD5020A9498880BDE807
:10089000F08110B5012009F0ADFA68B10024FFF72E
:1008A000A7FC04460120A44908702046FFF7A4FCD9
:1008B000012009F0B0FA00BF10BD30B19C49C98ACF
:1008C000491C8AB29A49CA8205E09949C98A491ED7
:1008D0008AB29749CA8296494882C98A3F2907DD68
:1008E00018B100229249CA8202E03F229049CA828E
:1008F00070472DE9F041002000E0401C7828FCDB27
:100900008A48806886B28948806887B207F0020703
:1009100006F4804627B90EB9012405E0002403E05F
:100920000EB9002400E0012484F001042046FFF702
:10093000C4FF7F48C5697F4801687D48C1617D4823
:1009400001682846FFF75AFE0546FA2D03D9012112
:10095000774881820DE02DB14FF4FA70B0FBF5F1CC
:10096000734881827248808A502802DD5021704885
:100970008182BDE8F08110B5022009F03BFA68B130
:100980000024FFF735FC044601206B4948702046DF
:10099000FFF732FC022009F03EFA00BF10BD10B58F
:1009A000FFF7CAFE00240DE0614901EB04110C8041
:1009B00000205F4901EB0411C8805D4901EB04117F
:1009C0000881641C022CEFD310BD0146C8880A8937
:1009D000904203D0C8880881012070470020FCE7BE
:1009E00070B504460026022C02DD4FF6FF7070BD84
:1009F0004F4800EB0410C088401C85B2FFF7F8FB9D
:100A000006464E4830F81400A84200DA002548484F
:100A100000EB04100581464800EB0410C580304609
:100A2000FFF7EAFB2846E2E70146414800EB0110E8
:100A30000089704770B504460D460026022C02DD81
:100A40004FF6FF7070BD3D4830F81400A84202DA3E
:100A50003A4830F81450FFF7CBFB0646344800EB19
:100A600004100581324800EB0410C5803046FFF7C2
:100A7000C3FB2846E6E770B58AB00020099000263F
:100A8000FFF7B6FB064600241BE02B48005D20B1B3
:100A90002948005D401C284908552748005D032867
:100AA00003D1012009A9085509E02348005D1C284D
:100AB00005D1002020490855022009A90855601CCD
:100AC000C4B2022CE1DB3046FFF796FB9DF8240010
:100AD000012802D1FFF7A0FE17E09DF824000228AC
:100AE00013D11349498809B1012100E000210846CA
:100AF000FFF778FE0E48C0884FF6FE7108400C499B
:100B0000C8800846C088401E08819DF8250001283D
:100B100002D1FFF7EEFE24E09DF82500022820D147
:100B20000349498A61B101210BE000000010014036
:100B3000F8030020140000201800002016E7010828
:100B400000210846FFF7B9FE1548C08A4FF6FE712E
:100B500008401349C8820846C08A401E81B2104826
:100B60000183002518E00E4901EB0510FFF72DFF6A
:100B700088B104208DF80000094800EB0513D3E983
:100B80000012D3E90203CDE90403CDE9021268465D
:100B900001F0ECF800BF6D1C022DE4D30AB070BD6B
:100BA000F803002010B50346002004E0141A641E68
:100BB0000C5D1C54401C9042F8D310BD30B5024669
:100BC0000B464FF0FF3002B103B930BD002108E001
:100BD000C4B2555C6C40734D55F8244084EA102033
:100BE000491C9942F4D3C04300BFEEE770B50246FA
:100BF0000C46FF25FF2312B94FF6FF7070BD09E0C8
:100C000012F8010B80EA03016748405C80EA0503A3
:100C10006648455C201EA4F10106B4B2F0D143EA57
:100C20000520EBE72DE9F04F03460C4694460022E1
:100C30001D680026DFF87891012C57DD601E53F8FF
:100C40002020342090FBF4F000F1060846E04E44EA
:100C5000C6F3810700211FE0481C53F820505009BB
:100C600080EA85004FEAD50A8AEA021A504486EAE9
:100C7000050A01F0030B8BEA070B5CF82BB08BEA3B
:100C8000020BDA4480EA0A0053F821A0504443F8EA
:100C9000210053F82120491C601E8842DCDC1D68BD
:100CA000500980EA85004FEAD50A8AEA021A82448E
:100CB00086EA050001F0030B8BEA070B5CF82BB00A
:100CC0008BEA020B58448AEA000A601E53F820009F
:100CD0008244601E43F820A053F82020B8F10000A1
:100CE000A8F10108B3DC0020BDE8F08FB4F1FF3FAC
:100CF00056DA6442601E53F82020342090FBF4F052
:100D000000F1060808FB09F646E0C6F38107611EFC
:100D100020E0481E53F82020500980EA85004FEA61
:100D2000D50A8AEA021A504486EA050A01F0030B42
:100D30008BEA070B5CF82BB08BEA020BDA4480EAF3
:100D40000A0053F821A0AAEB000043F8210053F851
:100D50002150491E0029DCDC601E53F82020500978
:100D600080EA85004FEAD50A8AEA021A504486EAE8
:100D7000050A01F0030B8BEA070B5CF82BB08BEA3A
:100D8000020BDA4480EA0A00D3F800A0AAEB0000C4
:100D900018601D68A6EB0906002EB6D10020A3E757
:100DA0000120A1E72CE701082CEB01082CEC01083D
:100DB000B979379E2DE9F0410646042709F053F82A
:100DC00009F0BDFA04466EB1E04340F0C005C02012
:100DD000A043C02815D009F010F9284609F0CDF934
:100DE00000F0B3FA44F0C000C54364F0C000401CFA
:100DF00038B109F002F915B1284609F0BEF900F042
:100E0000A4FA09F03CF8BDE8F0812DE9F74F04465B
:100E100090460426DDF804B028F00300404502D0D7
:100E2000701FBDE8FE8FE40AE40204EB080909F034
:100E30001AF808F2FF704FEAD02A352009F0AEFA0E
:100E4000002707E04FF4006101FB074009F050F86C
:100E500006467F1C574501D2042EF3D0042E00D045
:100E600026E02546002708E038467F1C5BF8201066
:100E7000284609F00DF906462D1D4D4501D2042ED8
:100E8000F2D0042E00D013E025460426002708E007
:100E90002A6838467F1C5BF82000824200D0022678
:100EA0002D1D4D4501D2042EF2D108F0DCFF00BF0C
:100EB000042E02D04FF0FF30B3E70020B1E770B549
:100EC000044634B10C252A46FA4920461CF00FF995
:100ED00000BF70BD2DE9F04107460026F64D002405
:100EE00015E055F82400401C78B9601C55F8200026
:100EF000401C50B9A01C55F82000401C28B9E01C2B
:100F000055F82000401C00B903E0361D641CBE42A9
:100F1000E7D300BF3146E848FFF750FEBDE8F08157
:100F20002DE9FF4104460D4616461F4604B125B97A
:100F30004FF0FF3004B0BDE8F08195E807008DE880
:100F4000070003964FB19DE80F0084E80F006A4642
:100F500004212046FFF766FE06E0D84820606A4676
:100F600001212046FFF75EFE0020E3E72DE9F04374
:100F70008BB006460F46154626B94FF0FF300BB032
:100F8000BDE8F0834FF00409E84696E80F0001AC95
:100F90000FC417B1CA48009009E0C848009000206B
:100FA000CDE9065001AA022106A8FFF73BFE00206A
:100FB0000890002405E058F824100898484008904C
:100FC000641C082CF7D308F04EFF342009F0E6F932
:100FD000BC4808F08DFF8146E846002410E058F830
:100FE0002410B84A02EB840009F052F88146B9F1A6
:100FF000040F04D008F043FF4FF0FF30BFE7641C3C
:101000000A2CECD308F03BFF0020B8E72DE9F043B1
:1010100087B005468846AB4CAB480068401CB0B969
:10102000AA48FFF74CFF4FF0FF30FFF753FFA649E8
:10103000086000230846A5490268A548FFF770FF2D
:101040000123A148A1490268A248FFF769FFA2480D
:10105000007800287CD199492068884203D09849BB
:101060002068884267D1DFF85C920027002603E001
:1010700059F826004740761C082EF9D3206AB8425A
:1010800058D18E492068884238D1914800686168FB
:10109000884224D1D4E90601CDE90401221D6FF074
:1010A000010104A8FFF7BEFD0020DDE90421D2F113
:1010B0000302884103D20420874908700EE0844B64
:1010C0000FCB8DE80F0004994A1C4FF000016846D1
:1010D000FFF74CFF01208049087000BF2AE07C4BDD
:1010E0000FCBCDE90423CDE902010422002102A89F
:1010F000FFF73CFF0420784908701BE01022211DF7
:1011000074481BF034FF18B903207349087011E0CC
:101110006F4BD3E901211868DB68CDE90413CDE9F1
:1011200002020422002102A8FFF720FF04206A49DE
:10113000087000BF0CE0664B0FCB02AE0FC600225A
:10114000114602A8FFF712FF01206349087000BF93
:1011500061480078012831D1604801686048006822
:10116000FFF74CFA44F62061884227D9D4E90601FA
:10117000CDE90401201D0FC88DE80F005748006815
:1011800057490860221D6FF0010104A8FFF74AFDCE
:101190000498421C4FF000016846FFF7E7FE00206C
:1011A000DDE90421D2F10302884102D204204A4938
:1011B000087015B141460220A84700BF4648007894
:1011C000042821D11022211D42481BF0D0FE28B94D
:1011D00003204149087007B0BDE8F08315B14146CE
:1011E0000420A8473D4801683D480068FFF706FA1B
:1011F00044F62061884207D93848006838490860B9
:1012000015B141460520A84700BFE4E770B5044684
:10121000042508F028FE00BF342009F0BFF808F0CC
:10122000ECFE0546042D00D006E0214621481C3086
:1012300008F07FFF054600BF00BF08F020FE042D28
:1012400001D1002070BD4FF0FF30FBE719481C3082
:10125000007870472DE9F0414FF004080025214E39
:10126000214F4AF2A55031460880002404E036F8A8
:101270001400284485B2641C082CF8D31948058250
:1012800008F0F1FD342009F089F8174808F030FE25
:10129000804600242CE036F81410384608F02BFF66
:1012A0008046B8F1040F21D008F0E9FD0020BDE828
:1012B000F0810000E8F7FF1F0030000867452301B8
:1012C000EFCDAB8900900708240000202C040020FB
:1012D00048040020380400201C00002014000020D6
:1012E000200000201804002000980708BF1C641C80
:1012F000092CD0D308F0C3FD0120BDE8F08170B502
:101300000025184E1222184930461BF0ABFE30461D
:1013100000884AF2A551884200D00EE0002404E083
:1013200036F81400284485B2641C082CF8D30D4804
:10133000008AA84200D170BD00BF0A48801C02F09C
:1013400072FBFFF787FF00BFF5E70848006800F46D
:10135000E06007490843001D04490860BFF34F8F50
:1013600000BFFEE718040020009807080CED00E01D
:101370000000FA052DE9F04707460C461646984648
:101380004FF0000917B10CB1002E03DA4FF0FF3017
:10139000BDE8F087FEF72CFF814606EB4600C10052
:1013A00020461BF000FF142138461BF0FCFE0025F0
:1013B00010E005EB450004EBC000A0F80C8005EB45
:1013C000450004EBC000183005EB450104EBC101FA
:1013D00008616D1C701EA842EBDC002005EB450186
:1013E00004EBC10108617E603C604846FEF704FFE3
:1013F0000020CDE770B50446002600250CB900207A
:1014000070BDFEF7F5FE0646206828B125682869FC
:1014100020600020686128613046FEF7EDFE284616
:10142000EEE72DE9F04106460C46174606B11CB919
:101430004FF0FF30BDE8F0814FF0000817B106F122
:101440000C0001E006F110000546FEF7D1FE8046D3
:10145000286818B92C606461246109E0286820615B
:1014600028684069046128684069606128684461AF
:101470004046FEF7C1FE0020DCE72DE9F0410546BD
:101480000F464FF00008002615B90020BDE8F08196
:1014900017B105F10C0001E005F110000446FEF75C
:1014A000A7FE8046206808B9002618E02668206854
:1014B00000692168884202D1002020600CE0206889
:1014C00040692168096948612068006921684969A3
:1014D000086120680069206000207061306140462A
:1014E000FEF78AFE3046D1E770B504460D4604B1DA
:1014F00015B94FF0FF3070BD0026FEF779FE0646A5
:101500002068286125603046FEF776FE0020F2E76D
:101510002DE9F04104460D461646002704B11DB9D9
:101520004FF0FF30BDE8F081FEF762FE074618215C
:1015300020461BF038FE25607008A060A068284493
:1015400060603846FEF758FE0020EBE72DE9F047D3
:1015500004460F4615464FF00008C14604B11FB9B6
:101560004FF0FF30BDE8F087FEF742FE804661692C
:10157000A068461AB54202D94FF0FF3929E0E06869
:101580002844A16888420FD9D4E90201461AE268CA
:1015900021688818324639461BF064FDAA1BB91928
:1015A00020681BF05FFD06E0E268216888182A4683
:1015B00039461BF057FDE0682844E060D4E902108A
:1015C000B0FBF1F201FB1200E06060692844606149
:1015D00000BF4046FEF710FE4846C3E72DE9F04144
:1015E00004460D46002714B90020BDE8F08160696B
:1015F00008B90020F9E7FEF7FBFD0746D4E904012E
:101600000844A168884211D92169A068461A236953
:101610002268D118324660681BF024FD63699A1B6A
:10162000D4E9001398191BF01DFD06E02669236814
:101630009919626960681BF015FDD4E9040108443A
:101640002061A1682069B0FBF1F201FB120020616A
:101650000DB160692860002060613846FEF7CCFD5E
:101660006068C2E7F0B5024692F8284004F0070629
:1016700000210DE0FA4C605CFA4C54F8204034B183
:10168000F94C34F81040F74D55F820502C61491CA6
:101690000429EFD3002342E0F14FF85CF14F57F8F3
:1016A000207047B1F04F37F81070DFF8B8C35CF81E
:1016B00020C0CCF81470002100E0491C2829FCD37C
:1016C00000BF00BF00BF0024002113E0E74F57F820
:1016D0002170BF68DFF898C33CF811C007EA0C0519
:1016E0000DB1012700E000273D4605FA01F7274329
:1016F000BCB2491C0329E9D3DA4F57F8207047B12F
:10170000D94F37F81070DFF85CC35CF820C0CCF814
:10171000107002F1080707EB8607FC545B1C042BD2
:10172000BAD3946A641C9462F0BDF0B503460C46CB
:10173000FF260025002114E000220BE003EB8100CE
:10174000875C481C03EB8000805C874201D06D1CE5
:1017500002E0521C042AF1DB00BF042A00D10E462D
:10176000491C0729E8DB052D01DD0020F0BD082E0E
:1017700001DB0020FAE703EB86000068206001200F
:10178000F4E770B502460D46002366E0581CC4B26B
:101790005FE002EB8300407800F0F00002EB84068B
:1017A000767806F0F006B04251D100210FE002EB4E
:1017B0008300407800F00F0002EB8106767806F097
:1017C0000F06B04201D1012070BD481CC1B2994240
:1017D000EDDB581CC1B20FE002EB8300407800F053
:1017E0000F0002EB8106767806F00F06B04201D1B9
:1017F0000120E9E7481CC1B2A942EDDB00210FE05E
:1018000002EB8400407800F00F0002EB810676784E
:1018100006F00F06B04201D10120D5E7481CC1B245
:10182000A142EDDB601CC1B20FE002EB8400407806
:1018300000F00F0002EB8106767806F00F06B0424A
:1018400001D10120C0E7481CC1B2A942EDDB601CF8
:10185000C4B2AC429DDB581CC3B2681E984295DCF2
:101860000020B1E72DE9F05F074697F8280000F067
:10187000070007287ED1394607F10800FFF755FF1A
:101880008346BBF1000F02D10020BDE8F09FB946AE
:1018900007F1040A07F12C08002400255FE000206E
:1018A000002119F805201AF8053082EA030019F81A
:1018B00005201AF8053002EA030160B3002628E08B
:1018C0000122B24002401AB3082C00DB4AE0F022A9
:1018D00002EA051206F00F031A4308EB84035A705C
:1018E00005EB4502634B1A44925D08F8242019F871
:1018F00005200123B3401A4022B1022208EB8403E1
:101900009A7003E0012208EB84039A70621CD4B23F
:10191000761C032ED4DB09B300261DE00122B24061
:101920000A40C2B1082C00DB1CE0F02202EA0512DA
:1019300006F00F031A4308EB84035A7005EB4502C7
:101940004C4B1A44925D08F82420EE2208EB8403E5
:101950009A70621CD4B2761C032EDFDB6D1C042D42
:101960009DDB00BFD9F80000CAF80000042C09DB99
:10197000214600E008E007F12C00FFF702FF08B164
:10198000002082E7204680E700207EE738B503206C
:101990008DF8020010208DF80300002412E0344876
:1019A00030F81400ADF80000304951F824006946C1
:1019B00009F07EF82E4830F814002C4951F8241014
:1019C0004861641C032CEAD300BF28208DF8030073
:1019D00000240BE0264830F81400ADF8000023493D
:1019E00051F82400694609F063F8641C032CF1D314
:1019F00000BF38BD38B503208DF8020010208DF8E7
:101A0000030000240BE01C4830F81400ADF800007F
:101A10001A4951F82400694609F04AF8641C002C60
:101A2000F1D038BD38B503208DF8020010208DF8B4
:101A3000030000240FE00C4830F81400ADF800005B
:101A4000084850F8240028B1064951F82400694696
:101A500009F02EF8641C042CEDD3002420E00000D3
:101A60005EED010840ED010850ED01082CED010884
:101A700038ED0108390000205CED010858ED01083F
:101A8000964830F81400ADF80000954850F824004E
:101A900028B1934951F82400694609F009F8641CFB
:101AA000002CEDD038BD002007E08E4931F8101031
:101AB0008D4A52F820201161401C0028F5D0704753
:101AC00000200BE0864951F8201031B1834931F8EC
:101AD0001010834A52F820201161401C0028F1D0D8
:101AE000704700200BE07E4951F8201031B17B494E
:101AF00031F810107A4A52F820201161401C042855
:101B0000F1D3704710B5FFF7ECFFFFF7D9FF10BD19
:101B10002DE9F04106460024375DFFF7C4FFFFF7CB
:101B2000CFFF00250BE00120A840384030B16D48C0
:101B300030F815006C4951F8251048616D1C002DD6
:101B4000F1D0674850F8240030B1644830F81400F0
:101B5000634951F824104861601C7060BDE8F08151
:101B600010B5FFF713FFFFF745FFFFF75BFFFFF728
:101B7000C9FF4C215D481BF016FB5D480021016048
:101B800041605C4801705C4801705C48017010BDA8
:101B900030B5034600230021554C60182AB1047863
:101BA00001259D402C43047004E0057801249C40ED
:101BB000A543057030BD0246002200214C48435C1D
:101BC00001209040184008B1012070470020FCE738
:101BD00030B5034600230021464C60182AB1047832
:101BE00001259D402C43047004E0057801249C40AD
:101BF000A543057030BD10B54148016841480068F3
:101C0000FEF7FCFCB0F5FA7F1ED900210FE0384B3F
:101C10005818384B5A5C4AB13B4B1B781BB10378C0
:101C20001343037002E0037893430370491C0029B7
:101C3000EDD0334B1B68334C2360334B1B7883F060
:101C40000103314C237000BF10BD70B50446002560
:101C500004B1FF252748002101702A4601212448AC
:101C60001BF077FA70BD2548224909780170224897
:101C70001F490978017070471E4820490978017092
:101C80001B481D4909780170704710B58AB01C487F
:101C9000007800F00100D0B90024FFF704FF1348DA
:101CA000FFF7E0FC1148FFF7DDFD0446002C0DDDD9
:101CB000019401208DF80000A2000C492C3102A8EB
:101CC0001BF015FA684600F051F800BF00BFFFF79F
:101CD00092FF0748FFF71CFF0AB010BD50ED010846
:101CE00040ED01085CED010858ED010858040020A2
:101CF00028000020300000203100002032000020A9
:101D000014000020340000203800002010B5032308
:101D1000082224492448FFF72DFB002416E0002068
:101D200004EB44011F4A02EBC101087204EB84007A
:101D30001E4901EBC00004EB440142F831002820A9
:101D400004EB440102EBC1014860641C082CE6D39B
:101D500010BD10B501211448FFF78FFB10BD10B561
:101D6000044621461048FFF7BFFB10BD70B504467E
:101D7000002504B970BD0C48FFF73CFB054675B162
:101D80002822214628681BF06DF9012229460648C1
:101D9000FFF747FB18B129460348FFF7A5FB00BF33
:101DA000E8E70000E4050020A4060020A4040020C9
:101DB00000B587B00121880309F056F903A80AF09D
:101DC00071F94FF4E130039003A9AD480AF001F92D
:101DD0000121AB480AF089F94FF40070ADF8080012
:101DE00003208DF80A0018208DF80B0002A9A548E1
:101DF00008F05EFE4FF48060ADF8080004208DF816
:101E00000B0002A99F4808F053FE25208DF804001E
:101E100004208DF8050000208DF8060001208DF8C3
:101E2000070001A807F0DFFD012240F22551944888
:101E30000AF067F90121084609F009F943F2900018
:101E4000914948648E48001DC86400208864086574
:101E5000012280218A480AF079F907B000BD38B51F
:101E60008748048804F0200010B904F0080050B13D
:101E70008348001D0088C0B2009001226946834853
:101E8000FFF764FB00BF38BD10B500232022804956
:101E90008048FFF76FFA4FF440727F497B48FFF7A5
:101EA00037FB4FF480627D497D4800F08BFAFFF7E5
:101EB0007FFF10BDF0B585B0054600BF00270020AC
:101EC000049004A97148FFF789FB074607B92CE085
:101ED00028E00026002003900290002402A903AB12
:101EE000CDE9001039466E48049A00F07DFA0646A6
:101EF00006B918E06748FFF77DFA04461CB930467A
:101F00001AF025FF0FE02660039860600120207220
:101F10000298A072012221465E48FFF782FA002053
:101F2000049000BFD5E700BF00BF00BF00BF002482
:101F30005C480078E8B15448006800F4005010B9DB
:101F400005B149E049E04E48008800F0400010B972
:101F500005B141E041E04FF480504B4948605248A0
:101F6000007A18B1504908681AF0F1FE00204D4976
:101F7000087000214748FFF780FA04465CB36068A8
:101F8000002801DD206848B9207A20B1206810B10E
:101F900020681AF0DCFE05B11EE01EE03A48406CF5
:101FA00020F001003849486460688864206808654A
:101FB0000846406C40F0010048640120394908702F
:101FC0001822214638481BF092F821463148FFF785
:101FD0008BFA05B100E000E0A9E700BF00BF0024D4
:101FE00001212C48FFF749FA044614B1204605B0F8
:101FF000F0BD00BF0020FAE710B5044644B1207AD6
:1020000010B120681AF0A3FE21462248FFF76CFAAF
:1020100010BD2DE9F04105460E4690461F460024AE
:1020200015B9601EBDE8F0811A48FFF7E3F90446D0
:1020300014B94FF0FF30F5E7256067602672002283
:1020400021461448FFF7EDF90020EBE710B50446F0
:102050001CB121460F48FFF747FA10BD4FF48060CE
:10206000704710B5044604B910BD0020A0810C20B3
:1020700060812146024809F0ACFF00BFF4E7000090
:10208000003801400008014000000240CC0C002054
:10209000B8060020B8090020CC090020E40C00207C
:1020A000E410002045000020FC10002000B587B09F
:1020B0000121480408F0E5FF03A809F0F3FF4FF4FD
:1020C000E130039003A9B44809F083FF0121B2482D
:1020D0000AF00BF80420ADF8080003208DF80A0080
:1020E00018208DF80B0002A9AC4808F0E1FC08208C
:1020F000ADF8080004208DF80B0002A9A74808F0ED
:10210000D7FC26208DF8040004208DF8050000205F
:102110008DF8060001208DF8070001A807F063FC88
:10212000012240F225519C4809F0EBFF01210846AD
:1021300008F08DFF43F29000994908609648001D11
:1021400097498039C1F8880000209549091D086029
:1021500093498039C1F88C00012280218E4809F012
:10216000F5FF07B000BD38B58B48048804F02000A7
:1021700010B904F0080050B18748001D0088C0B2B3
:102180000090012269468748FFF7E0F900BF38BD9B
:1021900010B50323202284498448FFF7EBF84FF45D
:1021A000407283497F48FFF7B3F94FF48062814959
:1021B000814800F007F9FFF779FF10BDF0B585B051
:1021C000054600BF00270020049004A97548FFF7CA
:1021D00005FA074607B92CE028E000260020039006
:1021E0000290002402A903ABCDE9001039467248E1
:1021F000049A00F0F9F8064606B918E06B48FFF7B4
:10220000F9F804461CB930461AF0A1FD0FE026602B
:1022100003986060012020720298A072012221467A
:102220006248FFF7FEF80020049000BFD5E700BF2A
:1022300000BF00BF00BF002460480078F8B15848D4
:102240008038006800F0007010B905B151E051E02D
:102250005148008800F0400010B905B149E049E05C
:102260004FF080704E49803948605548007A18B167
:10227000534908681AF06BFD00205049087000218E
:102280004A48FFF7FAF804468CB36068002801DD7D
:10229000206848B9207A20B1206810B120681AF06F
:1022A00056FD05B125E025E03D48006820F001001D
:1022B0003B490860091D6068086039498039206819
:1022C000C1F88C000846D0F8800040F00100344985
:1022D00008600120394908701822214638481AF050
:1022E00006FF21463148FFF7FFF805B101E0FFE79F
:1022F00000E0A0E700BF00BF002401212B48FFF74A
:10230000BCF8044614B1204605B0F0BD00BF002063
:10231000FAE710B5044644B1207A10B120681AF0EB
:1023200016FD21462148FFF7DFF810BD10B5044621
:102330001CB121461D48FFF7D7F810BD4FF480604F
:1023400070472DE9F04105460E4690461F46002491
:1023500015B9601EBDE8F0811448FFF74BF804463C
:1023600014B94FF0FF30F5E7256067602672002250
:1023700021460E48FFF755F80020EBE710B504465C
:1023800004B910BD0020A0810C20608121460248C4
:1023900009F01FFE00BFF4E70044004000080140C0
:1023A000800002402817002014110020141400207F
:1023B0002814002040170020401B00204600002069
:1023C000581B002070B504460E4615460CB106B1E8
:1023D00015B94FF0FF3070BD182120461AF0E3FE0A
:1023E000266065600020F6E72DE9FF4F8DB00446BA
:1023F00091469A46DDF86880002700200C9014B1C1
:10240000BAF1000F03D14FF0FF300C9023E22169A5
:102410006068401A484502D24FF0FF300C90B9F185
:10242000000F2ED00E9818B94FF0FF300C90EDE74A
:10243000A06800EB09066068B04214D2D4E901013B
:10244000451AA268216888182A460E991AF00AFED1
:10245000A9EB05020E9B591920681AF003FEA9EB9F
:102460000500A06009E0A268216888184A460E9914
:102470001AF0F8FDA0684844A06020694844206133
:1024800000BF00BF00200B900025BDE3E06828449A
:102490000A9061680A98B0FBF1F201FB12000A9001
:1024A00021680A98085C09900998AA287DD100261D
:1024B000002008902069401B07900798072806DB3A
:1024C000606928B1A08AC0F30726207D089085E0C6
:1024D000E26850192168821C6368B2FBF3FC03FBBD
:1024E0001C228A5C042A78D1C21C6368B2FBF3FC0C
:1024F00003FB1C228A5C002A6FD1421D6368B2FB79
:10250000F3FC03FB1C228E5C821D6368B2FBF3FCB0
:1025100003FB1C228A5C0892079A082A5DDBD4F828
:102520000CC0AC44CDF818C005F1070CD4F80CB0C1
:102530000CEB0B034FF0000CCDF814C0069A10E022
:10254000D4F804C0B2FBFCFB0CFB1B2CD4F800B08D
:102550001BF80CC0DDF814B08CEA0B0CCDF814C0DD
:10256000521C9A42ECD3D4F804C0B3FBFCFB0CFB26
:102570001B3CD4F800B01BF80CC0CDF810C0DDE94E
:1025800004CBE3451BD005F1010CD4F810B0ABEB44
:102590000C0CC4F810C005F1010CD4F80CB0DC44EC
:1025A000C4F80CC0D4F80CC000E03FE1D4F804B08B
:1025B000BCFBFBFE0BFB1ECCC4F80CC028E3F6B240
:1025C000DDF820C00CF0FF0CCDF820C0DDF820C0F5
:1025D0000CEB062CC4F814C000BF00BFF6B208987C
:1025E000C0B20890089800EB062608366068B6EB83
:1025F000500F11D9681C2169081A2061681CE16814
:102600000844E0606168E068B0FBF1F201FB120091
:10261000E0600020606108E10798864275DC082EC2
:1026200075D100200690019601981AF061FB0746CB
:102630001FB94FF0FF300C9007E30597E06828447E
:102640000390701E2844E1680844029003980490A7
:1026500015E061680498B0FBF1F201FB12002168FB
:1026600011F800B0069880EA0B000690059880F8F3
:1026700000B00598401C05900498401C04900299F5
:1026800004988842E5D361680298B0FBF1F201FB3F
:102690001200216811F800B0069858451FD101209A
:1026A0000B90059880F800B0216901982844081A19
:1026B0002061E068411901980844E0606168E068C1
:1026C000B0FBF1F201FB1200E0600198CAF80000D3
:1026D000B8F1000F18D00120C8F8000014E0384607
:1026E0001AF035FB0027681C2169081A2061681C54
:1026F000E1680844E0606168E068B0FBF1F201FB6A
:102700001200E060002060618FE07FE0FFE7059647
:1027100005981AF0EDFA07461FB94FF0FF300C90FC
:1027200093E2E06828446168B0FBF1F201FB120B10
:102730007019E16808446168B0FBF1F201FB120016
:1027400006900698584507D9206800EB0B013246E1
:1027500038461AF087FC11E06068A0EB0B0002908D
:10276000206800EB0B013846029A1AF07BFC029BB2
:10277000F21AF81821681AF075FC00BF0020606199
:10278000A6F10A0081B207F10800FEF72FFA0490C3
:1027900000200390B819811E022203A8FEF702FA56
:1027A000BDF80C10049881421CD101200B902169C6
:1027B00005982844081A2061E068411905980844E2
:1027C000E0606168E068B0FBF1F201FB1200E060DC
:1027D0000598CAF80000B8F1000F16D00120C8F81B
:1027E000000012E038461AF0B2FA0027681C21698E
:1027F000081A2061681CE1680844E0606168E068CC
:10280000B0FBF1F201FB1200E0600EE02069401B1A
:102810002061E0682844E0606168E068B0FBF1F2A4
:1028200001FB1200E06001200B90F1E10998FA2809
:1028300070D12069A0EB050BBBF1070F6BDB00200B
:1028400008900720039003981AF052FA07461FB920
:102850004FF0FF300C90F8E13E46E06828440590C8
:10286000A81DE16808440490059806900FE0606890
:102870000699B1FBF0F200FB12102168085C07908A
:102880009DF81C0006F8010B0698401C0690049960
:1028900006988842EBD30220069009E00698385C3F
:1028A0009DF820100844C0B208900698401C06907D
:1028B00006980628F2D360680499B1FBF0F200FB99
:1028C00012102168085C07909DF820009DF81C10EC
:1028D000884221D101200B909DF81C0030702069A6
:1028E00003992944401A2061E06828440399084468
:1028F000E0606168E068B0FBF1F201FB1200E060AB
:102900000398CAF80000B8F1000F18D00520C8F8E5
:10291000000014E024E013E038461AF018FA00270B
:10292000681C2169081A2061681CE1680844E0609D
:102930006168E068B0FBF1F201FB1200E0600EE0BC
:102940002069401B2061E0682844E0606168E0681D
:10295000B0FBF1F201FB1200E06001200B9057E1A7
:10296000099800F0F000802879D12069401B089078
:102970000898032874DBE06828440790D4E9031022
:1029800000EB010B002006900798861C0DE06068A4
:10299000B6FBF0F100FB11602168085C0690069818
:1029A000FF2801D1B34602E0761C5E45EFD300BF9D
:1029B0000698FF2855D10798ABEB0000401C102863
:1029C00010D90027681C2169081A2061681CE16879
:1029D0000844E0606168E068B0FBF1F201FB1200BE
:1029E000E06063E00798ABEB0000401C04900498A3
:1029F0001AF07EF907461FB94FF0FF300C9024E122
:102A0000059701200B90079E0CE06068B6FBF0F183
:102A100000FB11612068415C059801700598401C1D
:102A20000590761C5E45F0D9216904982844081A5F
:102A30002061E068411904980844E0606168E0683A
:102A4000B0FBF1F201FB1200E0600498CAF800004C
:102A5000B8F1000F02D00420C8F8000026E036E0EC
:102A600025E00798ABEB0000102810D30027681C66
:102A70002169081A2061681CE1680844E060616807
:102A8000E068B0FBF1F201FB1200E0600EE02069AB
:102A9000401B2061E0682844E0606168E068B0FBAA
:102AA000F1F201FB1200E06001200B900EE02069C2
:102AB000401B2061E0682844E0606168E068B0FB8A
:102AC000F1F201FB1200E06001200B90A0E00998F8
:102AD000A52871D12069A0EB050BBBF10B0F6CDBB6
:102AE000002008900B20039003981AF001F9074684
:102AF0001FB94FF0FF300C90A7E03E46E068284435
:102B0000059005F10A00E1680844049005980690D4
:102B10000FE060680699B1FBF0F200FB121120682B
:102B2000405C07909DF81C0006F8010B0698401CBD
:102B30000690049906988842EBD30120069009E09C
:102B40000698385C9DF820100844C0B2089006989A
:102B5000401C069006980A28F2D360680499B1FBDD
:102B6000F0F200FB12102168085C07909DF820002D
:102B70009DF81C10884221D101200B909DF81C006B
:102B80003070206903992944401A2061E068284484
:102B900003990844E0606168E068B0FBF1F201FB72
:102BA0001200E0600398CAF80000B8F1000F18D0D6
:102BB0000620C8F8000014E024E013E038461AF0BC
:102BC000C6F80027681C2169081A2061681CE168A2
:102BD0000844E0606168E068B0FBF1F201FB1200BC
:102BE000E0600EE02069401B2061E0682844E0605E
:102BF0006168E068B0FBF1F201FB1200E0600120C7
:102C00000B9005E000BF6D1C2069A8423FF63EAC6A
:102C100000BF2069A8420FD10B9868B9002020613D
:102C2000E0682844E0606168E068B0FBF1F201FB15
:102C30001200E060002060610B9800B103E02069A1
:102C400000283FF71FAC00BF00BF1B9810B11B99B5
:102C50000C980860384611B0BDE8F08F10B50146F9
:102C60000B78FC4C24680CB1092200E007220120FB
:102C700002E00C5C6340401C9042FADB0B5410BD38
:102C80002DE9FF4381B08846DDF830900024B8F18B
:102C9000000F03D1002005B0BDE8F083DDE903019A
:102CA00000FB01F707F1100630461AF021F8044640
:102CB0000CB90020EFE7314620461AF052FAAA205C
:102CC00020700420A0700020E070A6F108000090A1
:102CD00002226946601DFDF765FF2046FFF7BEFF33
:102CE00004F10805022201A92846FDF75BFF022234
:102CF00003A9A81CFDF756FF022204A9281DFDF711
:102D000051FF3A464146A81D1AF0ACF9B81D81B2F0
:102D10002846FDF76BFF0090A91DC81902226946DD
:102D2000FDF740FFB9F1000F01D0C9F8006020465F
:102D3000B1E7F8B506460F4614461D462346012264
:102D4000394630460095FFF79BFFF8BD70B5054644
:102D50000C46ADB1A4B1204619F0CAFF064676B1C3
:102D60002246294630461AF07DF9234603220121E6
:102D70003046FFF74EF910B1304619F0E8FF00BFBA
:102D800070BD704770B505460C46ADB1A4B1204684
:102D900019F0AEFF064676B12246294630461AF0B3
:102DA00061F9234603220121304601F08EF910B16A
:102DB000304619F0CCFF00BF70BD2DE9F04105464B
:102DC0000E461446BDB1B6B1ACB1204619F090FF25
:102DD00007467FB12246314638461AF043F923466A
:102DE000032201213846D5F814C0E04710B1384617
:102DF00019F0ADFF00BFBDE8F0812DE9F04F8FB0B5
:102E000007460C4601200E901FB9801E0FB0BDE88A
:102E1000F08F3D682878AA2802D04FF0FF30F5E700
:102E2000A8780C287AD1E878802878D100200C90F6
:102E30000D9000260B904FF001094FF0010A8346D8
:102E4000AA208DF830000C208DF8320080208DF8FB
:102E5000330001208DF83400A8790D2860D2DFE816
:102E600000F05F0708165F245F5F5F385F3A4B0032
:102E700000BFA8798DF83600082019F039FF064602
:102E800016B94FF0000950E008200B904DE008A85B
:102E9000FEF715F84FF0000A0BAB0C2208A948F218
:102EA0000300FFF746FF06463FE000200A902CB1E2
:102EB000206918B12069804780B20A904FF0000A5B
:102EC0000BAB02220AA948F20500FFF732FF0646C3
:102ED0002BE000F050FE4FF0FF300A90FDF7FAFFB4
:102EE0000A904FF0000A0BAB04220AA948F20B002B
:102EF000FFF71FFF064618E00FF25C184FF0000ABC
:102F000040461AF084F8401C0BAB024641460A903A
:102F100048F20C00FFF70DFF064606E030E0C9E07E
:102F20004FF0000900200E9000BF00BFB9F1000F64
:102F300020D0FEB1BAF1000F06D00CA8FFF78EFE2C
:102F40000C9830600D9870601CB9304619F0FFFE87
:102F500010E0606918B9304619F0F9FE0AE0D4F8BB
:102F600014C00322012130460B9BE04710B13046CC
:102F700019F0EDFEBBF1000F01D000F0FCFD99E06F
:102F8000A878042865D100200D9080460E9002227A
:102F9000691D0DA8FDF706FE05F108060D98801EB7
:102FA0000D9080E04FF0000900200C904FF0010AD6
:102FB0000B900A900990022231460BA8FDF7F2FD12
:102FC0000222B11C0AA8FDF7EDFD0222311D09A85D
:102FD000FDF7E8FDBDF82C00A0F500400A3858BB0D
:102FE00006F1060B01A8FDF76AFF4FF0FF30FDF771
:102FF00071FF0090012301A904A8009AFDF790FF3A
:103000001022594604A819F0B2FF38B900200890E0
:103010000022012104A8FDF7A9FF02E04FF0FF30D4
:1030200008900CAB042208A948F20A00FFF781FEC1
:10303000814601200E9000E000BF00BFBAF1000FF2
:1030400025D0B9F1000F22D084B9484619F07FFE8F
:103050001DE02DE04C00002059415F4755495F417C
:103060005544494F5F31383038303500606918B900
:10307000484619F06CFE0AE0D4F814C0032201217E
:1030800048460C9BE04710B1484619F060FEBDF879
:103090002800BDF824104843801D804405F1080035
:1030A00000EB080600BF0D988045FFF47BAF01E000
:1030B00000200E900E9808B10020A7E64FF0FF30D8
:1030C000A4E60020F94908707047704770477047C0
:1030D00001460022012003E00B5C1344DAB2401CDD
:1030E0000628F9DB0A547047704770477047002084
:1030F0007047704770472DE9F041064600274FE0C2
:1031000006F1080000EB8705A878EE2800D146E01C
:1031100095F80080E64C0020206060602081AA20A5
:103120002070E248007860700720A070A87801281D
:1031300000D12071B8F1010F17D0B8F1020F20D1E2
:10314000A878022801D1012000E0002001460A20D1
:1031500003F043FFA878022801D1012000E00020FD
:1031600001460A2001F09AFA0CE0A878022807D15B
:1031700001F082F910B101F08CF901E001F085F95C
:1031800000E00CE000BF01F07AF984F805802046E9
:10319000FFF764FD08212046FFF7D8FD00BF7F1C24
:1031A0007068B842ACD80120BDE8F081704770B5B6
:1031B0000446BF4D0DB9002070BD00202860686036
:1031C0002881AA202870B948007868700820A87063
:1031D000207A2871A07B68712846FFF73FFD0821FF
:1031E0002846FFF7B3FDA07B00F00106208958B9FF
:1031F000608920B13146092001F050FA15E03146CE
:103200000B2001F04BFA10E0208901280DD1A08994
:1032100003F0CCFE608920B13146132001F03EFA64
:1032200003E03146142001F039FA01F028F90120B9
:10323000C2E770B505462C682078052801DB002020
:1032400070BD20789B4951F8200030B120780A46A3
:1032500052F8201020468847F2E70020F0E70246A7
:103260000020704702460020704702460020704749
:103270000246002070470246002070470020704739
:10328000002070470146002070470146002070472B
:1032900070470246002070472DE9F04F87B0814605
:1032A0000E46B9F1000F03D1002007B0BDE8F08F42
:1032B000D9F80040A07807280DD1E078502808D12F
:1032C000A379DA106379D9102379D81000F0B8FC0B
:1032D00000E000BF0EE2A078062878D1744D4FF0D0
:1032E000000A002006904FF0010B01200590AA2053
:1032F00028700620A8708020E87001202871E078EE
:1033000046286BD008DC40280DD0412834D0432813
:103310005ED0442875D15EE0502873D0802872D0EA
:103320008128F7D1EFE0142019F0E2FC804600205C
:103330000590B8F1000F1ED000270CE004A9384614
:1033400001F02BFB08F817709DF8100008EB4701FF
:103350004870781C87B2072FF0DB06A802230722EB
:10336000414600904FF4C860FFF78AFC8246404611
:1033700019F0EDFC00BFD0E0062019F0B9FC804642
:1033800000200590B8F1000F20D000270EE0F91DB5
:1033900088B204A901F001FBF81D08F817009DF898
:1033A000100008EB47014870781C87B2032FEEDB52
:1033B00006A8022303224146009040F24160FFF735
:1033C0005FFC8246404619F0C2FC00BFA5E0CBE09E
:1033D0004FF0000BA1E04FF0000B9EE0A079FF281A
:1033E0002BD100200490042019F082FC804600209C
:1033F0000590B8F1000F1FD004A801F07AFB002758
:103400000AE085E027E046E008F8177004A8C05DF0
:1034100008EB470148707F1C022FF5DB06A8032349
:1034200002224146009040F24660FFF729FC8246A6
:10343000404619F08CFC00BF0CE020790711607940
:1034400008B9012000E0002080464146384601F0DE
:1034500042FB00BF61E0207910B1207981280CD1B6
:10346000607901F063FBA07901F06FFB002103207C
:1034700003F0F7FB002005900CE02079012809D12A
:103480005020E8708120287101F04BFB687101F039
:1034900057FBA87141E01E2019F02AFC804600204D
:1034A0000590B8F1000F2DD000271BE04800002048
:1034B000701B00205000002004A9384601F0C0FA1B
:1034C00007EB470108F801709DF8100007EB470172
:1034D000414448709DF8110007EB47014144887052
:1034E000781C87B20A2FE7DB06A803230A2241468D
:1034F00000904FF4D060FFF7C3FB8246404619F0BE
:1035000026FC00BF09E04FF0000B0020059004E00E
:103510004FF0000B0020059000BF00BF059838B1A8
:103520002846FFF79BFB082229463046FFF745FC5B
:10353000BBF1000F17D0BAF1000F14D01EB95046DE
:1035400019F005FC0FE0706918B9504619F0FFFB3F
:1035500009E07769032201215046069BB84710B164
:10356000504619F0F4FBC5E0A0780428FBD10020F8
:10357000069080460222611D06A8FDF713FB04F1A8
:1035800008050698801E0690AFE04FF0000A002064
:1035900005900120049000200390029001900222E7
:1035A000294603A8FDF7FEFA0222A91C02A8FDF78E
:1035B000F9FA0222291D01A8FDF7F4FABDF80C0062
:1035C00040F24262811A90420ED006DCB0F5C86F1C
:1035D00008D0A0F24160D0BB05E004291BD03E29F1
:1035E0005BD135E000BF00BF05F1060B00270DE001
:1035F0000BEB470251781BF8170001F0E0F91BF8BC
:103600001710012003F02DFB781C87B2BDF80800CD
:103610008742EDDB42E005F1060B002712E00BEBE1
:10362000470252780AB1012200E0002211461BF83D
:10363000170001F050FA1BF81710022003F011FBDD
:10364000781C87B2BDF808008742E8DB26E024E05A
:1036500005F1060B00271BE007EB470058444078B4
:103660008DF8000007EB4700584480788DF8010082
:1036700007EB47011BF80100009901F0CAF907EBBD
:1036800047001BF80010002003F0EBFA781C87B20B
:10369000BDF808008742DFDB00E000BF00BF0498F0
:1036A000B8B1BAF1000F14D01EB9504619F04FFB53
:1036B0000FE0706918B9504619F049FB09E07769C5
:1036C000032201215046059BB84710B1504619F01E
:1036D0003EFBBDF80800BDF804104843801D80443F
:1036E00004F1080000EB080500BF06988045FFF4D0
:1036F0004CAF00BF0120D8E570B504460D46A07A56
:10370000012804D129462046FFF7C6FD70BD0020E0
:10371000FCE71CB5002000900190AA208DF8000065
:103720000C208DF8020080208DF8030000208DF819
:10373000040002208DF806006846FFF78FFA082182
:103740006846FFF71FFB1CBD1CB5002000900190D0
:10375000AA208DF8000006208DF8020040208DF888
:1037600003006846FFF77AFA08216846FFF70AFB6C
:1037700041208DF803006846FFF770FA082168467B
:10378000FFF700FB80208DF803006846FFF766FA1C
:1037900008216846FFF7F6FA50208DF80300012053
:1037A0008DF804006846FFF759FA08216846FFF7CC
:1037B000E9FA00208DF8040046208DF80300FF2070
:1037C0008DF806006846FFF749FA08216846FFF7BA
:1037D000D9FA1CBD2DE9FE4304460F46E0B28DF830
:1037E00008008DF8097000200190072C02DA4FF4D0
:1037F000C86506E00A2C02DA40F2416501E040F2B9
:10380000426501A80223012202A900902846FFF781
:1038100037FA0646B6B1002201213046019BFEF779
:10382000F8FB804630460199FFF7ACFAB8F1000F7B
:1038300006D0304619F08BFA4FF0FF30BDE8FE831A
:103840000020FBE74FF0FF30F8E773B584B0044683
:10385000E0B28DF80C009DF814008DF80D009DF875
:1038600015008DF80E000020029002A8032301220B
:1038700003A900904FF4D060FFF702FA0546A5B106
:10388000002201212846029BFEF7C3FB064628467C
:103890000299FFF777FA36B1284619F058FA4FF037
:1038A000FF3006B070BD0020FBE74FF0FF30F8E7B7
:1038B000FEB504460D46E0B28DF808008DF80950BB
:1038C0000020019001A80223012202A9009040F2E9
:1038D0004660FFF7D5F906469EB100220121304629
:1038E000019BFEF796FB074630460199FFF74AFA1F
:1038F0002FB1304619F02BFA4FF0FF30FEBD0020FB
:10390000FCE74FF0FF30F9E71CB50446AA208DF81C
:10391000000006208DF8020050208DF80300812061
:103920008DF8040001F0FDF88DF8050001F008F9AC
:103930008DF806006846FFF791F908216846FFF701
:1039400005FA00208DF804006846FFF787F9082182
:103950006846FFF717FA00201CBD10B50446204644
:10396000FFF7D2FF10BD7CB505460C46AA208DF8A6
:10397000000000208DF8010006208DF802001CB127
:1039800043208DF8030002E044208DF8030000205E
:103990008DF80400E8B28DF8050000208DF80600CF
:1039A0006846FFF75BF908216846FFF7EBF90CB9A9
:1039B000FFF7CAFE00207CBD10B50021FF20FFF7F5
:1039C000D2FF10BD01B59DF800209DF801109DF8B3
:1039D000020000F035F9002008BD10B5044620466D
:1039E00000F0F3F9002010BD10B50446204600F0A9
:1039F00005FA002010BD01464FF0FF307047014628
:103A00004FF0FF30704701464FF0FF3070470146DE
:103A10004FF0FF30704701464FF0FF3070470246CD
:103A20004FF0FF30704770B50446052505E0621978
:103A3000511FA8B201F0AEF86D1C092DF7DDA01DD5
:103A400001F0B6F804F10A0001F0BFF804F10B0030
:103A500001F0C5F804F10C0001F001F904F10D00CA
:103A600001F007F970BD01464FF0FF307047014685
:103A70004FF0FF30704701464FF0FF30704701466E
:103A80004FF0FF3070474FF0FF30704702464FF065
:103A9000FF30704738B50446052505E06A1FA15C74
:103AA000A8B201F0A6F86D1C092DF7DDD4F80600C8
:103AB000009001F0AAF8A07A01F0BFF8E07A01F0D6
:103AC000C5F8207B01F0DFF8607B01F0EAF838BD33
:103AD00010B52F48FFF7DEFF10BD10B52D48016867
:103AE0002D480068FCF78AFD642800D210BD2948E3
:103AF0000068294908600E21284819F032FB274840
:103B0000FFF791FF0E222549254819F030FA58B1E8
:103B10000E222249224819F0A5FA012021490870F5
:103B20001C480068204908601E480078C8B1194840
:103B300001681D480068FCF761FD43F69821884242
:103B40000FD90E221249164819F011FA30B10E227F
:103B500013490F4819F086FAFDF77CFB0020114944
:103B6000087000BFC2E77047704770477047024651
:103B70000020704770470D48006800F4E0600C4971
:103B80000843001D09490860BFF34F8F00BFFEE7DF
:103B90001A040020140000206C000020941B002058
:103BA000861B002064000020680000200CED00E06F
:103BB0000000FA0508B510208DF8030002208DF8EA
:103BC00002004020ADF8000069469C4806F070FFF6
:103BD00000224021994807F01CF82020ADF8000091
:103BE0006946964806F064FF01222021934807F0B9
:103BF00010F81020ADF800006946904806F058FF14
:103C0000012210218D4807F004F84FF48070ADF8C0
:103C100000006946894806F04BFF00224FF480718E
:103C2000864806F0F6FF8020ADF80000694683481C
:103C300006F03EFF00228021804806F0EAFF08BD22
:103C40002DE9F84F0746884691468DF800808DF89B
:103C500001708DF8029000228021784806F0D9FF8B
:103C600000224FF48071754806F0D3FF00250BE069
:103C700001228021714806F0CCFF002280216F488C
:103C800006F0C7FF681CC5B2202DF1DB00243BE025
:103C900001221102694806F0BCFF01228021674819
:103CA00006F0B7FF00228021644806F0B2FF00262C
:103CB00026E01DF806B04FF0100A00251CE00BEAC4
:103CC0000A0030B900224FF480715C4806F0A1FF71
:103CD00004E001221102594806F09BFF01228021D5
:103CE000564806F096FF00228021544806F091FFC6
:103CF0004FEA6A0A681CC5B2052DE0DB701CC6B22B
:103D0000032ED6DB601CC4B2022CC1DB00224FF4B0
:103D100080714A4806F07DFF00240BE001228021DB
:103D2000464806F076FF00228021444806F071FFE5
:103D3000601CC4B2022CF1DBBDE8F88F10B540481E
:103D40000078C0F3411400203E4908703E490870D5
:103D50003E4908702CB93A48007800F01F000870FE
:103D600015E0012C06D13648007800F01F003649D6
:103D700008700CE0022C06D13148007800F01F00DA
:103D80003049087003E000202D49087010BD2D480F
:103D900002782D4801782D480078FFF751FF284818
:103DA0000078401C2649087000BFEFE708B51020D6
:103DB0008DF8030003208DF802000420ADF8000008
:103DC0006946234806F074FE08BD10B5044684F029
:103DD000010204211E4806F01CFF10BD08B510208A
:103DE0008DF8030003208DF802004FF40040ADF879
:103DF00000006946114806F05BFE08BD10B5044698
:103E00000CB1012000E0002002464FF400410B48B5
:103E100006F0FFFE10BD10B5FFF7CCFE00221146E4
:103E20001046FFF70DFFFFF7C1FF0120FFF7CDFFA1
:103E3000FFF7D4FF0020FFF7E1FF10BD00080140AD
:103E4000700000207300002072000020710000202C
:103E50000018014000B587B00121880407F011F96E
:103E600003A808F01FF94FF4E130039003A9AC4810
:103E700008F0AFF80121AA4808F037F94FF4806044
:103E8000ADF8080003208DF80A0018208DF80B000B
:103E900002A9A44806F00CFE4FF40060ADF808003B
:103EA00004208DF80B0002A99E4806F001FE272091
:103EB0008DF8040004208DF8050000208DF8060020
:103EC00001208DF8070001A805F08DFD012240F2C8
:103ED0002551934808F015F90121084607F0B7F875
:103EE00043F290009049C8618D48001D486200204F
:103EF0000862886201228021894808F027F907B00A
:103F000000BD38B58648048804F0200010B904F0DC
:103F1000080050B18248001D0088C0B20090012204
:103F200069468248FDF712FB00BF38BD10B5032378
:103F300020227F497F48FDF71DFA4FF440727E49E9
:103F40007A48FDF7E5FA4FF480627C497C48FEF739
:103F500039FAFFF77FFF10BDF0B585B0054600BF09
:103F600000270020049004A97048FDF737FB07469E
:103F700007B92CE028E000260020039002900024DE
:103F800002A903ABCDE9001039466D48049AFEF74B
:103F90002BFA064606B918E06648FDF72BFA0446E8
:103FA0001CB9304618F0D3FE0FE02660039860601D
:103FB000012020720298A072012221465D48FDF77F
:103FC00030FA0020049000BFD5E700BF00BF00BF5B
:103FD00000BF00245B480078E0B15348006800F05F
:103FE000200010B905B148E048E04D48008800F0D5
:103FF000400010B905B140E040E010204A49486057
:104000005148007A18B15049086818F0A0FE002005
:104010004C49087000214748FDF72FFA04465CB36D
:104020006068002801DD206848B9207A20B1206846
:1040300010B1206818F08BFE05B11EE01EE03A4872
:10404000C06920F001003849C861606808622068D2
:1040500088620846C06940F00100C8610120394902
:10406000087018222146384819F041F82146314895
:10407000FDF73AFA05B100E000E0AAE700BF00BF93
:10408000002401212B48FDF7F8F9044614B120461D
:1040900005B0F0BD00BF0020FAE710B5044644B1FA
:1040A000207A10B1206818F052FE21462148FDF711
:1040B0001BFA10BD10B504461CB121461D48FDF782
:1040C00013FA10BD4FF4806070472DE9F0410546AA
:1040D0000E4690461F46002415B9601EBDE8F081CB
:1040E0001448FDF787F9044614B94FF0FF30F5E79F
:1040F000256067602672002221460E48FDF791F97F
:104100000020EBE710B5044604B910BD0020A081E3
:104110000C2060812146024807F05BFF00BFF4E7F6
:1041200000480040000C014000000240B82100207F
:10413000A41B0020A41E0020B81E0020D0210020B7
:10414000D025002074000020E825002010B50020B4
:1041500046E0002141E000EB4002BD4B03EBC20210
:1041600032F92120C2EB02124FF4077303EB421223
:104170005B0092FBF3F212B200EB4003B44C04EB91
:10418000C30323F8212000EB4002234603EBC202C5
:1041900002EB8102B2F90220C2EB02124FF4077364
:1041A00003EB42125B0092FBF3F212B200EB40030E
:1041B00004EBC30303EB81035A8000EB4002234668
:1041C00003EBC20232F82120A03212B200EB40030E
:1041D00004EBC30323F82120491C0529BBD3401C51
:1041E0000328B6D3002046E0002141E000EB800226
:1041F000984B03EB820232F92120C2EB02124FF4FA
:10420000077303EB42125B0092FBF3F212B200EB76
:104210008003904C04EB830323F8212000EB800201
:10422000234603EB820202EB8102B2F90220C2EBC9
:1042300002124FF4077303EB42125B0092FBF3F29E
:1042400012B200EB800304EB830303EB81035A807B
:1042500000EB8002234603EB820232F82120A032D9
:1042600012B200EB800304EB830323F82120491CE6
:104270000429BBD3401C0328B6D3002045E000EB43
:104280004001754A32F82110C1EB01114FF4077259
:1042900002EB4111520091FBF2F100EB40026E4B38
:1042A00023F8221000EB40011A4602EB81014988F5
:1042B000C1EB01114FF4077202EB4111520091FB67
:1042C000F2F100EB400203EB8202518000EB40016F
:1042D0001A4602EB81018988C1EB01114FF4077284
:1042E00002EB4111520091FBF2F100EB400203EBB3
:1042F0008202918000EB40011A4632F82110A03171
:1043000000EB400223F82210401C0428B7D310BD54
:1043100070B56FF07F4005F086F940F2DF1340F290
:104320001F320021084605F0B7F8002429E004EB0D
:104330004401474A02EBC101897D4FF47F0202EA42
:10434000014104EB4402424B03EBC202527D4FF4A5
:104350007F4303EA0222114304EB44023C4B03EB8C
:10436000C202127D41EA020005F05DF904EB44014E
:10437000374A02EBC10000231A46052105F078F800
:10438000641C032CD3D3002429E004EB8401314ABC
:1043900002EB8101897C4FF47F0202EA014104EBC8
:1043A00084022C4B03EB8202527C4FF47F4303EADE
:1043B0000222114304EB8402264B03EB8202127C9F
:1043C00041EA020005F02FF904EB8401214A02EBD7
:1043D000810000231A46042105F04AF8641C032CCE
:1043E000D3D3002430E004EB44011B4A02EB8101EB
:1043F000897A4FF47F0202EA014104EB4402164B32
:1044000003EB8202527A4FF47F4303EA0222114304
:1044100004EB4402104B03EB8202127A41EA0200E1
:1044200005F001F904EB44030B4D05EB83039A8877
:1044300004EB440305EB8303598804EB440335F88C
:10444000230005F0EFF9641C042CCCD370BD0000F0
:1044500078000020C0000020FC00002002469142AD
:1044600001D3881A7047C2F1FF300844FAE70020F0
:1044700044498871C871704742480079704710B547
:104480000EF0D5FF3F49086010BD01203D4948713D
:10449000704702203B4948717047704710B5394852
:1044A000007900B110BD3748807910B9FFF730FFAF
:1044B00002E0002003F01CF901203249087100BF1E
:1044C000F0E710B52F48007900B910BD012003F0C6
:1044D0000FF9FFF7D4FF00202A49087108F0C3FD47
:1044E000044608F0D0FD00BFEFE770B52548C0795D
:1044F000062818DA2348C079234951F820400025BE
:1045000072B60EF094FF06461E4908683146FCF765
:1045100075F8054662B61B48007918B9A54201D363
:10452000FFF7BCFF00BF17484079012805D1FFF70E
:10453000B5FF00201349487108E01248407902286D
:1045400004D1FFF7BEFF00200E49487170BD01463F
:10455000072902DB4FF0FF3070470A48C171002085
:10456000FAE70146022902DB4FF0FF3070470548A9
:1045700081710020FAE70348C079704701488079CB
:10458000704700002C0100207CED01082DE9F04768
:1045900004460D4616461F46DDF82080301B401CA1
:1045A000791B491C00FB01F9A9B2A0B203F0ACF8D9
:1045B000B0B203F0C1F84FF430507B49088049464F
:1045C000404604F089F90AF084FC0AF07EFCBDE85C
:1045D000F0872DE9F04104460D4616461F46301B74
:1045E000401C791B491C00FB01F8A9B2A0B203F0E2
:1045F0008BF8B0B203F0A0F84FF430506A4908804D
:10460000BDF81800414604F05CF8BDE8F08130B513
:1046100087B00446A5680020019001A902A802F015
:1046200060FE9DF80410681C81420DD25F4830F88E
:10463000250000B220805D4800EB8500408800B274
:1046400060800020207112E00120207102A830F863
:104650002500564921F8250000B2208002A800EB71
:104660008500408801EB8501488000B26080FFF73B
:1046700003FF08B100202071002007B030BD10B545
:1046800004464B48007820714A4800682060FFF7D4
:10469000F3FE08B100202071002010BD454A1060D3
:1046A000434A1170704700B587B004A80EF0C4FDEE
:1046B00041480490414805900020069004A80EF05F
:1046C000C0FD01A80EF056FE01208DF804003C4804
:1046D00002900020039001A80EF051FE01200390EB
:1046E00001A80EF04CFE07B000BD10B508F0CDFFDC
:1046F000FFF7D9FF10BD10B59EB018A80FF09EFFB0
:1047000064211A9848431899B0FBF1F408461A99A5
:10471000431A22462BA108A818F040FB0020029063
:1047200002A903A802F0DDFD9DF8080078B108A8F1
:1047300018F06DFC08A94418BDF80E000090BDF8F3
:104740000C309DF8082025A1204618F027FB2948A9
:10475000006818B12748006809F006F808F083FCE3
:104760000446002114F08BF92249086008460068CD
:1047700070B108A91F48006813F087FF6FF031007F
:1047800000231A46194600901A48006809F02AF9D1
:104790001EB010BD10B501200EF040FE10BD10B5CA
:1047A0000FF0C4FF10BD0000FE07006C00260020C3
:1047B00038010020340100208D450008D345000851
:1047C0000F460008667265653A20256425252C2071
:1047D0007573696E673A2025640000003B20633AD8
:1047E0002025642C20783A2025642C20793A202535
:1047F000640000003C01002030B50446202901D2AD
:10480000002030BD80290AD2554AA1F1200000EBDA
:10481000C00303EB801002EB4002901CF1E7C1F3F0
:104820000722CBB2812A01DBD72A01DD0020E8E78D
:10483000812B01DBDE2A01DD0020E2E742F22000CD
:104840000144484A484B07E010888DB2A84201D184
:10485000901CD6E702F591729A42F5D3981CD0E7E6
:1048600010B50446802903D21F2901D90C2010BDA0
:10487000C1F30722CBB2812A01DBD72A02DD4FF038
:10488000FF30F4E7812B01DBDE2A02DD4FF0FF3041
:10489000EDE71820EBE72DE9F04780460F46B8F129
:1048A000000F00D017B90020BDE8F087002F03DA11
:1048B000404618F0ACFB07467F2F01DD0020F3E7F0
:1048C000464608EB0709294D43E0307840B20028FE
:1048D00002DD3478761C0BE03078203884B24FF655
:1048E000FF7000EA042470782038204384B2B61C9C
:1048F000802C02DA2C706D1C20E0B4F5006F0BDA0E
:10490000C4F3841040F0C000287004F03F0040F071
:1049100080006870AD1C11E0B4F5803F0EDAE02035
:1049200040EA14302870C4F3851040F080006870AD
:1049300004F03F0040F08000A870ED1C0B48281ADE
:104940007F2805DD4FF0FF3109A0FFF7A4FFABE79B
:1049500000BF4E45B9D3002028700448A4E70000EA
:1049600098ED0108C62302083474020814260020BA
:10497000D7D6B7FBB9FDB3A40000000001460A2951
:1049800001DA08467047802904DB822902DAA1F1A6
:104990007600F7E74FF0FF30F4E700B502460B462C
:1049A0001046FFF7EBFF82B20C2A00DA13B94FF082
:1049B000FF3000BDF948805C18700020F9E700B5B1
:1049C00002460B461046FFF7D9FF82B20C2A01DAE5
:1049D000072B02DB4FF0FF3000BDF048835400206E
:1049E000FAE702460020704770B504460A252A46B9
:1049F000EA49204618F036FB70BD30B50546002464
:104A000004E0295DA0B2FFF7DAFF641C0A2CF8DB92
:104A100030BD03B502461046FFF7B0FF82B20C2A44
:104A200002DB4FF0FF300CBDDC48183800EB4200D1
:104A3000BDF8041001800020F5E702460020704711
:104A400000B502460B461046FFF798FF82B20C2ACB
:104A500000DA13B94FF0FF3000BDD048183800EB32
:104A60004200008818800020F6E770B5044614253F
:104A70002A46CA491839204618F0F4FA70BD38B5EC
:104A80000546002407E005EB44010988A0B2009127
:104A9000FFF7BFFF641C0A2CF5DB38BD00B50246EA
:104AA0000B461046FFF76AFF82B20C2A02DB4FF07A
:104AB000FF3000BDBA4883540020FAE70246022ABC
:104AC00000DA11B94FF0FF307047B4480C30805C09
:104AD00008700020F8E70246022A02DB4FF0FF30A0
:104AE0007047AE480C3081540020F9E702460020A0
:104AF000704710B50446002304E0E11898B2FFF7B0
:104B0000DDFF5B1C022BF8DB10BD10B50446002353
:104B100004E0E15C98B2FFF7DEFF5B1C022BF8DBE0
:104B200010BD9E48183890F82600704701469B48F3
:104B3000183880F826100020704701460020704782
:104B40009648183890F8270070470146934818385F
:104B500080F8271000207047014600207047024669
:104B60000020704700207047002070470146002059
:104B7000704701460020704710B504462046FFF7F5
:104B8000E6FC002010BD10B504462046FFF7E9FC06
:104B9000002010BD0246092A07DC052A05DB21B1E9
:104BA0007F48805C0870002070474FF0FF30FBE7C3
:104BB000014639B17B48007C7B4A52F820000860EE
:104BC000002070474FF0FF30FBE7014621B17748E6
:104BD000007A0870002070474FF0FF30FBE7014675
:104BE00021B17248407A0870002070474FF0FF30C2
:104BF000FBE70246092A05DC052A03DB68488154E5
:104C0000002070474FF0FF30FBE731B500240FE084
:104C1000654800EB84010422684618F0A8F930B911
:104C200060490C740098FEF7CDFE002038BD641C6E
:104C3000042CEDDB4FF0FF30F8E710B504465B487D
:104C400004722046FEF7C9FE002010BD10B50446D0
:104C5000564844722046FEF7C7FE002010BD0146AC
:104C600011B94FF0FF3070475148007A08700020AA
:104C7000F9E7014611B94FF0FF3070474C48407AD0
:104C800008700020F9E710B50446072C02DB4FF04E
:104C9000FF3010BD464804722046FFF76DFF00202C
:104CA000F7E710B50446022C02DB4FF0FF3010BDD1
:104CB0003F4844722046FFF766FF0020F7E770B5D3
:104CC000054628460AF0D4F80446206908F04CFD51
:104CD00060690FF00DFC002020616061A061284632
:104CE0000FF006FC70BD2DE9F04397B00646304644
:104CF00015F01FFB85B2304609F0BDF9044694F863
:104D0000280028B9E06898B1E06802F0A0F978B10D
:104D10002068B04206D1606820B129B2606802F014
:104D20007CF905E0206818B129B2206802F075F915
:104D3000606828B9E8B28DF859008DF8580015E080
:104D40002068B04209D1E8B28DF85800606815F0CB
:104D5000F0FAC0B28DF8590008E0E8B28DF85900B9
:104D6000206815F0E6FAC0B28DF85800A07F1699B9
:104D7000FFF74FFEA07F1699FEF767FD00BFA06901
:104D8000002870D1304608F065F90746002113F07D
:104D900076FE2061206968B927E10000AC29002077
:104DA000D8010020280200206C7902083C02002073
:104DB0008C2C00203C200FF07EFB6061606928B9DC
:104DC000206908F0D1FC002020610EE127693846F7
:104DD00008F091FA80464146606909F0A0FED4E9E6
:104DE00004784146384608F0DEF900BF08A861693A
:104DF00009F095FE00218DF84C1060690390606900
:104E0000019008A802904FF60C60ADF816004FF420
:104E1000FA60ADF814009DF81C0020F001008DF838
:104E20001C000020ADF818009DF81C0020F00200C6
:104E30008DF81C000020ADF81A00AFF27D10049030
:104E4000214601A809F0CEFFA061A06950B92069F0
:104E500008F08AFC60690FF04BFB00202061606164
:104E6000C3E000E000BFEDB2A069002871D0A07FD0
:104E7000052825D006DC05286CD2DFE800F01011EB
:104E800012131400082866D004DC062832D0072844
:104E90007FD149E080286BD081287AD169E000BFBA
:104EA00000BF00BF00BFFC4951F8250019F04EFAC1
:104EB00007463A460B46F9A10FA817F06FFF6EE0C0
:104EC000DFF8E093284619F0CFFA80464FF07C5186
:104ED00019F0DEFA0746494619F064FA8146484659
:104EE00019F034FA07463A460B46ECA10FA817F022
:104EF00055FF54E0DFF8B093284619F0B5FA804624
:104F00004FF07C5119F0C4FA0746494619F04AFAA5
:104F10008146484619F01AFA07463A460B46DFA181
:104F20000FA817F03BFF3AE04FF00008C5F3470722
:104F3000302F04DADDA10FA817F030FF03E0A7F14E
:104F400079004FFA80F84246DAA10FA817F026FF41
:104F500025E049E01DE0D04951F8250019F0F6F9A7
:104F600007463A460B46CDA10FA817F017FF16E0EB
:104F700000BF05EBC50000EB0510802101EB8000B0
:104F8000FF2190FBF1F73A46CCA10FA817F006FFDE
:104F900005E02A46C7A10FA817F000FF00BF00BF19
:104FA0001DB9C2A10FA817F0F9FE0FA9206913F0CF
:104FB0006CFBE06848B16FF06300009000230A22A8
:104FC000A168206908F00EFD07E00A200090002388
:104FD0000D22A168206908F005FD0023B84A194692
:104FE000A0690EF02FFB00BF00BF00BF012017B06B
:104FF000BDE8F08370B50446204609F03CF805464C
:10500000204602F024F80646A87F3146FFF746FD09
:10501000012070BD70B50546284609F02CF80446FD
:10502000284612F084FF216A0E5CA07F3146FFF70C
:10503000C6FC284612F07BFF216A0E5CA07F314639
:10504000FEF7C8FB012070BD70B5044614B94FF0DF
:10505000FF3070BDA06968B10021A0690EF0A9FA07
:10506000A0690FF045FA0020A06160690FF040FAD6
:10507000002060612646002507E056F8250018B19B
:1050800056F8250007F071FA6D1C042DF5D30020A9
:10509000DFE72DE9FF4F99B0884617461C46DDE94A
:1050A000289A2CB1199818B1279808B12A9820B9D4
:1050B0004FF0FF301DB0BDE8F08FB7F5487F02DD3F
:1050C0004FF0FF30F6E72C21204618F06CF8B9F1CC
:1050D000070F01DD4FF00709A7832698A07784F812
:1050E0001F9027982062C4F824A000208DF80400A7
:1050F00000260DE01EB173A101A817F0A7FF206ADA
:10510000825D2A9850F8221001A817F09FFF761CA4
:105110004E45EFD30021199812F097FD054605B9C9
:10512000D2E0A56040F23B1239B2284608F08FF871
:105130004FF0FF3101A8FFF7AEFB834659462846E2
:1051400012F0D5FA0121284612F0D9FE284608F0BF
:1051500060FF0121D0F828B0584613F0EAFA28463B
:1051600008F057FF0121D0F828B0584613F058FB3B
:10517000284608F04EFF6421D0F828B0584608F0C1
:1051800017FC0021199815F0EBFC054605B99BE0CA
:105190004FF480727821284608F0D4FBFF220021CA
:1051A000284601F042FF02220621284615F094FD10
:1051B0000121284615F067FD0121284615F072FDF2
:1051C0006FF01300009000230A222846A16808F01F
:1051D00009FC2560012084F828000021199813F0AB
:1051E0004EFC064606B96FE00121304613F0A1FAE5
:1051F000BAF1000F0FD131A111A8269A17F0CEFDF8
:105200004FF0FF3111A8FFF746FB83465946304661
:1052100013F03BFA09E04FF0FF315046FFF73BFB3C
:1052200083465946304613F030FA6FF48E70009082
:1052300000230A223046A16808F0D4FBAFF259518E
:10524000206815F017FDAFF23321A06812F0EDFDD4
:105250000121A06808F0B2FDA346002610E05BF82B
:10526000260060B15BF82600214608F0EDFDB8F19C
:10527000000F04D05BF82610404607F064F9761C56
:10528000042EECD38021206808F0DCFD8221A06888
:1052900008F0D8FD00200DE758750208252E31666C
:1052A000444200000000CFC20000FFC26D7574656B
:1052B0000000000025644442000000002564000056
:1052C0000CFEFFFF0A0000004FF0FF30F2E62DE970
:1052D000FF4F99B0884616461C46DDE9289A1CB156
:1052E000199808B1279820B94FF0FF301DB0BDE8DC
:1052F000F08FB6F5487F02DD4FF0FF30F6E72C2146
:10530000204617F050FFB9F1070F01DD4FF00709F4
:10531000A6832698A07784F81F9027982062C4F867
:1053200024A000208DF8040000270EE027B1AFF282
:105330006C0101A817F08AFE206AC05DFD4A52F890
:10534000201001A817F082FE7F1C4F45EED30021EC
:10535000199812F07AFC054605B92AE1A5604FF4C8
:10536000917231B2284607F072FF4FF0FF3101A869
:10537000FFF791FA83465946284612F0B8F9012101
:10538000284612F0BCFD284608F043FE0121D0F863
:1053900028B0584613F0CDF9284608F03AFE01210E
:1053A000D0F828B0584613F03BFA284608F031FEF2
:1053B0009621D0F828B0584608F0FAFA002119983A
:1053C00015F0CEFB054605B9F3E04FF480723C21A1
:1053D000284608F0B7FAFF220021284601F025FEF2
:1053E00002220321284615F077FC0121284615F0FA
:1053F0004AFC0121284615F055FC6FF0130000907F
:10540000002309222846A16808F0ECFA25602168EB
:10541000199815F0A5FB054605B9CAE06FF0130011
:10542000009000230B222846A16808F0DBFA656093
:105430004FF0000B0021199815F0CDFD074607B974
:10544000B7E002220321384615F046FC37225421EA
:10545000384608F077FA0F2000906FF009030C220D
:105460003846A16808F0BEFAE7600021199813F0E9
:1054700006FB83464FF0FF31AFA0FFF70CFA014661
:105480001890584613F001F9352000900A2306229F
:105490005846A16808F0A6FA2A98E8B1384615F0EF
:1054A000D9FC0021384608F080FCA64A0021384685
:1054B00015F08AFCA34A3C320121384615F084FCE1
:1054C000A04A78320221384615F07EFC9D4A783297
:1054D0000321384615F078FC2A9884F8280000212A
:1054E000199813F0CCFA074607B962E00121384653
:1054F00013F01FF9BAF1000F10D1AFF2402111A83B
:10550000269A17F04BFC4FF0FF3111A8FFF7C3F9B3
:1055100083465946384613F0B8F809E04FF0FF319A
:105520005046FFF7B8F983465946384613F0ADF8B0
:105530008548009000230A223846A16808F052FAF4
:105540000121A06808F03AFCAFF66501206815F06B
:1055500091FBAFF66D01606815F08CFBAFF26B51FB
:10556000E06801F06CFDAFF25351A06812F05DFCF1
:10557000A34600270DE05BF82700214608F064FCF5
:10558000B8F1000F04D05BF82710404606F0DBFFAF
:105590007F1C042FEFD38021206808F053FC80216A
:1055A000606808F04FFC8221A06808F04BFC0020E6
:1055B0009CE64FF0FF3099E62DE9F04106460D4696
:1055C000304607F047FD0746384608F054FD0446CC
:1055D000A06810B90020BDE8F0815C49284617F0AA
:1055E000B4FC20B1207C0021FEF7BDF903E0207C53
:1055F0000121FEF7B8F9A06840B1A06806F0B5FF38
:105600000020A0606421384613F01EFE0020E2E76F
:105610002DE9F04186B00646304607F01BFD0746EF
:105620000021384613F09AFD0546304608F023FD68
:105630000446304612F07BFC207445480068C0B92F
:105640004FF0FF3143A0FFF726F9804641463F481F
:1056500017F0B9FC4FF0FF3140A0FFF71CF980466E
:105660004146404817F0AFFC3848394908603D488A
:10567000486000223649284613F027FE00200346E2
:10568000012231460090284608F0ACF9207C421CEB
:1056900035A102A817F082FB4FF0FF3102A8FFF7F7
:1056A000FAF880464146284613F04FFEAFF2F70164
:1056B000284613F059FE2146284608F0C5FBA56090
:1056C000304607F015FE48B1304607F011FE80461F
:1056D000294606F038FF284606F06FFF012006B085
:1056E000BDE8F08110B5044614B94FF0FF3010BD8D
:1056F000206806F03AFF606806F037FFA06810B136
:10570000A06806F032FF0020F1E710B50446FEF76E
:1057100053F9012010BD2DE9FF4FA9B00F46904667
:105720009946369C0CB1299810BB4FF0FF302DB034
:10573000BDE8F08F68010020CDB3D2BBD2F4C1BF69
:10574000000000009C260020FCFEFFFF982C00209B
:1057500054020020D4D8C8EB00000000B1A3B4E686
:1057600000000000B82C0020B4E6B4A225640000BC
:10577000B8F5487F02DAB9F5F07F04DB4FF0FF306F
:105780002DB0BDE8F08F1421204617F00CFD00214C
:10579000299813F074F905464FF0FF31FEA0FFF78A
:1057A0007AF806463146284612F06FFF0FFA89F262
:1057B0000FFA88F1284607F04AFDE56000208DF8D1
:1057C000240000260FE0721CF6A101A817F0E6FAEB
:1057D00026B1AFF2105109A817F038FC01A909A8A9
:1057E00017F034FC761C082EEDDB0021299812F00E
:1057F0002CFA05464FF0FF3109A8FFF74CF8824616
:105800005146284611F073FFAFF2FB11284612F003
:105810000CFB1420009000230C222846E16808F0BD
:10582000E1F80121284608F0C9FA256000212998ED
:1058300010F06FF905462E464FF0010A4FF0000BAD
:105840005A465146304611F011FE00BF206808F05C
:1058500069F806463146284608F0B7F86560002129
:10586000606813F00CF905464FF0FF31CFA0FFF749
:1058700012F806463146284612F007FF0020009035
:1058800041231222D4E9001008F0ACF8AFF28512DF
:105890000021606810F018FA3FB13846216806F020
:1058A00052FE3846616806F04EFE2146206808F038
:1058B000CBFA2146606808F0C7FA8121606808F0D9
:1058C000C1FA8221206808F0BDFA002058E72DE9CE
:1058D000F0410546284608F0CEFB0646002416E0B7
:1058E00056F82400A84210D1284601F0B0FB074624
:1058F00039462046FFF7EFF8284601F0A8FB074697
:1059000039462046FDF7D4FF03E0601C84B2022C28
:10591000E6DB00BF0120BDE8F0812DE9F04F89B042
:105920008246884616461F46DDF84890B9F1000FBA
:1059300002D0BAF1000F04D14FF0FF3009B0BDE83A
:10594000F08FB6F5487F02DAB7F5F07F02DB4FF053
:10595000FF30F3E70021504613F091F804464FF072
:10596000FF3194A0FEF797FF05462946204612F026
:105970008CFE3AB231B2204607F069FC00254BE0BC
:105980006A1C8FA101A817F009FA0021504615F0F2
:1059900022FB044637225421204607F0D3FF02227F
:1059A0000321204615F098F9C5EB051000EB4000E7
:1059B00006EB800001B207F1320002B2204607F088
:1059C00046FC49F82540B8F1000F03D02146404677
:1059D00006F0B9FDAFF20911204601F030FB49464F
:1059E000204608F031FA0021504613F048F883466B
:1059F0004FF0FF3101A8FEF74EFF014600905846D8
:105A000012F043FE00200A2313222146009058463C
:105A100007F0E8FF681C85B2022DB1DB00208DE79E
:105A200038B5054615B94FF0FF3038BD00241BE0EE
:105A30000020009069462046FFF740F855F8240002
:105A400001F005FB9DF8001088420BD09DF8000086
:105A500020B155F8240015F0FDF903E055F82400B5
:105A600015F0E8F9601C84B2022CE1DB0020DCE7D1
:105A70002DE9F0410646304608F0FDFA07460024BD
:105A80001BE057F82400B04215D1FFF74AF805464D
:105A9000304601F0DCFA20B10120A0402843C5B215
:105AA00002E00120A04085432846FFF73FF8284642
:105AB000FDF72AFF03E0601C84B2052CE1DB00BF88
:105AC0000120BDE8F0812DE9F04F8BB08246884679
:105AD00016461F46DDF85090B9F1000F02D0BAF11A
